{
  "_format": "hh-sol-artifact-1",
  "contractName": "SXP",
  "sourceName": "contracts/SXP.sol",
  "abi": [
    {
      "inputs": [
        {
          "internalType": "address",
          "name": "_treasury",
          "type": "address"
        }
      ],
      "stateMutability": "nonpayable",
      "type": "constructor"
    },
    {
      "inputs": [
        {
          "internalType": "address",
          "name": "spender",
          "type": "address"
        },
        {
          "internalType": "uint256",
          "name": "allowance",
          "type": "uint256"
        },
        {
          "internalType": "uint256",
          "name": "needed",
          "type": "uint256"
        }
      ],
      "name": "ERC20InsufficientAllowance",
      "type": "error"
    },
    {
      "inputs": [
        {
          "internalType": "address",
          "name": "sender",
          "type": "address"
        },
        {
          "internalType": "uint256",
          "name": "balance",
          "type": "uint256"
        },
        {
          "internalType": "uint256",
          "name": "needed",
          "type": "uint256"
        }
      ],
      "name": "ERC20InsufficientBalance",
      "type": "error"
    },
    {
      "inputs": [
        {
          "internalType": "address",
          "name": "approver",
          "type": "address"
        }
      ],
      "name": "ERC20InvalidApprover",
      "type": "error"
    },
    {
      "inputs": [
        {
          "internalType": "address",
          "name": "receiver",
          "type": "address"
        }
      ],
      "name": "ERC20InvalidReceiver",
      "type": "error"
    },
    {
      "inputs": [
        {
          "internalType": "address",
          "name": "sender",
          "type": "address"
        }
      ],
      "name": "ERC20InvalidSender",
      "type": "error"
    },
    {
      "inputs": [
        {
          "internalType": "address",
          "name": "spender",
          "type": "address"
        }
      ],
      "name": "ERC20InvalidSpender",
      "type": "error"
    },
    {
      "inputs": [
        {
          "internalType": "address",
          "name": "owner",
          "type": "address"
        }
      ],
      "name": "OwnableInvalidOwner",
      "type": "error"
    },
    {
      "inputs": [
        {
          "internalType": "address",
          "name": "account",
          "type": "address"
        }
      ],
      "name": "OwnableUnauthorizedAccount",
      "type": "error"
    },
    {
      "anonymous": false,
      "inputs": [
        {
          "indexed": true,
          "internalType": "address",
          "name": "owner",
          "type": "address"
        },
        {
          "indexed": true,
          "internalType": "address",
          "name": "spender",
          "type": "address"
        },
        {
          "indexed": false,
          "internalType": "uint256",
          "name": "value",
          "type": "uint256"
        }
      ],
      "name": "Approval",
      "type": "event"
    },
    {
      "anonymous": false,
      "inputs": [
        {
          "indexed": true,
          "internalType": "address",
          "name": "user",
          "type": "address"
        },
        {
          "indexed": false,
          "internalType": "uint256",
          "name": "sxpAmount",
          "type": "uint256"
        },
        {
          "indexed": false,
          "internalType": "uint256",
          "name": "sxcpAmount",
          "type": "uint256"
        },
        {
          "indexed": false,
          "internalType": "uint256",
          "name": "feeAmount",
          "type": "uint256"
        }
      ],
      "name": "ConvertedToSXCP",
      "type": "event"
    },
    {
      "anonymous": false,
      "inputs": [
        {
          "indexed": true,
          "internalType": "address",
          "name": "minter",
          "type": "address"
        },
        {
          "indexed": false,
          "internalType": "bool",
          "name": "isMinter",
          "type": "bool"
        }
      ],
      "name": "MinterUpdated",
      "type": "event"
    },
    {
      "anonymous": false,
      "inputs": [
        {
          "indexed": true,
          "internalType": "address",
          "name": "previousOwner",
          "type": "address"
        },
        {
          "indexed": true,
          "internalType": "address",
          "name": "newOwner",
          "type": "address"
        }
      ],
      "name": "OwnershipTransferred",
      "type": "event"
    },
    {
      "anonymous": false,
      "inputs": [
        {
          "indexed": true,
          "internalType": "address",
          "name": "newSXCP",
          "type": "address"
        }
      ],
      "name": "SXCPTokenUpdated",
      "type": "event"
    },
    {
      "anonymous": false,
      "inputs": [
        {
          "indexed": true,
          "internalType": "address",
          "name": "from",
          "type": "address"
        },
        {
          "indexed": true,
          "internalType": "address",
          "name": "to",
          "type": "address"
        },
        {
          "indexed": false,
          "internalType": "uint256",
          "name": "value",
          "type": "uint256"
        }
      ],
      "name": "Transfer",
      "type": "event"
    },
    {
      "anonymous": false,
      "inputs": [
        {
          "indexed": true,
          "internalType": "address",
          "name": "newTreasury",
          "type": "address"
        }
      ],
      "name": "TreasuryUpdated",
      "type": "event"
    },
    {
      "inputs": [
        {
          "internalType": "address",
          "name": "owner",
          "type": "address"
        },
        {
          "internalType": "address",
          "name": "spender",
          "type": "address"
        }
      ],
      "name": "allowance",
      "outputs": [
        {
          "internalType": "uint256",
          "name": "",
          "type": "uint256"
        }
      ],
      "stateMutability": "view",
      "type": "function"
    },
    {
      "inputs": [
        {
          "internalType": "address",
          "name": "spender",
          "type": "address"
        },
        {
          "internalType": "uint256",
          "name": "value",
          "type": "uint256"
        }
      ],
      "name": "approve",
      "outputs": [
        {
          "internalType": "bool",
          "name": "",
          "type": "bool"
        }
      ],
      "stateMutability": "nonpayable",
      "type": "function"
    },
    {
      "inputs": [
        {
          "internalType": "address",
          "name": "account",
          "type": "address"
        }
      ],
      "name": "balanceOf",
      "outputs": [
        {
          "internalType": "uint256",
          "name": "",
          "type": "uint256"
        }
      ],
      "stateMutability": "view",
      "type": "function"
    },
    {
      "inputs": [
        {
          "internalType": "uint256",
          "name": "amount",
          "type": "uint256"
        }
      ],
      "name": "convertToSXCP",
      "outputs": [],
      "stateMutability": "nonpayable",
      "type": "function"
    },
    {
      "inputs": [],
      "name": "decimals",
      "outputs": [
        {
          "internalType": "uint8",
          "name": "",
          "type": "uint8"
        }
      ],
      "stateMutability": "view",
      "type": "function"
    },
    {
      "inputs": [
        {
          "internalType": "address",
          "name": "",
          "type": "address"
        }
      ],
      "name": "isMinter",
      "outputs": [
        {
          "internalType": "bool",
          "name": "",
          "type": "bool"
        }
      ],
      "stateMutability": "view",
      "type": "function"
    },
    {
      "inputs": [
        {
          "internalType": "address",
          "name": "to",
          "type": "address"
        },
        {
          "internalType": "uint256",
          "name": "amount",
          "type": "uint256"
        }
      ],
      "name": "mint",
      "outputs": [],
      "stateMutability": "nonpayable",
      "type": "function"
    },
    {
      "inputs": [],
      "name": "name",
      "outputs": [
        {
          "internalType": "string",
          "name": "",
          "type": "string"
        }
      ],
      "stateMutability": "view",
      "type": "function"
    },
    {
      "inputs": [],
      "name": "owner",
      "outputs": [
        {
          "internalType": "address",
          "name": "",
          "type": "address"
        }
      ],
      "stateMutability": "view",
      "type": "function"
    },
    {
      "inputs": [],
      "name": "renounceOwnership",
      "outputs": [],
      "stateMutability": "nonpayable",
      "type": "function"
    },
    {
      "inputs": [
        {
          "internalType": "address",
          "name": "minter",
          "type": "address"
        },
        {
          "internalType": "bool",
          "name": "_isMinter",
          "type": "bool"
        }
      ],
      "name": "setMinter",
      "outputs": [],
      "stateMutability": "nonpayable",
      "type": "function"
    },
    {
      "inputs": [
        {
          "internalType": "address",
          "name": "_sxcpToken",
          "type": "address"
        }
      ],
      "name": "setSXCPToken",
      "outputs": [],
      "stateMutability": "nonpayable",
      "type": "function"
    },
    {
      "inputs": [
        {
          "internalType": "address",
          "name": "_treasury",
          "type": "address"
        }
      ],
      "name": "setTreasury",
      "outputs": [],
      "stateMutability": "nonpayable",
      "type": "function"
    },
    {
      "inputs": [],
      "name": "sxcpToken",
      "outputs": [
        {
          "internalType": "contract SXCP",
          "name": "",
          "type": "address"
        }
      ],
      "stateMutability": "view",
      "type": "function"
    },
    {
      "inputs": [],
      "name": "symbol",
      "outputs": [
        {
          "internalType": "string",
          "name": "",
          "type": "string"
        }
      ],
      "stateMutability": "view",
      "type": "function"
    },
    {
      "inputs": [],
      "name": "totalSupply",
      "outputs": [
        {
          "internalType": "uint256",
          "name": "",
          "type": "uint256"
        }
      ],
      "stateMutability": "view",
      "type": "function"
    },
    {
      "inputs": [
        {
          "internalType": "address",
          "name": "to",
          "type": "address"
        },
        {
          "internalType": "uint256",
          "name": "value",
          "type": "uint256"
        }
      ],
      "name": "transfer",
      "outputs": [
        {
          "internalType": "bool",
          "name": "",
          "type": "bool"
        }
      ],
      "stateMutability": "nonpayable",
      "type": "function"
    },
    {
      "inputs": [
        {
          "internalType": "address",
          "name": "from",
          "type": "address"
        },
        {
          "internalType": "address",
          "name": "to",
          "type": "address"
        },
        {
          "internalType": "uint256",
          "name": "value",
          "type": "uint256"
        }
      ],
      "name": "transferFrom",
      "outputs": [
        {
          "internalType": "bool",
          "name": "",
          "type": "bool"
        }
      ],
      "stateMutability": "nonpayable",
      "type": "function"
    },
    {
      "inputs": [
        {
          "internalType": "address",
          "name": "newOwner",
          "type": "address"
        }
      ],
      "name": "transferOwnership",
      "outputs": [],
      "stateMutability": "nonpayable",
      "type": "function"
    },
    {
      "inputs": [],
      "name": "treasury",
      "outputs": [
        {
          "internalType": "address",
          "name": "",
          "type": "address"
        }
      ],
      "stateMutability": "view",
      "type": "function"
    }
  ],
  "bytecode": "0x60806040523480156200001157600080fd5b50604051620011c1380380620011c18339810160408190526200003491620001aa565b336040518060400160405280601181526020017029ac10283937ba37b1b7b6102a37b5b2b760791b8152506040518060400160405280600381526020016205358560ec1b81525081600390816200008c919062000283565b5060046200009b828262000283565b5050506001600160a01b038116620000ce57604051631e4fbdf760e01b8152600060048201526024015b60405180910390fd5b620000d98162000158565b506001600160a01b038116620001325760405162461bcd60e51b815260206004820152601d60248201527f5358503a20496e76616c696420747265617375727920616464726573730000006044820152606401620000c5565b600680546001600160a01b0319166001600160a01b03929092169190911790556200034f565b600580546001600160a01b038381166001600160a01b0319831681179093556040519116919082907f8be0079c531659141344cd1fd0a4f28419497f9722a3daafe3b4186f6b6457e090600090a35050565b600060208284031215620001bd57600080fd5b81516001600160a01b0381168114620001d557600080fd5b9392505050565b634e487b7160e01b600052604160045260246000fd5b600181811c908216806200020757607f821691505b6020821081036200022857634e487b7160e01b600052602260045260246000fd5b50919050565b601f8211156200027e576000816000526020600020601f850160051c81016020861015620002595750805b601f850160051c820191505b818110156200027a5782815560010162000265565b5050505b505050565b81516001600160401b038111156200029f576200029f620001dc565b620002b781620002b08454620001f2565b846200022e565b602080601f831160018114620002ef5760008415620002d65750858301515b600019600386901b1c1916600185901b1785556200027a565b600085815260208120601f198616915b828110156200032057888601518255948401946001909101908401620002ff565b50858210156200033f5787850151600019600388901b60f8161c191681555b5050505050600190811b01905550565b610e62806200035f6000396000f3fe608060405234801561001057600080fd5b506004361061012c5760003560e01c8063715018a6116100ad578063cf456ae711610071578063cf456ae71461028c578063da9443f81461029f578063dd62ed3e146102b2578063f0f44260146102eb578063f2fde38b146102fe57600080fd5b8063715018a6146102355780638da5cb5b1461023d57806395d89b411461024e578063a9059cbb14610256578063aa271e1a1461026957600080fd5b8063313ce567116100f4578063313ce567146101ac578063380991ee146101bb57806340c10f19146101ce57806361d027b3146101e157806370a082311461020c57600080fd5b806306fdde0314610131578063095ea7b31461014f57806318160ddd1461017257806323b872dd14610184578063259c95e414610197575b600080fd5b610139610311565b6040516101469190610c02565b60405180910390f35b61016261015d366004610c6d565b6103a3565b6040519015158152602001610146565b6002545b604051908152602001610146565b610162610192366004610c97565b6103bd565b6101aa6101a5366004610cd3565b6103e1565b005b60405160128152602001610146565b6101aa6101c9366004610cec565b610595565b6101aa6101dc366004610c6d565b61063d565b6006546101f4906001600160a01b031681565b6040516001600160a01b039091168152602001610146565b61017661021a366004610cec565b6001600160a01b031660009081526020819052604090205490565b6101aa6106aa565b6005546001600160a01b03166101f4565b6101396106be565b610162610264366004610c6d565b6106cd565b610162610277366004610cec565b60086020526000908152604090205460ff1681565b6101aa61029a366004610d0e565b6106db565b6007546101f4906001600160a01b031681565b6101766102c0366004610d4a565b6001600160a01b03918216600090815260016020908152604080832093909416825291909152205490565b6101aa6102f9366004610cec565b610742565b6101aa61030c366004610cec565b6107ea565b60606003805461032090610d7d565b80601f016020809104026020016040519081016040528092919081815260200182805461034c90610d7d565b80156103995780601f1061036e57610100808354040283529160200191610399565b820191906000526020600020905b81548152906001019060200180831161037c57829003601f168201915b5050505050905090565b6000336103b1818585610828565b60019150505b92915050565b6000336103cb85828561083a565b6103d68585856108b9565b506001949350505050565b6007546001600160a01b031661043e5760405162461bcd60e51b815260206004820152601760248201527f5358503a205358435020746f6b656e206e6f742073657400000000000000000060448201526064015b60405180910390fd5b3360009081526020819052604090205481111561049d5760405162461bcd60e51b815260206004820152601d60248201527f5358503a20496e73756666696369656e74205358502062616c616e63650000006044820152606401610435565b600060646104ac83600c610dcd565b6104b69190610de4565b905060006104c48284610e06565b6006549091506104df9033906001600160a01b0316846108b9565b6104e93382610918565b6007546040516340c10f1960e01b8152336004820152602481018390526001600160a01b03909116906340c10f1990604401600060405180830381600087803b15801561053557600080fd5b505af1158015610549573d6000803e3d6000fd5b505060408051868152602081018590529081018590523392507f7e709ce9d8657a630f29f92f9bc4dfa577c97d3615218e922e9fd336bb6ee49e915060600160405180910390a2505050565b61059d61094e565b6001600160a01b0381166105f35760405162461bcd60e51b815260206004820152601960248201527f5358503a20496e76616c696420535843502061646472657373000000000000006044820152606401610435565b600780546001600160a01b0319166001600160a01b0383169081179091556040517f1672dab84164d8bc39c927a690c129d0cdbefc3a80ff3e8ca6a6cf0eab4b853490600090a250565b3360009081526008602052604090205460ff1661069c5760405162461bcd60e51b815260206004820152601b60248201527f5358503a2043616c6c6572206973206e6f742061206d696e74657200000000006044820152606401610435565b6106a6828261097b565b5050565b6106b261094e565b6106bc60006109b1565b565b60606004805461032090610d7d565b6000336103b18185856108b9565b6106e361094e565b6001600160a01b038216600081815260086020908152604091829020805460ff191685151590811790915591519182527fb21afb9ce9be0a676f8f317ff0ca072fb89a4f8ce2d1b6fe80f8755c14f1cb19910160405180910390a25050565b61074a61094e565b6001600160a01b0381166107a05760405162461bcd60e51b815260206004820152601d60248201527f5358503a20496e76616c696420747265617375727920616464726573730000006044820152606401610435565b600680546001600160a01b0319166001600160a01b0383169081179091556040517f7dae230f18360d76a040c81f050aa14eb9d6dc7901b20fc5d855e2a20fe814d190600090a250565b6107f261094e565b6001600160a01b03811661081c57604051631e4fbdf760e01b815260006004820152602401610435565b610825816109b1565b50565b6108358383836001610a03565b505050565b6001600160a01b038381166000908152600160209081526040808320938616835292905220546000198110156108b357818110156108a457604051637dc7a0d960e11b81526001600160a01b03841660048201526024810182905260448101839052606401610435565b6108b384848484036000610a03565b50505050565b6001600160a01b0383166108e357604051634b637e8f60e11b815260006004820152602401610435565b6001600160a01b03821661090d5760405163ec442f0560e01b815260006004820152602401610435565b610835838383610ad8565b6001600160a01b03821661094257604051634b637e8f60e11b815260006004820152602401610435565b6106a682600083610ad8565b6005546001600160a01b031633146106bc5760405163118cdaa760e01b8152336004820152602401610435565b6001600160a01b0382166109a55760405163ec442f0560e01b815260006004820152602401610435565b6106a660008383610ad8565b600580546001600160a01b038381166001600160a01b0319831681179093556040519116919082907f8be0079c531659141344cd1fd0a4f28419497f9722a3daafe3b4186f6b6457e090600090a35050565b6001600160a01b038416610a2d5760405163e602df0560e01b815260006004820152602401610435565b6001600160a01b038316610a5757604051634a1406b160e11b815260006004820152602401610435565b6001600160a01b03808516600090815260016020908152604080832093871683529290522082905580156108b357826001600160a01b0316846001600160a01b03167f8c5be1e5ebec7d5bd14f71427d1e84f3dd0314c0f7b2291e5b200ac8c7c3b92584604051610aca91815260200190565b60405180910390a350505050565b6001600160a01b038316610b03578060026000828254610af89190610e19565b90915550610b759050565b6001600160a01b03831660009081526020819052604090205481811015610b565760405163391434e360e21b81526001600160a01b03851660048201526024810182905260448101839052606401610435565b6001600160a01b03841660009081526020819052604090209082900390555b6001600160a01b038216610b9157600280548290039055610bb0565b6001600160a01b03821660009081526020819052604090208054820190555b816001600160a01b0316836001600160a01b03167fddf252ad1be2c89b69c2b068fc378daa952ba7f163c4a11628f55a4df523b3ef83604051610bf591815260200190565b60405180910390a3505050565b60006020808352835180602085015260005b81811015610c3057858101830151858201604001528201610c14565b506000604082860101526040601f19601f8301168501019250505092915050565b80356001600160a01b0381168114610c6857600080fd5b919050565b60008060408385031215610c8057600080fd5b610c8983610c51565b946020939093013593505050565b600080600060608486031215610cac57600080fd5b610cb584610c51565b9250610cc360208501610c51565b9150604084013590509250925092565b600060208284031215610ce557600080fd5b5035919050565b600060208284031215610cfe57600080fd5b610d0782610c51565b9392505050565b60008060408385031215610d2157600080fd5b610d2a83610c51565b915060208301358015158114610d3f57600080fd5b809150509250929050565b60008060408385031215610d5d57600080fd5b610d6683610c51565b9150610d7460208401610c51565b90509250929050565b600181811c90821680610d9157607f821691505b602082108103610db157634e487b7160e01b600052602260045260246000fd5b50919050565b634e487b7160e01b600052601160045260246000fd5b80820281158282048414176103b7576103b7610db7565b600082610e0157634e487b7160e01b600052601260045260246000fd5b500490565b818103818111156103b7576103b7610db7565b808201808211156103b7576103b7610db756fea26469706673582212208b224df90a3085cd77ee7d7f8eb613bf0671ede3cbfe902580cf1e4de2c91e0764736f6c63430008180033",
  "linkReferences": {},
  "deployedLinkReferences": {}
}