{
  "_format": "hh-sol-artifact-1",
  "contractName": "SXUA_Base",
  "sourceName": "contracts/SXUA_Base.sol",
  "abi": [
    {
      "inputs": [
        {
          "internalType": "address",
          "name": "target",
          "type": "address"
        }
      ],
      "name": "AddressEmptyCode",
      "type": "error"
    },
    {
      "inputs": [
        {
          "internalType": "address",
          "name": "implementation",
          "type": "address"
        }
      ],
      "name": "ERC1967InvalidImplementation",
      "type": "error"
    },
    {
      "inputs": [],
      "name": "ERC1967NonPayable",
      "type": "error"
    },
    {
      "inputs": [],
      "name": "EnforcedPause",
      "type": "error"
    },
    {
      "inputs": [],
      "name": "ExpectedPause",
      "type": "error"
    },
    {
      "inputs": [],
      "name": "FailedCall",
      "type": "error"
    },
    {
      "inputs": [],
      "name": "InvalidInitialization",
      "type": "error"
    },
    {
      "inputs": [],
      "name": "NotInitializing",
      "type": "error"
    },
    {
      "inputs": [
        {
          "internalType": "address",
          "name": "owner",
          "type": "address"
        }
      ],
      "name": "OwnableInvalidOwner",
      "type": "error"
    },
    {
      "inputs": [
        {
          "internalType": "address",
          "name": "account",
          "type": "address"
        }
      ],
      "name": "OwnableUnauthorizedAccount",
      "type": "error"
    },
    {
      "inputs": [],
      "name": "ReentrancyGuardReentrantCall",
      "type": "error"
    },
    {
      "inputs": [
        {
          "internalType": "address",
          "name": "token",
          "type": "address"
        }
      ],
      "name": "SafeERC20FailedOperation",
      "type": "error"
    },
    {
      "inputs": [],
      "name": "UUPSUnauthorizedCallContext",
      "type": "error"
    },
    {
      "inputs": [
        {
          "internalType": "bytes32",
          "name": "slot",
          "type": "bytes32"
        }
      ],
      "name": "UUPSUnsupportedProxiableUUID",
      "type": "error"
    },
    {
      "anonymous": false,
      "inputs": [
        {
          "indexed": true,
          "internalType": "address",
          "name": "user",
          "type": "address"
        },
        {
          "indexed": true,
          "internalType": "address",
          "name": "token",
          "type": "address"
        },
        {
          "indexed": false,
          "internalType": "uint256",
          "name": "amount",
          "type": "uint256"
        }
      ],
      "name": "Committed",
      "type": "event"
    },
    {
      "anonymous": false,
      "inputs": [
        {
          "indexed": false,
          "internalType": "uint256",
          "name": "penaltyPercent",
          "type": "uint256"
        },
        {
          "indexed": false,
          "internalType": "uint256",
          "name": "lockPeriod",
          "type": "uint256"
        }
      ],
      "name": "ConfigUpdated",
      "type": "event"
    },
    {
      "anonymous": false,
      "inputs": [
        {
          "indexed": true,
          "internalType": "address",
          "name": "user",
          "type": "address"
        },
        {
          "indexed": true,
          "internalType": "address",
          "name": "token",
          "type": "address"
        },
        {
          "indexed": false,
          "internalType": "uint256",
          "name": "amount",
          "type": "uint256"
        }
      ],
      "name": "DailyYieldAccrued",
      "type": "event"
    },
    {
      "anonymous": false,
      "inputs": [
        {
          "indexed": true,
          "internalType": "address",
          "name": "user",
          "type": "address"
        },
        {
          "indexed": true,
          "internalType": "address",
          "name": "token",
          "type": "address"
        },
        {
          "indexed": false,
          "internalType": "uint256",
          "name": "amount",
          "type": "uint256"
        }
      ],
      "name": "DailyYieldClaimed",
      "type": "event"
    },
    {
      "anonymous": false,
      "inputs": [
        {
          "indexed": true,
          "internalType": "address",
          "name": "user",
          "type": "address"
        },
        {
          "indexed": true,
          "internalType": "address",
          "name": "token",
          "type": "address"
        },
        {
          "indexed": false,
          "internalType": "uint256",
          "name": "amount",
          "type": "uint256"
        }
      ],
      "name": "Deposited",
      "type": "event"
    },
    {
      "anonymous": false,
      "inputs": [
        {
          "indexed": false,
          "internalType": "bool",
          "name": "active",
          "type": "bool"
        }
      ],
      "name": "EmergencyShutdownToggled",
      "type": "event"
    },
    {
      "anonymous": false,
      "inputs": [
        {
          "indexed": true,
          "internalType": "address",
          "name": "user",
          "type": "address"
        },
        {
          "indexed": true,
          "internalType": "address",
          "name": "token",
          "type": "address"
        },
        {
          "indexed": false,
          "internalType": "uint256",
          "name": "amount",
          "type": "uint256"
        }
      ],
      "name": "EmergencyWithdrawn",
      "type": "event"
    },
    {
      "anonymous": false,
      "inputs": [
        {
          "indexed": false,
          "internalType": "uint64",
          "name": "version",
          "type": "uint64"
        }
      ],
      "name": "Initialized",
      "type": "event"
    },
    {
      "anonymous": false,
      "inputs": [
        {
          "indexed": true,
          "internalType": "address",
          "name": "previousOwner",
          "type": "address"
        },
        {
          "indexed": true,
          "internalType": "address",
          "name": "newOwner",
          "type": "address"
        }
      ],
      "name": "OwnershipTransferred",
      "type": "event"
    },
    {
      "anonymous": false,
      "inputs": [
        {
          "indexed": false,
          "internalType": "address",
          "name": "account",
          "type": "address"
        }
      ],
      "name": "Paused",
      "type": "event"
    },
    {
      "anonymous": false,
      "inputs": [
        {
          "indexed": true,
          "internalType": "address",
          "name": "user",
          "type": "address"
        },
        {
          "indexed": true,
          "internalType": "address",
          "name": "token",
          "type": "address"
        },
        {
          "indexed": false,
          "internalType": "uint256",
          "name": "amount",
          "type": "uint256"
        }
      ],
      "name": "SxpRewardClaimed",
      "type": "event"
    },
    {
      "anonymous": false,
      "inputs": [
        {
          "indexed": true,
          "internalType": "address",
          "name": "token",
          "type": "address"
        },
        {
          "indexed": false,
          "internalType": "bool",
          "name": "supported",
          "type": "bool"
        }
      ],
      "name": "TokenSupported",
      "type": "event"
    },
    {
      "anonymous": false,
      "inputs": [
        {
          "indexed": true,
          "internalType": "address",
          "name": "user",
          "type": "address"
        },
        {
          "indexed": true,
          "internalType": "address",
          "name": "token",
          "type": "address"
        },
        {
          "indexed": false,
          "internalType": "uint256",
          "name": "amount",
          "type": "uint256"
        },
        {
          "indexed": false,
          "internalType": "uint256",
          "name": "penalty",
          "type": "uint256"
        }
      ],
      "name": "Uncommitted",
      "type": "event"
    },
    {
      "anonymous": false,
      "inputs": [
        {
          "indexed": false,
          "internalType": "address",
          "name": "account",
          "type": "address"
        }
      ],
      "name": "Unpaused",
      "type": "event"
    },
    {
      "anonymous": false,
      "inputs": [
        {
          "indexed": true,
          "internalType": "address",
          "name": "implementation",
          "type": "address"
        }
      ],
      "name": "Upgraded",
      "type": "event"
    },
    {
      "anonymous": false,
      "inputs": [
        {
          "indexed": true,
          "internalType": "address",
          "name": "user",
          "type": "address"
        },
        {
          "indexed": true,
          "internalType": "address",
          "name": "recipient",
          "type": "address"
        },
        {
          "indexed": true,
          "internalType": "address",
          "name": "token",
          "type": "address"
        },
        {
          "indexed": false,
          "internalType": "uint256",
          "name": "amount",
          "type": "uint256"
        },
        {
          "indexed": false,
          "internalType": "uint256",
          "name": "nonce",
          "type": "uint256"
        },
        {
          "indexed": false,
          "internalType": "uint256",
          "name": "destinationChain",
          "type": "uint256"
        }
      ],
      "name": "WithdrawalRequested",
      "type": "event"
    },
    {
      "anonymous": false,
      "inputs": [
        {
          "indexed": true,
          "internalType": "address",
          "name": "user",
          "type": "address"
        },
        {
          "indexed": true,
          "internalType": "address",
          "name": "token",
          "type": "address"
        },
        {
          "indexed": false,
          "internalType": "uint256",
          "name": "amount",
          "type": "uint256"
        }
      ],
      "name": "Withdrawn",
      "type": "event"
    },
    {
      "inputs": [],
      "name": "UPGRADE_INTERFACE_VERSION",
      "outputs": [
        {
          "internalType": "string",
          "name": "",
          "type": "string"
        }
      ],
      "stateMutability": "view",
      "type": "function"
    },
    {
      "inputs": [
        {
          "internalType": "address",
          "name": "user",
          "type": "address"
        },
        {
          "internalType": "address",
          "name": "token",
          "type": "address"
        }
      ],
      "name": "accrueDailyYield",
      "outputs": [],
      "stateMutability": "nonpayable",
      "type": "function"
    },
    {
      "inputs": [
        {
          "internalType": "address",
          "name": "",
          "type": "address"
        },
        {
          "internalType": "address",
          "name": "",
          "type": "address"
        }
      ],
      "name": "accruedRewards",
      "outputs": [
        {
          "internalType": "uint256",
          "name": "",
          "type": "uint256"
        }
      ],
      "stateMutability": "view",
      "type": "function"
    },
    {
      "inputs": [
        {
          "internalType": "address",
          "name": "token",
          "type": "address"
        }
      ],
      "name": "claimDailyYield",
      "outputs": [],
      "stateMutability": "nonpayable",
      "type": "function"
    },
    {
      "inputs": [
        {
          "internalType": "address",
          "name": "token",
          "type": "address"
        }
      ],
      "name": "claimSxpReward",
      "outputs": [],
      "stateMutability": "nonpayable",
      "type": "function"
    },
    {
      "inputs": [
        {
          "internalType": "address",
          "name": "token",
          "type": "address"
        },
        {
          "internalType": "uint256",
          "name": "amount",
          "type": "uint256"
        }
      ],
      "name": "commit",
      "outputs": [],
      "stateMutability": "nonpayable",
      "type": "function"
    },
    {
      "inputs": [
        {
          "internalType": "address",
          "name": "",
          "type": "address"
        },
        {
          "internalType": "address",
          "name": "",
          "type": "address"
        }
      ],
      "name": "commitTimestamps",
      "outputs": [
        {
          "internalType": "uint256",
          "name": "",
          "type": "uint256"
        }
      ],
      "stateMutability": "view",
      "type": "function"
    },
    {
      "inputs": [
        {
          "internalType": "address",
          "name": "",
          "type": "address"
        },
        {
          "internalType": "address",
          "name": "",
          "type": "address"
        }
      ],
      "name": "committedBalances",
      "outputs": [
        {
          "internalType": "uint256",
          "name": "",
          "type": "uint256"
        }
      ],
      "stateMutability": "view",
      "type": "function"
    },
    {
      "inputs": [
        {
          "internalType": "address",
          "name": "token",
          "type": "address"
        },
        {
          "internalType": "uint256",
          "name": "amount",
          "type": "uint256"
        }
      ],
      "name": "deposit",
      "outputs": [],
      "stateMutability": "nonpayable",
      "type": "function"
    },
    {
      "inputs": [
        {
          "internalType": "address",
          "name": "user",
          "type": "address"
        },
        {
          "internalType": "address",
          "name": "token",
          "type": "address"
        },
        {
          "internalType": "uint256",
          "name": "amount",
          "type": "uint256"
        }
      ],
      "name": "depositFor",
      "outputs": [],
      "stateMutability": "nonpayable",
      "type": "function"
    },
    {
      "inputs": [],
      "name": "emergencyShutdownActive",
      "outputs": [
        {
          "internalType": "bool",
          "name": "",
          "type": "bool"
        }
      ],
      "stateMutability": "view",
      "type": "function"
    },
    {
      "inputs": [
        {
          "internalType": "address",
          "name": "token",
          "type": "address"
        }
      ],
      "name": "emergencyWithdraw",
      "outputs": [],
      "stateMutability": "nonpayable",
      "type": "function"
    },
    {
      "inputs": [
        {
          "internalType": "address",
          "name": "token",
          "type": "address"
        },
        {
          "internalType": "uint256",
          "name": "amount",
          "type": "uint256"
        }
      ],
      "name": "getAmountIn18Decimals",
      "outputs": [
        {
          "internalType": "uint256",
          "name": "",
          "type": "uint256"
        }
      ],
      "stateMutability": "view",
      "type": "function"
    },
    {
      "inputs": [
        {
          "internalType": "address",
          "name": "_sxpToken",
          "type": "address"
        },
        {
          "internalType": "address",
          "name": "_treasury",
          "type": "address"
        },
        {
          "internalType": "uint256",
          "name": "_penaltyPercent",
          "type": "uint256"
        },
        {
          "internalType": "uint256",
          "name": "_lockPeriod",
          "type": "uint256"
        },
        {
          "internalType": "address",
          "name": "_ptfReceiver",
          "type": "address"
        }
      ],
      "name": "initialize",
      "outputs": [],
      "stateMutability": "nonpayable",
      "type": "function"
    },
    {
      "inputs": [
        {
          "internalType": "address",
          "name": "",
          "type": "address"
        },
        {
          "internalType": "address",
          "name": "",
          "type": "address"
        }
      ],
      "name": "lastRewardTimestamp",
      "outputs": [
        {
          "internalType": "uint256",
          "name": "",
          "type": "uint256"
        }
      ],
      "stateMutability": "view",
      "type": "function"
    },
    {
      "inputs": [],
      "name": "lockPeriod",
      "outputs": [
        {
          "internalType": "uint256",
          "name": "",
          "type": "uint256"
        }
      ],
      "stateMutability": "view",
      "type": "function"
    },
    {
      "inputs": [],
      "name": "owner",
      "outputs": [
        {
          "internalType": "address",
          "name": "",
          "type": "address"
        }
      ],
      "stateMutability": "view",
      "type": "function"
    },
    {
      "inputs": [],
      "name": "paused",
      "outputs": [
        {
          "internalType": "bool",
          "name": "",
          "type": "bool"
        }
      ],
      "stateMutability": "view",
      "type": "function"
    },
    {
      "inputs": [
        {
          "internalType": "address",
          "name": "user",
          "type": "address"
        },
        {
          "internalType": "address",
          "name": "token",
          "type": "address"
        },
        {
          "internalType": "uint256",
          "name": "amount",
          "type": "uint256"
        }
      ],
      "name": "payForLaunchpad",
      "outputs": [],
      "stateMutability": "nonpayable",
      "type": "function"
    },
    {
      "inputs": [],
      "name": "penaltyPercent",
      "outputs": [
        {
          "internalType": "uint256",
          "name": "",
          "type": "uint256"
        }
      ],
      "stateMutability": "view",
      "type": "function"
    },
    {
      "inputs": [
        {
          "internalType": "address",
          "name": "token",
          "type": "address"
        },
        {
          "internalType": "address",
          "name": "user",
          "type": "address"
        }
      ],
      "name": "pendingSxpReward",
      "outputs": [
        {
          "internalType": "uint256",
          "name": "",
          "type": "uint256"
        }
      ],
      "stateMutability": "view",
      "type": "function"
    },
    {
      "inputs": [
        {
          "internalType": "address",
          "name": "",
          "type": "address"
        }
      ],
      "name": "poolInfo",
      "outputs": [
        {
          "internalType": "uint256",
          "name": "totalCommitted",
          "type": "uint256"
        },
        {
          "internalType": "uint256",
          "name": "accSxpPerShare",
          "type": "uint256"
        },
        {
          "internalType": "uint256",
          "name": "lastRewardTimestamp",
          "type": "uint256"
        }
      ],
      "stateMutability": "view",
      "type": "function"
    },
    {
      "inputs": [],
      "name": "proxiableUUID",
      "outputs": [
        {
          "internalType": "bytes32",
          "name": "",
          "type": "bytes32"
        }
      ],
      "stateMutability": "view",
      "type": "function"
    },
    {
      "inputs": [],
      "name": "ptfReceiver",
      "outputs": [
        {
          "internalType": "address",
          "name": "",
          "type": "address"
        }
      ],
      "stateMutability": "view",
      "type": "function"
    },
    {
      "inputs": [
        {
          "internalType": "address",
          "name": "user",
          "type": "address"
        },
        {
          "internalType": "address",
          "name": "token",
          "type": "address"
        },
        {
          "internalType": "uint256",
          "name": "amount",
          "type": "uint256"
        }
      ],
      "name": "refundToUser",
      "outputs": [],
      "stateMutability": "nonpayable",
      "type": "function"
    },
    {
      "inputs": [],
      "name": "renounceOwnership",
      "outputs": [],
      "stateMutability": "nonpayable",
      "type": "function"
    },
    {
      "inputs": [
        {
          "internalType": "address",
          "name": "token",
          "type": "address"
        },
        {
          "internalType": "uint256",
          "name": "amount",
          "type": "uint256"
        },
        {
          "internalType": "uint256",
          "name": "destinationChain",
          "type": "uint256"
        },
        {
          "internalType": "address",
          "name": "recipient",
          "type": "address"
        }
      ],
      "name": "requestCrossChainWithdrawal",
      "outputs": [],
      "stateMutability": "nonpayable",
      "type": "function"
    },
    {
      "inputs": [],
      "name": "requestNonce",
      "outputs": [
        {
          "internalType": "uint256",
          "name": "",
          "type": "uint256"
        }
      ],
      "stateMutability": "view",
      "type": "function"
    },
    {
      "inputs": [
        {
          "internalType": "address",
          "name": "",
          "type": "address"
        },
        {
          "internalType": "address",
          "name": "",
          "type": "address"
        }
      ],
      "name": "rewardDebt",
      "outputs": [
        {
          "internalType": "uint256",
          "name": "",
          "type": "uint256"
        }
      ],
      "stateMutability": "view",
      "type": "function"
    },
    {
      "inputs": [
        {
          "internalType": "bool",
          "name": "active",
          "type": "bool"
        }
      ],
      "name": "setEmergencyShutdown",
      "outputs": [],
      "stateMutability": "nonpayable",
      "type": "function"
    },
    {
      "inputs": [
        {
          "internalType": "address",
          "name": "token",
          "type": "address"
        },
        {
          "internalType": "bool",
          "name": "supported",
          "type": "bool"
        }
      ],
      "name": "setTokenSupport",
      "outputs": [],
      "stateMutability": "nonpayable",
      "type": "function"
    },
    {
      "inputs": [
        {
          "internalType": "uint256",
          "name": "",
          "type": "uint256"
        }
      ],
      "name": "supportedTokenList",
      "outputs": [
        {
          "internalType": "address",
          "name": "",
          "type": "address"
        }
      ],
      "stateMutability": "view",
      "type": "function"
    },
    {
      "inputs": [
        {
          "internalType": "address",
          "name": "",
          "type": "address"
        }
      ],
      "name": "supportedTokens",
      "outputs": [
        {
          "internalType": "bool",
          "name": "",
          "type": "bool"
        }
      ],
      "stateMutability": "view",
      "type": "function"
    },
    {
      "inputs": [],
      "name": "sxpToken",
      "outputs": [
        {
          "internalType": "contract SXP",
          "name": "",
          "type": "address"
        }
      ],
      "stateMutability": "view",
      "type": "function"
    },
    {
      "inputs": [
        {
          "internalType": "address",
          "name": "newOwner",
          "type": "address"
        }
      ],
      "name": "transferOwnership",
      "outputs": [],
      "stateMutability": "nonpayable",
      "type": "function"
    },
    {
      "inputs": [],
      "name": "treasury",
      "outputs": [
        {
          "internalType": "address",
          "name": "",
          "type": "address"
        }
      ],
      "stateMutability": "view",
      "type": "function"
    },
    {
      "inputs": [
        {
          "internalType": "address",
          "name": "token",
          "type": "address"
        },
        {
          "internalType": "uint256",
          "name": "amount",
          "type": "uint256"
        }
      ],
      "name": "uncommit",
      "outputs": [],
      "stateMutability": "nonpayable",
      "type": "function"
    },
    {
      "inputs": [
        {
          "internalType": "address",
          "name": "",
          "type": "address"
        },
        {
          "internalType": "address",
          "name": "",
          "type": "address"
        }
      ],
      "name": "uncommittedBalances",
      "outputs": [
        {
          "internalType": "uint256",
          "name": "",
          "type": "uint256"
        }
      ],
      "stateMutability": "view",
      "type": "function"
    },
    {
      "inputs": [
        {
          "internalType": "uint256",
          "name": "_penaltyPercent",
          "type": "uint256"
        },
        {
          "internalType": "uint256",
          "name": "_lockPeriod",
          "type": "uint256"
        }
      ],
      "name": "updateConfig",
      "outputs": [],
      "stateMutability": "nonpayable",
      "type": "function"
    },
    {
      "inputs": [
        {
          "internalType": "address",
          "name": "token",
          "type": "address"
        }
      ],
      "name": "updatePool",
      "outputs": [],
      "stateMutability": "nonpayable",
      "type": "function"
    },
    {
      "inputs": [
        {
          "internalType": "address",
          "name": "newImplementation",
          "type": "address"
        },
        {
          "internalType": "bytes",
          "name": "data",
          "type": "bytes"
        }
      ],
      "name": "upgradeToAndCall",
      "outputs": [],
      "stateMutability": "payable",
      "type": "function"
    },
    {
      "inputs": [
        {
          "internalType": "address",
          "name": "token",
          "type": "address"
        },
        {
          "internalType": "uint256",
          "name": "amount",
          "type": "uint256"
        }
      ],
      "name": "withdraw",
      "outputs": [],
      "stateMutability": "nonpayable",
      "type": "function"
    }
  ],
  "bytecode": "0x60a0604052306080523480156200001557600080fd5b5060017f9b779b17422d0df92223018b32b4d1fa46e071723d6817e2486d003becc55f0055620000446200004a565b620000fe565b7ff0c57e16840df040f15088dc2f81fe391c3923bec73e23a9662efc9c229c6a00805468010000000000000000900460ff16156200009b5760405163f92ee8a960e01b815260040160405180910390fd5b80546001600160401b0390811614620000fb5780546001600160401b0319166001600160401b0390811782556040519081527fc7f505b2f371ae2175ee4913f4499e1f2633a7b5936321eed1cdaeb6115181d29060200160405180910390a15b50565b60805161371d6200012860003960008181612b8601528181612baf0152612cf0015261371d6000f3fe6080604052600436106102515760003560e01c8063715018a611610139578063ad3cb1cc116100b6578063ca9f2e8b1161007a578063ca9f2e8b146107b8578063cc48996e146107f0578063daa1e1fb14610828578063f2fde38b14610848578063f3fef3a314610868578063f8325acc1461088857600080fd5b8063ad3cb1cc146106f5578063b3db428b14610733578063b56ead9714610753578063bba9ba4c14610773578063c7ae483e1461079357600080fd5b806384bf1535116100fd57806384bf1535146105e95780638ae56d57146106095780638da5cb5b14610629578063951ae7a8146106665780639a7b5f111461069e57600080fd5b8063715018a6146105465780637b46c54f1461055b5780637b4717a41461057b5780637c1a0302146105b35780638248e722146105c957600080fd5b80633fd8b02f116101d25780635b666e90116101965780635b666e90146104595780635c975abb1461047957806361d027b31461049e57806368c4ac26146104be5780636a12b560146104ee5780636ff1c9bc1461052657600080fd5b80633fd8b02f146103db57806347e7ef24146103f15780634f1ef2861461041157806352d1902d1461042457806357fb25cc1461043957600080fd5b80631b3b6b80116102195780631b3b6b80146103235780632b60c8221461035b578063301975c31461037b578063347c8d5e1461039b5780633dc78cc4146103bb57600080fd5b80630c6a753f1461025657806313aaf7f11461027857806314c64402146102c357806314cf339e146102e3578063161ba46a1461030d575b600080fd5b34801561026257600080fd5b5061027661027136600461314e565b6108a8565b005b34801561028457600080fd5b506102b0610293366004613181565b600560209081526000928352604080842090915290825290205481565b6040519081526020015b60405180910390f35b3480156102cf57600080fd5b506102766102de3660046131ab565b610a13565b3480156102ef57600080fd5b50600d546102fd9060ff1681565b60405190151581526020016102ba565b34801561031957600080fd5b506102b0600b5481565b34801561032f57600080fd5b50600054610343906001600160a01b031681565b6040516001600160a01b0390911681526020016102ba565b34801561036757600080fd5b506103436103763660046131cd565b610a80565b34801561038757600080fd5b506102766103963660046131e6565b610aaa565b3480156103a757600080fd5b506102766103b636600461322c565b610d86565b3480156103c757600080fd5b506102766103d6366004613247565b610eae565b3480156103e757600080fd5b506102b0600c5481565b3480156103fd57600080fd5b5061027661040c366004613283565b610f72565b61027661041f3660046132c3565b611157565b34801561043057600080fd5b506102b0611172565b34801561044557600080fd5b50610276610454366004613385565b61118f565b34801561046557600080fd5b50610276610474366004613283565b6113ed565b34801561048557600080fd5b506000805160206136c88339815191525460ff166102fd565b3480156104aa57600080fd5b50600154610343906001600160a01b031681565b3480156104ca57600080fd5b506102fd6104d936600461322c565b60026020526000908152604090205460ff1681565b3480156104fa57600080fd5b506102b0610509366004613181565b600660209081526000928352604080842090915290825290205481565b34801561053257600080fd5b5061027661054136600461322c565b6117dd565b34801561055257600080fd5b5061027661195e565b34801561056757600080fd5b5061027661057636600461322c565b611972565b34801561058757600080fd5b506102b0610596366004613181565b600a60209081526000928352604080842090915290825290205481565b3480156105bf57600080fd5b506102b0600e5481565b3480156105d557600080fd5b506102766105e43660046133dc565b611a42565b3480156105f557600080fd5b50610276610604366004613283565b611ae2565b34801561061557600080fd5b5061027661062436600461322c565b611e50565b34801561063557600080fd5b507f9016d09d72d40fdae2fd8ceac6b6234c7706214fd39c1cd1e609a0528c199300546001600160a01b0316610343565b34801561067257600080fd5b506102b0610681366004613181565b600460209081526000928352604080842090915290825290205481565b3480156106aa57600080fd5b506106da6106b936600461322c565b60096020526000908152604090208054600182015460029092015490919083565b604080519384526020840192909252908201526060016102ba565b34801561070157600080fd5b50610726604051806040016040528060058152602001640352e302e360dc1b81525081565b6040516102ba91906133fe565b34801561073f57600080fd5b5061027661074e366004613247565b612069565b34801561075f57600080fd5b506102b061076e366004613283565b61226b565b34801561077f57600080fd5b506102b061078e366004613181565b61233d565b34801561079f57600080fd5b50600d546103439061010090046001600160a01b031681565b3480156107c457600080fd5b506102b06107d3366004613181565b600860209081526000928352604080842090915290825290205481565b3480156107fc57600080fd5b506102b061080b366004613181565b600760209081526000928352604080842090915290825290205481565b34801561083457600080fd5b50610276610843366004613247565b61249e565b34801561085457600080fd5b5061027661086336600461322c565b6125a1565b34801561087457600080fd5b50610276610883366004613283565b6125dc565b34801561089457600080fd5b506102766108a3366004613181565b6127b6565b6108b061298d565b6001600160a01b0382166109015760405162461bcd60e51b815260206004820152601360248201527229ac2aa09d1024b73b30b634b2103a37b5b2b760691b60448201526064015b60405180910390fd5b80801561092757506001600160a01b03821660009081526002602052604090205460ff16155b156109b4576003805460018082019092557fc2575a0e9e593c00f959f8c92f12db2869c3395a3b0502d05e2516446f71f85b0180546001600160a01b0319166001600160a01b038516908117909155604080516060810182526000808252602080830182815242848601908152958352600990915292902090518155905192810192909255516002909101555b6001600160a01b038216600081815260026020908152604091829020805460ff191685151590811790915591519182527fd86c88b4a367d9b81a6e00c9d3f7d01657bffef358fa8968c91c045ae99f0d52910160405180910390a25050565b610a1b61298d565b600d805460ff19168215801591909117909155610a3f57610a3a6129e8565b610a47565b610a47612a45565b60405181151581527ff3017345aa4f4b1edf82d1945ba8aaf39d9f284595b090260947f03bc53566f1906020015b60405180910390a150565b60038181548110610a9057600080fd5b6000918252602090912001546001600160a01b0316905081565b610ab2612a8b565b610aba612abc565b6001600160a01b038416610b105760405162461bcd60e51b815260206004820152601860248201527f535855415f426173653a20496e76616c696420746f6b656e000000000000000060448201526064016108f8565b6001600160a01b038116610b665760405162461bcd60e51b815260206004820152601c60248201527f535855415f426173653a20496e76616c696420726563697069656e740000000060448201526064016108f8565b60008311610bb65760405162461bcd60e51b815260206004820152601d60248201527f535855415f426173653a20416d6f756e74206d757374206265203e203000000060448201526064016108f8565b6001600160a01b03841660009081526002602052604090205460ff16610c1e5760405162461bcd60e51b815260206004820152601e60248201527f535855415f426173653a20546f6b656e206e6f7420737570706f72746564000060448201526064016108f8565b3360009081526005602090815260408083206001600160a01b0388168452909152902054831115610ca55760405162461bcd60e51b815260206004820152602b60248201527f535855415f426173653a20496e73756666696369656e7420756e636f6d6d697460448201526a7465642062616c616e636560a81b60648201526084016108f8565b610caf33856127b6565b610cb884611972565b3360009081526005602090815260408083206001600160a01b038816845290915281208054859290610ceb908490613463565b9091555050600154610d0a906001600160a01b03868116911685612aea565b6001600e6000828254610d1d9190613476565b9091555050600e5460408051858152602081019290925281018390526001600160a01b03808616919083169033907f92072c627ec1da81f8268b3cfb3c02bbbeedc12c21134faf44574691476199479060600160405180910390a4610d80612b1f565b50505050565b610d8e612a8b565b610d96612abc565b610da033826127b6565b3360009081526008602090815260408083206001600160a01b038516845290915290205480610e115760405162461bcd60e51b815260206004820152601c60248201527f535855413a204e6f2061636372756564206461696c79207969656c640000000060448201526064016108f8565b3360008181526008602090815260408083206001600160a01b038716808552908352818420849055938352600582528083209383529290529081208054839290610e5c908490613476565b90915550506040518181526001600160a01b0383169033907f35a593989214273cad8f7c3cea2bc516d2ea114bbdb9088cbab07696e65b6d97906020015b60405180910390a350610eab612b1f565b50565b610eb6612a8b565b610ebe612abc565b60008111610f095760405162461bcd60e51b81526020600482015260186024820152770535855413a20416d6f756e74206d757374206265203e20360441b60448201526064016108f8565b610f1e6001600160a01b038316333084612b45565b610f2883836127b6565b6001600160a01b03808416600090815260056020908152604080832093861683529290529081208054839290610f5f908490613476565b90915550610f6d9050612b1f565b505050565b610f7a612a8b565b610f82612abc565b6001600160a01b03821660009081526002602052604090205460ff16610fba5760405162461bcd60e51b81526004016108f890613489565b6000811161100a5760405162461bcd60e51b815260206004820181905260248201527f535855413a204465706f73697420616d6f756e74206d757374206265203e203060448201526064016108f8565b61101433836127b6565b61101d82611972565b6110326001600160a01b038316333084612b45565b3360009081526005602090815260408083206001600160a01b038616845290915281208054839290611065908490613476565b9091555060009050611077838361226b565b6000546040516340c10f1960e01b8152336004820152602481018390529192506001600160a01b0316906340c10f1990604401600060405180830381600087803b1580156110c457600080fd5b505af11580156110d8573d6000803e3d6000fd5b50506040518381526001600160a01b03861692503391506000805160206136888339815191529060200160405180910390a36040518281526001600160a01b0384169033907f8752a472e571a816aea92eec8dae9baf628e840f4929fbcc2d155e6233ff68a79060200160405180910390a350611153612b1f565b5050565b61115f612b7b565b61116882612c20565b6111538282612c28565b600061117c612ce5565b506000805160206136a883398151915290565b6000611199612d2e565b805490915060ff600160401b820416159067ffffffffffffffff166000811580156111c15750825b905060008267ffffffffffffffff1660011480156111de5750303b155b9050811580156111ec575080155b1561120a5760405163f92ee8a960e01b815260040160405180910390fd5b845467ffffffffffffffff19166001178555831561123457845460ff60401b1916600160401b1785555b61123d33612d57565b611245612d68565b6001600160a01b038a1661129b5760405162461bcd60e51b815260206004820152601760248201527f535855413a20496e76616c69642053585020746f6b656e00000000000000000060448201526064016108f8565b6001600160a01b0389166112ea5760405162461bcd60e51b8152602060048201526016602482015275535855413a20496e76616c696420747265617375727960501b60448201526064016108f8565b6001600160a01b0386166113405760405162461bcd60e51b815260206004820152601a60248201527f535855413a20496e76616c69642050544620726563656976657200000000000060448201526064016108f8565b600080546001600160a01b03199081166001600160a01b038d811691909117909255600180549091168b8316179055600b899055600c889055600d80546001600160a81b0319166101009289169290920260ff191691909117905583156113e157845460ff60401b19168555604051600181527fc7f505b2f371ae2175ee4913f4499e1f2633a7b5936321eed1cdaeb6115181d29060200160405180910390a15b50505050505050505050565b6113f5612a8b565b6113fd612abc565b600081116114575760405162461bcd60e51b815260206004820152602160248201527f535855413a20556e636f6d6d697420616d6f756e74206d757374206265203e206044820152600360fc1b60648201526084016108f8565b3360009081526004602090815260408083206001600160a01b03861684529091529020548111156114d65760405162461bcd60e51b8152602060048201526024808201527f535855413a20496e73756666696369656e7420636f6d6d69747465642062616c604482015263616e636560e01b60648201526084016108f8565b6114e033836127b6565b6114e982611972565b6001600160a01b03821660008181526009602090815260408083203380855260048452828520868652845282852054908552600a845282852095855294909252822054600182015491939291670de0b6b3a76400009061154990856134c0565b61155391906134d7565b61155d9190613463565b905080156115f8576000546040516340c10f1960e01b8152336004820152602481018390526001600160a01b03909116906340c10f1990604401600060405180830381600087803b1580156115b157600080fd5b505af11580156115c5573d6000803e3d6000fd5b50506040518381526001600160a01b03881692503391506000805160206136888339815191529060200160405180910390a35b3360009081526004602090815260408083206001600160a01b03891684529091528120805486929061162b908490613463565b9091555050825484908490600090611644908490613463565b9091555050600c543360009081526006602090815260408083206001600160a01b038a168452909152812054909161167b91613476565b42101561169f576064600b548661169291906134c0565b61169c91906134d7565b90505b60006116ab8287613463565b3360009081526005602090815260408083206001600160a01b038c1684529091528120805492935083929091906116e3908490613476565b90915550508115611728573360009081526008602090815260408083206001600160a01b038b8116808652919093529083209290925560015461172892911684612aea565b60018501543360009081526004602090815260408083206001600160a01b038c168452909152902054670de0b6b3a764000091611764916134c0565b61176e91906134d7565b336000818152600a602090815260408083206001600160a01b038d16808552908352928190209490945583518a815290810186905290927f649abb3afb2aa3c768b7de0f94681c5570f8eb8c763253e4a1f05551d299f679910160405180910390a35050505050611153612b1f565b6117e5612abc565b600d5460ff166118435760405162461bcd60e51b815260206004820152602360248201527f535855413a20456d657267656e63792073687574646f776e206e6f742061637460448201526269766560e81b60648201526084016108f8565b3360008181526004602090815260408083206001600160a01b0386168085529083528184205494845260058352818420908452909152812054909161188791613476565b9050600081116118d95760405162461bcd60e51b815260206004820152601c60248201527f535855413a204e6f2062616c616e636520746f2077697468647261770000000060448201526064016108f8565b3360008181526005602090815260408083206001600160a01b038716808552908352818420849055848452600483528184208185529092528220919091556119219183612aea565b6040518181526001600160a01b0383169033907f457e4fe0c9f161a0c6f3bfb8d7809a4ac19f6291bd81b03b86b0d00f9af3717b90602001610e9a565b61196661298d565b6119706000612d70565b565b6001600160a01b038116600090815260096020526040902060028101544211611999575050565b80546000036119ac574260029091015550565b60008160020154426119be9190613463565b905060006119d084846000015461226b565b9050600063bbf81e00836119e584602c6134c0565b6119ef91906134c0565b6119f991906134d7565b8454909150611a1082670de0b6b3a76400006134c0565b611a1a91906134d7565b846001016000828254611a2d9190613476565b90915550504260029094019390935550505050565b611a4a61298d565b6064821115611a9b5760405162461bcd60e51b815260206004820181905260248201527f535855413a20496e76616c69642070656e616c74792070657263656e7461676560448201526064016108f8565b600b829055600c81905560408051838152602081018390527f0936b3616d5072fa8f7381ef8e7c35d39bed9ecfb2184e908a56027ad5c0b6bc910160405180910390a15050565b611aea612a8b565b611af2612abc565b6001600160a01b03821660009081526002602052604090205460ff16611b2a5760405162461bcd60e51b81526004016108f890613489565b60008111611b7a5760405162461bcd60e51b815260206004820152601f60248201527f535855413a20436f6d6d697420616d6f756e74206d757374206265203e20300060448201526064016108f8565b3360009081526005602090815260408083206001600160a01b0386168452909152902054811115611bbd5760405162461bcd60e51b81526004016108f8906134f9565b611bc733836127b6565b611bd082611972565b6001600160a01b038216600081815260096020908152604080832033845260048352818420948452939091529020548015611cf357336000908152600a602090815260408083206001600160a01b03881684529091528120546001840154670de0b6b3a764000090611c4290856134c0565b611c4c91906134d7565b611c569190613463565b90508015611cf1576000546040516340c10f1960e01b8152336004820152602481018390526001600160a01b03909116906340c10f1990604401600060405180830381600087803b158015611caa57600080fd5b505af1158015611cbe573d6000803e3d6000fd5b50506040518381526001600160a01b03881692503391506000805160206136888339815191529060200160405180910390a35b505b3360009081526005602090815260408083206001600160a01b038816845290915281208054859290611d26908490613463565b90915550503360009081526004602090815260408083206001600160a01b038816845290915281208054859290611d5e908490613476565b90915550503360009081526006602090815260408083206001600160a01b03881684529091528120429055825484918491611d9a908490613476565b909155505060018201543360009081526004602090815260408083206001600160a01b0389168452909152902054670de0b6b3a764000091611ddb916134c0565b611de591906134d7565b336000818152600a602090815260408083206001600160a01b038a1680855292529182902093909355517fa5e4e34711d102d6aaadc9166b6c0ca95c3c5c1e55a45836d9d1d4f7ccb329e190611e3e9087815260200190565b60405180910390a35050611153612b1f565b611e58612a8b565b611e60612abc565b611e6981611972565b6001600160a01b0381166000818152600960209081526040808320338452600483528184209484529390915290205480611ee55760405162461bcd60e51b815260206004820152601a60248201527f535855413a204e6f20636f6d6d69747465642062616c616e636500000000000060448201526064016108f8565b336000908152600a602090815260408083206001600160a01b03871684529091528120546001840154670de0b6b3a764000090611f2290856134c0565b611f2c91906134d7565b611f369190613463565b905060008111611f885760405162461bcd60e51b815260206004820152601c60248201527f535855413a204e6f205358502072657761726420746f20636c61696d0000000060448201526064016108f8565b670de0b6b3a7640000836001015483611fa191906134c0565b611fab91906134d7565b336000818152600a602090815260408083206001600160a01b038a81168552925280832094909455905492516340c10f1960e01b815260048101929092526024820184905291909116906340c10f1990604401600060405180830381600087803b15801561201857600080fd5b505af115801561202c573d6000803e3d6000fd5b50506040518381526001600160a01b03871692503391506000805160206136888339815191529060200160405180910390a3505050610eab612b1f565b612071612a8b565b612079612abc565b6001600160a01b03821660009081526002602052604090205460ff166120b15760405162461bcd60e51b81526004016108f890613489565b600081116121015760405162461bcd60e51b815260206004820181905260248201527f535855413a204465706f73697420616d6f756e74206d757374206265203e203060448201526064016108f8565b61210b83836127b6565b61211482611972565b6121296001600160a01b038316333084612b45565b6001600160a01b03808416600090815260056020908152604080832093861683529290529081208054839290612160908490613476565b9091555060009050612172838361226b565b6000546040516340c10f1960e01b81526001600160a01b038781166004830152602482018490529293509116906340c10f1990604401600060405180830381600087803b1580156121c257600080fd5b505af11580156121d6573d6000803e3d6000fd5b50505050826001600160a01b0316846001600160a01b03166000805160206136888339815191528360405161220d91815260200190565b60405180910390a3826001600160a01b0316846001600160a01b03167f8752a472e571a816aea92eec8dae9baf628e840f4929fbcc2d155e6233ff68a78460405161225a91815260200190565b60405180910390a350610f6d612b1f565b600080836001600160a01b031663313ce5676040518163ffffffff1660e01b8152600401602060405180830381865afa1580156122ac573d6000803e3d6000fd5b505050506040513d601f19601f820116820180604052508101906122d0919061353f565b905060128160ff161015612306576122e9816012613562565b6122f490600a61365f565b6122fe90846134c0565b915050612337565b60128160ff1611156123325761231d601282613562565b61232890600a61365f565b6122fe90846134d7565b829150505b92915050565b6001600160a01b03808316600081815260096020908152604080832081516060810183528154815260018201548185015260029091015481830152948616835260048252808320938352929052908120549091908083036123a357600092505050612337565b8160400151421180156123b65750815115155b156124415760008260400151426123cd9190613463565b905060006123df87856000015161226b565b9050600063bbf81e00836123f484602c6134c0565b6123fe91906134c0565b61240891906134d7565b855190915061241f82670de0b6b3a76400006134c0565b61242991906134d7565b8560200181815161243a9190613476565b9052505050505b6001600160a01b038085166000908152600a6020908152604080832093891683529281529190205490830151670de0b6b3a76400009061248190846134c0565b61248b91906134d7565b6124959190613463565b95945050505050565b6124a6612a8b565b6124ae612abc565b600081116124f95760405162461bcd60e51b81526020600482015260186024820152770535855413a20416d6f756e74206d757374206265203e20360441b60448201526064016108f8565b6001600160a01b0380841660009081526005602090815260408083209386168352929052205481111561253e5760405162461bcd60e51b81526004016108f8906134f9565b61254883836127b6565b6001600160a01b0380841660009081526005602090815260408083209386168352929052908120805483929061257f908490613463565b9091555061259990506001600160a01b0383163383612aea565b610f6d612b1f565b6125a961298d565b6001600160a01b0381166125d357604051631e4fbdf760e01b8152600060048201526024016108f8565b610eab81612d70565b6125e4612a8b565b6125ec612abc565b600081116126485760405162461bcd60e51b815260206004820152602360248201527f535855413a205769746864726177616c20616d6f756e74206d7573742062652060448201526203e20360ec1b60648201526084016108f8565b3360009081526005602090815260408083206001600160a01b038616845290915290205481111561268b5760405162461bcd60e51b81526004016108f8906134f9565b61269533836127b6565b3360009081526005602090815260408083206001600160a01b0386168452909152812080548392906126c8908490613463565b909155506000905060646126dd8360066134c0565b6126e791906134d7565b9050600060646126f88460016134c0565b61270291906134d7565b90506000816127118486613463565b61271b9190613463565b600154909150612738906001600160a01b03878116911685612aea565b600d54612757906001600160a01b038781169161010090041684612aea565b61276b6001600160a01b0386163383612aea565b6040518481526001600160a01b0386169033907fd1c19fbcd4551a5edfb66d43d2e337c04837afda3482b42bdf569a8fccdae5fb9060200160405180910390a3505050611153612b1f565b6001600160a01b0380831660009081526007602090815260408083209385168352929052908120549081900361281357506001600160a01b0391821660009081526007602090815260408083209390941682529190915220429055565b600061281f8242613463565b9050600061283062015180836134d7565b90508015612986576001600160a01b03808616600081815260046020908152604080832094891680845294825280832054938352600582528083209483529390529182205461287f9190613476565b905060006127108361289284600c6134c0565b61289c91906134c0565b6128a691906134d7565b9050801561293a576001600160a01b038088166000908152600860209081526040808320938a16835292905290812080548392906128e5908490613476565b92505081905550856001600160a01b0316876001600160a01b03167f1549bc24da46a362b594d2d6a9c0d8db4450c417093899401c2993a1cbce65cb8360405161293191815260200190565b60405180910390a35b61294783620151806134c0565b6001600160a01b038089166000908152600760209081526040808320938b168352929052908120805490919061297e908490613476565b909155505050505b5050505050565b336129bf7f9016d09d72d40fdae2fd8ceac6b6234c7706214fd39c1cd1e609a0528c199300546001600160a01b031690565b6001600160a01b0316146119705760405163118cdaa760e01b81523360048201526024016108f8565b6129f0612a8b565b6000805160206136c8833981519152805460ff191660011781557f62e78cea01bee320cd4e420270b5ea74000d11b0c9f74754ebdbfc544b05a258335b6040516001600160a01b039091168152602001610a75565b612a4d612de1565b6000805160206136c8833981519152805460ff191681557f5db9ee0a495bf2e6ff9c91a7834c1ba4fdd244a5e8aa4e537bd38aeae4b073aa33612a2d565b6000805160206136c88339815191525460ff16156119705760405163d93c066560e01b815260040160405180910390fd5b612ac4612e11565b60027f9b779b17422d0df92223018b32b4d1fa46e071723d6817e2486d003becc55f0055565b612af78383836001612e53565b610f6d57604051635274afe760e01b81526001600160a01b03841660048201526024016108f8565b60017f9b779b17422d0df92223018b32b4d1fa46e071723d6817e2486d003becc55f0055565b612b53848484846001612eb9565b610d8057604051635274afe760e01b81526001600160a01b03851660048201526024016108f8565b306001600160a01b037f0000000000000000000000000000000000000000000000000000000000000000161480612c0257507f00000000000000000000000000000000000000000000000000000000000000006001600160a01b0316612bf66000805160206136a8833981519152546001600160a01b031690565b6001600160a01b031614155b156119705760405163703e46dd60e11b815260040160405180910390fd5b610eab61298d565b816001600160a01b03166352d1902d6040518163ffffffff1660e01b8152600401602060405180830381865afa925050508015612c82575060408051601f3d908101601f19168201909252612c7f9181019061366e565b60015b612caa57604051634c9c8ce360e01b81526001600160a01b03831660048201526024016108f8565b6000805160206136a88339815191528114612cdb57604051632a87526960e21b8152600481018290526024016108f8565b610f6d8383612f2b565b306001600160a01b037f000000000000000000000000000000000000000000000000000000000000000016146119705760405163703e46dd60e11b815260040160405180910390fd5b6000807ff0c57e16840df040f15088dc2f81fe391c3923bec73e23a9662efc9c229c6a00612337565b612d5f612f81565b610eab81612fa6565b611970612f81565b7f9016d09d72d40fdae2fd8ceac6b6234c7706214fd39c1cd1e609a0528c19930080546001600160a01b031981166001600160a01b03848116918217845560405192169182907f8be0079c531659141344cd1fd0a4f28419497f9722a3daafe3b4186f6b6457e090600090a3505050565b6000805160206136c88339815191525460ff1661197057604051638dfc202b60e01b815260040160405180910390fd5b7f9b779b17422d0df92223018b32b4d1fa46e071723d6817e2486d003becc55f005460020361197057604051633ee5aeb560e01b815260040160405180910390fd5b60405163a9059cbb60e01b60008181526001600160a01b038616600452602485905291602083604481808b5af192506001600051148316612ead578383151615612ea0573d6000823e3d81fd5b6000873b113d1516831692505b60405250949350505050565b6040516323b872dd60e01b60008181526001600160a01b038781166004528616602452604485905291602083606481808c5af192506001600051148316612f19578383151615612f0c573d6000823e3d81fd5b6000883b113d1516831692505b60405250600060605295945050505050565b612f3482612fae565b6040516001600160a01b038316907fbc7cd75a20ee27fd9adebab32041f755214dbc6bffa90cc0225b39da2e5c2d3b90600090a2805115612f7957610f6d8282613013565b6111536130ae565b612f896130cd565b61197057604051631afcd79f60e31b815260040160405180910390fd5b6125a9612f81565b806001600160a01b03163b600003612fe457604051634c9c8ce360e01b81526001600160a01b03821660048201526024016108f8565b6000805160206136a883398151915280546001600160a01b0319166001600160a01b0392909216919091179055565b6060600061302184846130e7565b9050808015613044575060003d118061304457506000846001600160a01b03163b115b15613051576122fe6130fc565b801561307b57604051639996b31560e01b81526001600160a01b03851660048201526024016108f8565b3d1561308e57613089613116565b6130a7565b60405163d6bda27560e01b815260040160405180910390fd5b5092915050565b34156119705760405163b398979f60e01b815260040160405180910390fd5b60006130d7612d2e565b54600160401b900460ff16919050565b6000806000835160208501865af49392505050565b6040513d81523d6000602083013e3d602001810160405290565b6040513d6000823e3d81fd5b80356001600160a01b038116811461313957600080fd5b919050565b8035801515811461313957600080fd5b6000806040838503121561316157600080fd5b61316a83613122565b91506131786020840161313e565b90509250929050565b6000806040838503121561319457600080fd5b61319d83613122565b915061317860208401613122565b6000602082840312156131bd57600080fd5b6131c68261313e565b9392505050565b6000602082840312156131df57600080fd5b5035919050565b600080600080608085870312156131fc57600080fd5b61320585613122565b9350602085013592506040850135915061322160608601613122565b905092959194509250565b60006020828403121561323e57600080fd5b6131c682613122565b60008060006060848603121561325c57600080fd5b61326584613122565b925061327360208501613122565b9150604084013590509250925092565b6000806040838503121561329657600080fd5b61329f83613122565b946020939093013593505050565b634e487b7160e01b600052604160045260246000fd5b600080604083850312156132d657600080fd5b6132df83613122565b9150602083013567ffffffffffffffff808211156132fc57600080fd5b818501915085601f83011261331057600080fd5b813581811115613322576133226132ad565b604051601f8201601f19908116603f0116810190838211818310171561334a5761334a6132ad565b8160405282815288602084870101111561336357600080fd5b8260208601602083013760006020848301015280955050505050509250929050565b600080600080600060a0868803121561339d57600080fd5b6133a686613122565b94506133b460208701613122565b935060408601359250606086013591506133d060808701613122565b90509295509295909350565b600080604083850312156133ef57600080fd5b50508035926020909101359150565b60006020808352835180602085015260005b8181101561342c57858101830151858201604001528201613410565b506000604082860101526040601f19601f8301168501019250505092915050565b634e487b7160e01b600052601160045260246000fd5b818103818111156123375761233761344d565b808201808211156123375761233761344d565b60208082526019908201527f535855413a20546f6b656e206e6f7420737570706f7274656400000000000000604082015260600190565b80820281158282048414176123375761233761344d565b6000826134f457634e487b7160e01b600052601260045260246000fd5b500490565b60208082526026908201527f535855413a20496e73756666696369656e7420756e636f6d6d69747465642062604082015265616c616e636560d01b606082015260800190565b60006020828403121561355157600080fd5b815160ff811681146131c657600080fd5b60ff82811682821603908111156123375761233761344d565b600181815b808511156135b657816000190482111561359c5761359c61344d565b808516156135a957918102915b93841c9390800290613580565b509250929050565b6000826135cd57506001612337565b816135da57506000612337565b81600181146135f057600281146135fa57613616565b6001915050612337565b60ff84111561360b5761360b61344d565b50506001821b612337565b5060208310610133831016604e8410600b8410161715613639575081810a612337565b613643838361357b565b80600019048211156136575761365761344d565b029392505050565b60006131c660ff8416836135be565b60006020828403121561368057600080fd5b505191905056fe0cb0e7c5873034a840c4dc30bacb0a6726b12ae7d9dbafd86f57e740b14a3769360894a13ba1a3210667c828492db98dca3e2076cc3735a920a3ca505d382bbccd5ed15c6e187e77e9aee88184c21f4f2182ab5827cb3b7e07fbedcd63f03300a2646970667358221220ad846dd42764b7deb2fbabd1afde689f1bd3f797b4d74950846eb1330252605c64736f6c63430008180033",
  "linkReferences": {},
  "deployedLinkReferences": {}
}