{
  "_format": "hh-sol-artifact-1",
  "contractName": "SXCP",
  "sourceName": "contracts/SXCP.sol",
  "abi": [
    {
      "inputs": [],
      "stateMutability": "nonpayable",
      "type": "constructor"
    },
    {
      "inputs": [
        {
          "internalType": "address",
          "name": "spender",
          "type": "address"
        },
        {
          "internalType": "uint256",
          "name": "allowance",
          "type": "uint256"
        },
        {
          "internalType": "uint256",
          "name": "needed",
          "type": "uint256"
        }
      ],
      "name": "ERC20InsufficientAllowance",
      "type": "error"
    },
    {
      "inputs": [
        {
          "internalType": "address",
          "name": "sender",
          "type": "address"
        },
        {
          "internalType": "uint256",
          "name": "balance",
          "type": "uint256"
        },
        {
          "internalType": "uint256",
          "name": "needed",
          "type": "uint256"
        }
      ],
      "name": "ERC20InsufficientBalance",
      "type": "error"
    },
    {
      "inputs": [
        {
          "internalType": "address",
          "name": "approver",
          "type": "address"
        }
      ],
      "name": "ERC20InvalidApprover",
      "type": "error"
    },
    {
      "inputs": [
        {
          "internalType": "address",
          "name": "receiver",
          "type": "address"
        }
      ],
      "name": "ERC20InvalidReceiver",
      "type": "error"
    },
    {
      "inputs": [
        {
          "internalType": "address",
          "name": "sender",
          "type": "address"
        }
      ],
      "name": "ERC20InvalidSender",
      "type": "error"
    },
    {
      "inputs": [
        {
          "internalType": "address",
          "name": "spender",
          "type": "address"
        }
      ],
      "name": "ERC20InvalidSpender",
      "type": "error"
    },
    {
      "inputs": [
        {
          "internalType": "address",
          "name": "owner",
          "type": "address"
        }
      ],
      "name": "OwnableInvalidOwner",
      "type": "error"
    },
    {
      "inputs": [
        {
          "internalType": "address",
          "name": "account",
          "type": "address"
        }
      ],
      "name": "OwnableUnauthorizedAccount",
      "type": "error"
    },
    {
      "anonymous": false,
      "inputs": [
        {
          "indexed": true,
          "internalType": "address",
          "name": "owner",
          "type": "address"
        },
        {
          "indexed": true,
          "internalType": "address",
          "name": "spender",
          "type": "address"
        },
        {
          "indexed": false,
          "internalType": "uint256",
          "name": "value",
          "type": "uint256"
        }
      ],
      "name": "Approval",
      "type": "event"
    },
    {
      "anonymous": false,
      "inputs": [
        {
          "indexed": true,
          "internalType": "address",
          "name": "minter",
          "type": "address"
        },
        {
          "indexed": false,
          "internalType": "bool",
          "name": "isMinter",
          "type": "bool"
        }
      ],
      "name": "MinterUpdated",
      "type": "event"
    },
    {
      "anonymous": false,
      "inputs": [
        {
          "indexed": true,
          "internalType": "address",
          "name": "previousOwner",
          "type": "address"
        },
        {
          "indexed": true,
          "internalType": "address",
          "name": "newOwner",
          "type": "address"
        }
      ],
      "name": "OwnershipTransferred",
      "type": "event"
    },
    {
      "anonymous": false,
      "inputs": [
        {
          "indexed": true,
          "internalType": "address",
          "name": "from",
          "type": "address"
        },
        {
          "indexed": true,
          "internalType": "address",
          "name": "to",
          "type": "address"
        },
        {
          "indexed": false,
          "internalType": "uint256",
          "name": "value",
          "type": "uint256"
        }
      ],
      "name": "Transfer",
      "type": "event"
    },
    {
      "inputs": [
        {
          "internalType": "address",
          "name": "owner",
          "type": "address"
        },
        {
          "internalType": "address",
          "name": "spender",
          "type": "address"
        }
      ],
      "name": "allowance",
      "outputs": [
        {
          "internalType": "uint256",
          "name": "",
          "type": "uint256"
        }
      ],
      "stateMutability": "view",
      "type": "function"
    },
    {
      "inputs": [
        {
          "internalType": "address",
          "name": "spender",
          "type": "address"
        },
        {
          "internalType": "uint256",
          "name": "value",
          "type": "uint256"
        }
      ],
      "name": "approve",
      "outputs": [
        {
          "internalType": "bool",
          "name": "",
          "type": "bool"
        }
      ],
      "stateMutability": "nonpayable",
      "type": "function"
    },
    {
      "inputs": [
        {
          "internalType": "address",
          "name": "account",
          "type": "address"
        }
      ],
      "name": "balanceOf",
      "outputs": [
        {
          "internalType": "uint256",
          "name": "",
          "type": "uint256"
        }
      ],
      "stateMutability": "view",
      "type": "function"
    },
    {
      "inputs": [],
      "name": "decimals",
      "outputs": [
        {
          "internalType": "uint8",
          "name": "",
          "type": "uint8"
        }
      ],
      "stateMutability": "view",
      "type": "function"
    },
    {
      "inputs": [
        {
          "internalType": "address",
          "name": "",
          "type": "address"
        }
      ],
      "name": "isMinter",
      "outputs": [
        {
          "internalType": "bool",
          "name": "",
          "type": "bool"
        }
      ],
      "stateMutability": "view",
      "type": "function"
    },
    {
      "inputs": [
        {
          "internalType": "address",
          "name": "to",
          "type": "address"
        },
        {
          "internalType": "uint256",
          "name": "amount",
          "type": "uint256"
        }
      ],
      "name": "mint",
      "outputs": [],
      "stateMutability": "nonpayable",
      "type": "function"
    },
    {
      "inputs": [],
      "name": "name",
      "outputs": [
        {
          "internalType": "string",
          "name": "",
          "type": "string"
        }
      ],
      "stateMutability": "view",
      "type": "function"
    },
    {
      "inputs": [],
      "name": "owner",
      "outputs": [
        {
          "internalType": "address",
          "name": "",
          "type": "address"
        }
      ],
      "stateMutability": "view",
      "type": "function"
    },
    {
      "inputs": [],
      "name": "renounceOwnership",
      "outputs": [],
      "stateMutability": "nonpayable",
      "type": "function"
    },
    {
      "inputs": [
        {
          "internalType": "address",
          "name": "minter",
          "type": "address"
        },
        {
          "internalType": "bool",
          "name": "_isMinter",
          "type": "bool"
        }
      ],
      "name": "setMinter",
      "outputs": [],
      "stateMutability": "nonpayable",
      "type": "function"
    },
    {
      "inputs": [],
      "name": "symbol",
      "outputs": [
        {
          "internalType": "string",
          "name": "",
          "type": "string"
        }
      ],
      "stateMutability": "view",
      "type": "function"
    },
    {
      "inputs": [],
      "name": "totalSupply",
      "outputs": [
        {
          "internalType": "uint256",
          "name": "",
          "type": "uint256"
        }
      ],
      "stateMutability": "view",
      "type": "function"
    },
    {
      "inputs": [
        {
          "internalType": "address",
          "name": "to",
          "type": "address"
        },
        {
          "internalType": "uint256",
          "name": "value",
          "type": "uint256"
        }
      ],
      "name": "transfer",
      "outputs": [
        {
          "internalType": "bool",
          "name": "",
          "type": "bool"
        }
      ],
      "stateMutability": "nonpayable",
      "type": "function"
    },
    {
      "inputs": [
        {
          "internalType": "address",
          "name": "from",
          "type": "address"
        },
        {
          "internalType": "address",
          "name": "to",
          "type": "address"
        },
        {
          "internalType": "uint256",
          "name": "value",
          "type": "uint256"
        }
      ],
      "name": "transferFrom",
      "outputs": [
        {
          "internalType": "bool",
          "name": "",
          "type": "bool"
        }
      ],
      "stateMutability": "nonpayable",
      "type": "function"
    },
    {
      "inputs": [
        {
          "internalType": "address",
          "name": "newOwner",
          "type": "address"
        }
      ],
      "name": "transferOwnership",
      "outputs": [],
      "stateMutability": "nonpayable",
      "type": "function"
    }
  ],
  "bytecode": "0x60806040523480156200001157600080fd5b50336040518060400160405280601d81526020017f535820436f6e7665727469626c652050726f746f636f6c20546f6b656e000000815250604051806040016040528060048152602001630535843560e41b8152508160039081620000779190620001c3565b506004620000868282620001c3565b5050506001600160a01b038116620000b857604051631e4fbdf760e01b81526000600482015260240160405180910390fd5b620000c381620000ca565b506200028f565b600580546001600160a01b038381166001600160a01b0319831681179093556040519116919082907f8be0079c531659141344cd1fd0a4f28419497f9722a3daafe3b4186f6b6457e090600090a35050565b634e487b7160e01b600052604160045260246000fd5b600181811c908216806200014757607f821691505b6020821081036200016857634e487b7160e01b600052602260045260246000fd5b50919050565b601f821115620001be576000816000526020600020601f850160051c81016020861015620001995750805b601f850160051c820191505b81811015620001ba57828155600101620001a5565b5050505b505050565b81516001600160401b03811115620001df57620001df6200011c565b620001f781620001f0845462000132565b846200016e565b602080601f8311600181146200022f5760008415620002165750858301515b600019600386901b1c1916600185901b178555620001ba565b600085815260208120601f198616915b8281101562000260578886015182559484019460019091019084016200023f565b50858210156200027f5787850151600019600388901b60f8161c191681555b5050505050600190811b01905550565b610a31806200029f6000396000f3fe608060405234801561001057600080fd5b50600436106100f55760003560e01c8063715018a611610097578063aa271e1a11610066578063aa271e1a146101eb578063cf456ae71461020e578063dd62ed3e14610221578063f2fde38b1461025a57600080fd5b8063715018a6146101ad5780638da5cb5b146101b557806395d89b41146101d0578063a9059cbb146101d857600080fd5b806323b872dd116100d357806323b872dd1461014d578063313ce5671461016057806340c10f191461016f57806370a082311461018457600080fd5b806306fdde03146100fa578063095ea7b31461011857806318160ddd1461013b575b600080fd5b61010261026d565b60405161010f919061083e565b60405180910390f35b61012b6101263660046108a9565b6102ff565b604051901515815260200161010f565b6002545b60405190815260200161010f565b61012b61015b3660046108d3565b610319565b6040516012815260200161010f565b61018261017d3660046108a9565b61033d565b005b61013f61019236600461090f565b6001600160a01b031660009081526020819052604090205490565b6101826103c4565b6005546040516001600160a01b03909116815260200161010f565b6101026103d8565b61012b6101e63660046108a9565b6103e7565b61012b6101f936600461090f565b60066020526000908152604090205460ff1681565b61018261021c366004610931565b6103f5565b61013f61022f36600461096d565b6001600160a01b03918216600090815260016020908152604080832093909416825291909152205490565b61018261026836600461090f565b61045c565b60606003805461027c906109a0565b80601f01602080910402602001604051908101604052809291908181526020018280546102a8906109a0565b80156102f55780601f106102ca576101008083540402835291602001916102f5565b820191906000526020600020905b8154815290600101906020018083116102d857829003601f168201915b5050505050905090565b60003361030d81858561049a565b60019150505b92915050565b6000336103278582856104ac565b61033285858561052b565b506001949350505050565b3360009081526006602052604090205460ff168061036557506005546001600160a01b031633145b6103b65760405162461bcd60e51b815260206004820152601c60248201527f535843503a2043616c6c6572206973206e6f742061206d696e7465720000000060448201526064015b60405180910390fd5b6103c0828261058a565b5050565b6103cc6105c0565b6103d660006105ed565b565b60606004805461027c906109a0565b60003361030d81858561052b565b6103fd6105c0565b6001600160a01b038216600081815260066020908152604091829020805460ff191685151590811790915591519182527fb21afb9ce9be0a676f8f317ff0ca072fb89a4f8ce2d1b6fe80f8755c14f1cb19910160405180910390a25050565b6104646105c0565b6001600160a01b03811661048e57604051631e4fbdf760e01b8152600060048201526024016103ad565b610497816105ed565b50565b6104a7838383600161063f565b505050565b6001600160a01b03838116600090815260016020908152604080832093861683529290522054600019811015610525578181101561051657604051637dc7a0d960e11b81526001600160a01b038416600482015260248101829052604481018390526064016103ad565b6105258484848403600061063f565b50505050565b6001600160a01b03831661055557604051634b637e8f60e11b8152600060048201526024016103ad565b6001600160a01b03821661057f5760405163ec442f0560e01b8152600060048201526024016103ad565b6104a7838383610714565b6001600160a01b0382166105b45760405163ec442f0560e01b8152600060048201526024016103ad565b6103c060008383610714565b6005546001600160a01b031633146103d65760405163118cdaa760e01b81523360048201526024016103ad565b600580546001600160a01b038381166001600160a01b0319831681179093556040519116919082907f8be0079c531659141344cd1fd0a4f28419497f9722a3daafe3b4186f6b6457e090600090a35050565b6001600160a01b0384166106695760405163e602df0560e01b8152600060048201526024016103ad565b6001600160a01b03831661069357604051634a1406b160e11b8152600060048201526024016103ad565b6001600160a01b038085166000908152600160209081526040808320938716835292905220829055801561052557826001600160a01b0316846001600160a01b03167f8c5be1e5ebec7d5bd14f71427d1e84f3dd0314c0f7b2291e5b200ac8c7c3b9258460405161070691815260200190565b60405180910390a350505050565b6001600160a01b03831661073f57806002600082825461073491906109da565b909155506107b19050565b6001600160a01b038316600090815260208190526040902054818110156107925760405163391434e360e21b81526001600160a01b038516600482015260248101829052604481018390526064016103ad565b6001600160a01b03841660009081526020819052604090209082900390555b6001600160a01b0382166107cd576002805482900390556107ec565b6001600160a01b03821660009081526020819052604090208054820190555b816001600160a01b0316836001600160a01b03167fddf252ad1be2c89b69c2b068fc378daa952ba7f163c4a11628f55a4df523b3ef8360405161083191815260200190565b60405180910390a3505050565b60006020808352835180602085015260005b8181101561086c57858101830151858201604001528201610850565b506000604082860101526040601f19601f8301168501019250505092915050565b80356001600160a01b03811681146108a457600080fd5b919050565b600080604083850312156108bc57600080fd5b6108c58361088d565b946020939093013593505050565b6000806000606084860312156108e857600080fd5b6108f18461088d565b92506108ff6020850161088d565b9150604084013590509250925092565b60006020828403121561092157600080fd5b61092a8261088d565b9392505050565b6000806040838503121561094457600080fd5b61094d8361088d565b91506020830135801515811461096257600080fd5b809150509250929050565b6000806040838503121561098057600080fd5b6109898361088d565b91506109976020840161088d565b90509250929050565b600181811c908216806109b457607f821691505b6020821081036109d457634e487b7160e01b600052602260045260246000fd5b50919050565b8082018082111561031357634e487b7160e01b600052601160045260246000fdfea26469706673582212200eff856467b344f0d1257e655fa0a277f9df2ee648290c9f0db39508d6f3f92164736f6c63430008180033",
  "linkReferences": {},
  "deployedLinkReferences": {}
}