{"contracts/SXUA.sol":{"SXUA":{"abi":[{"inputs":[],"stateMutability":"nonpayable","type":"constructor"},{"inputs":[{"internalType":"address","name":"target","type":"address"}],"name":"AddressEmptyCode","type":"error"},{"inputs":[{"internalType":"address","name":"implementation","type":"address"}],"name":"ERC1967InvalidImplementation","type":"error"},{"inputs":[],"name":"ERC1967NonPayable","type":"error"},{"inputs":[],"name":"EnforcedPause","type":"error"},{"inputs":[],"name":"ExpectedPause","type":"error"},{"inputs":[],"name":"FailedCall","type":"error"},{"inputs":[],"name":"InvalidInitialization","type":"error"},{"inputs":[],"name":"NotInitializing","type":"error"},{"inputs":[{"internalType":"address","name":"owner","type":"address"}],"name":"OwnableInvalidOwner","type":"error"},{"inputs":[{"internalType":"address","name":"account","type":"address"}],"name":"OwnableUnauthorizedAccount","type":"error"},{"inputs":[],"name":"ReentrancyGuardReentrantCall","type":"error"},{"inputs":[{"internalType":"address","name":"token","type":"address"}],"name":"SafeERC20FailedOperation","type":"error"},{"inputs":[],"name":"UUPSUnauthorizedCallContext","type":"error"},{"inputs":[{"internalType":"bytes32","name":"slot","type":"bytes32"}],"name":"UUPSUnsupportedProxiableUUID","type":"error"},{"anonymous":false,"inputs":[{"indexed":true,"internalType":"address","name":"user","type":"address"},{"indexed":true,"internalType":"address","name":"token","type":"address"},{"indexed":false,"internalType":"uint256","name":"amount","type":"uint256"}],"name":"Committed","type":"event"},{"anonymous":false,"inputs":[{"indexed":false,"internalType":"uint256","name":"penaltyPercent","type":"uint256"},{"indexed":false,"internalType":"uint256","name":"lockPeriod","type":"uint256"}],"name":"ConfigUpdated","type":"event"},{"anonymous":false,"inputs":[{"indexed":true,"internalType":"address","name":"user","type":"address"},{"indexed":true,"internalType":"address","name":"token","type":"address"},{"indexed":false,"internalType":"uint256","name":"amount","type":"uint256"}],"name":"DailyYieldAccrued","type":"event"},{"anonymous":false,"inputs":[{"indexed":true,"internalType":"address","name":"user","type":"address"},{"indexed":true,"internalType":"address","name":"token","type":"address"},{"indexed":false,"internalType":"uint256","name":"amount","type":"uint256"}],"name":"DailyYieldClaimed","type":"event"},{"anonymous":false,"inputs":[{"indexed":true,"internalType":"address","name":"user","type":"address"},{"indexed":true,"internalType":"address","name":"token","type":"address"},{"indexed":false,"internalType":"uint256","name":"amount","type":"uint256"}],"name":"Deposited","type":"event"},{"anonymous":false,"inputs":[{"indexed":false,"internalType":"bool","name":"active","type":"bool"}],"name":"EmergencyShutdownToggled","type":"event"},{"anonymous":false,"inputs":[{"indexed":true,"internalType":"address","name":"user","type":"address"},{"indexed":true,"internalType":"address","name":"token","type":"address"},{"indexed":false,"internalType":"uint256","name":"amount","type":"uint256"}],"name":"EmergencyWithdrawn","type":"event"},{"anonymous":false,"inputs":[{"indexed":false,"internalType":"uint64","name":"version","type":"uint64"}],"name":"Initialized","type":"event"},{"anonymous":false,"inputs":[{"indexed":true,"internalType":"address","name":"previousOwner","type":"address"},{"indexed":true,"internalType":"address","name":"newOwner","type":"address"}],"name":"OwnershipTransferred","type":"event"},{"anonymous":false,"inputs":[{"indexed":false,"internalType":"address","name":"account","type":"address"}],"name":"Paused","type":"event"},{"anonymous":false,"inputs":[{"indexed":true,"internalType":"address","name":"user","type":"address"},{"indexed":true,"internalType":"address","name":"token","type":"address"},{"indexed":false,"internalType":"uint256","name":"amount","type":"uint256"}],"name":"SxpRewardClaimed","type":"event"},{"anonymous":false,"inputs":[{"indexed":true,"internalType":"address","name":"token","type":"address"},{"indexed":false,"internalType":"bool","name":"supported","type":"bool"}],"name":"TokenSupported","type":"event"},{"anonymous":false,"inputs":[{"indexed":true,"internalType":"address","name":"user","type":"address"},{"indexed":true,"internalType":"address","name":"token","type":"address"},{"indexed":false,"internalType":"uint256","name":"amount","type":"uint256"},{"indexed":false,"internalType":"uint256","name":"penalty","type":"uint256"}],"name":"Uncommitted","type":"event"},{"anonymous":false,"inputs":[{"indexed":false,"internalType":"address","name":"account","type":"address"}],"name":"Unpaused","type":"event"},{"anonymous":false,"inputs":[{"indexed":true,"internalType":"address","name":"implementation","type":"address"}],"name":"Upgraded","type":"event"},{"anonymous":false,"inputs":[{"indexed":true,"internalType":"address","name":"user","type":"address"},{"indexed":true,"internalType":"address","name":"token","type":"address"},{"indexed":false,"internalType":"uint256","name":"amount","type":"uint256"}],"name":"Withdrawn","type":"event"},{"inputs":[],"name":"UPGRADE_INTERFACE_VERSION","outputs":[{"internalType":"string","name":"","type":"string"}],"stateMutability":"view","type":"function"},{"inputs":[{"internalType":"address","name":"user","type":"address"},{"internalType":"address","name":"token","type":"address"}],"name":"accrueDailyYield","outputs":[],"stateMutability":"nonpayable","type":"function"},{"inputs":[{"internalType":"address","name":"","type":"address"},{"internalType":"address","name":"","type":"address"}],"name":"accruedRewards","outputs":[{"internalType":"uint256","name":"","type":"uint256"}],"stateMutability":"view","type":"function"},{"inputs":[{"internalType":"address","name":"token","type":"address"}],"name":"claimDailyYield","outputs":[],"stateMutability":"nonpayable","type":"function"},{"inputs":[{"internalType":"address","name":"token","type":"address"}],"name":"claimSxpReward","outputs":[],"stateMutability":"nonpayable","type":"function"},{"inputs":[{"internalType":"address","name":"token","type":"address"},{"internalType":"uint256","name":"amount","type":"uint256"}],"name":"commit","outputs":[],"stateMutability":"nonpayable","type":"function"},{"inputs":[{"internalType":"address","name":"","type":"address"},{"internalType":"address","name":"","type":"address"}],"name":"commitTimestamps","outputs":[{"internalType":"uint256","name":"","type":"uint256"}],"stateMutability":"view","type":"function"},{"inputs":[{"internalType":"address","name":"","type":"address"},{"internalType":"address","name":"","type":"address"}],"name":"committedBalances","outputs":[{"internalType":"uint256","name":"","type":"uint256"}],"stateMutability":"view","type":"function"},{"inputs":[{"internalType":"address","name":"token","type":"address"},{"internalType":"uint256","name":"amount","type":"uint256"}],"name":"deposit","outputs":[],"stateMutability":"nonpayable","type":"function"},{"inputs":[{"internalType":"address","name":"user","type":"address"},{"internalType":"address","name":"token","type":"address"},{"internalType":"uint256","name":"amount","type":"uint256"}],"name":"depositFor","outputs":[],"stateMutability":"nonpayable","type":"function"},{"inputs":[],"name":"emergencyShutdownActive","outputs":[{"internalType":"bool","name":"","type":"bool"}],"stateMutability":"view","type":"function"},{"inputs":[{"internalType":"address","name":"token","type":"address"}],"name":"emergencyWithdraw","outputs":[],"stateMutability":"nonpayable","type":"function"},{"inputs":[{"internalType":"address","name":"token","type":"address"},{"internalType":"uint256","name":"amount","type":"uint256"}],"name":"getAmountIn18Decimals","outputs":[{"internalType":"uint256","name":"","type":"uint256"}],"stateMutability":"view","type":"function"},{"inputs":[{"internalType":"address","name":"_sxpToken","type":"address"},{"internalType":"address","name":"_treasury","type":"address"},{"internalType":"uint256","name":"_penaltyPercent","type":"uint256"},{"internalType":"uint256","name":"_lockPeriod","type":"uint256"},{"internalType":"address","name":"_ptfReceiver","type":"address"}],"name":"initialize","outputs":[],"stateMutability":"nonpayable","type":"function"},{"inputs":[{"internalType":"address","name":"","type":"address"},{"internalType":"address","name":"","type":"address"}],"name":"lastRewardTimestamp","outputs":[{"internalType":"uint256","name":"","type":"uint256"}],"stateMutability":"view","type":"function"},{"inputs":[],"name":"lockPeriod","outputs":[{"internalType":"uint256","name":"","type":"uint256"}],"stateMutability":"view","type":"function"},{"inputs":[],"name":"owner","outputs":[{"internalType":"address","name":"","type":"address"}],"stateMutability":"view","type":"function"},{"inputs":[],"name":"paused","outputs":[{"internalType":"bool","name":"","type":"bool"}],"stateMutability":"view","type":"function"},{"inputs":[{"internalType":"address","name":"user","type":"address"},{"internalType":"address","name":"token","type":"address"},{"internalType":"uint256","name":"amount","type":"uint256"}],"name":"payForLaunchpad","outputs":[],"stateMutability":"nonpayable","type":"function"},{"inputs":[],"name":"penaltyPercent","outputs":[{"internalType":"uint256","name":"","type":"uint256"}],"stateMutability":"view","type":"function"},{"inputs":[{"internalType":"address","name":"token","type":"address"},{"internalType":"address","name":"user","type":"address"}],"name":"pendingSxpReward","outputs":[{"internalType":"uint256","name":"","type":"uint256"}],"stateMutability":"view","type":"function"},{"inputs":[{"internalType":"address","name":"","type":"address"}],"name":"poolInfo","outputs":[{"internalType":"uint256","name":"totalCommitted","type":"uint256"},{"internalType":"uint256","name":"accSxpPerShare","type":"uint256"},{"internalType":"uint256","name":"lastRewardTimestamp","type":"uint256"}],"stateMutability":"view","type":"function"},{"inputs":[],"name":"proxiableUUID","outputs":[{"internalType":"bytes32","name":"","type":"bytes32"}],"stateMutability":"view","type":"function"},{"inputs":[],"name":"ptfReceiver","outputs":[{"internalType":"address","name":"","type":"address"}],"stateMutability":"view","type":"function"},{"inputs":[{"internalType":"address","name":"user","type":"address"},{"internalType":"address","name":"token","type":"address"},{"internalType":"uint256","name":"amount","type":"uint256"}],"name":"refundToUser","outputs":[],"stateMutability":"nonpayable","type":"function"},{"inputs":[],"name":"renounceOwnership","outputs":[],"stateMutability":"nonpayable","type":"function"},{"inputs":[{"internalType":"address","name":"","type":"address"},{"internalType":"address","name":"","type":"address"}],"name":"rewardDebt","outputs":[{"internalType":"uint256","name":"","type":"uint256"}],"stateMutability":"view","type":"function"},{"inputs":[{"internalType":"bool","name":"active","type":"bool"}],"name":"setEmergencyShutdown","outputs":[],"stateMutability":"nonpayable","type":"function"},{"inputs":[{"internalType":"address","name":"token","type":"address"},{"internalType":"bool","name":"supported","type":"bool"}],"name":"setTokenSupport","outputs":[],"stateMutability":"nonpayable","type":"function"},{"inputs":[{"internalType":"uint256","name":"","type":"uint256"}],"name":"supportedTokenList","outputs":[{"internalType":"address","name":"","type":"address"}],"stateMutability":"view","type":"function"},{"inputs":[{"internalType":"address","name":"","type":"address"}],"name":"supportedTokens","outputs":[{"internalType":"bool","name":"","type":"bool"}],"stateMutability":"view","type":"function"},{"inputs":[],"name":"sxpToken","outputs":[{"internalType":"contract SXP","name":"","type":"address"}],"stateMutability":"view","type":"function"},{"inputs":[{"internalType":"address","name":"newOwner","type":"address"}],"name":"transferOwnership","outputs":[],"stateMutability":"nonpayable","type":"function"},{"inputs":[],"name":"treasury","outputs":[{"internalType":"address","name":"","type":"address"}],"stateMutability":"view","type":"function"},{"inputs":[{"internalType":"address","name":"token","type":"address"},{"internalType":"uint256","name":"amount","type":"uint256"}],"name":"uncommit","outputs":[],"stateMutability":"nonpayable","type":"function"},{"inputs":[{"internalType":"address","name":"","type":"address"},{"internalType":"address","name":"","type":"address"}],"name":"uncommittedBalances","outputs":[{"internalType":"uint256","name":"","type":"uint256"}],"stateMutability":"view","type":"function"},{"inputs":[{"internalType":"uint256","name":"_penaltyPercent","type":"uint256"},{"internalType":"uint256","name":"_lockPeriod","type":"uint256"}],"name":"updateConfig","outputs":[],"stateMutability":"nonpayable","type":"function"},{"inputs":[{"internalType":"address","name":"token","type":"address"}],"name":"updatePool","outputs":[],"stateMutability":"nonpayable","type":"function"},{"inputs":[{"internalType":"address","name":"newImplementation","type":"address"},{"internalType":"bytes","name":"data","type":"bytes"}],"name":"upgradeToAndCall","outputs":[],"stateMutability":"payable","type":"function"},{"inputs":[{"internalType":"address","name":"token","type":"address"},{"internalType":"uint256","name":"amount","type":"uint256"}],"name":"withdraw","outputs":[],"stateMutability":"nonpayable","type":"function"}],"evm":{"bytecode":{"linkReferences":{},"object":"60a0604052306080523480156200001557600080fd5b5060017f9b779b17422d0df92223018b32b4d1fa46e071723d6817e2486d003becc55f0055620000446200004a565b620000fe565b7ff0c57e16840df040f15088dc2f81fe391c3923bec73e23a9662efc9c229c6a00805468010000000000000000900460ff16156200009b5760405163f92ee8a960e01b815260040160405180910390fd5b80546001600160401b0390811614620000fb5780546001600160401b0319166001600160401b0390811782556040519081527fc7f505b2f371ae2175ee4913f4499e1f2633a7b5936321eed1cdaeb6115181d29060200160405180910390a15b50565b6080516132d762000128600039600081816127630152818161278c01526128cd01526132d76000f3fe60806040526004361061023b5760003560e01c8063715018a61161012e578063b3db428b116100ab578063cc48996e1161006f578063cc48996e146107a4578063daa1e1fb146107dc578063f2fde38b146107fc578063f3fef3a31461081c578063f8325acc1461083c57600080fd5b8063b3db428b146106e7578063b56ead9714610707578063bba9ba4c14610727578063c7ae483e14610747578063ca9f2e8b1461076c57600080fd5b80638ae56d57116100f25780638ae56d57146105bd5780638da5cb5b146105dd578063951ae7a81461061a5780639a7b5f1114610652578063ad3cb1cc146106a957600080fd5b8063715018a6146105105780637b46c54f146105255780637b4717a4146105455780638248e7221461057d57806384bf15351461059d57600080fd5b806347e7ef24116101bc5780635c975abb116101805780635c975abb1461044357806361d027b31461046857806368c4ac26146104885780636a12b560146104b85780636ff1c9bc146104f057600080fd5b806347e7ef24146103bb5780634f1ef286146103db57806352d1902d146103ee57806357fb25cc146104035780635b666e901461042357600080fd5b80631b3b6b80116102035780631b3b6b801461030d5780632b60c82214610345578063347c8d5e146103655780633dc78cc4146103855780633fd8b02f146103a557600080fd5b80630c6a753f1461024057806313aaf7f11461026257806314c64402146102ad57806314cf339e146102cd578063161ba46a146102f7575b600080fd5b34801561024c57600080fd5b5061026061025b366004612d4e565b61085c565b005b34801561026e57600080fd5b5061029a61027d366004612d81565b600560209081526000928352604080842090915290825290205481565b6040519081526020015b60405180910390f35b3480156102b957600080fd5b506102606102c8366004612dab565b6109c7565b3480156102d957600080fd5b50600d546102e79060ff1681565b60405190151581526020016102a4565b34801561030357600080fd5b5061029a600b5481565b34801561031957600080fd5b5060005461032d906001600160a01b031681565b6040516001600160a01b0390911681526020016102a4565b34801561035157600080fd5b5061032d610360366004612dcd565b610a34565b34801561037157600080fd5b50610260610380366004612de6565b610a5e565b34801561039157600080fd5b506102606103a0366004612e01565b610b95565b3480156103b157600080fd5b5061029a600c5481565b3480156103c757600080fd5b506102606103d6366004612e3d565b610c67565b6102606103e9366004612e7d565b610dba565b3480156103fa57600080fd5b5061029a610dd5565b34801561040f57600080fd5b5061026061041e366004612f3f565b610df2565b34801561042f57600080fd5b5061026061043e366004612e3d565b611050565b34801561044f57600080fd5b506000805160206132628339815191525460ff166102e7565b34801561047457600080fd5b5060015461032d906001600160a01b031681565b34801561049457600080fd5b506102e76104a3366004612de6565b60026020526000908152604090205460ff1681565b3480156104c457600080fd5b5061029a6104d3366004612d81565b600660209081526000928352604080842090915290825290205481565b3480156104fc57600080fd5b5061026061050b366004612de6565b611461565b34801561051c57600080fd5b506102606115e2565b34801561053157600080fd5b50610260610540366004612de6565b6115f6565b34801561055157600080fd5b5061029a610560366004612d81565b600a60209081526000928352604080842090915290825290205481565b34801561058957600080fd5b50610260610598366004612f96565b6116c6565b3480156105a957600080fd5b506102606105b8366004612e3d565b611766565b3480156105c957600080fd5b506102606105d8366004612de6565b611af5565b3480156105e957600080fd5b507f9016d09d72d40fdae2fd8ceac6b6234c7706214fd39c1cd1e609a0528c199300546001600160a01b031661032d565b34801561062657600080fd5b5061029a610635366004612d81565b600460209081526000928352604080842090915290825290205481565b34801561065e57600080fd5b5061068e61066d366004612de6565b60096020526000908152604090208054600182015460029092015490919083565b604080519384526020840192909252908201526060016102a4565b3480156106b557600080fd5b506106da604051806040016040528060058152602001640352e302e360dc1b81525081565b6040516102a49190612fb8565b3480156106f357600080fd5b50610260610702366004612e01565b611d2f565b34801561071357600080fd5b5061029a610722366004612e3d565b611e91565b34801561073357600080fd5b5061029a610742366004612d81565b611f63565b34801561075357600080fd5b50600d5461032d9061010090046001600160a01b031681565b34801561077857600080fd5b5061029a610787366004612d81565b600860209081526000928352604080842090915290825290205481565b3480156107b057600080fd5b5061029a6107bf366004612d81565b600760209081526000928352604080842090915290825290205481565b3480156107e857600080fd5b506102606107f7366004612e01565b6120c4565b34801561080857600080fd5b50610260610817366004612de6565b6121d6565b34801561082857600080fd5b50610260610837366004612e3d565b612211565b34801561084857600080fd5b50610260610857366004612d81565b6123fa565b6108646125d1565b6001600160a01b0382166108b55760405162461bcd60e51b815260206004820152601360248201527229ac2aa09d1024b73b30b634b2103a37b5b2b760691b60448201526064015b60405180910390fd5b8080156108db57506001600160a01b03821660009081526002602052604090205460ff16155b15610968576003805460018082019092557fc2575a0e9e593c00f959f8c92f12db2869c3395a3b0502d05e2516446f71f85b0180546001600160a01b0319166001600160a01b038516908117909155604080516060810182526000808252602080830182815242848601908152958352600990915292902090518155905192810192909255516002909101555b6001600160a01b038216600081815260026020908152604091829020805460ff191685151590811790915591519182527fd86c88b4a367d9b81a6e00c9d3f7d01657bffef358fa8968c91c045ae99f0d52910160405180910390a25050565b6109cf6125d1565b600d805460ff191682158015919091179091556109f3576109ee61262c565b6109fb565b6109fb612689565b60405181151581527ff3017345aa4f4b1edf82d1945ba8aaf39d9f284595b090260947f03bc53566f1906020015b60405180910390a150565b60038181548110610a4457600080fd5b6000918252602090912001546001600160a01b0316905081565b610a666126cf565b610a6e612700565b610a7833826123fa565b3360009081526008602090815260408083206001600160a01b038516845290915290205480610ae95760405162461bcd60e51b815260206004820152601c60248201527f535855413a204e6f2061636372756564206461696c79207969656c640000000060448201526064016108ac565b3360008181526008602090815260408083206001600160a01b038716808552908352818420849055938352600582528083209383529290529081208054839290610b3490849061301d565b90915550506040518181526001600160a01b0383169033907f35a593989214273cad8f7c3cea2bc516d2ea114bbdb9088cbab07696e65b6d97906020015b60405180910390a350610b92600160008051602061328283398151915255565b50565b610b9d6126cf565b610ba5612700565b60008111610bf05760405162461bcd60e51b81526020600482015260186024820152770535855413a20416d6f756e74206d757374206265203e20360441b60448201526064016108ac565b610c056001600160a01b03831633308461271c565b610c0f83836123fa565b6001600160a01b03808416600090815260056020908152604080832093861683529290529081208054839290610c4690849061301d565b9091555050600160008051602061328283398151915255505050565b505050565b610c6f6126cf565b610c77612700565b6001600160a01b03821660009081526002602052604090205460ff16610caf5760405162461bcd60e51b81526004016108ac90613030565b60008111610cff5760405162461bcd60e51b815260206004820181905260248201527f535855413a204465706f73697420616d6f756e74206d757374206265203e203060448201526064016108ac565b610d0933836123fa565b610d12826115f6565b610d276001600160a01b03831633308461271c565b3360009081526005602090815260408083206001600160a01b038616845290915281208054839290610d5a90849061301d565b90915550506040518181526001600160a01b0383169033907f8752a472e571a816aea92eec8dae9baf628e840f4929fbcc2d155e6233ff68a79060200160405180910390a3610db6600160008051602061328283398151915255565b5050565b610dc2612758565b610dcb826127fd565b610db68282612805565b6000610ddf6128c2565b5060008051602061324283398151915290565b6000610dfc61290b565b805490915060ff600160401b820416159067ffffffffffffffff16600081158015610e245750825b905060008267ffffffffffffffff166001148015610e415750303b155b905081158015610e4f575080155b15610e6d5760405163f92ee8a960e01b815260040160405180910390fd5b845467ffffffffffffffff191660011785558315610e9757845460ff60401b1916600160401b1785555b610ea033612934565b610ea8612945565b6001600160a01b038a16610efe5760405162461bcd60e51b815260206004820152601760248201527f535855413a20496e76616c69642053585020746f6b656e00000000000000000060448201526064016108ac565b6001600160a01b038916610f4d5760405162461bcd60e51b8152602060048201526016602482015275535855413a20496e76616c696420747265617375727960501b60448201526064016108ac565b6001600160a01b038616610fa35760405162461bcd60e51b815260206004820152601a60248201527f535855413a20496e76616c69642050544620726563656976657200000000000060448201526064016108ac565b600080546001600160a01b03199081166001600160a01b038d811691909117909255600180549091168b8316179055600b899055600c889055600d80546001600160a81b0319166101009289169290920260ff1916919091179055831561104457845460ff60401b19168555604051600181527fc7f505b2f371ae2175ee4913f4499e1f2633a7b5936321eed1cdaeb6115181d29060200160405180910390a15b50505050505050505050565b6110586126cf565b611060612700565b600081116110ba5760405162461bcd60e51b815260206004820152602160248201527f535855413a20556e636f6d6d697420616d6f756e74206d757374206265203e206044820152600360fc1b60648201526084016108ac565b3360009081526004602090815260408083206001600160a01b03861684529091529020548111156111395760405162461bcd60e51b8152602060048201526024808201527f535855413a20496e73756666696369656e7420636f6d6d69747465642062616c604482015263616e636560e01b60648201526084016108ac565b61114333836123fa565b61114c826115f6565b6001600160a01b03821660008181526009602090815260408083203380855260048452828520868652845282852054908552600a845282852095855294909252822054600182015491939291670de0b6b3a7640000906111ac9085613067565b6111b6919061307e565b6111c091906130a0565b9050801561126d576000546040516340c10f1960e01b8152336004820152602481018390526001600160a01b03909116906340c10f1990604401600060405180830381600087803b15801561121457600080fd5b505af1158015611228573d6000803e3d6000fd5b50506040518381526001600160a01b03881692503391507f0cb0e7c5873034a840c4dc30bacb0a6726b12ae7d9dbafd86f57e740b14a37699060200160405180910390a35b3360009081526004602090815260408083206001600160a01b0389168452909152812080548692906112a09084906130a0565b90915550508254849084906000906112b99084906130a0565b9091555050600c543360009081526006602090815260408083206001600160a01b038a16845290915281205490916112f09161301d565b421015611314576064600b54866113079190613067565b611311919061307e565b90505b600061132082876130a0565b3360009081526005602090815260408083206001600160a01b038c16845290915281208054929350839290919061135890849061301d565b9091555050811561139d573360009081526008602090815260408083206001600160a01b038b8116808652919093529083209290925560015461139d9291168461294d565b60018501543360009081526004602090815260408083206001600160a01b038c168452909152902054670de0b6b3a7640000916113d991613067565b6113e3919061307e565b336000818152600a602090815260408083206001600160a01b038d16808552908352928190209490945583518a815290810186905290927f649abb3afb2aa3c768b7de0f94681c5570f8eb8c763253e4a1f05551d299f679910160405180910390a35050505050610db6600160008051602061328283398151915255565b611469612700565b600d5460ff166114c75760405162461bcd60e51b815260206004820152602360248201527f535855413a20456d657267656e63792073687574646f776e206e6f742061637460448201526269766560e81b60648201526084016108ac565b3360008181526004602090815260408083206001600160a01b0386168085529083528184205494845260058352818420908452909152812054909161150b9161301d565b90506000811161155d5760405162461bcd60e51b815260206004820152601c60248201527f535855413a204e6f2062616c616e636520746f2077697468647261770000000060448201526064016108ac565b3360008181526005602090815260408083206001600160a01b038716808552908352818420849055848452600483528184208185529092528220919091556115a5918361294d565b6040518181526001600160a01b0383169033907f457e4fe0c9f161a0c6f3bfb8d7809a4ac19f6291bd81b03b86b0d00f9af3717b90602001610b72565b6115ea6125d1565b6115f46000612982565b565b6001600160a01b03811660009081526009602052604090206002810154421161161d575050565b8054600003611630574260029091015550565b600081600201544261164291906130a0565b90506000611654848460000154611e91565b9050600063bbf81e008361166984602c613067565b6116739190613067565b61167d919061307e565b845490915061169482670de0b6b3a7640000613067565b61169e919061307e565b8460010160008282546116b1919061301d565b90915550504260029094019390935550505050565b6116ce6125d1565b606482111561171f5760405162461bcd60e51b815260206004820181905260248201527f535855413a20496e76616c69642070656e616c74792070657263656e7461676560448201526064016108ac565b600b829055600c81905560408051838152602081018390527f0936b3616d5072fa8f7381ef8e7c35d39bed9ecfb2184e908a56027ad5c0b6bc910160405180910390a15050565b61176e6126cf565b611776612700565b6001600160a01b03821660009081526002602052604090205460ff166117ae5760405162461bcd60e51b81526004016108ac90613030565b600081116117fe5760405162461bcd60e51b815260206004820152601f60248201527f535855413a20436f6d6d697420616d6f756e74206d757374206265203e20300060448201526064016108ac565b3360009081526005602090815260408083206001600160a01b03861684529091529020548111156118415760405162461bcd60e51b81526004016108ac906130b3565b61184b33836123fa565b611854826115f6565b6001600160a01b03821660008181526009602090815260408083203384526004835281842094845293909152902054801561198957336000908152600a602090815260408083206001600160a01b03881684529091528120546001840154670de0b6b3a7640000906118c69085613067565b6118d0919061307e565b6118da91906130a0565b90508015611987576000546040516340c10f1960e01b8152336004820152602481018390526001600160a01b03909116906340c10f1990604401600060405180830381600087803b15801561192e57600080fd5b505af1158015611942573d6000803e3d6000fd5b50506040518381526001600160a01b03881692503391507f0cb0e7c5873034a840c4dc30bacb0a6726b12ae7d9dbafd86f57e740b14a37699060200160405180910390a35b505b3360009081526005602090815260408083206001600160a01b0388168452909152812080548592906119bc9084906130a0565b90915550503360009081526004602090815260408083206001600160a01b0388168452909152812080548592906119f490849061301d565b90915550503360009081526006602090815260408083206001600160a01b03881684529091528120429055825484918491611a3090849061301d565b909155505060018201543360009081526004602090815260408083206001600160a01b0389168452909152902054670de0b6b3a764000091611a7191613067565b611a7b919061307e565b336000818152600a602090815260408083206001600160a01b038a1680855292529182902093909355517fa5e4e34711d102d6aaadc9166b6c0ca95c3c5c1e55a45836d9d1d4f7ccb329e190611ad49087815260200190565b60405180910390a35050610db6600160008051602061328283398151915255565b611afd6126cf565b611b05612700565b611b0e816115f6565b6001600160a01b0381166000818152600960209081526040808320338452600483528184209484529390915290205480611b8a5760405162461bcd60e51b815260206004820152601a60248201527f535855413a204e6f20636f6d6d69747465642062616c616e636500000000000060448201526064016108ac565b336000908152600a602090815260408083206001600160a01b03871684529091528120546001840154670de0b6b3a764000090611bc79085613067565b611bd1919061307e565b611bdb91906130a0565b905060008111611c2d5760405162461bcd60e51b815260206004820152601c60248201527f535855413a204e6f205358502072657761726420746f20636c61696d0000000060448201526064016108ac565b670de0b6b3a7640000836001015483611c469190613067565b611c50919061307e565b336000818152600a602090815260408083206001600160a01b038a81168552925280832094909455905492516340c10f1960e01b815260048101929092526024820184905291909116906340c10f1990604401600060405180830381600087803b158015611cbd57600080fd5b505af1158015611cd1573d6000803e3d6000fd5b50506040518381526001600160a01b03871692503391507f0cb0e7c5873034a840c4dc30bacb0a6726b12ae7d9dbafd86f57e740b14a37699060200160405180910390a3505050610b92600160008051602061328283398151915255565b611d376126cf565b611d3f612700565b6001600160a01b03821660009081526002602052604090205460ff16611d775760405162461bcd60e51b81526004016108ac90613030565b60008111611dc75760405162461bcd60e51b815260206004820181905260248201527f535855413a204465706f73697420616d6f756e74206d757374206265203e203060448201526064016108ac565b611dd183836123fa565b611dda826115f6565b611def6001600160a01b03831633308461271c565b6001600160a01b03808416600090815260056020908152604080832093861683529290529081208054839290611e2690849061301d565b92505081905550816001600160a01b0316836001600160a01b03167f8752a472e571a816aea92eec8dae9baf628e840f4929fbcc2d155e6233ff68a783604051611e7291815260200190565b60405180910390a3610c62600160008051602061328283398151915255565b600080836001600160a01b031663313ce5676040518163ffffffff1660e01b8152600401602060405180830381865afa158015611ed2573d6000803e3d6000fd5b505050506040513d601f19601f82011682018060405250810190611ef691906130f9565b905060128160ff161015611f2c57611f0f81601261311c565b611f1a90600a613219565b611f249084613067565b915050611f5d565b60128160ff161115611f5857611f4360128261311c565b611f4e90600a613219565b611f24908461307e565b829150505b92915050565b6001600160a01b0380831660008181526009602090815260408083208151606081018352815481526001820154818501526002909101548183015294861683526004825280832093835292905290812054909190808303611fc957600092505050611f5d565b816040015142118015611fdc5750815115155b15612067576000826040015142611ff391906130a0565b90506000612005878560000151611e91565b9050600063bbf81e008361201a84602c613067565b6120249190613067565b61202e919061307e565b855190915061204582670de0b6b3a7640000613067565b61204f919061307e565b85602001818151612060919061301d565b9052505050505b6001600160a01b038085166000908152600a6020908152604080832093891683529281529190205490830151670de0b6b3a7640000906120a79084613067565b6120b1919061307e565b6120bb91906130a0565b95945050505050565b6120cc6126cf565b6120d4612700565b6000811161211f5760405162461bcd60e51b81526020600482015260186024820152770535855413a20416d6f756e74206d757374206265203e20360441b60448201526064016108ac565b6001600160a01b038084166000908152600560209081526040808320938616835292905220548111156121645760405162461bcd60e51b81526004016108ac906130b3565b61216e83836123fa565b6001600160a01b038084166000908152600560209081526040808320938616835292905290812080548392906121a59084906130a0565b909155506121bf90506001600160a01b038316338361294d565b610c62600160008051602061328283398151915255565b6121de6125d1565b6001600160a01b03811661220857604051631e4fbdf760e01b8152600060048201526024016108ac565b610b9281612982565b6122196126cf565b612221612700565b6000811161227d5760405162461bcd60e51b815260206004820152602360248201527f535855413a205769746864726177616c20616d6f756e74206d7573742062652060448201526203e20360ec1b60648201526084016108ac565b3360009081526005602090815260408083206001600160a01b03861684529091529020548111156122c05760405162461bcd60e51b81526004016108ac906130b3565b6122ca33836123fa565b3360009081526005602090815260408083206001600160a01b0386168452909152812080548392906122fd9084906130a0565b90915550600090506064612312836006613067565b61231c919061307e565b90506000606461232d846001613067565b612337919061307e565b905060008161234684866130a0565b61235091906130a0565b60015490915061236d906001600160a01b0387811691168561294d565b600d5461238c906001600160a01b03878116916101009004168461294d565b6123a06001600160a01b038616338361294d565b6040518481526001600160a01b0386169033907fd1c19fbcd4551a5edfb66d43d2e337c04837afda3482b42bdf569a8fccdae5fb9060200160405180910390a3505050610db6600160008051602061328283398151915255565b6001600160a01b0380831660009081526007602090815260408083209385168352929052908120549081900361245757506001600160a01b0391821660009081526007602090815260408083209390941682529190915220429055565b600061246382426130a0565b90506000612474620151808361307e565b905080156125ca576001600160a01b0380861660008181526004602090815260408083209489168084529482528083205493835260058252808320948352939052918220546124c3919061301d565b90506000612710836124d684600c613067565b6124e09190613067565b6124ea919061307e565b9050801561257e576001600160a01b038088166000908152600860209081526040808320938a168352929052908120805483929061252990849061301d565b92505081905550856001600160a01b0316876001600160a01b03167f1549bc24da46a362b594d2d6a9c0d8db4450c417093899401c2993a1cbce65cb8360405161257591815260200190565b60405180910390a35b61258b8362015180613067565b6001600160a01b038089166000908152600760209081526040808320938b16835292905290812080549091906125c290849061301d565b909155505050505b5050505050565b336126037f9016d09d72d40fdae2fd8ceac6b6234c7706214fd39c1cd1e609a0528c199300546001600160a01b031690565b6001600160a01b0316146115f45760405163118cdaa760e01b81523360048201526024016108ac565b6126346126cf565b600080516020613262833981519152805460ff191660011781557f62e78cea01bee320cd4e420270b5ea74000d11b0c9f74754ebdbfc544b05a258335b6040516001600160a01b039091168152602001610a29565b6126916129f3565b600080516020613262833981519152805460ff191681557f5db9ee0a495bf2e6ff9c91a7834c1ba4fdd244a5e8aa4e537bd38aeae4b073aa33612671565b6000805160206132628339815191525460ff16156115f45760405163d93c066560e01b815260040160405180910390fd5b612708612a23565b600260008051602061328283398151915255565b61272a848484846001612a53565b61275257604051635274afe760e01b81526001600160a01b03851660048201526024016108ac565b50505050565b306001600160a01b037f00000000000000000000000000000000000000000000000000000000000000001614806127df57507f00000000000000000000000000000000000000000000000000000000000000006001600160a01b03166127d3600080516020613242833981519152546001600160a01b031690565b6001600160a01b031614155b156115f45760405163703e46dd60e11b815260040160405180910390fd5b610b926125d1565b816001600160a01b03166352d1902d6040518163ffffffff1660e01b8152600401602060405180830381865afa92505050801561285f575060408051601f3d908101601f1916820190925261285c91810190613228565b60015b61288757604051634c9c8ce360e01b81526001600160a01b03831660048201526024016108ac565b60008051602061324283398151915281146128b857604051632a87526960e21b8152600481018290526024016108ac565b610c628383612ac5565b306001600160a01b037f000000000000000000000000000000000000000000000000000000000000000016146115f45760405163703e46dd60e11b815260040160405180910390fd5b6000807ff0c57e16840df040f15088dc2f81fe391c3923bec73e23a9662efc9c229c6a00611f5d565b61293c612b1b565b610b9281612b40565b6115f4612b1b565b61295a8383836001612b48565b610c6257604051635274afe760e01b81526001600160a01b03841660048201526024016108ac565b7f9016d09d72d40fdae2fd8ceac6b6234c7706214fd39c1cd1e609a0528c19930080546001600160a01b031981166001600160a01b03848116918217845560405192169182907f8be0079c531659141344cd1fd0a4f28419497f9722a3daafe3b4186f6b6457e090600090a3505050565b6000805160206132628339815191525460ff166115f457604051638dfc202b60e01b815260040160405180910390fd5b600080516020613282833981519152546002036115f457604051633ee5aeb560e01b815260040160405180910390fd5b6040516323b872dd60e01b60008181526001600160a01b038781166004528616602452604485905291602083606481808c5af192506001600051148316612ab3578383151615612aa6573d6000823e3d81fd5b6000883b113d1516831692505b60405250600060605295945050505050565b612ace82612bae565b6040516001600160a01b038316907fbc7cd75a20ee27fd9adebab32041f755214dbc6bffa90cc0225b39da2e5c2d3b90600090a2805115612b1357610c628282612c13565b610db6612cae565b612b23612ccd565b6115f457604051631afcd79f60e31b815260040160405180910390fd5b6121de612b1b565b60405163a9059cbb60e01b60008181526001600160a01b038616600452602485905291602083604481808b5af192506001600051148316612ba2578383151615612b95573d6000823e3d81fd5b6000873b113d1516831692505b60405250949350505050565b806001600160a01b03163b600003612be457604051634c9c8ce360e01b81526001600160a01b03821660048201526024016108ac565b60008051602061324283398151915280546001600160a01b0319166001600160a01b0392909216919091179055565b60606000612c218484612ce7565b9050808015612c44575060003d1180612c4457506000846001600160a01b03163b115b15612c5157611f24612cfc565b8015612c7b57604051639996b31560e01b81526001600160a01b03851660048201526024016108ac565b3d15612c8e57612c89612d16565b612ca7565b60405163d6bda27560e01b815260040160405180910390fd5b5092915050565b34156115f45760405163b398979f60e01b815260040160405180910390fd5b6000612cd761290b565b54600160401b900460ff16919050565b6000806000835160208501865af49392505050565b6040513d81523d6000602083013e3d602001810160405290565b6040513d6000823e3d81fd5b80356001600160a01b0381168114612d3957600080fd5b919050565b80358015158114612d3957600080fd5b60008060408385031215612d6157600080fd5b612d6a83612d22565b9150612d7860208401612d3e565b90509250929050565b60008060408385031215612d9457600080fd5b612d9d83612d22565b9150612d7860208401612d22565b600060208284031215612dbd57600080fd5b612dc682612d3e565b9392505050565b600060208284031215612ddf57600080fd5b5035919050565b600060208284031215612df857600080fd5b612dc682612d22565b600080600060608486031215612e1657600080fd5b612e1f84612d22565b9250612e2d60208501612d22565b9150604084013590509250925092565b60008060408385031215612e5057600080fd5b612e5983612d22565b946020939093013593505050565b634e487b7160e01b600052604160045260246000fd5b60008060408385031215612e9057600080fd5b612e9983612d22565b9150602083013567ffffffffffffffff80821115612eb657600080fd5b818501915085601f830112612eca57600080fd5b813581811115612edc57612edc612e67565b604051601f8201601f19908116603f01168101908382118183101715612f0457612f04612e67565b81604052828152886020848701011115612f1d57600080fd5b8260208601602083013760006020848301015280955050505050509250929050565b600080600080600060a08688031215612f5757600080fd5b612f6086612d22565b9450612f6e60208701612d22565b93506040860135925060608601359150612f8a60808701612d22565b90509295509295909350565b60008060408385031215612fa957600080fd5b50508035926020909101359150565b60006020808352835180602085015260005b81811015612fe657858101830151858201604001528201612fca565b506000604082860101526040601f19601f8301168501019250505092915050565b634e487b7160e01b600052601160045260246000fd5b80820180821115611f5d57611f5d613007565b60208082526019908201527f535855413a20546f6b656e206e6f7420737570706f7274656400000000000000604082015260600190565b8082028115828204841417611f5d57611f5d613007565b60008261309b57634e487b7160e01b600052601260045260246000fd5b500490565b81810381811115611f5d57611f5d613007565b60208082526026908201527f535855413a20496e73756666696369656e7420756e636f6d6d69747465642062604082015265616c616e636560d01b606082015260800190565b60006020828403121561310b57600080fd5b815160ff81168114612dc657600080fd5b60ff8281168282160390811115611f5d57611f5d613007565b600181815b8085111561317057816000190482111561315657613156613007565b8085161561316357918102915b93841c939080029061313a565b509250929050565b60008261318757506001611f5d565b8161319457506000611f5d565b81600181146131aa57600281146131b4576131d0565b6001915050611f5d565b60ff8411156131c5576131c5613007565b50506001821b611f5d565b5060208310610133831016604e8410600b84101617156131f3575081810a611f5d565b6131fd8383613135565b806000190482111561321157613211613007565b029392505050565b6000612dc660ff841683613178565b60006020828403121561323a57600080fd5b505191905056fe360894a13ba1a3210667c828492db98dca3e2076cc3735a920a3ca505d382bbccd5ed15c6e187e77e9aee88184c21f4f2182ab5827cb3b7e07fbedcd63f033009b779b17422d0df92223018b32b4d1fa46e071723d6817e2486d003becc55f00a2646970667358221220803c5005aef4f2d4796d17f5cdbd80f19462eb33ee9145724948e857640704d764736f6c63430008180033","opcodes":"PUSH1 0xA0 PUSH1 0x40 MSTORE ADDRESS PUSH1 0x80 MSTORE CALLVALUE DUP1 ISZERO PUSH3 0x15 JUMPI PUSH1 0x0 DUP1 REVERT JUMPDEST POP PUSH1 0x1 PUSH32 0x9B779B17422D0DF92223018B32B4D1FA46E071723D6817E2486D003BECC55F00 SSTORE PUSH3 0x44 PUSH3 0x4A JUMP JUMPDEST PUSH3 0xFE JUMP JUMPDEST PUSH32 0xF0C57E16840DF040F15088DC2F81FE391C3923BEC73E23A9662EFC9C229C6A00 DUP1 SLOAD PUSH9 0x10000000000000000 SWAP1 DIV PUSH1 0xFF AND ISZERO PUSH3 0x9B JUMPI PUSH1 0x40 MLOAD PUSH4 0xF92EE8A9 PUSH1 0xE0 SHL DUP2 MSTORE PUSH1 0x4 ADD PUSH1 0x40 MLOAD DUP1 SWAP2 SUB SWAP1 REVERT JUMPDEST DUP1 SLOAD PUSH1 0x1 PUSH1 0x1 PUSH1 0x40 SHL SUB SWAP1 DUP2 AND EQ PUSH3 0xFB JUMPI DUP1 SLOAD PUSH1 0x1 PUSH1 0x1 PUSH1 0x40 SHL SUB NOT AND PUSH1 0x1 PUSH1 0x1 PUSH1 0x40 SHL SUB SWAP1 DUP2 OR DUP3 SSTORE PUSH1 0x40 MLOAD SWAP1 DUP2 MSTORE PUSH32 0xC7F505B2F371AE2175EE4913F4499E1F2633A7B5936321EED1CDAEB6115181D2 SWAP1 PUSH1 0x20 ADD PUSH1 0x40 MLOAD DUP1 SWAP2 SUB SWAP1 LOG1 JUMPDEST POP JUMP JUMPDEST PUSH1 0x80 MLOAD PUSH2 0x32D7 PUSH3 0x128 PUSH1 0x0 CODECOPY PUSH1 0x0 DUP2 DUP2 PUSH2 0x2763 ADD MSTORE DUP2 DUP2 PUSH2 0x278C ADD MSTORE PUSH2 0x28CD ADD MSTORE PUSH2 0x32D7 PUSH1 0x0 RETURN INVALID PUSH1 0x80 PUSH1 0x40 MSTORE PUSH1 0x4 CALLDATASIZE LT PUSH2 0x23B JUMPI PUSH1 0x0 CALLDATALOAD PUSH1 0xE0 SHR DUP1 PUSH4 0x715018A6 GT PUSH2 0x12E JUMPI DUP1 PUSH4 0xB3DB428B GT PUSH2 0xAB JUMPI DUP1 PUSH4 0xCC48996E GT PUSH2 0x6F JUMPI DUP1 PUSH4 0xCC48996E EQ PUSH2 0x7A4 JUMPI DUP1 PUSH4 0xDAA1E1FB EQ PUSH2 0x7DC JUMPI DUP1 PUSH4 0xF2FDE38B EQ PUSH2 0x7FC JUMPI DUP1 PUSH4 0xF3FEF3A3 EQ PUSH2 0x81C JUMPI DUP1 PUSH4 0xF8325ACC EQ PUSH2 0x83C JUMPI PUSH1 0x0 DUP1 REVERT JUMPDEST DUP1 PUSH4 0xB3DB428B EQ PUSH2 0x6E7 JUMPI DUP1 PUSH4 0xB56EAD97 EQ PUSH2 0x707 JUMPI DUP1 PUSH4 0xBBA9BA4C EQ PUSH2 0x727 JUMPI DUP1 PUSH4 0xC7AE483E EQ PUSH2 0x747 JUMPI DUP1 PUSH4 0xCA9F2E8B EQ PUSH2 0x76C JUMPI PUSH1 0x0 DUP1 REVERT JUMPDEST DUP1 PUSH4 0x8AE56D57 GT PUSH2 0xF2 JUMPI DUP1 PUSH4 0x8AE56D57 EQ PUSH2 0x5BD JUMPI DUP1 PUSH4 0x8DA5CB5B EQ PUSH2 0x5DD JUMPI DUP1 PUSH4 0x951AE7A8 EQ PUSH2 0x61A JUMPI DUP1 PUSH4 0x9A7B5F11 EQ PUSH2 0x652 JUMPI DUP1 PUSH4 0xAD3CB1CC EQ PUSH2 0x6A9 JUMPI PUSH1 0x0 DUP1 REVERT JUMPDEST DUP1 PUSH4 0x715018A6 EQ PUSH2 0x510 JUMPI DUP1 PUSH4 0x7B46C54F EQ PUSH2 0x525 JUMPI DUP1 PUSH4 0x7B4717A4 EQ PUSH2 0x545 JUMPI DUP1 PUSH4 0x8248E722 EQ PUSH2 0x57D JUMPI DUP1 PUSH4 0x84BF1535 EQ PUSH2 0x59D JUMPI PUSH1 0x0 DUP1 REVERT JUMPDEST DUP1 PUSH4 0x47E7EF24 GT PUSH2 0x1BC JUMPI DUP1 PUSH4 0x5C975ABB GT PUSH2 0x180 JUMPI DUP1 PUSH4 0x5C975ABB EQ PUSH2 0x443 JUMPI DUP1 PUSH4 0x61D027B3 EQ PUSH2 0x468 JUMPI DUP1 PUSH4 0x68C4AC26 EQ PUSH2 0x488 JUMPI DUP1 PUSH4 0x6A12B560 EQ PUSH2 0x4B8 JUMPI DUP1 PUSH4 0x6FF1C9BC EQ PUSH2 0x4F0 JUMPI PUSH1 0x0 DUP1 REVERT JUMPDEST DUP1 PUSH4 0x47E7EF24 EQ PUSH2 0x3BB JUMPI DUP1 PUSH4 0x4F1EF286 EQ PUSH2 0x3DB JUMPI DUP1 PUSH4 0x52D1902D EQ PUSH2 0x3EE JUMPI DUP1 PUSH4 0x57FB25CC EQ PUSH2 0x403 JUMPI DUP1 PUSH4 0x5B666E90 EQ PUSH2 0x423 JUMPI PUSH1 0x0 DUP1 REVERT JUMPDEST DUP1 PUSH4 0x1B3B6B80 GT PUSH2 0x203 JUMPI DUP1 PUSH4 0x1B3B6B80 EQ PUSH2 0x30D JUMPI DUP1 PUSH4 0x2B60C822 EQ PUSH2 0x345 JUMPI DUP1 PUSH4 0x347C8D5E EQ PUSH2 0x365 JUMPI DUP1 PUSH4 0x3DC78CC4 EQ PUSH2 0x385 JUMPI DUP1 PUSH4 0x3FD8B02F EQ PUSH2 0x3A5 JUMPI PUSH1 0x0 DUP1 REVERT JUMPDEST DUP1 PUSH4 0xC6A753F EQ PUSH2 0x240 JUMPI DUP1 PUSH4 0x13AAF7F1 EQ PUSH2 0x262 JUMPI DUP1 PUSH4 0x14C64402 EQ PUSH2 0x2AD JUMPI DUP1 PUSH4 0x14CF339E EQ PUSH2 0x2CD JUMPI DUP1 PUSH4 0x161BA46A EQ PUSH2 0x2F7 JUMPI JUMPDEST PUSH1 0x0 DUP1 REVERT JUMPDEST CALLVALUE DUP1 ISZERO PUSH2 0x24C JUMPI PUSH1 0x0 DUP1 REVERT JUMPDEST POP PUSH2 0x260 PUSH2 0x25B CALLDATASIZE PUSH1 0x4 PUSH2 0x2D4E JUMP JUMPDEST PUSH2 0x85C JUMP JUMPDEST STOP JUMPDEST CALLVALUE DUP1 ISZERO PUSH2 0x26E JUMPI PUSH1 0x0 DUP1 REVERT JUMPDEST POP PUSH2 0x29A PUSH2 0x27D CALLDATASIZE PUSH1 0x4 PUSH2 0x2D81 JUMP JUMPDEST PUSH1 0x5 PUSH1 0x20 SWAP1 DUP2 MSTORE PUSH1 0x0 SWAP3 DUP4 MSTORE PUSH1 0x40 DUP1 DUP5 KECCAK256 SWAP1 SWAP2 MSTORE SWAP1 DUP3 MSTORE SWAP1 KECCAK256 SLOAD DUP2 JUMP JUMPDEST PUSH1 0x40 MLOAD SWAP1 DUP2 MSTORE PUSH1 0x20 ADD JUMPDEST PUSH1 0x40 MLOAD DUP1 SWAP2 SUB SWAP1 RETURN JUMPDEST CALLVALUE DUP1 ISZERO PUSH2 0x2B9 JUMPI PUSH1 0x0 DUP1 REVERT JUMPDEST POP PUSH2 0x260 PUSH2 0x2C8 CALLDATASIZE PUSH1 0x4 PUSH2 0x2DAB JUMP JUMPDEST PUSH2 0x9C7 JUMP JUMPDEST CALLVALUE DUP1 ISZERO PUSH2 0x2D9 JUMPI PUSH1 0x0 DUP1 REVERT JUMPDEST POP PUSH1 0xD SLOAD PUSH2 0x2E7 SWAP1 PUSH1 0xFF AND DUP2 JUMP JUMPDEST PUSH1 0x40 MLOAD SWAP1 ISZERO ISZERO DUP2 MSTORE PUSH1 0x20 ADD PUSH2 0x2A4 JUMP JUMPDEST CALLVALUE DUP1 ISZERO PUSH2 0x303 JUMPI PUSH1 0x0 DUP1 REVERT JUMPDEST POP PUSH2 0x29A PUSH1 0xB SLOAD DUP2 JUMP JUMPDEST CALLVALUE DUP1 ISZERO PUSH2 0x319 JUMPI PUSH1 0x0 DUP1 REVERT JUMPDEST POP PUSH1 0x0 SLOAD PUSH2 0x32D SWAP1 PUSH1 0x1 PUSH1 0x1 PUSH1 0xA0 SHL SUB AND DUP2 JUMP JUMPDEST PUSH1 0x40 MLOAD PUSH1 0x1 PUSH1 0x1 PUSH1 0xA0 SHL SUB SWAP1 SWAP2 AND DUP2 MSTORE PUSH1 0x20 ADD PUSH2 0x2A4 JUMP JUMPDEST CALLVALUE DUP1 ISZERO PUSH2 0x351 JUMPI PUSH1 0x0 DUP1 REVERT JUMPDEST POP PUSH2 0x32D PUSH2 0x360 CALLDATASIZE PUSH1 0x4 PUSH2 0x2DCD JUMP JUMPDEST PUSH2 0xA34 JUMP JUMPDEST CALLVALUE DUP1 ISZERO PUSH2 0x371 JUMPI PUSH1 0x0 DUP1 REVERT JUMPDEST POP PUSH2 0x260 PUSH2 0x380 CALLDATASIZE PUSH1 0x4 PUSH2 0x2DE6 JUMP JUMPDEST PUSH2 0xA5E JUMP JUMPDEST CALLVALUE DUP1 ISZERO PUSH2 0x391 JUMPI PUSH1 0x0 DUP1 REVERT JUMPDEST POP PUSH2 0x260 PUSH2 0x3A0 CALLDATASIZE PUSH1 0x4 PUSH2 0x2E01 JUMP JUMPDEST PUSH2 0xB95 JUMP JUMPDEST CALLVALUE DUP1 ISZERO PUSH2 0x3B1 JUMPI PUSH1 0x0 DUP1 REVERT JUMPDEST POP PUSH2 0x29A PUSH1 0xC SLOAD DUP2 JUMP JUMPDEST CALLVALUE DUP1 ISZERO PUSH2 0x3C7 JUMPI PUSH1 0x0 DUP1 REVERT JUMPDEST POP PUSH2 0x260 PUSH2 0x3D6 CALLDATASIZE PUSH1 0x4 PUSH2 0x2E3D JUMP JUMPDEST PUSH2 0xC67 JUMP JUMPDEST PUSH2 0x260 PUSH2 0x3E9 CALLDATASIZE PUSH1 0x4 PUSH2 0x2E7D JUMP JUMPDEST PUSH2 0xDBA JUMP JUMPDEST CALLVALUE DUP1 ISZERO PUSH2 0x3FA JUMPI PUSH1 0x0 DUP1 REVERT JUMPDEST POP PUSH2 0x29A PUSH2 0xDD5 JUMP JUMPDEST CALLVALUE DUP1 ISZERO PUSH2 0x40F JUMPI PUSH1 0x0 DUP1 REVERT JUMPDEST POP PUSH2 0x260 PUSH2 0x41E CALLDATASIZE PUSH1 0x4 PUSH2 0x2F3F JUMP JUMPDEST PUSH2 0xDF2 JUMP JUMPDEST CALLVALUE DUP1 ISZERO PUSH2 0x42F JUMPI PUSH1 0x0 DUP1 REVERT JUMPDEST POP PUSH2 0x260 PUSH2 0x43E CALLDATASIZE PUSH1 0x4 PUSH2 0x2E3D JUMP JUMPDEST PUSH2 0x1050 JUMP JUMPDEST CALLVALUE DUP1 ISZERO PUSH2 0x44F JUMPI PUSH1 0x0 DUP1 REVERT JUMPDEST POP PUSH1 0x0 DUP1 MLOAD PUSH1 0x20 PUSH2 0x3262 DUP4 CODECOPY DUP2 MLOAD SWAP2 MSTORE SLOAD PUSH1 0xFF AND PUSH2 0x2E7 JUMP JUMPDEST CALLVALUE DUP1 ISZERO PUSH2 0x474 JUMPI PUSH1 0x0 DUP1 REVERT JUMPDEST POP PUSH1 0x1 SLOAD PUSH2 0x32D SWAP1 PUSH1 0x1 PUSH1 0x1 PUSH1 0xA0 SHL SUB AND DUP2 JUMP JUMPDEST CALLVALUE DUP1 ISZERO PUSH2 0x494 JUMPI PUSH1 0x0 DUP1 REVERT JUMPDEST POP PUSH2 0x2E7 PUSH2 0x4A3 CALLDATASIZE PUSH1 0x4 PUSH2 0x2DE6 JUMP JUMPDEST PUSH1 0x2 PUSH1 0x20 MSTORE PUSH1 0x0 SWAP1 DUP2 MSTORE PUSH1 0x40 SWAP1 KECCAK256 SLOAD PUSH1 0xFF AND DUP2 JUMP JUMPDEST CALLVALUE DUP1 ISZERO PUSH2 0x4C4 JUMPI PUSH1 0x0 DUP1 REVERT JUMPDEST POP PUSH2 0x29A PUSH2 0x4D3 CALLDATASIZE PUSH1 0x4 PUSH2 0x2D81 JUMP JUMPDEST PUSH1 0x6 PUSH1 0x20 SWAP1 DUP2 MSTORE PUSH1 0x0 SWAP3 DUP4 MSTORE PUSH1 0x40 DUP1 DUP5 KECCAK256 SWAP1 SWAP2 MSTORE SWAP1 DUP3 MSTORE SWAP1 KECCAK256 SLOAD DUP2 JUMP JUMPDEST CALLVALUE DUP1 ISZERO PUSH2 0x4FC JUMPI PUSH1 0x0 DUP1 REVERT JUMPDEST POP PUSH2 0x260 PUSH2 0x50B CALLDATASIZE PUSH1 0x4 PUSH2 0x2DE6 JUMP JUMPDEST PUSH2 0x1461 JUMP JUMPDEST CALLVALUE DUP1 ISZERO PUSH2 0x51C JUMPI PUSH1 0x0 DUP1 REVERT JUMPDEST POP PUSH2 0x260 PUSH2 0x15E2 JUMP JUMPDEST CALLVALUE DUP1 ISZERO PUSH2 0x531 JUMPI PUSH1 0x0 DUP1 REVERT JUMPDEST POP PUSH2 0x260 PUSH2 0x540 CALLDATASIZE PUSH1 0x4 PUSH2 0x2DE6 JUMP JUMPDEST PUSH2 0x15F6 JUMP JUMPDEST CALLVALUE DUP1 ISZERO PUSH2 0x551 JUMPI PUSH1 0x0 DUP1 REVERT JUMPDEST POP PUSH2 0x29A PUSH2 0x560 CALLDATASIZE PUSH1 0x4 PUSH2 0x2D81 JUMP JUMPDEST PUSH1 0xA PUSH1 0x20 SWAP1 DUP2 MSTORE PUSH1 0x0 SWAP3 DUP4 MSTORE PUSH1 0x40 DUP1 DUP5 KECCAK256 SWAP1 SWAP2 MSTORE SWAP1 DUP3 MSTORE SWAP1 KECCAK256 SLOAD DUP2 JUMP JUMPDEST CALLVALUE DUP1 ISZERO PUSH2 0x589 JUMPI PUSH1 0x0 DUP1 REVERT JUMPDEST POP PUSH2 0x260 PUSH2 0x598 CALLDATASIZE PUSH1 0x4 PUSH2 0x2F96 JUMP JUMPDEST PUSH2 0x16C6 JUMP JUMPDEST CALLVALUE DUP1 ISZERO PUSH2 0x5A9 JUMPI PUSH1 0x0 DUP1 REVERT JUMPDEST POP PUSH2 0x260 PUSH2 0x5B8 CALLDATASIZE PUSH1 0x4 PUSH2 0x2E3D JUMP JUMPDEST PUSH2 0x1766 JUMP JUMPDEST CALLVALUE DUP1 ISZERO PUSH2 0x5C9 JUMPI PUSH1 0x0 DUP1 REVERT JUMPDEST POP PUSH2 0x260 PUSH2 0x5D8 CALLDATASIZE PUSH1 0x4 PUSH2 0x2DE6 JUMP JUMPDEST PUSH2 0x1AF5 JUMP JUMPDEST CALLVALUE DUP1 ISZERO PUSH2 0x5E9 JUMPI PUSH1 0x0 DUP1 REVERT JUMPDEST POP PUSH32 0x9016D09D72D40FDAE2FD8CEAC6B6234C7706214FD39C1CD1E609A0528C199300 SLOAD PUSH1 0x1 PUSH1 0x1 PUSH1 0xA0 SHL SUB AND PUSH2 0x32D JUMP JUMPDEST CALLVALUE DUP1 ISZERO PUSH2 0x626 JUMPI PUSH1 0x0 DUP1 REVERT JUMPDEST POP PUSH2 0x29A PUSH2 0x635 CALLDATASIZE PUSH1 0x4 PUSH2 0x2D81 JUMP JUMPDEST PUSH1 0x4 PUSH1 0x20 SWAP1 DUP2 MSTORE PUSH1 0x0 SWAP3 DUP4 MSTORE PUSH1 0x40 DUP1 DUP5 KECCAK256 SWAP1 SWAP2 MSTORE SWAP1 DUP3 MSTORE SWAP1 KECCAK256 SLOAD DUP2 JUMP JUMPDEST CALLVALUE DUP1 ISZERO PUSH2 0x65E JUMPI PUSH1 0x0 DUP1 REVERT JUMPDEST POP PUSH2 0x68E PUSH2 0x66D CALLDATASIZE PUSH1 0x4 PUSH2 0x2DE6 JUMP JUMPDEST PUSH1 0x9 PUSH1 0x20 MSTORE PUSH1 0x0 SWAP1 DUP2 MSTORE PUSH1 0x40 SWAP1 KECCAK256 DUP1 SLOAD PUSH1 0x1 DUP3 ADD SLOAD PUSH1 0x2 SWAP1 SWAP3 ADD SLOAD SWAP1 SWAP2 SWAP1 DUP4 JUMP JUMPDEST PUSH1 0x40 DUP1 MLOAD SWAP4 DUP5 MSTORE PUSH1 0x20 DUP5 ADD SWAP3 SWAP1 SWAP3 MSTORE SWAP1 DUP3 ADD MSTORE PUSH1 0x60 ADD PUSH2 0x2A4 JUMP JUMPDEST CALLVALUE DUP1 ISZERO PUSH2 0x6B5 JUMPI PUSH1 0x0 DUP1 REVERT JUMPDEST POP PUSH2 0x6DA PUSH1 0x40 MLOAD DUP1 PUSH1 0x40 ADD PUSH1 0x40 MSTORE DUP1 PUSH1 0x5 DUP2 MSTORE PUSH1 0x20 ADD PUSH5 0x352E302E3 PUSH1 0xDC SHL DUP2 MSTORE POP DUP2 JUMP JUMPDEST PUSH1 0x40 MLOAD PUSH2 0x2A4 SWAP2 SWAP1 PUSH2 0x2FB8 JUMP JUMPDEST CALLVALUE DUP1 ISZERO PUSH2 0x6F3 JUMPI PUSH1 0x0 DUP1 REVERT JUMPDEST POP PUSH2 0x260 PUSH2 0x702 CALLDATASIZE PUSH1 0x4 PUSH2 0x2E01 JUMP JUMPDEST PUSH2 0x1D2F JUMP JUMPDEST CALLVALUE DUP1 ISZERO PUSH2 0x713 JUMPI PUSH1 0x0 DUP1 REVERT JUMPDEST POP PUSH2 0x29A PUSH2 0x722 CALLDATASIZE PUSH1 0x4 PUSH2 0x2E3D JUMP JUMPDEST PUSH2 0x1E91 JUMP JUMPDEST CALLVALUE DUP1 ISZERO PUSH2 0x733 JUMPI PUSH1 0x0 DUP1 REVERT JUMPDEST POP PUSH2 0x29A PUSH2 0x742 CALLDATASIZE PUSH1 0x4 PUSH2 0x2D81 JUMP JUMPDEST PUSH2 0x1F63 JUMP JUMPDEST CALLVALUE DUP1 ISZERO PUSH2 0x753 JUMPI PUSH1 0x0 DUP1 REVERT JUMPDEST POP PUSH1 0xD SLOAD PUSH2 0x32D SWAP1 PUSH2 0x100 SWAP1 DIV PUSH1 0x1 PUSH1 0x1 PUSH1 0xA0 SHL SUB AND DUP2 JUMP JUMPDEST CALLVALUE DUP1 ISZERO PUSH2 0x778 JUMPI PUSH1 0x0 DUP1 REVERT JUMPDEST POP PUSH2 0x29A PUSH2 0x787 CALLDATASIZE PUSH1 0x4 PUSH2 0x2D81 JUMP JUMPDEST PUSH1 0x8 PUSH1 0x20 SWAP1 DUP2 MSTORE PUSH1 0x0 SWAP3 DUP4 MSTORE PUSH1 0x40 DUP1 DUP5 KECCAK256 SWAP1 SWAP2 MSTORE SWAP1 DUP3 MSTORE SWAP1 KECCAK256 SLOAD DUP2 JUMP JUMPDEST CALLVALUE DUP1 ISZERO PUSH2 0x7B0 JUMPI PUSH1 0x0 DUP1 REVERT JUMPDEST POP PUSH2 0x29A PUSH2 0x7BF CALLDATASIZE PUSH1 0x4 PUSH2 0x2D81 JUMP JUMPDEST PUSH1 0x7 PUSH1 0x20 SWAP1 DUP2 MSTORE PUSH1 0x0 SWAP3 DUP4 MSTORE PUSH1 0x40 DUP1 DUP5 KECCAK256 SWAP1 SWAP2 MSTORE SWAP1 DUP3 MSTORE SWAP1 KECCAK256 SLOAD DUP2 JUMP JUMPDEST CALLVALUE DUP1 ISZERO PUSH2 0x7E8 JUMPI PUSH1 0x0 DUP1 REVERT JUMPDEST POP PUSH2 0x260 PUSH2 0x7F7 CALLDATASIZE PUSH1 0x4 PUSH2 0x2E01 JUMP JUMPDEST PUSH2 0x20C4 JUMP JUMPDEST CALLVALUE DUP1 ISZERO PUSH2 0x808 JUMPI PUSH1 0x0 DUP1 REVERT JUMPDEST POP PUSH2 0x260 PUSH2 0x817 CALLDATASIZE PUSH1 0x4 PUSH2 0x2DE6 JUMP JUMPDEST PUSH2 0x21D6 JUMP JUMPDEST CALLVALUE DUP1 ISZERO PUSH2 0x828 JUMPI PUSH1 0x0 DUP1 REVERT JUMPDEST POP PUSH2 0x260 PUSH2 0x837 CALLDATASIZE PUSH1 0x4 PUSH2 0x2E3D JUMP JUMPDEST PUSH2 0x2211 JUMP JUMPDEST CALLVALUE DUP1 ISZERO PUSH2 0x848 JUMPI PUSH1 0x0 DUP1 REVERT JUMPDEST POP PUSH2 0x260 PUSH2 0x857 CALLDATASIZE PUSH1 0x4 PUSH2 0x2D81 JUMP JUMPDEST PUSH2 0x23FA JUMP JUMPDEST PUSH2 0x864 PUSH2 0x25D1 JUMP JUMPDEST PUSH1 0x1 PUSH1 0x1 PUSH1 0xA0 SHL SUB DUP3 AND PUSH2 0x8B5 JUMPI PUSH1 0x40 MLOAD PUSH3 0x461BCD PUSH1 0xE5 SHL DUP2 MSTORE PUSH1 0x20 PUSH1 0x4 DUP3 ADD MSTORE PUSH1 0x13 PUSH1 0x24 DUP3 ADD MSTORE PUSH19 0x29AC2AA09D1024B73B30B634B2103A37B5B2B7 PUSH1 0x69 SHL PUSH1 0x44 DUP3 ADD MSTORE PUSH1 0x64 ADD JUMPDEST PUSH1 0x40 MLOAD DUP1 SWAP2 SUB SWAP1 REVERT JUMPDEST DUP1 DUP1 ISZERO PUSH2 0x8DB JUMPI POP PUSH1 0x1 PUSH1 0x1 PUSH1 0xA0 SHL SUB DUP3 AND PUSH1 0x0 SWAP1 DUP2 MSTORE PUSH1 0x2 PUSH1 0x20 MSTORE PUSH1 0x40 SWAP1 KECCAK256 SLOAD PUSH1 0xFF AND ISZERO JUMPDEST ISZERO PUSH2 0x968 JUMPI PUSH1 0x3 DUP1 SLOAD PUSH1 0x1 DUP1 DUP3 ADD SWAP1 SWAP3 SSTORE PUSH32 0xC2575A0E9E593C00F959F8C92F12DB2869C3395A3B0502D05E2516446F71F85B ADD DUP1 SLOAD PUSH1 0x1 PUSH1 0x1 PUSH1 0xA0 SHL SUB NOT AND PUSH1 0x1 PUSH1 0x1 PUSH1 0xA0 SHL SUB DUP6 AND SWAP1 DUP2 OR SWAP1 SWAP2 SSTORE PUSH1 0x40 DUP1 MLOAD PUSH1 0x60 DUP2 ADD DUP3 MSTORE PUSH1 0x0 DUP1 DUP3 MSTORE PUSH1 0x20 DUP1 DUP4 ADD DUP3 DUP2 MSTORE TIMESTAMP DUP5 DUP7 ADD SWAP1 DUP2 MSTORE SWAP6 DUP4 MSTORE PUSH1 0x9 SWAP1 SWAP2 MSTORE SWAP3 SWAP1 KECCAK256 SWAP1 MLOAD DUP2 SSTORE SWAP1 MLOAD SWAP3 DUP2 ADD SWAP3 SWAP1 SWAP3 SSTORE MLOAD PUSH1 0x2 SWAP1 SWAP2 ADD SSTORE JUMPDEST PUSH1 0x1 PUSH1 0x1 PUSH1 0xA0 SHL SUB DUP3 AND PUSH1 0x0 DUP2 DUP2 MSTORE PUSH1 0x2 PUSH1 0x20 SWAP1 DUP2 MSTORE PUSH1 0x40 SWAP2 DUP3 SWAP1 KECCAK256 DUP1 SLOAD PUSH1 0xFF NOT AND DUP6 ISZERO ISZERO SWAP1 DUP2 OR SWAP1 SWAP2 SSTORE SWAP2 MLOAD SWAP2 DUP3 MSTORE PUSH32 0xD86C88B4A367D9B81A6E00C9D3F7D01657BFFEF358FA8968C91C045AE99F0D52 SWAP2 ADD PUSH1 0x40 MLOAD DUP1 SWAP2 SUB SWAP1 LOG2 POP POP JUMP JUMPDEST PUSH2 0x9CF PUSH2 0x25D1 JUMP JUMPDEST PUSH1 0xD DUP1 SLOAD PUSH1 0xFF NOT AND DUP3 ISZERO DUP1 ISZERO SWAP2 SWAP1 SWAP2 OR SWAP1 SWAP2 SSTORE PUSH2 0x9F3 JUMPI PUSH2 0x9EE PUSH2 0x262C JUMP JUMPDEST PUSH2 0x9FB JUMP JUMPDEST PUSH2 0x9FB PUSH2 0x2689 JUMP JUMPDEST PUSH1 0x40 MLOAD DUP2 ISZERO ISZERO DUP2 MSTORE PUSH32 0xF3017345AA4F4B1EDF82D1945BA8AAF39D9F284595B090260947F03BC53566F1 SWAP1 PUSH1 0x20 ADD JUMPDEST PUSH1 0x40 MLOAD DUP1 SWAP2 SUB SWAP1 LOG1 POP JUMP JUMPDEST PUSH1 0x3 DUP2 DUP2 SLOAD DUP2 LT PUSH2 0xA44 JUMPI PUSH1 0x0 DUP1 REVERT JUMPDEST PUSH1 0x0 SWAP2 DUP3 MSTORE PUSH1 0x20 SWAP1 SWAP2 KECCAK256 ADD SLOAD PUSH1 0x1 PUSH1 0x1 PUSH1 0xA0 SHL SUB AND SWAP1 POP DUP2 JUMP JUMPDEST PUSH2 0xA66 PUSH2 0x26CF JUMP JUMPDEST PUSH2 0xA6E PUSH2 0x2700 JUMP JUMPDEST PUSH2 0xA78 CALLER DUP3 PUSH2 0x23FA JUMP JUMPDEST CALLER PUSH1 0x0 SWAP1 DUP2 MSTORE PUSH1 0x8 PUSH1 0x20 SWAP1 DUP2 MSTORE PUSH1 0x40 DUP1 DUP4 KECCAK256 PUSH1 0x1 PUSH1 0x1 PUSH1 0xA0 SHL SUB DUP6 AND DUP5 MSTORE SWAP1 SWAP2 MSTORE SWAP1 KECCAK256 SLOAD DUP1 PUSH2 0xAE9 JUMPI PUSH1 0x40 MLOAD PUSH3 0x461BCD PUSH1 0xE5 SHL DUP2 MSTORE PUSH1 0x20 PUSH1 0x4 DUP3 ADD MSTORE PUSH1 0x1C PUSH1 0x24 DUP3 ADD MSTORE PUSH32 0x535855413A204E6F2061636372756564206461696C79207969656C6400000000 PUSH1 0x44 DUP3 ADD MSTORE PUSH1 0x64 ADD PUSH2 0x8AC JUMP JUMPDEST CALLER PUSH1 0x0 DUP2 DUP2 MSTORE PUSH1 0x8 PUSH1 0x20 SWAP1 DUP2 MSTORE PUSH1 0x40 DUP1 DUP4 KECCAK256 PUSH1 0x1 PUSH1 0x1 PUSH1 0xA0 SHL SUB DUP8 AND DUP1 DUP6 MSTORE SWAP1 DUP4 MSTORE DUP2 DUP5 KECCAK256 DUP5 SWAP1 SSTORE SWAP4 DUP4 MSTORE PUSH1 0x5 DUP3 MSTORE DUP1 DUP4 KECCAK256 SWAP4 DUP4 MSTORE SWAP3 SWAP1 MSTORE SWAP1 DUP2 KECCAK256 DUP1 SLOAD DUP4 SWAP3 SWAP1 PUSH2 0xB34 SWAP1 DUP5 SWAP1 PUSH2 0x301D JUMP JUMPDEST SWAP1 SWAP2 SSTORE POP POP PUSH1 0x40 MLOAD DUP2 DUP2 MSTORE PUSH1 0x1 PUSH1 0x1 PUSH1 0xA0 SHL SUB DUP4 AND SWAP1 CALLER SWAP1 PUSH32 0x35A593989214273CAD8F7C3CEA2BC516D2EA114BBDB9088CBAB07696E65B6D97 SWAP1 PUSH1 0x20 ADD JUMPDEST PUSH1 0x40 MLOAD DUP1 SWAP2 SUB SWAP1 LOG3 POP PUSH2 0xB92 PUSH1 0x1 PUSH1 0x0 DUP1 MLOAD PUSH1 0x20 PUSH2 0x3282 DUP4 CODECOPY DUP2 MLOAD SWAP2 MSTORE SSTORE JUMP JUMPDEST POP JUMP JUMPDEST PUSH2 0xB9D PUSH2 0x26CF JUMP JUMPDEST PUSH2 0xBA5 PUSH2 0x2700 JUMP JUMPDEST PUSH1 0x0 DUP2 GT PUSH2 0xBF0 JUMPI PUSH1 0x40 MLOAD PUSH3 0x461BCD PUSH1 0xE5 SHL DUP2 MSTORE PUSH1 0x20 PUSH1 0x4 DUP3 ADD MSTORE PUSH1 0x18 PUSH1 0x24 DUP3 ADD MSTORE PUSH24 0x535855413A20416D6F756E74206D757374206265203E203 PUSH1 0x44 SHL PUSH1 0x44 DUP3 ADD MSTORE PUSH1 0x64 ADD PUSH2 0x8AC JUMP JUMPDEST PUSH2 0xC05 PUSH1 0x1 PUSH1 0x1 PUSH1 0xA0 SHL SUB DUP4 AND CALLER ADDRESS DUP5 PUSH2 0x271C JUMP JUMPDEST PUSH2 0xC0F DUP4 DUP4 PUSH2 0x23FA JUMP JUMPDEST PUSH1 0x1 PUSH1 0x1 PUSH1 0xA0 SHL SUB DUP1 DUP5 AND PUSH1 0x0 SWAP1 DUP2 MSTORE PUSH1 0x5 PUSH1 0x20 SWAP1 DUP2 MSTORE PUSH1 0x40 DUP1 DUP4 KECCAK256 SWAP4 DUP7 AND DUP4 MSTORE SWAP3 SWAP1 MSTORE SWAP1 DUP2 KECCAK256 DUP1 SLOAD DUP4 SWAP3 SWAP1 PUSH2 0xC46 SWAP1 DUP5 SWAP1 PUSH2 0x301D JUMP JUMPDEST SWAP1 SWAP2 SSTORE POP POP PUSH1 0x1 PUSH1 0x0 DUP1 MLOAD PUSH1 0x20 PUSH2 0x3282 DUP4 CODECOPY DUP2 MLOAD SWAP2 MSTORE SSTORE POP POP POP JUMP JUMPDEST POP POP POP JUMP JUMPDEST PUSH2 0xC6F PUSH2 0x26CF JUMP JUMPDEST PUSH2 0xC77 PUSH2 0x2700 JUMP JUMPDEST PUSH1 0x1 PUSH1 0x1 PUSH1 0xA0 SHL SUB DUP3 AND PUSH1 0x0 SWAP1 DUP2 MSTORE PUSH1 0x2 PUSH1 0x20 MSTORE PUSH1 0x40 SWAP1 KECCAK256 SLOAD PUSH1 0xFF AND PUSH2 0xCAF JUMPI PUSH1 0x40 MLOAD PUSH3 0x461BCD PUSH1 0xE5 SHL DUP2 MSTORE PUSH1 0x4 ADD PUSH2 0x8AC SWAP1 PUSH2 0x3030 JUMP JUMPDEST PUSH1 0x0 DUP2 GT PUSH2 0xCFF JUMPI PUSH1 0x40 MLOAD PUSH3 0x461BCD PUSH1 0xE5 SHL DUP2 MSTORE PUSH1 0x20 PUSH1 0x4 DUP3 ADD DUP2 SWAP1 MSTORE PUSH1 0x24 DUP3 ADD MSTORE PUSH32 0x535855413A204465706F73697420616D6F756E74206D757374206265203E2030 PUSH1 0x44 DUP3 ADD MSTORE PUSH1 0x64 ADD PUSH2 0x8AC JUMP JUMPDEST PUSH2 0xD09 CALLER DUP4 PUSH2 0x23FA JUMP JUMPDEST PUSH2 0xD12 DUP3 PUSH2 0x15F6 JUMP JUMPDEST PUSH2 0xD27 PUSH1 0x1 PUSH1 0x1 PUSH1 0xA0 SHL SUB DUP4 AND CALLER ADDRESS DUP5 PUSH2 0x271C JUMP JUMPDEST CALLER PUSH1 0x0 SWAP1 DUP2 MSTORE PUSH1 0x5 PUSH1 0x20 SWAP1 DUP2 MSTORE PUSH1 0x40 DUP1 DUP4 KECCAK256 PUSH1 0x1 PUSH1 0x1 PUSH1 0xA0 SHL SUB DUP7 AND DUP5 MSTORE SWAP1 SWAP2 MSTORE DUP2 KECCAK256 DUP1 SLOAD DUP4 SWAP3 SWAP1 PUSH2 0xD5A SWAP1 DUP5 SWAP1 PUSH2 0x301D JUMP JUMPDEST SWAP1 SWAP2 SSTORE POP POP PUSH1 0x40 MLOAD DUP2 DUP2 MSTORE PUSH1 0x1 PUSH1 0x1 PUSH1 0xA0 SHL SUB DUP4 AND SWAP1 CALLER SWAP1 PUSH32 0x8752A472E571A816AEA92EEC8DAE9BAF628E840F4929FBCC2D155E6233FF68A7 SWAP1 PUSH1 0x20 ADD PUSH1 0x40 MLOAD DUP1 SWAP2 SUB SWAP1 LOG3 PUSH2 0xDB6 PUSH1 0x1 PUSH1 0x0 DUP1 MLOAD PUSH1 0x20 PUSH2 0x3282 DUP4 CODECOPY DUP2 MLOAD SWAP2 MSTORE SSTORE JUMP JUMPDEST POP POP JUMP JUMPDEST PUSH2 0xDC2 PUSH2 0x2758 JUMP JUMPDEST PUSH2 0xDCB DUP3 PUSH2 0x27FD JUMP JUMPDEST PUSH2 0xDB6 DUP3 DUP3 PUSH2 0x2805 JUMP JUMPDEST PUSH1 0x0 PUSH2 0xDDF PUSH2 0x28C2 JUMP JUMPDEST POP PUSH1 0x0 DUP1 MLOAD PUSH1 0x20 PUSH2 0x3242 DUP4 CODECOPY DUP2 MLOAD SWAP2 MSTORE SWAP1 JUMP JUMPDEST PUSH1 0x0 PUSH2 0xDFC PUSH2 0x290B JUMP JUMPDEST DUP1 SLOAD SWAP1 SWAP2 POP PUSH1 0xFF PUSH1 0x1 PUSH1 0x40 SHL DUP3 DIV AND ISZERO SWAP1 PUSH8 0xFFFFFFFFFFFFFFFF AND PUSH1 0x0 DUP2 ISZERO DUP1 ISZERO PUSH2 0xE24 JUMPI POP DUP3 JUMPDEST SWAP1 POP PUSH1 0x0 DUP3 PUSH8 0xFFFFFFFFFFFFFFFF AND PUSH1 0x1 EQ DUP1 ISZERO PUSH2 0xE41 JUMPI POP ADDRESS EXTCODESIZE ISZERO JUMPDEST SWAP1 POP DUP2 ISZERO DUP1 ISZERO PUSH2 0xE4F JUMPI POP DUP1 ISZERO JUMPDEST ISZERO PUSH2 0xE6D JUMPI PUSH1 0x40 MLOAD PUSH4 0xF92EE8A9 PUSH1 0xE0 SHL DUP2 MSTORE PUSH1 0x4 ADD PUSH1 0x40 MLOAD DUP1 SWAP2 SUB SWAP1 REVERT JUMPDEST DUP5 SLOAD PUSH8 0xFFFFFFFFFFFFFFFF NOT AND PUSH1 0x1 OR DUP6 SSTORE DUP4 ISZERO PUSH2 0xE97 JUMPI DUP5 SLOAD PUSH1 0xFF PUSH1 0x40 SHL NOT AND PUSH1 0x1 PUSH1 0x40 SHL OR DUP6 SSTORE JUMPDEST PUSH2 0xEA0 CALLER PUSH2 0x2934 JUMP JUMPDEST PUSH2 0xEA8 PUSH2 0x2945 JUMP JUMPDEST PUSH1 0x1 PUSH1 0x1 PUSH1 0xA0 SHL SUB DUP11 AND PUSH2 0xEFE JUMPI PUSH1 0x40 MLOAD PUSH3 0x461BCD PUSH1 0xE5 SHL DUP2 MSTORE PUSH1 0x20 PUSH1 0x4 DUP3 ADD MSTORE PUSH1 0x17 PUSH1 0x24 DUP3 ADD MSTORE PUSH32 0x535855413A20496E76616C69642053585020746F6B656E000000000000000000 PUSH1 0x44 DUP3 ADD MSTORE PUSH1 0x64 ADD PUSH2 0x8AC JUMP JUMPDEST PUSH1 0x1 PUSH1 0x1 PUSH1 0xA0 SHL SUB DUP10 AND PUSH2 0xF4D JUMPI PUSH1 0x40 MLOAD PUSH3 0x461BCD PUSH1 0xE5 SHL DUP2 MSTORE PUSH1 0x20 PUSH1 0x4 DUP3 ADD MSTORE PUSH1 0x16 PUSH1 0x24 DUP3 ADD MSTORE PUSH22 0x535855413A20496E76616C6964207472656173757279 PUSH1 0x50 SHL PUSH1 0x44 DUP3 ADD MSTORE PUSH1 0x64 ADD PUSH2 0x8AC JUMP JUMPDEST PUSH1 0x1 PUSH1 0x1 PUSH1 0xA0 SHL SUB DUP7 AND PUSH2 0xFA3 JUMPI PUSH1 0x40 MLOAD PUSH3 0x461BCD PUSH1 0xE5 SHL DUP2 MSTORE PUSH1 0x20 PUSH1 0x4 DUP3 ADD MSTORE PUSH1 0x1A PUSH1 0x24 DUP3 ADD MSTORE PUSH32 0x535855413A20496E76616C696420505446207265636569766572000000000000 PUSH1 0x44 DUP3 ADD MSTORE PUSH1 0x64 ADD PUSH2 0x8AC JUMP JUMPDEST PUSH1 0x0 DUP1 SLOAD PUSH1 0x1 PUSH1 0x1 PUSH1 0xA0 SHL SUB NOT SWAP1 DUP2 AND PUSH1 0x1 PUSH1 0x1 PUSH1 0xA0 SHL SUB DUP14 DUP2 AND SWAP2 SWAP1 SWAP2 OR SWAP1 SWAP3 SSTORE PUSH1 0x1 DUP1 SLOAD SWAP1 SWAP2 AND DUP12 DUP4 AND OR SWAP1 SSTORE PUSH1 0xB DUP10 SWAP1 SSTORE PUSH1 0xC DUP9 SWAP1 SSTORE PUSH1 0xD DUP1 SLOAD PUSH1 0x1 PUSH1 0x1 PUSH1 0xA8 SHL SUB NOT AND PUSH2 0x100 SWAP3 DUP10 AND SWAP3 SWAP1 SWAP3 MUL PUSH1 0xFF NOT AND SWAP2 SWAP1 SWAP2 OR SWAP1 SSTORE DUP4 ISZERO PUSH2 0x1044 JUMPI DUP5 SLOAD PUSH1 0xFF PUSH1 0x40 SHL NOT AND DUP6 SSTORE PUSH1 0x40 MLOAD PUSH1 0x1 DUP2 MSTORE PUSH32 0xC7F505B2F371AE2175EE4913F4499E1F2633A7B5936321EED1CDAEB6115181D2 SWAP1 PUSH1 0x20 ADD PUSH1 0x40 MLOAD DUP1 SWAP2 SUB SWAP1 LOG1 JUMPDEST POP POP POP POP POP POP POP POP POP POP JUMP JUMPDEST PUSH2 0x1058 PUSH2 0x26CF JUMP JUMPDEST PUSH2 0x1060 PUSH2 0x2700 JUMP JUMPDEST PUSH1 0x0 DUP2 GT PUSH2 0x10BA JUMPI PUSH1 0x40 MLOAD PUSH3 0x461BCD PUSH1 0xE5 SHL DUP2 MSTORE PUSH1 0x20 PUSH1 0x4 DUP3 ADD MSTORE PUSH1 0x21 PUSH1 0x24 DUP3 ADD MSTORE PUSH32 0x535855413A20556E636F6D6D697420616D6F756E74206D757374206265203E20 PUSH1 0x44 DUP3 ADD MSTORE PUSH1 0x3 PUSH1 0xFC SHL PUSH1 0x64 DUP3 ADD MSTORE PUSH1 0x84 ADD PUSH2 0x8AC JUMP JUMPDEST CALLER PUSH1 0x0 SWAP1 DUP2 MSTORE PUSH1 0x4 PUSH1 0x20 SWAP1 DUP2 MSTORE PUSH1 0x40 DUP1 DUP4 KECCAK256 PUSH1 0x1 PUSH1 0x1 PUSH1 0xA0 SHL SUB DUP7 AND DUP5 MSTORE SWAP1 SWAP2 MSTORE SWAP1 KECCAK256 SLOAD DUP2 GT ISZERO PUSH2 0x1139 JUMPI PUSH1 0x40 MLOAD PUSH3 0x461BCD PUSH1 0xE5 SHL DUP2 MSTORE PUSH1 0x20 PUSH1 0x4 DUP3 ADD MSTORE PUSH1 0x24 DUP1 DUP3 ADD MSTORE PUSH32 0x535855413A20496E73756666696369656E7420636F6D6D69747465642062616C PUSH1 0x44 DUP3 ADD MSTORE PUSH4 0x616E6365 PUSH1 0xE0 SHL PUSH1 0x64 DUP3 ADD MSTORE PUSH1 0x84 ADD PUSH2 0x8AC JUMP JUMPDEST PUSH2 0x1143 CALLER DUP4 PUSH2 0x23FA JUMP JUMPDEST PUSH2 0x114C DUP3 PUSH2 0x15F6 JUMP JUMPDEST PUSH1 0x1 PUSH1 0x1 PUSH1 0xA0 SHL SUB DUP3 AND PUSH1 0x0 DUP2 DUP2 MSTORE PUSH1 0x9 PUSH1 0x20 SWAP1 DUP2 MSTORE PUSH1 0x40 DUP1 DUP4 KECCAK256 CALLER DUP1 DUP6 MSTORE PUSH1 0x4 DUP5 MSTORE DUP3 DUP6 KECCAK256 DUP7 DUP7 MSTORE DUP5 MSTORE DUP3 DUP6 KECCAK256 SLOAD SWAP1 DUP6 MSTORE PUSH1 0xA DUP5 MSTORE DUP3 DUP6 KECCAK256 SWAP6 DUP6 MSTORE SWAP5 SWAP1 SWAP3 MSTORE DUP3 KECCAK256 SLOAD PUSH1 0x1 DUP3 ADD SLOAD SWAP2 SWAP4 SWAP3 SWAP2 PUSH8 0xDE0B6B3A7640000 SWAP1 PUSH2 0x11AC SWAP1 DUP6 PUSH2 0x3067 JUMP JUMPDEST PUSH2 0x11B6 SWAP2 SWAP1 PUSH2 0x307E JUMP JUMPDEST PUSH2 0x11C0 SWAP2 SWAP1 PUSH2 0x30A0 JUMP JUMPDEST SWAP1 POP DUP1 ISZERO PUSH2 0x126D JUMPI PUSH1 0x0 SLOAD PUSH1 0x40 MLOAD PUSH4 0x40C10F19 PUSH1 0xE0 SHL DUP2 MSTORE CALLER PUSH1 0x4 DUP3 ADD MSTORE PUSH1 0x24 DUP2 ADD DUP4 SWAP1 MSTORE PUSH1 0x1 PUSH1 0x1 PUSH1 0xA0 SHL SUB SWAP1 SWAP2 AND SWAP1 PUSH4 0x40C10F19 SWAP1 PUSH1 0x44 ADD PUSH1 0x0 PUSH1 0x40 MLOAD DUP1 DUP4 SUB DUP2 PUSH1 0x0 DUP8 DUP1 EXTCODESIZE ISZERO DUP1 ISZERO PUSH2 0x1214 JUMPI PUSH1 0x0 DUP1 REVERT JUMPDEST POP GAS CALL ISZERO DUP1 ISZERO PUSH2 0x1228 JUMPI RETURNDATASIZE PUSH1 0x0 DUP1 RETURNDATACOPY RETURNDATASIZE PUSH1 0x0 REVERT JUMPDEST POP POP PUSH1 0x40 MLOAD DUP4 DUP2 MSTORE PUSH1 0x1 PUSH1 0x1 PUSH1 0xA0 SHL SUB DUP9 AND SWAP3 POP CALLER SWAP2 POP PUSH32 0xCB0E7C5873034A840C4DC30BACB0A6726B12AE7D9DBAFD86F57E740B14A3769 SWAP1 PUSH1 0x20 ADD PUSH1 0x40 MLOAD DUP1 SWAP2 SUB SWAP1 LOG3 JUMPDEST CALLER PUSH1 0x0 SWAP1 DUP2 MSTORE PUSH1 0x4 PUSH1 0x20 SWAP1 DUP2 MSTORE PUSH1 0x40 DUP1 DUP4 KECCAK256 PUSH1 0x1 PUSH1 0x1 PUSH1 0xA0 SHL SUB DUP10 AND DUP5 MSTORE SWAP1 SWAP2 MSTORE DUP2 KECCAK256 DUP1 SLOAD DUP7 SWAP3 SWAP1 PUSH2 0x12A0 SWAP1 DUP5 SWAP1 PUSH2 0x30A0 JUMP JUMPDEST SWAP1 SWAP2 SSTORE POP POP DUP3 SLOAD DUP5 SWAP1 DUP5 SWAP1 PUSH1 0x0 SWAP1 PUSH2 0x12B9 SWAP1 DUP5 SWAP1 PUSH2 0x30A0 JUMP JUMPDEST SWAP1 SWAP2 SSTORE POP POP PUSH1 0xC SLOAD CALLER PUSH1 0x0 SWAP1 DUP2 MSTORE PUSH1 0x6 PUSH1 0x20 SWAP1 DUP2 MSTORE PUSH1 0x40 DUP1 DUP4 KECCAK256 PUSH1 0x1 PUSH1 0x1 PUSH1 0xA0 SHL SUB DUP11 AND DUP5 MSTORE SWAP1 SWAP2 MSTORE DUP2 KECCAK256 SLOAD SWAP1 SWAP2 PUSH2 0x12F0 SWAP2 PUSH2 0x301D JUMP JUMPDEST TIMESTAMP LT ISZERO PUSH2 0x1314 JUMPI PUSH1 0x64 PUSH1 0xB SLOAD DUP7 PUSH2 0x1307 SWAP2 SWAP1 PUSH2 0x3067 JUMP JUMPDEST PUSH2 0x1311 SWAP2 SWAP1 PUSH2 0x307E JUMP JUMPDEST SWAP1 POP JUMPDEST PUSH1 0x0 PUSH2 0x1320 DUP3 DUP8 PUSH2 0x30A0 JUMP JUMPDEST CALLER PUSH1 0x0 SWAP1 DUP2 MSTORE PUSH1 0x5 PUSH1 0x20 SWAP1 DUP2 MSTORE PUSH1 0x40 DUP1 DUP4 KECCAK256 PUSH1 0x1 PUSH1 0x1 PUSH1 0xA0 SHL SUB DUP13 AND DUP5 MSTORE SWAP1 SWAP2 MSTORE DUP2 KECCAK256 DUP1 SLOAD SWAP3 SWAP4 POP DUP4 SWAP3 SWAP1 SWAP2 SWAP1 PUSH2 0x1358 SWAP1 DUP5 SWAP1 PUSH2 0x301D JUMP JUMPDEST SWAP1 SWAP2 SSTORE POP POP DUP2 ISZERO PUSH2 0x139D JUMPI CALLER PUSH1 0x0 SWAP1 DUP2 MSTORE PUSH1 0x8 PUSH1 0x20 SWAP1 DUP2 MSTORE PUSH1 0x40 DUP1 DUP4 KECCAK256 PUSH1 0x1 PUSH1 0x1 PUSH1 0xA0 SHL SUB DUP12 DUP2 AND DUP1 DUP7 MSTORE SWAP2 SWAP1 SWAP4 MSTORE SWAP1 DUP4 KECCAK256 SWAP3 SWAP1 SWAP3 SSTORE PUSH1 0x1 SLOAD PUSH2 0x139D SWAP3 SWAP2 AND DUP5 PUSH2 0x294D JUMP JUMPDEST PUSH1 0x1 DUP6 ADD SLOAD CALLER PUSH1 0x0 SWAP1 DUP2 MSTORE PUSH1 0x4 PUSH1 0x20 SWAP1 DUP2 MSTORE PUSH1 0x40 DUP1 DUP4 KECCAK256 PUSH1 0x1 PUSH1 0x1 PUSH1 0xA0 SHL SUB DUP13 AND DUP5 MSTORE SWAP1 SWAP2 MSTORE SWAP1 KECCAK256 SLOAD PUSH8 0xDE0B6B3A7640000 SWAP2 PUSH2 0x13D9 SWAP2 PUSH2 0x3067 JUMP JUMPDEST PUSH2 0x13E3 SWAP2 SWAP1 PUSH2 0x307E JUMP JUMPDEST CALLER PUSH1 0x0 DUP2 DUP2 MSTORE PUSH1 0xA PUSH1 0x20 SWAP1 DUP2 MSTORE PUSH1 0x40 DUP1 DUP4 KECCAK256 PUSH1 0x1 PUSH1 0x1 PUSH1 0xA0 SHL SUB DUP14 AND DUP1 DUP6 MSTORE SWAP1 DUP4 MSTORE SWAP3 DUP2 SWAP1 KECCAK256 SWAP5 SWAP1 SWAP5 SSTORE DUP4 MLOAD DUP11 DUP2 MSTORE SWAP1 DUP2 ADD DUP7 SWAP1 MSTORE SWAP1 SWAP3 PUSH32 0x649ABB3AFB2AA3C768B7DE0F94681C5570F8EB8C763253E4A1F05551D299F679 SWAP2 ADD PUSH1 0x40 MLOAD DUP1 SWAP2 SUB SWAP1 LOG3 POP POP POP POP POP PUSH2 0xDB6 PUSH1 0x1 PUSH1 0x0 DUP1 MLOAD PUSH1 0x20 PUSH2 0x3282 DUP4 CODECOPY DUP2 MLOAD SWAP2 MSTORE SSTORE JUMP JUMPDEST PUSH2 0x1469 PUSH2 0x2700 JUMP JUMPDEST PUSH1 0xD SLOAD PUSH1 0xFF AND PUSH2 0x14C7 JUMPI PUSH1 0x40 MLOAD PUSH3 0x461BCD PUSH1 0xE5 SHL DUP2 MSTORE PUSH1 0x20 PUSH1 0x4 DUP3 ADD MSTORE PUSH1 0x23 PUSH1 0x24 DUP3 ADD MSTORE PUSH32 0x535855413A20456D657267656E63792073687574646F776E206E6F7420616374 PUSH1 0x44 DUP3 ADD MSTORE PUSH3 0x697665 PUSH1 0xE8 SHL PUSH1 0x64 DUP3 ADD MSTORE PUSH1 0x84 ADD PUSH2 0x8AC JUMP JUMPDEST CALLER PUSH1 0x0 DUP2 DUP2 MSTORE PUSH1 0x4 PUSH1 0x20 SWAP1 DUP2 MSTORE PUSH1 0x40 DUP1 DUP4 KECCAK256 PUSH1 0x1 PUSH1 0x1 PUSH1 0xA0 SHL SUB DUP7 AND DUP1 DUP6 MSTORE SWAP1 DUP4 MSTORE DUP2 DUP5 KECCAK256 SLOAD SWAP5 DUP5 MSTORE PUSH1 0x5 DUP4 MSTORE DUP2 DUP5 KECCAK256 SWAP1 DUP5 MSTORE SWAP1 SWAP2 MSTORE DUP2 KECCAK256 SLOAD SWAP1 SWAP2 PUSH2 0x150B SWAP2 PUSH2 0x301D JUMP JUMPDEST SWAP1 POP PUSH1 0x0 DUP2 GT PUSH2 0x155D JUMPI PUSH1 0x40 MLOAD PUSH3 0x461BCD PUSH1 0xE5 SHL DUP2 MSTORE PUSH1 0x20 PUSH1 0x4 DUP3 ADD MSTORE PUSH1 0x1C PUSH1 0x24 DUP3 ADD MSTORE PUSH32 0x535855413A204E6F2062616C616E636520746F20776974686472617700000000 PUSH1 0x44 DUP3 ADD MSTORE PUSH1 0x64 ADD PUSH2 0x8AC JUMP JUMPDEST CALLER PUSH1 0x0 DUP2 DUP2 MSTORE PUSH1 0x5 PUSH1 0x20 SWAP1 DUP2 MSTORE PUSH1 0x40 DUP1 DUP4 KECCAK256 PUSH1 0x1 PUSH1 0x1 PUSH1 0xA0 SHL SUB DUP8 AND DUP1 DUP6 MSTORE SWAP1 DUP4 MSTORE DUP2 DUP5 KECCAK256 DUP5 SWAP1 SSTORE DUP5 DUP5 MSTORE PUSH1 0x4 DUP4 MSTORE DUP2 DUP5 KECCAK256 DUP2 DUP6 MSTORE SWAP1 SWAP3 MSTORE DUP3 KECCAK256 SWAP2 SWAP1 SWAP2 SSTORE PUSH2 0x15A5 SWAP2 DUP4 PUSH2 0x294D JUMP JUMPDEST PUSH1 0x40 MLOAD DUP2 DUP2 MSTORE PUSH1 0x1 PUSH1 0x1 PUSH1 0xA0 SHL SUB DUP4 AND SWAP1 CALLER SWAP1 PUSH32 0x457E4FE0C9F161A0C6F3BFB8D7809A4AC19F6291BD81B03B86B0D00F9AF3717B SWAP1 PUSH1 0x20 ADD PUSH2 0xB72 JUMP JUMPDEST PUSH2 0x15EA PUSH2 0x25D1 JUMP JUMPDEST PUSH2 0x15F4 PUSH1 0x0 PUSH2 0x2982 JUMP JUMPDEST JUMP JUMPDEST PUSH1 0x1 PUSH1 0x1 PUSH1 0xA0 SHL SUB DUP2 AND PUSH1 0x0 SWAP1 DUP2 MSTORE PUSH1 0x9 PUSH1 0x20 MSTORE PUSH1 0x40 SWAP1 KECCAK256 PUSH1 0x2 DUP2 ADD SLOAD TIMESTAMP GT PUSH2 0x161D JUMPI POP POP JUMP JUMPDEST DUP1 SLOAD PUSH1 0x0 SUB PUSH2 0x1630 JUMPI TIMESTAMP PUSH1 0x2 SWAP1 SWAP2 ADD SSTORE POP JUMP JUMPDEST PUSH1 0x0 DUP2 PUSH1 0x2 ADD SLOAD TIMESTAMP PUSH2 0x1642 SWAP2 SWAP1 PUSH2 0x30A0 JUMP JUMPDEST SWAP1 POP PUSH1 0x0 PUSH2 0x1654 DUP5 DUP5 PUSH1 0x0 ADD SLOAD PUSH2 0x1E91 JUMP JUMPDEST SWAP1 POP PUSH1 0x0 PUSH4 0xBBF81E00 DUP4 PUSH2 0x1669 DUP5 PUSH1 0x2C PUSH2 0x3067 JUMP JUMPDEST PUSH2 0x1673 SWAP2 SWAP1 PUSH2 0x3067 JUMP JUMPDEST PUSH2 0x167D SWAP2 SWAP1 PUSH2 0x307E JUMP JUMPDEST DUP5 SLOAD SWAP1 SWAP2 POP PUSH2 0x1694 DUP3 PUSH8 0xDE0B6B3A7640000 PUSH2 0x3067 JUMP JUMPDEST PUSH2 0x169E SWAP2 SWAP1 PUSH2 0x307E JUMP JUMPDEST DUP5 PUSH1 0x1 ADD PUSH1 0x0 DUP3 DUP3 SLOAD PUSH2 0x16B1 SWAP2 SWAP1 PUSH2 0x301D JUMP JUMPDEST SWAP1 SWAP2 SSTORE POP POP TIMESTAMP PUSH1 0x2 SWAP1 SWAP5 ADD SWAP4 SWAP1 SWAP4 SSTORE POP POP POP POP JUMP JUMPDEST PUSH2 0x16CE PUSH2 0x25D1 JUMP JUMPDEST PUSH1 0x64 DUP3 GT ISZERO PUSH2 0x171F JUMPI PUSH1 0x40 MLOAD PUSH3 0x461BCD PUSH1 0xE5 SHL DUP2 MSTORE PUSH1 0x20 PUSH1 0x4 DUP3 ADD DUP2 SWAP1 MSTORE PUSH1 0x24 DUP3 ADD MSTORE PUSH32 0x535855413A20496E76616C69642070656E616C74792070657263656E74616765 PUSH1 0x44 DUP3 ADD MSTORE PUSH1 0x64 ADD PUSH2 0x8AC JUMP JUMPDEST PUSH1 0xB DUP3 SWAP1 SSTORE PUSH1 0xC DUP2 SWAP1 SSTORE PUSH1 0x40 DUP1 MLOAD DUP4 DUP2 MSTORE PUSH1 0x20 DUP2 ADD DUP4 SWAP1 MSTORE PUSH32 0x936B3616D5072FA8F7381EF8E7C35D39BED9ECFB2184E908A56027AD5C0B6BC SWAP2 ADD PUSH1 0x40 MLOAD DUP1 SWAP2 SUB SWAP1 LOG1 POP POP JUMP JUMPDEST PUSH2 0x176E PUSH2 0x26CF JUMP JUMPDEST PUSH2 0x1776 PUSH2 0x2700 JUMP JUMPDEST PUSH1 0x1 PUSH1 0x1 PUSH1 0xA0 SHL SUB DUP3 AND PUSH1 0x0 SWAP1 DUP2 MSTORE PUSH1 0x2 PUSH1 0x20 MSTORE PUSH1 0x40 SWAP1 KECCAK256 SLOAD PUSH1 0xFF AND PUSH2 0x17AE JUMPI PUSH1 0x40 MLOAD PUSH3 0x461BCD PUSH1 0xE5 SHL DUP2 MSTORE PUSH1 0x4 ADD PUSH2 0x8AC SWAP1 PUSH2 0x3030 JUMP JUMPDEST PUSH1 0x0 DUP2 GT PUSH2 0x17FE JUMPI PUSH1 0x40 MLOAD PUSH3 0x461BCD PUSH1 0xE5 SHL DUP2 MSTORE PUSH1 0x20 PUSH1 0x4 DUP3 ADD MSTORE PUSH1 0x1F PUSH1 0x24 DUP3 ADD MSTORE PUSH32 0x535855413A20436F6D6D697420616D6F756E74206D757374206265203E203000 PUSH1 0x44 DUP3 ADD MSTORE PUSH1 0x64 ADD PUSH2 0x8AC JUMP JUMPDEST CALLER PUSH1 0x0 SWAP1 DUP2 MSTORE PUSH1 0x5 PUSH1 0x20 SWAP1 DUP2 MSTORE PUSH1 0x40 DUP1 DUP4 KECCAK256 PUSH1 0x1 PUSH1 0x1 PUSH1 0xA0 SHL SUB DUP7 AND DUP5 MSTORE SWAP1 SWAP2 MSTORE SWAP1 KECCAK256 SLOAD DUP2 GT ISZERO PUSH2 0x1841 JUMPI PUSH1 0x40 MLOAD PUSH3 0x461BCD PUSH1 0xE5 SHL DUP2 MSTORE PUSH1 0x4 ADD PUSH2 0x8AC SWAP1 PUSH2 0x30B3 JUMP JUMPDEST PUSH2 0x184B CALLER DUP4 PUSH2 0x23FA JUMP JUMPDEST PUSH2 0x1854 DUP3 PUSH2 0x15F6 JUMP JUMPDEST PUSH1 0x1 PUSH1 0x1 PUSH1 0xA0 SHL SUB DUP3 AND PUSH1 0x0 DUP2 DUP2 MSTORE PUSH1 0x9 PUSH1 0x20 SWAP1 DUP2 MSTORE PUSH1 0x40 DUP1 DUP4 KECCAK256 CALLER DUP5 MSTORE PUSH1 0x4 DUP4 MSTORE DUP2 DUP5 KECCAK256 SWAP5 DUP5 MSTORE SWAP4 SWAP1 SWAP2 MSTORE SWAP1 KECCAK256 SLOAD DUP1 ISZERO PUSH2 0x1989 JUMPI CALLER PUSH1 0x0 SWAP1 DUP2 MSTORE PUSH1 0xA PUSH1 0x20 SWAP1 DUP2 MSTORE PUSH1 0x40 DUP1 DUP4 KECCAK256 PUSH1 0x1 PUSH1 0x1 PUSH1 0xA0 SHL SUB DUP9 AND DUP5 MSTORE SWAP1 SWAP2 MSTORE DUP2 KECCAK256 SLOAD PUSH1 0x1 DUP5 ADD SLOAD PUSH8 0xDE0B6B3A7640000 SWAP1 PUSH2 0x18C6 SWAP1 DUP6 PUSH2 0x3067 JUMP JUMPDEST PUSH2 0x18D0 SWAP2 SWAP1 PUSH2 0x307E JUMP JUMPDEST PUSH2 0x18DA SWAP2 SWAP1 PUSH2 0x30A0 JUMP JUMPDEST SWAP1 POP DUP1 ISZERO PUSH2 0x1987 JUMPI PUSH1 0x0 SLOAD PUSH1 0x40 MLOAD PUSH4 0x40C10F19 PUSH1 0xE0 SHL DUP2 MSTORE CALLER PUSH1 0x4 DUP3 ADD MSTORE PUSH1 0x24 DUP2 ADD DUP4 SWAP1 MSTORE PUSH1 0x1 PUSH1 0x1 PUSH1 0xA0 SHL SUB SWAP1 SWAP2 AND SWAP1 PUSH4 0x40C10F19 SWAP1 PUSH1 0x44 ADD PUSH1 0x0 PUSH1 0x40 MLOAD DUP1 DUP4 SUB DUP2 PUSH1 0x0 DUP8 DUP1 EXTCODESIZE ISZERO DUP1 ISZERO PUSH2 0x192E JUMPI PUSH1 0x0 DUP1 REVERT JUMPDEST POP GAS CALL ISZERO DUP1 ISZERO PUSH2 0x1942 JUMPI RETURNDATASIZE PUSH1 0x0 DUP1 RETURNDATACOPY RETURNDATASIZE PUSH1 0x0 REVERT JUMPDEST POP POP PUSH1 0x40 MLOAD DUP4 DUP2 MSTORE PUSH1 0x1 PUSH1 0x1 PUSH1 0xA0 SHL SUB DUP9 AND SWAP3 POP CALLER SWAP2 POP PUSH32 0xCB0E7C5873034A840C4DC30BACB0A6726B12AE7D9DBAFD86F57E740B14A3769 SWAP1 PUSH1 0x20 ADD PUSH1 0x40 MLOAD DUP1 SWAP2 SUB SWAP1 LOG3 JUMPDEST POP JUMPDEST CALLER PUSH1 0x0 SWAP1 DUP2 MSTORE PUSH1 0x5 PUSH1 0x20 SWAP1 DUP2 MSTORE PUSH1 0x40 DUP1 DUP4 KECCAK256 PUSH1 0x1 PUSH1 0x1 PUSH1 0xA0 SHL SUB DUP9 AND DUP5 MSTORE SWAP1 SWAP2 MSTORE DUP2 KECCAK256 DUP1 SLOAD DUP6 SWAP3 SWAP1 PUSH2 0x19BC SWAP1 DUP5 SWAP1 PUSH2 0x30A0 JUMP JUMPDEST SWAP1 SWAP2 SSTORE POP POP CALLER PUSH1 0x0 SWAP1 DUP2 MSTORE PUSH1 0x4 PUSH1 0x20 SWAP1 DUP2 MSTORE PUSH1 0x40 DUP1 DUP4 KECCAK256 PUSH1 0x1 PUSH1 0x1 PUSH1 0xA0 SHL SUB DUP9 AND DUP5 MSTORE SWAP1 SWAP2 MSTORE DUP2 KECCAK256 DUP1 SLOAD DUP6 SWAP3 SWAP1 PUSH2 0x19F4 SWAP1 DUP5 SWAP1 PUSH2 0x301D JUMP JUMPDEST SWAP1 SWAP2 SSTORE POP POP CALLER PUSH1 0x0 SWAP1 DUP2 MSTORE PUSH1 0x6 PUSH1 0x20 SWAP1 DUP2 MSTORE PUSH1 0x40 DUP1 DUP4 KECCAK256 PUSH1 0x1 PUSH1 0x1 PUSH1 0xA0 SHL SUB DUP9 AND DUP5 MSTORE SWAP1 SWAP2 MSTORE DUP2 KECCAK256 TIMESTAMP SWAP1 SSTORE DUP3 SLOAD DUP5 SWAP2 DUP5 SWAP2 PUSH2 0x1A30 SWAP1 DUP5 SWAP1 PUSH2 0x301D JUMP JUMPDEST SWAP1 SWAP2 SSTORE POP POP PUSH1 0x1 DUP3 ADD SLOAD CALLER PUSH1 0x0 SWAP1 DUP2 MSTORE PUSH1 0x4 PUSH1 0x20 SWAP1 DUP2 MSTORE PUSH1 0x40 DUP1 DUP4 KECCAK256 PUSH1 0x1 PUSH1 0x1 PUSH1 0xA0 SHL SUB DUP10 AND DUP5 MSTORE SWAP1 SWAP2 MSTORE SWAP1 KECCAK256 SLOAD PUSH8 0xDE0B6B3A7640000 SWAP2 PUSH2 0x1A71 SWAP2 PUSH2 0x3067 JUMP JUMPDEST PUSH2 0x1A7B SWAP2 SWAP1 PUSH2 0x307E JUMP JUMPDEST CALLER PUSH1 0x0 DUP2 DUP2 MSTORE PUSH1 0xA PUSH1 0x20 SWAP1 DUP2 MSTORE PUSH1 0x40 DUP1 DUP4 KECCAK256 PUSH1 0x1 PUSH1 0x1 PUSH1 0xA0 SHL SUB DUP11 AND DUP1 DUP6 MSTORE SWAP3 MSTORE SWAP2 DUP3 SWAP1 KECCAK256 SWAP4 SWAP1 SWAP4 SSTORE MLOAD PUSH32 0xA5E4E34711D102D6AAADC9166B6C0CA95C3C5C1E55A45836D9D1D4F7CCB329E1 SWAP1 PUSH2 0x1AD4 SWAP1 DUP8 DUP2 MSTORE PUSH1 0x20 ADD SWAP1 JUMP JUMPDEST PUSH1 0x40 MLOAD DUP1 SWAP2 SUB SWAP1 LOG3 POP POP PUSH2 0xDB6 PUSH1 0x1 PUSH1 0x0 DUP1 MLOAD PUSH1 0x20 PUSH2 0x3282 DUP4 CODECOPY DUP2 MLOAD SWAP2 MSTORE SSTORE JUMP JUMPDEST PUSH2 0x1AFD PUSH2 0x26CF JUMP JUMPDEST PUSH2 0x1B05 PUSH2 0x2700 JUMP JUMPDEST PUSH2 0x1B0E DUP2 PUSH2 0x15F6 JUMP JUMPDEST PUSH1 0x1 PUSH1 0x1 PUSH1 0xA0 SHL SUB DUP2 AND PUSH1 0x0 DUP2 DUP2 MSTORE PUSH1 0x9 PUSH1 0x20 SWAP1 DUP2 MSTORE PUSH1 0x40 DUP1 DUP4 KECCAK256 CALLER DUP5 MSTORE PUSH1 0x4 DUP4 MSTORE DUP2 DUP5 KECCAK256 SWAP5 DUP5 MSTORE SWAP4 SWAP1 SWAP2 MSTORE SWAP1 KECCAK256 SLOAD DUP1 PUSH2 0x1B8A JUMPI PUSH1 0x40 MLOAD PUSH3 0x461BCD PUSH1 0xE5 SHL DUP2 MSTORE PUSH1 0x20 PUSH1 0x4 DUP3 ADD MSTORE PUSH1 0x1A PUSH1 0x24 DUP3 ADD MSTORE PUSH32 0x535855413A204E6F20636F6D6D69747465642062616C616E6365000000000000 PUSH1 0x44 DUP3 ADD MSTORE PUSH1 0x64 ADD PUSH2 0x8AC JUMP JUMPDEST CALLER PUSH1 0x0 SWAP1 DUP2 MSTORE PUSH1 0xA PUSH1 0x20 SWAP1 DUP2 MSTORE PUSH1 0x40 DUP1 DUP4 KECCAK256 PUSH1 0x1 PUSH1 0x1 PUSH1 0xA0 SHL SUB DUP8 AND DUP5 MSTORE SWAP1 SWAP2 MSTORE DUP2 KECCAK256 SLOAD PUSH1 0x1 DUP5 ADD SLOAD PUSH8 0xDE0B6B3A7640000 SWAP1 PUSH2 0x1BC7 SWAP1 DUP6 PUSH2 0x3067 JUMP JUMPDEST PUSH2 0x1BD1 SWAP2 SWAP1 PUSH2 0x307E JUMP JUMPDEST PUSH2 0x1BDB SWAP2 SWAP1 PUSH2 0x30A0 JUMP JUMPDEST SWAP1 POP PUSH1 0x0 DUP2 GT PUSH2 0x1C2D JUMPI PUSH1 0x40 MLOAD PUSH3 0x461BCD PUSH1 0xE5 SHL DUP2 MSTORE PUSH1 0x20 PUSH1 0x4 DUP3 ADD MSTORE PUSH1 0x1C PUSH1 0x24 DUP3 ADD MSTORE PUSH32 0x535855413A204E6F205358502072657761726420746F20636C61696D00000000 PUSH1 0x44 DUP3 ADD MSTORE PUSH1 0x64 ADD PUSH2 0x8AC JUMP JUMPDEST PUSH8 0xDE0B6B3A7640000 DUP4 PUSH1 0x1 ADD SLOAD DUP4 PUSH2 0x1C46 SWAP2 SWAP1 PUSH2 0x3067 JUMP JUMPDEST PUSH2 0x1C50 SWAP2 SWAP1 PUSH2 0x307E JUMP JUMPDEST CALLER PUSH1 0x0 DUP2 DUP2 MSTORE PUSH1 0xA PUSH1 0x20 SWAP1 DUP2 MSTORE PUSH1 0x40 DUP1 DUP4 KECCAK256 PUSH1 0x1 PUSH1 0x1 PUSH1 0xA0 SHL SUB DUP11 DUP2 AND DUP6 MSTORE SWAP3 MSTORE DUP1 DUP4 KECCAK256 SWAP5 SWAP1 SWAP5 SSTORE SWAP1 SLOAD SWAP3 MLOAD PUSH4 0x40C10F19 PUSH1 0xE0 SHL DUP2 MSTORE PUSH1 0x4 DUP2 ADD SWAP3 SWAP1 SWAP3 MSTORE PUSH1 0x24 DUP3 ADD DUP5 SWAP1 MSTORE SWAP2 SWAP1 SWAP2 AND SWAP1 PUSH4 0x40C10F19 SWAP1 PUSH1 0x44 ADD PUSH1 0x0 PUSH1 0x40 MLOAD DUP1 DUP4 SUB DUP2 PUSH1 0x0 DUP8 DUP1 EXTCODESIZE ISZERO DUP1 ISZERO PUSH2 0x1CBD JUMPI PUSH1 0x0 DUP1 REVERT JUMPDEST POP GAS CALL ISZERO DUP1 ISZERO PUSH2 0x1CD1 JUMPI RETURNDATASIZE PUSH1 0x0 DUP1 RETURNDATACOPY RETURNDATASIZE PUSH1 0x0 REVERT JUMPDEST POP POP PUSH1 0x40 MLOAD DUP4 DUP2 MSTORE PUSH1 0x1 PUSH1 0x1 PUSH1 0xA0 SHL SUB DUP8 AND SWAP3 POP CALLER SWAP2 POP PUSH32 0xCB0E7C5873034A840C4DC30BACB0A6726B12AE7D9DBAFD86F57E740B14A3769 SWAP1 PUSH1 0x20 ADD PUSH1 0x40 MLOAD DUP1 SWAP2 SUB SWAP1 LOG3 POP POP POP PUSH2 0xB92 PUSH1 0x1 PUSH1 0x0 DUP1 MLOAD PUSH1 0x20 PUSH2 0x3282 DUP4 CODECOPY DUP2 MLOAD SWAP2 MSTORE SSTORE JUMP JUMPDEST PUSH2 0x1D37 PUSH2 0x26CF JUMP JUMPDEST PUSH2 0x1D3F PUSH2 0x2700 JUMP JUMPDEST PUSH1 0x1 PUSH1 0x1 PUSH1 0xA0 SHL SUB DUP3 AND PUSH1 0x0 SWAP1 DUP2 MSTORE PUSH1 0x2 PUSH1 0x20 MSTORE PUSH1 0x40 SWAP1 KECCAK256 SLOAD PUSH1 0xFF AND PUSH2 0x1D77 JUMPI PUSH1 0x40 MLOAD PUSH3 0x461BCD PUSH1 0xE5 SHL DUP2 MSTORE PUSH1 0x4 ADD PUSH2 0x8AC SWAP1 PUSH2 0x3030 JUMP JUMPDEST PUSH1 0x0 DUP2 GT PUSH2 0x1DC7 JUMPI PUSH1 0x40 MLOAD PUSH3 0x461BCD PUSH1 0xE5 SHL DUP2 MSTORE PUSH1 0x20 PUSH1 0x4 DUP3 ADD DUP2 SWAP1 MSTORE PUSH1 0x24 DUP3 ADD MSTORE PUSH32 0x535855413A204465706F73697420616D6F756E74206D757374206265203E2030 PUSH1 0x44 DUP3 ADD MSTORE PUSH1 0x64 ADD PUSH2 0x8AC JUMP JUMPDEST PUSH2 0x1DD1 DUP4 DUP4 PUSH2 0x23FA JUMP JUMPDEST PUSH2 0x1DDA DUP3 PUSH2 0x15F6 JUMP JUMPDEST PUSH2 0x1DEF PUSH1 0x1 PUSH1 0x1 PUSH1 0xA0 SHL SUB DUP4 AND CALLER ADDRESS DUP5 PUSH2 0x271C JUMP JUMPDEST PUSH1 0x1 PUSH1 0x1 PUSH1 0xA0 SHL SUB DUP1 DUP5 AND PUSH1 0x0 SWAP1 DUP2 MSTORE PUSH1 0x5 PUSH1 0x20 SWAP1 DUP2 MSTORE PUSH1 0x40 DUP1 DUP4 KECCAK256 SWAP4 DUP7 AND DUP4 MSTORE SWAP3 SWAP1 MSTORE SWAP1 DUP2 KECCAK256 DUP1 SLOAD DUP4 SWAP3 SWAP1 PUSH2 0x1E26 SWAP1 DUP5 SWAP1 PUSH2 0x301D JUMP JUMPDEST SWAP3 POP POP DUP2 SWAP1 SSTORE POP DUP2 PUSH1 0x1 PUSH1 0x1 PUSH1 0xA0 SHL SUB AND DUP4 PUSH1 0x1 PUSH1 0x1 PUSH1 0xA0 SHL SUB AND PUSH32 0x8752A472E571A816AEA92EEC8DAE9BAF628E840F4929FBCC2D155E6233FF68A7 DUP4 PUSH1 0x40 MLOAD PUSH2 0x1E72 SWAP2 DUP2 MSTORE PUSH1 0x20 ADD SWAP1 JUMP JUMPDEST PUSH1 0x40 MLOAD DUP1 SWAP2 SUB SWAP1 LOG3 PUSH2 0xC62 PUSH1 0x1 PUSH1 0x0 DUP1 MLOAD PUSH1 0x20 PUSH2 0x3282 DUP4 CODECOPY DUP2 MLOAD SWAP2 MSTORE SSTORE JUMP JUMPDEST PUSH1 0x0 DUP1 DUP4 PUSH1 0x1 PUSH1 0x1 PUSH1 0xA0 SHL SUB AND PUSH4 0x313CE567 PUSH1 0x40 MLOAD DUP2 PUSH4 0xFFFFFFFF AND PUSH1 0xE0 SHL DUP2 MSTORE PUSH1 0x4 ADD PUSH1 0x20 PUSH1 0x40 MLOAD DUP1 DUP4 SUB DUP2 DUP7 GAS STATICCALL ISZERO DUP1 ISZERO PUSH2 0x1ED2 JUMPI RETURNDATASIZE PUSH1 0x0 DUP1 RETURNDATACOPY RETURNDATASIZE PUSH1 0x0 REVERT JUMPDEST POP POP POP POP PUSH1 0x40 MLOAD RETURNDATASIZE PUSH1 0x1F NOT PUSH1 0x1F DUP3 ADD AND DUP3 ADD DUP1 PUSH1 0x40 MSTORE POP DUP2 ADD SWAP1 PUSH2 0x1EF6 SWAP2 SWAP1 PUSH2 0x30F9 JUMP JUMPDEST SWAP1 POP PUSH1 0x12 DUP2 PUSH1 0xFF AND LT ISZERO PUSH2 0x1F2C JUMPI PUSH2 0x1F0F DUP2 PUSH1 0x12 PUSH2 0x311C JUMP JUMPDEST PUSH2 0x1F1A SWAP1 PUSH1 0xA PUSH2 0x3219 JUMP JUMPDEST PUSH2 0x1F24 SWAP1 DUP5 PUSH2 0x3067 JUMP JUMPDEST SWAP2 POP POP PUSH2 0x1F5D JUMP JUMPDEST PUSH1 0x12 DUP2 PUSH1 0xFF AND GT ISZERO PUSH2 0x1F58 JUMPI PUSH2 0x1F43 PUSH1 0x12 DUP3 PUSH2 0x311C JUMP JUMPDEST PUSH2 0x1F4E SWAP1 PUSH1 0xA PUSH2 0x3219 JUMP JUMPDEST PUSH2 0x1F24 SWAP1 DUP5 PUSH2 0x307E JUMP JUMPDEST DUP3 SWAP2 POP POP JUMPDEST SWAP3 SWAP2 POP POP JUMP JUMPDEST PUSH1 0x1 PUSH1 0x1 PUSH1 0xA0 SHL SUB DUP1 DUP4 AND PUSH1 0x0 DUP2 DUP2 MSTORE PUSH1 0x9 PUSH1 0x20 SWAP1 DUP2 MSTORE PUSH1 0x40 DUP1 DUP4 KECCAK256 DUP2 MLOAD PUSH1 0x60 DUP2 ADD DUP4 MSTORE DUP2 SLOAD DUP2 MSTORE PUSH1 0x1 DUP3 ADD SLOAD DUP2 DUP6 ADD MSTORE PUSH1 0x2 SWAP1 SWAP2 ADD SLOAD DUP2 DUP4 ADD MSTORE SWAP5 DUP7 AND DUP4 MSTORE PUSH1 0x4 DUP3 MSTORE DUP1 DUP4 KECCAK256 SWAP4 DUP4 MSTORE SWAP3 SWAP1 MSTORE SWAP1 DUP2 KECCAK256 SLOAD SWAP1 SWAP2 SWAP1 DUP1 DUP4 SUB PUSH2 0x1FC9 JUMPI PUSH1 0x0 SWAP3 POP POP POP PUSH2 0x1F5D JUMP JUMPDEST DUP2 PUSH1 0x40 ADD MLOAD TIMESTAMP GT DUP1 ISZERO PUSH2 0x1FDC JUMPI POP DUP2 MLOAD ISZERO ISZERO JUMPDEST ISZERO PUSH2 0x2067 JUMPI PUSH1 0x0 DUP3 PUSH1 0x40 ADD MLOAD TIMESTAMP PUSH2 0x1FF3 SWAP2 SWAP1 PUSH2 0x30A0 JUMP JUMPDEST SWAP1 POP PUSH1 0x0 PUSH2 0x2005 DUP8 DUP6 PUSH1 0x0 ADD MLOAD PUSH2 0x1E91 JUMP JUMPDEST SWAP1 POP PUSH1 0x0 PUSH4 0xBBF81E00 DUP4 PUSH2 0x201A DUP5 PUSH1 0x2C PUSH2 0x3067 JUMP JUMPDEST PUSH2 0x2024 SWAP2 SWAP1 PUSH2 0x3067 JUMP JUMPDEST PUSH2 0x202E SWAP2 SWAP1 PUSH2 0x307E JUMP JUMPDEST DUP6 MLOAD SWAP1 SWAP2 POP PUSH2 0x2045 DUP3 PUSH8 0xDE0B6B3A7640000 PUSH2 0x3067 JUMP JUMPDEST PUSH2 0x204F SWAP2 SWAP1 PUSH2 0x307E JUMP JUMPDEST DUP6 PUSH1 0x20 ADD DUP2 DUP2 MLOAD PUSH2 0x2060 SWAP2 SWAP1 PUSH2 0x301D JUMP JUMPDEST SWAP1 MSTORE POP POP POP POP JUMPDEST PUSH1 0x1 PUSH1 0x1 PUSH1 0xA0 SHL SUB DUP1 DUP6 AND PUSH1 0x0 SWAP1 DUP2 MSTORE PUSH1 0xA PUSH1 0x20 SWAP1 DUP2 MSTORE PUSH1 0x40 DUP1 DUP4 KECCAK256 SWAP4 DUP10 AND DUP4 MSTORE SWAP3 DUP2 MSTORE SWAP2 SWAP1 KECCAK256 SLOAD SWAP1 DUP4 ADD MLOAD PUSH8 0xDE0B6B3A7640000 SWAP1 PUSH2 0x20A7 SWAP1 DUP5 PUSH2 0x3067 JUMP JUMPDEST PUSH2 0x20B1 SWAP2 SWAP1 PUSH2 0x307E JUMP JUMPDEST PUSH2 0x20BB SWAP2 SWAP1 PUSH2 0x30A0 JUMP JUMPDEST SWAP6 SWAP5 POP POP POP POP POP JUMP JUMPDEST PUSH2 0x20CC PUSH2 0x26CF JUMP JUMPDEST PUSH2 0x20D4 PUSH2 0x2700 JUMP JUMPDEST PUSH1 0x0 DUP2 GT PUSH2 0x211F JUMPI PUSH1 0x40 MLOAD PUSH3 0x461BCD PUSH1 0xE5 SHL DUP2 MSTORE PUSH1 0x20 PUSH1 0x4 DUP3 ADD MSTORE PUSH1 0x18 PUSH1 0x24 DUP3 ADD MSTORE PUSH24 0x535855413A20416D6F756E74206D757374206265203E203 PUSH1 0x44 SHL PUSH1 0x44 DUP3 ADD MSTORE PUSH1 0x64 ADD PUSH2 0x8AC JUMP JUMPDEST PUSH1 0x1 PUSH1 0x1 PUSH1 0xA0 SHL SUB DUP1 DUP5 AND PUSH1 0x0 SWAP1 DUP2 MSTORE PUSH1 0x5 PUSH1 0x20 SWAP1 DUP2 MSTORE PUSH1 0x40 DUP1 DUP4 KECCAK256 SWAP4 DUP7 AND DUP4 MSTORE SWAP3 SWAP1 MSTORE KECCAK256 SLOAD DUP2 GT ISZERO PUSH2 0x2164 JUMPI PUSH1 0x40 MLOAD PUSH3 0x461BCD PUSH1 0xE5 SHL DUP2 MSTORE PUSH1 0x4 ADD PUSH2 0x8AC SWAP1 PUSH2 0x30B3 JUMP JUMPDEST PUSH2 0x216E DUP4 DUP4 PUSH2 0x23FA JUMP JUMPDEST PUSH1 0x1 PUSH1 0x1 PUSH1 0xA0 SHL SUB DUP1 DUP5 AND PUSH1 0x0 SWAP1 DUP2 MSTORE PUSH1 0x5 PUSH1 0x20 SWAP1 DUP2 MSTORE PUSH1 0x40 DUP1 DUP4 KECCAK256 SWAP4 DUP7 AND DUP4 MSTORE SWAP3 SWAP1 MSTORE SWAP1 DUP2 KECCAK256 DUP1 SLOAD DUP4 SWAP3 SWAP1 PUSH2 0x21A5 SWAP1 DUP5 SWAP1 PUSH2 0x30A0 JUMP JUMPDEST SWAP1 SWAP2 SSTORE POP PUSH2 0x21BF SWAP1 POP PUSH1 0x1 PUSH1 0x1 PUSH1 0xA0 SHL SUB DUP4 AND CALLER DUP4 PUSH2 0x294D JUMP JUMPDEST PUSH2 0xC62 PUSH1 0x1 PUSH1 0x0 DUP1 MLOAD PUSH1 0x20 PUSH2 0x3282 DUP4 CODECOPY DUP2 MLOAD SWAP2 MSTORE SSTORE JUMP JUMPDEST PUSH2 0x21DE PUSH2 0x25D1 JUMP JUMPDEST PUSH1 0x1 PUSH1 0x1 PUSH1 0xA0 SHL SUB DUP2 AND PUSH2 0x2208 JUMPI PUSH1 0x40 MLOAD PUSH4 0x1E4FBDF7 PUSH1 0xE0 SHL DUP2 MSTORE PUSH1 0x0 PUSH1 0x4 DUP3 ADD MSTORE PUSH1 0x24 ADD PUSH2 0x8AC JUMP JUMPDEST PUSH2 0xB92 DUP2 PUSH2 0x2982 JUMP JUMPDEST PUSH2 0x2219 PUSH2 0x26CF JUMP JUMPDEST PUSH2 0x2221 PUSH2 0x2700 JUMP JUMPDEST PUSH1 0x0 DUP2 GT PUSH2 0x227D JUMPI PUSH1 0x40 MLOAD PUSH3 0x461BCD PUSH1 0xE5 SHL DUP2 MSTORE PUSH1 0x20 PUSH1 0x4 DUP3 ADD MSTORE PUSH1 0x23 PUSH1 0x24 DUP3 ADD MSTORE PUSH32 0x535855413A205769746864726177616C20616D6F756E74206D75737420626520 PUSH1 0x44 DUP3 ADD MSTORE PUSH3 0x3E203 PUSH1 0xEC SHL PUSH1 0x64 DUP3 ADD MSTORE PUSH1 0x84 ADD PUSH2 0x8AC JUMP JUMPDEST CALLER PUSH1 0x0 SWAP1 DUP2 MSTORE PUSH1 0x5 PUSH1 0x20 SWAP1 DUP2 MSTORE PUSH1 0x40 DUP1 DUP4 KECCAK256 PUSH1 0x1 PUSH1 0x1 PUSH1 0xA0 SHL SUB DUP7 AND DUP5 MSTORE SWAP1 SWAP2 MSTORE SWAP1 KECCAK256 SLOAD DUP2 GT ISZERO PUSH2 0x22C0 JUMPI PUSH1 0x40 MLOAD PUSH3 0x461BCD PUSH1 0xE5 SHL DUP2 MSTORE PUSH1 0x4 ADD PUSH2 0x8AC SWAP1 PUSH2 0x30B3 JUMP JUMPDEST PUSH2 0x22CA CALLER DUP4 PUSH2 0x23FA JUMP JUMPDEST CALLER PUSH1 0x0 SWAP1 DUP2 MSTORE PUSH1 0x5 PUSH1 0x20 SWAP1 DUP2 MSTORE PUSH1 0x40 DUP1 DUP4 KECCAK256 PUSH1 0x1 PUSH1 0x1 PUSH1 0xA0 SHL SUB DUP7 AND DUP5 MSTORE SWAP1 SWAP2 MSTORE DUP2 KECCAK256 DUP1 SLOAD DUP4 SWAP3 SWAP1 PUSH2 0x22FD SWAP1 DUP5 SWAP1 PUSH2 0x30A0 JUMP JUMPDEST SWAP1 SWAP2 SSTORE POP PUSH1 0x0 SWAP1 POP PUSH1 0x64 PUSH2 0x2312 DUP4 PUSH1 0x6 PUSH2 0x3067 JUMP JUMPDEST PUSH2 0x231C SWAP2 SWAP1 PUSH2 0x307E JUMP JUMPDEST SWAP1 POP PUSH1 0x0 PUSH1 0x64 PUSH2 0x232D DUP5 PUSH1 0x1 PUSH2 0x3067 JUMP JUMPDEST PUSH2 0x2337 SWAP2 SWAP1 PUSH2 0x307E JUMP JUMPDEST SWAP1 POP PUSH1 0x0 DUP2 PUSH2 0x2346 DUP5 DUP7 PUSH2 0x30A0 JUMP JUMPDEST PUSH2 0x2350 SWAP2 SWAP1 PUSH2 0x30A0 JUMP JUMPDEST PUSH1 0x1 SLOAD SWAP1 SWAP2 POP PUSH2 0x236D SWAP1 PUSH1 0x1 PUSH1 0x1 PUSH1 0xA0 SHL SUB DUP8 DUP2 AND SWAP2 AND DUP6 PUSH2 0x294D JUMP JUMPDEST PUSH1 0xD SLOAD PUSH2 0x238C SWAP1 PUSH1 0x1 PUSH1 0x1 PUSH1 0xA0 SHL SUB DUP8 DUP2 AND SWAP2 PUSH2 0x100 SWAP1 DIV AND DUP5 PUSH2 0x294D JUMP JUMPDEST PUSH2 0x23A0 PUSH1 0x1 PUSH1 0x1 PUSH1 0xA0 SHL SUB DUP7 AND CALLER DUP4 PUSH2 0x294D JUMP JUMPDEST PUSH1 0x40 MLOAD DUP5 DUP2 MSTORE PUSH1 0x1 PUSH1 0x1 PUSH1 0xA0 SHL SUB DUP7 AND SWAP1 CALLER SWAP1 PUSH32 0xD1C19FBCD4551A5EDFB66D43D2E337C04837AFDA3482B42BDF569A8FCCDAE5FB SWAP1 PUSH1 0x20 ADD PUSH1 0x40 MLOAD DUP1 SWAP2 SUB SWAP1 LOG3 POP POP POP PUSH2 0xDB6 PUSH1 0x1 PUSH1 0x0 DUP1 MLOAD PUSH1 0x20 PUSH2 0x3282 DUP4 CODECOPY DUP2 MLOAD SWAP2 MSTORE SSTORE JUMP JUMPDEST PUSH1 0x1 PUSH1 0x1 PUSH1 0xA0 SHL SUB DUP1 DUP4 AND PUSH1 0x0 SWAP1 DUP2 MSTORE PUSH1 0x7 PUSH1 0x20 SWAP1 DUP2 MSTORE PUSH1 0x40 DUP1 DUP4 KECCAK256 SWAP4 DUP6 AND DUP4 MSTORE SWAP3 SWAP1 MSTORE SWAP1 DUP2 KECCAK256 SLOAD SWAP1 DUP2 SWAP1 SUB PUSH2 0x2457 JUMPI POP PUSH1 0x1 PUSH1 0x1 PUSH1 0xA0 SHL SUB SWAP2 DUP3 AND PUSH1 0x0 SWAP1 DUP2 MSTORE PUSH1 0x7 PUSH1 0x20 SWAP1 DUP2 MSTORE PUSH1 0x40 DUP1 DUP4 KECCAK256 SWAP4 SWAP1 SWAP5 AND DUP3 MSTORE SWAP2 SWAP1 SWAP2 MSTORE KECCAK256 TIMESTAMP SWAP1 SSTORE JUMP JUMPDEST PUSH1 0x0 PUSH2 0x2463 DUP3 TIMESTAMP PUSH2 0x30A0 JUMP JUMPDEST SWAP1 POP PUSH1 0x0 PUSH2 0x2474 PUSH3 0x15180 DUP4 PUSH2 0x307E JUMP JUMPDEST SWAP1 POP DUP1 ISZERO PUSH2 0x25CA JUMPI PUSH1 0x1 PUSH1 0x1 PUSH1 0xA0 SHL SUB DUP1 DUP7 AND PUSH1 0x0 DUP2 DUP2 MSTORE PUSH1 0x4 PUSH1 0x20 SWAP1 DUP2 MSTORE PUSH1 0x40 DUP1 DUP4 KECCAK256 SWAP5 DUP10 AND DUP1 DUP5 MSTORE SWAP5 DUP3 MSTORE DUP1 DUP4 KECCAK256 SLOAD SWAP4 DUP4 MSTORE PUSH1 0x5 DUP3 MSTORE DUP1 DUP4 KECCAK256 SWAP5 DUP4 MSTORE SWAP4 SWAP1 MSTORE SWAP2 DUP3 KECCAK256 SLOAD PUSH2 0x24C3 SWAP2 SWAP1 PUSH2 0x301D JUMP JUMPDEST SWAP1 POP PUSH1 0x0 PUSH2 0x2710 DUP4 PUSH2 0x24D6 DUP5 PUSH1 0xC PUSH2 0x3067 JUMP JUMPDEST PUSH2 0x24E0 SWAP2 SWAP1 PUSH2 0x3067 JUMP JUMPDEST PUSH2 0x24EA SWAP2 SWAP1 PUSH2 0x307E JUMP JUMPDEST SWAP1 POP DUP1 ISZERO PUSH2 0x257E JUMPI PUSH1 0x1 PUSH1 0x1 PUSH1 0xA0 SHL SUB DUP1 DUP9 AND PUSH1 0x0 SWAP1 DUP2 MSTORE PUSH1 0x8 PUSH1 0x20 SWAP1 DUP2 MSTORE PUSH1 0x40 DUP1 DUP4 KECCAK256 SWAP4 DUP11 AND DUP4 MSTORE SWAP3 SWAP1 MSTORE SWAP1 DUP2 KECCAK256 DUP1 SLOAD DUP4 SWAP3 SWAP1 PUSH2 0x2529 SWAP1 DUP5 SWAP1 PUSH2 0x301D JUMP JUMPDEST SWAP3 POP POP DUP2 SWAP1 SSTORE POP DUP6 PUSH1 0x1 PUSH1 0x1 PUSH1 0xA0 SHL SUB AND DUP8 PUSH1 0x1 PUSH1 0x1 PUSH1 0xA0 SHL SUB AND PUSH32 0x1549BC24DA46A362B594D2D6A9C0D8DB4450C417093899401C2993A1CBCE65CB DUP4 PUSH1 0x40 MLOAD PUSH2 0x2575 SWAP2 DUP2 MSTORE PUSH1 0x20 ADD SWAP1 JUMP JUMPDEST PUSH1 0x40 MLOAD DUP1 SWAP2 SUB SWAP1 LOG3 JUMPDEST PUSH2 0x258B DUP4 PUSH3 0x15180 PUSH2 0x3067 JUMP JUMPDEST PUSH1 0x1 PUSH1 0x1 PUSH1 0xA0 SHL SUB DUP1 DUP10 AND PUSH1 0x0 SWAP1 DUP2 MSTORE PUSH1 0x7 PUSH1 0x20 SWAP1 DUP2 MSTORE PUSH1 0x40 DUP1 DUP4 KECCAK256 SWAP4 DUP12 AND DUP4 MSTORE SWAP3 SWAP1 MSTORE SWAP1 DUP2 KECCAK256 DUP1 SLOAD SWAP1 SWAP2 SWAP1 PUSH2 0x25C2 SWAP1 DUP5 SWAP1 PUSH2 0x301D JUMP JUMPDEST SWAP1 SWAP2 SSTORE POP POP POP POP JUMPDEST POP POP POP POP POP JUMP JUMPDEST CALLER PUSH2 0x2603 PUSH32 0x9016D09D72D40FDAE2FD8CEAC6B6234C7706214FD39C1CD1E609A0528C199300 SLOAD PUSH1 0x1 PUSH1 0x1 PUSH1 0xA0 SHL SUB AND SWAP1 JUMP JUMPDEST PUSH1 0x1 PUSH1 0x1 PUSH1 0xA0 SHL SUB AND EQ PUSH2 0x15F4 JUMPI PUSH1 0x40 MLOAD PUSH4 0x118CDAA7 PUSH1 0xE0 SHL DUP2 MSTORE CALLER PUSH1 0x4 DUP3 ADD MSTORE PUSH1 0x24 ADD PUSH2 0x8AC JUMP JUMPDEST PUSH2 0x2634 PUSH2 0x26CF JUMP JUMPDEST PUSH1 0x0 DUP1 MLOAD PUSH1 0x20 PUSH2 0x3262 DUP4 CODECOPY DUP2 MLOAD SWAP2 MSTORE DUP1 SLOAD PUSH1 0xFF NOT AND PUSH1 0x1 OR DUP2 SSTORE PUSH32 0x62E78CEA01BEE320CD4E420270B5EA74000D11B0C9F74754EBDBFC544B05A258 CALLER JUMPDEST PUSH1 0x40 MLOAD PUSH1 0x1 PUSH1 0x1 PUSH1 0xA0 SHL SUB SWAP1 SWAP2 AND DUP2 MSTORE PUSH1 0x20 ADD PUSH2 0xA29 JUMP JUMPDEST PUSH2 0x2691 PUSH2 0x29F3 JUMP JUMPDEST PUSH1 0x0 DUP1 MLOAD PUSH1 0x20 PUSH2 0x3262 DUP4 CODECOPY DUP2 MLOAD SWAP2 MSTORE DUP1 SLOAD PUSH1 0xFF NOT AND DUP2 SSTORE PUSH32 0x5DB9EE0A495BF2E6FF9C91A7834C1BA4FDD244A5E8AA4E537BD38AEAE4B073AA CALLER PUSH2 0x2671 JUMP JUMPDEST PUSH1 0x0 DUP1 MLOAD PUSH1 0x20 PUSH2 0x3262 DUP4 CODECOPY DUP2 MLOAD SWAP2 MSTORE SLOAD PUSH1 0xFF AND ISZERO PUSH2 0x15F4 JUMPI PUSH1 0x40 MLOAD PUSH4 0xD93C0665 PUSH1 0xE0 SHL DUP2 MSTORE PUSH1 0x4 ADD PUSH1 0x40 MLOAD DUP1 SWAP2 SUB SWAP1 REVERT JUMPDEST PUSH2 0x2708 PUSH2 0x2A23 JUMP JUMPDEST PUSH1 0x2 PUSH1 0x0 DUP1 MLOAD PUSH1 0x20 PUSH2 0x3282 DUP4 CODECOPY DUP2 MLOAD SWAP2 MSTORE SSTORE JUMP JUMPDEST PUSH2 0x272A DUP5 DUP5 DUP5 DUP5 PUSH1 0x1 PUSH2 0x2A53 JUMP JUMPDEST PUSH2 0x2752 JUMPI PUSH1 0x40 MLOAD PUSH4 0x5274AFE7 PUSH1 0xE0 SHL DUP2 MSTORE PUSH1 0x1 PUSH1 0x1 PUSH1 0xA0 SHL SUB DUP6 AND PUSH1 0x4 DUP3 ADD MSTORE PUSH1 0x24 ADD PUSH2 0x8AC JUMP JUMPDEST POP POP POP POP JUMP JUMPDEST ADDRESS PUSH1 0x1 PUSH1 0x1 PUSH1 0xA0 SHL SUB PUSH32 0x0 AND EQ DUP1 PUSH2 0x27DF JUMPI POP PUSH32 0x0 PUSH1 0x1 PUSH1 0x1 PUSH1 0xA0 SHL SUB AND PUSH2 0x27D3 PUSH1 0x0 DUP1 MLOAD PUSH1 0x20 PUSH2 0x3242 DUP4 CODECOPY DUP2 MLOAD SWAP2 MSTORE SLOAD PUSH1 0x1 PUSH1 0x1 PUSH1 0xA0 SHL SUB AND SWAP1 JUMP JUMPDEST PUSH1 0x1 PUSH1 0x1 PUSH1 0xA0 SHL SUB AND EQ ISZERO JUMPDEST ISZERO PUSH2 0x15F4 JUMPI PUSH1 0x40 MLOAD PUSH4 0x703E46DD PUSH1 0xE1 SHL DUP2 MSTORE PUSH1 0x4 ADD PUSH1 0x40 MLOAD DUP1 SWAP2 SUB SWAP1 REVERT JUMPDEST PUSH2 0xB92 PUSH2 0x25D1 JUMP JUMPDEST DUP2 PUSH1 0x1 PUSH1 0x1 PUSH1 0xA0 SHL SUB AND PUSH4 0x52D1902D PUSH1 0x40 MLOAD DUP2 PUSH4 0xFFFFFFFF AND PUSH1 0xE0 SHL DUP2 MSTORE PUSH1 0x4 ADD PUSH1 0x20 PUSH1 0x40 MLOAD DUP1 DUP4 SUB DUP2 DUP7 GAS STATICCALL SWAP3 POP POP POP DUP1 ISZERO PUSH2 0x285F JUMPI POP PUSH1 0x40 DUP1 MLOAD PUSH1 0x1F RETURNDATASIZE SWAP1 DUP2 ADD PUSH1 0x1F NOT AND DUP3 ADD SWAP1 SWAP3 MSTORE PUSH2 0x285C SWAP2 DUP2 ADD SWAP1 PUSH2 0x3228 JUMP JUMPDEST PUSH1 0x1 JUMPDEST PUSH2 0x2887 JUMPI PUSH1 0x40 MLOAD PUSH4 0x4C9C8CE3 PUSH1 0xE0 SHL DUP2 MSTORE PUSH1 0x1 PUSH1 0x1 PUSH1 0xA0 SHL SUB DUP4 AND PUSH1 0x4 DUP3 ADD MSTORE PUSH1 0x24 ADD PUSH2 0x8AC JUMP JUMPDEST PUSH1 0x0 DUP1 MLOAD PUSH1 0x20 PUSH2 0x3242 DUP4 CODECOPY DUP2 MLOAD SWAP2 MSTORE DUP2 EQ PUSH2 0x28B8 JUMPI PUSH1 0x40 MLOAD PUSH4 0x2A875269 PUSH1 0xE2 SHL DUP2 MSTORE PUSH1 0x4 DUP2 ADD DUP3 SWAP1 MSTORE PUSH1 0x24 ADD PUSH2 0x8AC JUMP JUMPDEST PUSH2 0xC62 DUP4 DUP4 PUSH2 0x2AC5 JUMP JUMPDEST ADDRESS PUSH1 0x1 PUSH1 0x1 PUSH1 0xA0 SHL SUB PUSH32 0x0 AND EQ PUSH2 0x15F4 JUMPI PUSH1 0x40 MLOAD PUSH4 0x703E46DD PUSH1 0xE1 SHL DUP2 MSTORE PUSH1 0x4 ADD PUSH1 0x40 MLOAD DUP1 SWAP2 SUB SWAP1 REVERT JUMPDEST PUSH1 0x0 DUP1 PUSH32 0xF0C57E16840DF040F15088DC2F81FE391C3923BEC73E23A9662EFC9C229C6A00 PUSH2 0x1F5D JUMP JUMPDEST PUSH2 0x293C PUSH2 0x2B1B JUMP JUMPDEST PUSH2 0xB92 DUP2 PUSH2 0x2B40 JUMP JUMPDEST PUSH2 0x15F4 PUSH2 0x2B1B JUMP JUMPDEST PUSH2 0x295A DUP4 DUP4 DUP4 PUSH1 0x1 PUSH2 0x2B48 JUMP JUMPDEST PUSH2 0xC62 JUMPI PUSH1 0x40 MLOAD PUSH4 0x5274AFE7 PUSH1 0xE0 SHL DUP2 MSTORE PUSH1 0x1 PUSH1 0x1 PUSH1 0xA0 SHL SUB DUP5 AND PUSH1 0x4 DUP3 ADD MSTORE PUSH1 0x24 ADD PUSH2 0x8AC JUMP JUMPDEST PUSH32 0x9016D09D72D40FDAE2FD8CEAC6B6234C7706214FD39C1CD1E609A0528C199300 DUP1 SLOAD PUSH1 0x1 PUSH1 0x1 PUSH1 0xA0 SHL SUB NOT DUP2 AND PUSH1 0x1 PUSH1 0x1 PUSH1 0xA0 SHL SUB DUP5 DUP2 AND SWAP2 DUP3 OR DUP5 SSTORE PUSH1 0x40 MLOAD SWAP3 AND SWAP2 DUP3 SWAP1 PUSH32 0x8BE0079C531659141344CD1FD0A4F28419497F9722A3DAAFE3B4186F6B6457E0 SWAP1 PUSH1 0x0 SWAP1 LOG3 POP POP POP JUMP JUMPDEST PUSH1 0x0 DUP1 MLOAD PUSH1 0x20 PUSH2 0x3262 DUP4 CODECOPY DUP2 MLOAD SWAP2 MSTORE SLOAD PUSH1 0xFF AND PUSH2 0x15F4 JUMPI PUSH1 0x40 MLOAD PUSH4 0x8DFC202B PUSH1 0xE0 SHL DUP2 MSTORE PUSH1 0x4 ADD PUSH1 0x40 MLOAD DUP1 SWAP2 SUB SWAP1 REVERT JUMPDEST PUSH1 0x0 DUP1 MLOAD PUSH1 0x20 PUSH2 0x3282 DUP4 CODECOPY DUP2 MLOAD SWAP2 MSTORE SLOAD PUSH1 0x2 SUB PUSH2 0x15F4 JUMPI PUSH1 0x40 MLOAD PUSH4 0x3EE5AEB5 PUSH1 0xE0 SHL DUP2 MSTORE PUSH1 0x4 ADD PUSH1 0x40 MLOAD DUP1 SWAP2 SUB SWAP1 REVERT JUMPDEST PUSH1 0x40 MLOAD PUSH4 0x23B872DD PUSH1 0xE0 SHL PUSH1 0x0 DUP2 DUP2 MSTORE PUSH1 0x1 PUSH1 0x1 PUSH1 0xA0 SHL SUB DUP8 DUP2 AND PUSH1 0x4 MSTORE DUP7 AND PUSH1 0x24 MSTORE PUSH1 0x44 DUP6 SWAP1 MSTORE SWAP2 PUSH1 0x20 DUP4 PUSH1 0x64 DUP2 DUP1 DUP13 GAS CALL SWAP3 POP PUSH1 0x1 PUSH1 0x0 MLOAD EQ DUP4 AND PUSH2 0x2AB3 JUMPI DUP4 DUP4 ISZERO AND ISZERO PUSH2 0x2AA6 JUMPI RETURNDATASIZE PUSH1 0x0 DUP3 RETURNDATACOPY RETURNDATASIZE DUP2 REVERT JUMPDEST PUSH1 0x0 DUP9 EXTCODESIZE GT RETURNDATASIZE ISZERO AND DUP4 AND SWAP3 POP JUMPDEST PUSH1 0x40 MSTORE POP PUSH1 0x0 PUSH1 0x60 MSTORE SWAP6 SWAP5 POP POP POP POP POP JUMP JUMPDEST PUSH2 0x2ACE DUP3 PUSH2 0x2BAE JUMP JUMPDEST PUSH1 0x40 MLOAD PUSH1 0x1 PUSH1 0x1 PUSH1 0xA0 SHL SUB DUP4 AND SWAP1 PUSH32 0xBC7CD75A20EE27FD9ADEBAB32041F755214DBC6BFFA90CC0225B39DA2E5C2D3B SWAP1 PUSH1 0x0 SWAP1 LOG2 DUP1 MLOAD ISZERO PUSH2 0x2B13 JUMPI PUSH2 0xC62 DUP3 DUP3 PUSH2 0x2C13 JUMP JUMPDEST PUSH2 0xDB6 PUSH2 0x2CAE JUMP JUMPDEST PUSH2 0x2B23 PUSH2 0x2CCD JUMP JUMPDEST PUSH2 0x15F4 JUMPI PUSH1 0x40 MLOAD PUSH4 0x1AFCD79F PUSH1 0xE3 SHL DUP2 MSTORE PUSH1 0x4 ADD PUSH1 0x40 MLOAD DUP1 SWAP2 SUB SWAP1 REVERT JUMPDEST PUSH2 0x21DE PUSH2 0x2B1B JUMP JUMPDEST PUSH1 0x40 MLOAD PUSH4 0xA9059CBB PUSH1 0xE0 SHL PUSH1 0x0 DUP2 DUP2 MSTORE PUSH1 0x1 PUSH1 0x1 PUSH1 0xA0 SHL SUB DUP7 AND PUSH1 0x4 MSTORE PUSH1 0x24 DUP6 SWAP1 MSTORE SWAP2 PUSH1 0x20 DUP4 PUSH1 0x44 DUP2 DUP1 DUP12 GAS CALL SWAP3 POP PUSH1 0x1 PUSH1 0x0 MLOAD EQ DUP4 AND PUSH2 0x2BA2 JUMPI DUP4 DUP4 ISZERO AND ISZERO PUSH2 0x2B95 JUMPI RETURNDATASIZE PUSH1 0x0 DUP3 RETURNDATACOPY RETURNDATASIZE DUP2 REVERT JUMPDEST PUSH1 0x0 DUP8 EXTCODESIZE GT RETURNDATASIZE ISZERO AND DUP4 AND SWAP3 POP JUMPDEST PUSH1 0x40 MSTORE POP SWAP5 SWAP4 POP POP POP POP JUMP JUMPDEST DUP1 PUSH1 0x1 PUSH1 0x1 PUSH1 0xA0 SHL SUB AND EXTCODESIZE PUSH1 0x0 SUB PUSH2 0x2BE4 JUMPI PUSH1 0x40 MLOAD PUSH4 0x4C9C8CE3 PUSH1 0xE0 SHL DUP2 MSTORE PUSH1 0x1 PUSH1 0x1 PUSH1 0xA0 SHL SUB DUP3 AND PUSH1 0x4 DUP3 ADD MSTORE PUSH1 0x24 ADD PUSH2 0x8AC JUMP JUMPDEST PUSH1 0x0 DUP1 MLOAD PUSH1 0x20 PUSH2 0x3242 DUP4 CODECOPY DUP2 MLOAD SWAP2 MSTORE DUP1 SLOAD PUSH1 0x1 PUSH1 0x1 PUSH1 0xA0 SHL SUB NOT AND PUSH1 0x1 PUSH1 0x1 PUSH1 0xA0 SHL SUB SWAP3 SWAP1 SWAP3 AND SWAP2 SWAP1 SWAP2 OR SWAP1 SSTORE JUMP JUMPDEST PUSH1 0x60 PUSH1 0x0 PUSH2 0x2C21 DUP5 DUP5 PUSH2 0x2CE7 JUMP JUMPDEST SWAP1 POP DUP1 DUP1 ISZERO PUSH2 0x2C44 JUMPI POP PUSH1 0x0 RETURNDATASIZE GT DUP1 PUSH2 0x2C44 JUMPI POP PUSH1 0x0 DUP5 PUSH1 0x1 PUSH1 0x1 PUSH1 0xA0 SHL SUB AND EXTCODESIZE GT JUMPDEST ISZERO PUSH2 0x2C51 JUMPI PUSH2 0x1F24 PUSH2 0x2CFC JUMP JUMPDEST DUP1 ISZERO PUSH2 0x2C7B JUMPI PUSH1 0x40 MLOAD PUSH4 0x9996B315 PUSH1 0xE0 SHL DUP2 MSTORE PUSH1 0x1 PUSH1 0x1 PUSH1 0xA0 SHL SUB DUP6 AND PUSH1 0x4 DUP3 ADD MSTORE PUSH1 0x24 ADD PUSH2 0x8AC JUMP JUMPDEST RETURNDATASIZE ISZERO PUSH2 0x2C8E JUMPI PUSH2 0x2C89 PUSH2 0x2D16 JUMP JUMPDEST PUSH2 0x2CA7 JUMP JUMPDEST PUSH1 0x40 MLOAD PUSH4 0xD6BDA275 PUSH1 0xE0 SHL DUP2 MSTORE PUSH1 0x4 ADD PUSH1 0x40 MLOAD DUP1 SWAP2 SUB SWAP1 REVERT JUMPDEST POP SWAP3 SWAP2 POP POP JUMP JUMPDEST CALLVALUE ISZERO PUSH2 0x15F4 JUMPI PUSH1 0x40 MLOAD PUSH4 0xB398979F PUSH1 0xE0 SHL DUP2 MSTORE PUSH1 0x4 ADD PUSH1 0x40 MLOAD DUP1 SWAP2 SUB SWAP1 REVERT JUMPDEST PUSH1 0x0 PUSH2 0x2CD7 PUSH2 0x290B JUMP JUMPDEST SLOAD PUSH1 0x1 PUSH1 0x40 SHL SWAP1 DIV PUSH1 0xFF AND SWAP2 SWAP1 POP JUMP JUMPDEST PUSH1 0x0 DUP1 PUSH1 0x0 DUP4 MLOAD PUSH1 0x20 DUP6 ADD DUP7 GAS DELEGATECALL SWAP4 SWAP3 POP POP POP JUMP JUMPDEST PUSH1 0x40 MLOAD RETURNDATASIZE DUP2 MSTORE RETURNDATASIZE PUSH1 0x0 PUSH1 0x20 DUP4 ADD RETURNDATACOPY RETURNDATASIZE PUSH1 0x20 ADD DUP2 ADD PUSH1 0x40 MSTORE SWAP1 JUMP JUMPDEST PUSH1 0x40 MLOAD RETURNDATASIZE PUSH1 0x0 DUP3 RETURNDATACOPY RETURNDATASIZE DUP2 REVERT JUMPDEST DUP1 CALLDATALOAD PUSH1 0x1 PUSH1 0x1 PUSH1 0xA0 SHL SUB DUP2 AND DUP2 EQ PUSH2 0x2D39 JUMPI PUSH1 0x0 DUP1 REVERT JUMPDEST SWAP2 SWAP1 POP JUMP JUMPDEST DUP1 CALLDATALOAD DUP1 ISZERO ISZERO DUP2 EQ PUSH2 0x2D39 JUMPI PUSH1 0x0 DUP1 REVERT JUMPDEST PUSH1 0x0 DUP1 PUSH1 0x40 DUP4 DUP6 SUB SLT ISZERO PUSH2 0x2D61 JUMPI PUSH1 0x0 DUP1 REVERT JUMPDEST PUSH2 0x2D6A DUP4 PUSH2 0x2D22 JUMP JUMPDEST SWAP2 POP PUSH2 0x2D78 PUSH1 0x20 DUP5 ADD PUSH2 0x2D3E JUMP JUMPDEST SWAP1 POP SWAP3 POP SWAP3 SWAP1 POP JUMP JUMPDEST PUSH1 0x0 DUP1 PUSH1 0x40 DUP4 DUP6 SUB SLT ISZERO PUSH2 0x2D94 JUMPI PUSH1 0x0 DUP1 REVERT JUMPDEST PUSH2 0x2D9D DUP4 PUSH2 0x2D22 JUMP JUMPDEST SWAP2 POP PUSH2 0x2D78 PUSH1 0x20 DUP5 ADD PUSH2 0x2D22 JUMP JUMPDEST PUSH1 0x0 PUSH1 0x20 DUP3 DUP5 SUB SLT ISZERO PUSH2 0x2DBD JUMPI PUSH1 0x0 DUP1 REVERT JUMPDEST PUSH2 0x2DC6 DUP3 PUSH2 0x2D3E JUMP JUMPDEST SWAP4 SWAP3 POP POP POP JUMP JUMPDEST PUSH1 0x0 PUSH1 0x20 DUP3 DUP5 SUB SLT ISZERO PUSH2 0x2DDF JUMPI PUSH1 0x0 DUP1 REVERT JUMPDEST POP CALLDATALOAD SWAP2 SWAP1 POP JUMP JUMPDEST PUSH1 0x0 PUSH1 0x20 DUP3 DUP5 SUB SLT ISZERO PUSH2 0x2DF8 JUMPI PUSH1 0x0 DUP1 REVERT JUMPDEST PUSH2 0x2DC6 DUP3 PUSH2 0x2D22 JUMP JUMPDEST PUSH1 0x0 DUP1 PUSH1 0x0 PUSH1 0x60 DUP5 DUP7 SUB SLT ISZERO PUSH2 0x2E16 JUMPI PUSH1 0x0 DUP1 REVERT JUMPDEST PUSH2 0x2E1F DUP5 PUSH2 0x2D22 JUMP JUMPDEST SWAP3 POP PUSH2 0x2E2D PUSH1 0x20 DUP6 ADD PUSH2 0x2D22 JUMP JUMPDEST SWAP2 POP PUSH1 0x40 DUP5 ADD CALLDATALOAD SWAP1 POP SWAP3 POP SWAP3 POP SWAP3 JUMP JUMPDEST PUSH1 0x0 DUP1 PUSH1 0x40 DUP4 DUP6 SUB SLT ISZERO PUSH2 0x2E50 JUMPI PUSH1 0x0 DUP1 REVERT JUMPDEST PUSH2 0x2E59 DUP4 PUSH2 0x2D22 JUMP JUMPDEST SWAP5 PUSH1 0x20 SWAP4 SWAP1 SWAP4 ADD CALLDATALOAD SWAP4 POP POP POP JUMP JUMPDEST PUSH4 0x4E487B71 PUSH1 0xE0 SHL PUSH1 0x0 MSTORE PUSH1 0x41 PUSH1 0x4 MSTORE PUSH1 0x24 PUSH1 0x0 REVERT JUMPDEST PUSH1 0x0 DUP1 PUSH1 0x40 DUP4 DUP6 SUB SLT ISZERO PUSH2 0x2E90 JUMPI PUSH1 0x0 DUP1 REVERT JUMPDEST PUSH2 0x2E99 DUP4 PUSH2 0x2D22 JUMP JUMPDEST SWAP2 POP PUSH1 0x20 DUP4 ADD CALLDATALOAD PUSH8 0xFFFFFFFFFFFFFFFF DUP1 DUP3 GT ISZERO PUSH2 0x2EB6 JUMPI PUSH1 0x0 DUP1 REVERT JUMPDEST DUP2 DUP6 ADD SWAP2 POP DUP6 PUSH1 0x1F DUP4 ADD SLT PUSH2 0x2ECA JUMPI PUSH1 0x0 DUP1 REVERT JUMPDEST DUP2 CALLDATALOAD DUP2 DUP2 GT ISZERO PUSH2 0x2EDC JUMPI PUSH2 0x2EDC PUSH2 0x2E67 JUMP JUMPDEST PUSH1 0x40 MLOAD PUSH1 0x1F DUP3 ADD PUSH1 0x1F NOT SWAP1 DUP2 AND PUSH1 0x3F ADD AND DUP2 ADD SWAP1 DUP4 DUP3 GT DUP2 DUP4 LT OR ISZERO PUSH2 0x2F04 JUMPI PUSH2 0x2F04 PUSH2 0x2E67 JUMP JUMPDEST DUP2 PUSH1 0x40 MSTORE DUP3 DUP2 MSTORE DUP9 PUSH1 0x20 DUP5 DUP8 ADD ADD GT ISZERO PUSH2 0x2F1D JUMPI PUSH1 0x0 DUP1 REVERT JUMPDEST DUP3 PUSH1 0x20 DUP7 ADD PUSH1 0x20 DUP4 ADD CALLDATACOPY PUSH1 0x0 PUSH1 0x20 DUP5 DUP4 ADD ADD MSTORE DUP1 SWAP6 POP POP POP POP POP POP SWAP3 POP SWAP3 SWAP1 POP JUMP JUMPDEST PUSH1 0x0 DUP1 PUSH1 0x0 DUP1 PUSH1 0x0 PUSH1 0xA0 DUP7 DUP9 SUB SLT ISZERO PUSH2 0x2F57 JUMPI PUSH1 0x0 DUP1 REVERT JUMPDEST PUSH2 0x2F60 DUP7 PUSH2 0x2D22 JUMP JUMPDEST SWAP5 POP PUSH2 0x2F6E PUSH1 0x20 DUP8 ADD PUSH2 0x2D22 JUMP JUMPDEST SWAP4 POP PUSH1 0x40 DUP7 ADD CALLDATALOAD SWAP3 POP PUSH1 0x60 DUP7 ADD CALLDATALOAD SWAP2 POP PUSH2 0x2F8A PUSH1 0x80 DUP8 ADD PUSH2 0x2D22 JUMP JUMPDEST SWAP1 POP SWAP3 SWAP6 POP SWAP3 SWAP6 SWAP1 SWAP4 POP JUMP JUMPDEST PUSH1 0x0 DUP1 PUSH1 0x40 DUP4 DUP6 SUB SLT ISZERO PUSH2 0x2FA9 JUMPI PUSH1 0x0 DUP1 REVERT JUMPDEST POP POP DUP1 CALLDATALOAD SWAP3 PUSH1 0x20 SWAP1 SWAP2 ADD CALLDATALOAD SWAP2 POP JUMP JUMPDEST PUSH1 0x0 PUSH1 0x20 DUP1 DUP4 MSTORE DUP4 MLOAD DUP1 PUSH1 0x20 DUP6 ADD MSTORE PUSH1 0x0 JUMPDEST DUP2 DUP2 LT ISZERO PUSH2 0x2FE6 JUMPI DUP6 DUP2 ADD DUP4 ADD MLOAD DUP6 DUP3 ADD PUSH1 0x40 ADD MSTORE DUP3 ADD PUSH2 0x2FCA JUMP JUMPDEST POP PUSH1 0x0 PUSH1 0x40 DUP3 DUP7 ADD ADD MSTORE PUSH1 0x40 PUSH1 0x1F NOT PUSH1 0x1F DUP4 ADD AND DUP6 ADD ADD SWAP3 POP POP POP SWAP3 SWAP2 POP POP JUMP JUMPDEST PUSH4 0x4E487B71 PUSH1 0xE0 SHL PUSH1 0x0 MSTORE PUSH1 0x11 PUSH1 0x4 MSTORE PUSH1 0x24 PUSH1 0x0 REVERT JUMPDEST DUP1 DUP3 ADD DUP1 DUP3 GT ISZERO PUSH2 0x1F5D JUMPI PUSH2 0x1F5D PUSH2 0x3007 JUMP JUMPDEST PUSH1 0x20 DUP1 DUP3 MSTORE PUSH1 0x19 SWAP1 DUP3 ADD MSTORE PUSH32 0x535855413A20546F6B656E206E6F7420737570706F7274656400000000000000 PUSH1 0x40 DUP3 ADD MSTORE PUSH1 0x60 ADD SWAP1 JUMP JUMPDEST DUP1 DUP3 MUL DUP2 ISZERO DUP3 DUP3 DIV DUP5 EQ OR PUSH2 0x1F5D JUMPI PUSH2 0x1F5D PUSH2 0x3007 JUMP JUMPDEST PUSH1 0x0 DUP3 PUSH2 0x309B JUMPI PUSH4 0x4E487B71 PUSH1 0xE0 SHL PUSH1 0x0 MSTORE PUSH1 0x12 PUSH1 0x4 MSTORE PUSH1 0x24 PUSH1 0x0 REVERT JUMPDEST POP DIV SWAP1 JUMP JUMPDEST DUP2 DUP2 SUB DUP2 DUP2 GT ISZERO PUSH2 0x1F5D JUMPI PUSH2 0x1F5D PUSH2 0x3007 JUMP JUMPDEST PUSH1 0x20 DUP1 DUP3 MSTORE PUSH1 0x26 SWAP1 DUP3 ADD MSTORE PUSH32 0x535855413A20496E73756666696369656E7420756E636F6D6D69747465642062 PUSH1 0x40 DUP3 ADD MSTORE PUSH6 0x616C616E6365 PUSH1 0xD0 SHL PUSH1 0x60 DUP3 ADD MSTORE PUSH1 0x80 ADD SWAP1 JUMP JUMPDEST PUSH1 0x0 PUSH1 0x20 DUP3 DUP5 SUB SLT ISZERO PUSH2 0x310B JUMPI PUSH1 0x0 DUP1 REVERT JUMPDEST DUP2 MLOAD PUSH1 0xFF DUP2 AND DUP2 EQ PUSH2 0x2DC6 JUMPI PUSH1 0x0 DUP1 REVERT JUMPDEST PUSH1 0xFF DUP3 DUP2 AND DUP3 DUP3 AND SUB SWAP1 DUP2 GT ISZERO PUSH2 0x1F5D JUMPI PUSH2 0x1F5D PUSH2 0x3007 JUMP JUMPDEST PUSH1 0x1 DUP2 DUP2 JUMPDEST DUP1 DUP6 GT ISZERO PUSH2 0x3170 JUMPI DUP2 PUSH1 0x0 NOT DIV DUP3 GT ISZERO PUSH2 0x3156 JUMPI PUSH2 0x3156 PUSH2 0x3007 JUMP JUMPDEST DUP1 DUP6 AND ISZERO PUSH2 0x3163 JUMPI SWAP2 DUP2 MUL SWAP2 JUMPDEST SWAP4 DUP5 SHR SWAP4 SWAP1 DUP1 MUL SWAP1 PUSH2 0x313A JUMP JUMPDEST POP SWAP3 POP SWAP3 SWAP1 POP JUMP JUMPDEST PUSH1 0x0 DUP3 PUSH2 0x3187 JUMPI POP PUSH1 0x1 PUSH2 0x1F5D JUMP JUMPDEST DUP2 PUSH2 0x3194 JUMPI POP PUSH1 0x0 PUSH2 0x1F5D JUMP JUMPDEST DUP2 PUSH1 0x1 DUP2 EQ PUSH2 0x31AA JUMPI PUSH1 0x2 DUP2 EQ PUSH2 0x31B4 JUMPI PUSH2 0x31D0 JUMP JUMPDEST PUSH1 0x1 SWAP2 POP POP PUSH2 0x1F5D JUMP JUMPDEST PUSH1 0xFF DUP5 GT ISZERO PUSH2 0x31C5 JUMPI PUSH2 0x31C5 PUSH2 0x3007 JUMP JUMPDEST POP POP PUSH1 0x1 DUP3 SHL PUSH2 0x1F5D JUMP JUMPDEST POP PUSH1 0x20 DUP4 LT PUSH2 0x133 DUP4 LT AND PUSH1 0x4E DUP5 LT PUSH1 0xB DUP5 LT AND OR ISZERO PUSH2 0x31F3 JUMPI POP DUP2 DUP2 EXP PUSH2 0x1F5D JUMP JUMPDEST PUSH2 0x31FD DUP4 DUP4 PUSH2 0x3135 JUMP JUMPDEST DUP1 PUSH1 0x0 NOT DIV DUP3 GT ISZERO PUSH2 0x3211 JUMPI PUSH2 0x3211 PUSH2 0x3007 JUMP JUMPDEST MUL SWAP4 SWAP3 POP POP POP JUMP JUMPDEST PUSH1 0x0 PUSH2 0x2DC6 PUSH1 0xFF DUP5 AND DUP4 PUSH2 0x3178 JUMP JUMPDEST PUSH1 0x0 PUSH1 0x20 DUP3 DUP5 SUB SLT ISZERO PUSH2 0x323A JUMPI PUSH1 0x0 DUP1 REVERT JUMPDEST POP MLOAD SWAP2 SWAP1 POP JUMP INVALID CALLDATASIZE ADDMOD SWAP5 LOG1 EXTCODESIZE LOG1 LOG3 0x21 MOD PUSH8 0xC828492DB98DCA3E KECCAK256 PUSH23 0xCC3735A920A3CA505D382BBCCD5ED15C6E187E77E9AEE8 DUP2 DUP5 0xC2 0x1F 0x4F 0x21 DUP3 0xAB PC 0x27 0xCB EXTCODESIZE PUSH31 0x7FBEDCD63F033009B779B17422D0DF92223018B32B4D1FA46E071723D6817 0xE2 BASEFEE PUSH14 0x3BECC55F00A264697066735822 SLT KECCAK256 DUP1 EXTCODECOPY POP SDIV 0xAE DELEGATECALL CALLCODE 0xD4 PUSH26 0x6D17F5CDBD80F19462EB33EE9145724948E857640704D764736F PUSH13 0x63430008180033000000000000 "},"methodIdentifiers":{"UPGRADE_INTERFACE_VERSION()":"ad3cb1cc","accrueDailyYield(address,address)":"f8325acc","accruedRewards(address,address)":"ca9f2e8b","claimDailyYield(address)":"347c8d5e","claimSxpReward(address)":"8ae56d57","commit(address,uint256)":"84bf1535","commitTimestamps(address,address)":"6a12b560","committedBalances(address,address)":"951ae7a8","deposit(address,uint256)":"47e7ef24","depositFor(address,address,uint256)":"b3db428b","emergencyShutdownActive()":"14cf339e","emergencyWithdraw(address)":"6ff1c9bc","getAmountIn18Decimals(address,uint256)":"b56ead97","initialize(address,address,uint256,uint256,address)":"57fb25cc","lastRewardTimestamp(address,address)":"cc48996e","lockPeriod()":"3fd8b02f","owner()":"8da5cb5b","paused()":"5c975abb","payForLaunchpad(address,address,uint256)":"daa1e1fb","penaltyPercent()":"161ba46a","pendingSxpReward(address,address)":"bba9ba4c","poolInfo(address)":"9a7b5f11","proxiableUUID()":"52d1902d","ptfReceiver()":"c7ae483e","refundToUser(address,address,uint256)":"3dc78cc4","renounceOwnership()":"715018a6","rewardDebt(address,address)":"7b4717a4","setEmergencyShutdown(bool)":"14c64402","setTokenSupport(address,bool)":"0c6a753f","supportedTokenList(uint256)":"2b60c822","supportedTokens(address)":"68c4ac26","sxpToken()":"1b3b6b80","transferOwnership(address)":"f2fde38b","treasury()":"61d027b3","uncommit(address,uint256)":"5b666e90","uncommittedBalances(address,address)":"13aaf7f1","updateConfig(uint256,uint256)":"8248e722","updatePool(address)":"7b46c54f","upgradeToAndCall(address,bytes)":"4f1ef286","withdraw(address,uint256)":"f3fef3a3"}}}}}