{"contracts/SXBuyStables.sol":{"SXBuyStables":{"abi":[{"inputs":[{"internalType":"address","name":"_sxse","type":"address"},{"internalType":"address","name":"_sxua","type":"address"},{"internalType":"address","name":"_sxcpTreasury","type":"address"},{"internalType":"address","name":"_sxmm","type":"address"},{"internalType":"address","name":"_ptfReceiver","type":"address"}],"stateMutability":"nonpayable","type":"constructor"},{"inputs":[{"internalType":"address","name":"owner","type":"address"}],"name":"OwnableInvalidOwner","type":"error"},{"inputs":[{"internalType":"address","name":"account","type":"address"}],"name":"OwnableUnauthorizedAccount","type":"error"},{"inputs":[],"name":"ReentrancyGuardReentrantCall","type":"error"},{"inputs":[{"internalType":"address","name":"token","type":"address"}],"name":"SafeERC20FailedOperation","type":"error"},{"anonymous":false,"inputs":[{"indexed":true,"internalType":"address","name":"previousOwner","type":"address"},{"indexed":true,"internalType":"address","name":"newOwner","type":"address"}],"name":"OwnershipTransferred","type":"event"},{"anonymous":false,"inputs":[{"indexed":true,"internalType":"address","name":"user","type":"address"},{"indexed":true,"internalType":"address","name":"stablecoin","type":"address"},{"indexed":false,"internalType":"uint256","name":"ethAmount","type":"uint256"},{"indexed":false,"internalType":"uint256","name":"netStables","type":"uint256"}],"name":"StablecoinsBought","type":"event"},{"inputs":[{"internalType":"address","name":"stablecoin","type":"address"}],"name":"buyStables","outputs":[],"stateMutability":"payable","type":"function"},{"inputs":[],"name":"ethToUsdRate","outputs":[{"internalType":"uint256","name":"","type":"uint256"}],"stateMutability":"view","type":"function"},{"inputs":[],"name":"owner","outputs":[{"internalType":"address","name":"","type":"address"}],"stateMutability":"view","type":"function"},{"inputs":[],"name":"ptfReceiver","outputs":[{"internalType":"address","name":"","type":"address"}],"stateMutability":"view","type":"function"},{"inputs":[],"name":"renounceOwnership","outputs":[],"stateMutability":"nonpayable","type":"function"},{"inputs":[{"internalType":"uint256","name":"_newRate","type":"uint256"}],"name":"setEthToUsdRate","outputs":[],"stateMutability":"nonpayable","type":"function"},{"inputs":[],"name":"sxcpTreasury","outputs":[{"internalType":"address","name":"","type":"address"}],"stateMutability":"view","type":"function"},{"inputs":[],"name":"sxmm","outputs":[{"internalType":"address","name":"","type":"address"}],"stateMutability":"view","type":"function"},{"inputs":[],"name":"sxse","outputs":[{"internalType":"contract ISXSE","name":"","type":"address"}],"stateMutability":"view","type":"function"},{"inputs":[],"name":"sxua","outputs":[{"internalType":"contract ISXUA","name":"","type":"address"}],"stateMutability":"view","type":"function"},{"inputs":[{"internalType":"address","name":"newOwner","type":"address"}],"name":"transferOwnership","outputs":[],"stateMutability":"nonpayable","type":"function"}],"evm":{"bytecode":{"linkReferences":{},"object":"608060405268bdbc41e0348b30000060065534801561001d57600080fd5b50604051610e32380380610e3283398101604081905261003c9161015e565b338061006257604051631e4fbdf760e01b81526000600482015260240160405180910390fd5b61006b816100f2565b5060017f9b779b17422d0df92223018b32b4d1fa46e071723d6817e2486d003becc55f0055600180546001600160a01b03199081166001600160a01b039788161790915560028054821695871695909517909455600380548516938616939093179092556004805484169185169190911790556005805490921692169190911790556101c3565b600080546001600160a01b038381166001600160a01b0319831681178455604051919092169283917f8be0079c531659141344cd1fd0a4f28419497f9722a3daafe3b4186f6b6457e09190a35050565b80516001600160a01b038116811461015957600080fd5b919050565b600080600080600060a0868803121561017657600080fd5b61017f86610142565b945061018d60208701610142565b935061019b60408701610142565b92506101a960608701610142565b91506101b760808701610142565b90509295509295909350565b610c60806101d26000396000f3fe60806040526004361061009c5760003560e01c806387d7a24c1161006457806387d7a24c146101485780638da5cb5b1461016c578063b13a02121461018a578063c7ae483e146101aa578063cb3c6fac146101ca578063f2fde38b146101ea57600080fd5b80631e4b41b0146100a15780634ea54110146100b6578063715018a6146100f3578063766523761461010857806385d2e16d14610128575b600080fd5b6100b46100af3660046109fc565b61020a565b005b3480156100c257600080fd5b506001546100d6906001600160a01b031681565b6040516001600160a01b0390911681526020015b60405180910390f35b3480156100ff57600080fd5b506100b461063e565b34801561011457600080fd5b506003546100d6906001600160a01b031681565b34801561013457600080fd5b506002546100d6906001600160a01b031681565b34801561015457600080fd5b5061015e60065481565b6040519081526020016100ea565b34801561017857600080fd5b506000546001600160a01b03166100d6565b34801561019657600080fd5b506100b46101a5366004610a2c565b610652565b3480156101b657600080fd5b506005546100d6906001600160a01b031681565b3480156101d657600080fd5b506004546100d6906001600160a01b031681565b3480156101f657600080fd5b506100b46102053660046109fc565b61065f565b61021261069a565b6001546001600160a01b03161580610291575060015460405163c3c5a54760e01b81523360048201526001600160a01b039091169063c3c5a54790602401602060405180830381865afa15801561026d573d6000803e3d6000fd5b505050506040513d601f19601f820116820180604052508101906102919190610a45565b6102e25760405162461bcd60e51b815260206004820152601960248201527f535853453a2055736572206e6f7420726567697374657265640000000000000060448201526064015b60405180910390fd5b600034116103325760405162461bcd60e51b815260206004820152601b60248201527f5358427579537461626c65733a204d7573742073656e6420455448000000000060448201526064016102d9565b6000816001600160a01b031663313ce5676040518163ffffffff1660e01b8152600401602060405180830381865afa158015610372573d6000803e3d6000fd5b505050506040513d601f19601f820116820180604052508101906103969190610a67565b90506000670de0b6b3a7640000600654346103b19190610aa0565b6103bb9190610abd565b905080601260ff841610156103f1576103d5836012610adf565b6103e090600a610bdc565b6103ea9083610abd565b9050610420565b60128360ff16111561042057610408601284610adf565b61041390600a610bdc565b61041d9083610aa0565b90505b6000606461042f83600c610aa0565b6104399190610abd565b905060006104478284610beb565b905060006064610458836005610aa0565b6104629190610abd565b905060006104708284610beb565b905060006064610481836001610aa0565b61048b9190610abd565b905060006104998284610beb565b6004546040519192506001600160a01b0316903480156108fc02916000818181858888f193505050501580156104d3573d6000803e3d6000fd5b506004546104ef906001600160a01b038c81169116308a6106c8565b600354610509906001600160a01b038c8116911688610704565b600554610523906001600160a01b038c8116911684610704565b60045461053d906001600160a01b038c8116911686610704565b600254610557906001600160a01b038c811691168361073e565b60025460405163b3db428b60e01b81523360048201526001600160a01b038c81166024830152604482018490529091169063b3db428b90606401600060405180830381600087803b1580156105ab57600080fd5b505af11580156105bf573d6000803e3d6000fd5b505060408051348152602081018590526001600160a01b038e1693503392507fa4cc8ee53157ce97d375cc41e00b691f5c7452d6f0343ec1ef6ca9855df6eccd910160405180910390a350505050505050505061063b60017f9b779b17422d0df92223018b32b4d1fa46e071723d6817e2486d003becc55f0055565b50565b6106466107c8565b61065060006107f5565b565b61065a6107c8565b600655565b6106676107c8565b6001600160a01b03811661069157604051631e4fbdf760e01b8152600060048201526024016102d9565b61063b816107f5565b6106a2610845565b60027f9b779b17422d0df92223018b32b4d1fa46e071723d6817e2486d003becc55f0055565b6106d6848484846001610887565b6106fe57604051635274afe760e01b81526001600160a01b03851660048201526024016102d9565b50505050565b61071183838360016108f9565b61073957604051635274afe760e01b81526001600160a01b03841660048201526024016102d9565b505050565b604051636eb1769f60e11b81523060048201526001600160a01b0383811660248301526000919085169063dd62ed3e90604401602060405180830381865afa15801561078e573d6000803e3d6000fd5b505050506040513d601f19601f820116820180604052508101906107b29190610bfe565b90506106fe84846107c38585610c17565b61095f565b6000546001600160a01b031633146106505760405163118cdaa760e01b81523360048201526024016102d9565b600080546001600160a01b038381166001600160a01b0319831681178455604051919092169283917f8be0079c531659141344cd1fd0a4f28419497f9722a3daafe3b4186f6b6457e09190a35050565b7f9b779b17422d0df92223018b32b4d1fa46e071723d6817e2486d003becc55f005460020361065057604051633ee5aeb560e01b815260040160405180910390fd5b6040516323b872dd60e01b60008181526001600160a01b038781166004528616602452604485905291602083606481808c5af1925060016000511483166108e75783831516156108da573d6000823e3d81fd5b6000883b113d1516831692505b60405250600060605295945050505050565b60405163a9059cbb60e01b60008181526001600160a01b038616600452602485905291602083604481808b5af192506001600051148316610953578383151615610946573d6000823e3d81fd5b6000873b113d1516831692505b60405250949350505050565b61096c83838360006109af565b6107395761097e8383600060016109af565b6109a657604051635274afe760e01b81526001600160a01b03841660048201526024016102d9565b61071183838360015b60405163095ea7b360e01b60008181526001600160a01b038616600452602485905291602083604481808b5af192506001600051148316610953578383151615610946573d6000823e3d81fd5b600060208284031215610a0e57600080fd5b81356001600160a01b0381168114610a2557600080fd5b9392505050565b600060208284031215610a3e57600080fd5b5035919050565b600060208284031215610a5757600080fd5b81518015158114610a2557600080fd5b600060208284031215610a7957600080fd5b815160ff81168114610a2557600080fd5b634e487b7160e01b600052601160045260246000fd5b8082028115828204841417610ab757610ab7610a8a565b92915050565b600082610ada57634e487b7160e01b600052601260045260246000fd5b500490565b60ff8281168282160390811115610ab757610ab7610a8a565b600181815b80851115610b33578160001904821115610b1957610b19610a8a565b80851615610b2657918102915b93841c9390800290610afd565b509250929050565b600082610b4a57506001610ab7565b81610b5757506000610ab7565b8160018114610b6d5760028114610b7757610b93565b6001915050610ab7565b60ff841115610b8857610b88610a8a565b50506001821b610ab7565b5060208310610133831016604e8410600b8410161715610bb6575081810a610ab7565b610bc08383610af8565b8060001904821115610bd457610bd4610a8a565b029392505050565b6000610a2560ff841683610b3b565b81810381811115610ab757610ab7610a8a565b600060208284031215610c1057600080fd5b5051919050565b80820180821115610ab757610ab7610a8a56fea264697066735822122044acdaf89b793c84172a155e9e482169bfe6bba70af17773b06d07e781f1678c64736f6c63430008180033","opcodes":"PUSH1 0x80 PUSH1 0x40 MSTORE PUSH9 0xBDBC41E0348B300000 PUSH1 0x6 SSTORE CALLVALUE DUP1 ISZERO PUSH2 0x1D JUMPI PUSH1 0x0 DUP1 REVERT JUMPDEST POP PUSH1 0x40 MLOAD PUSH2 0xE32 CODESIZE SUB DUP1 PUSH2 0xE32 DUP4 CODECOPY DUP2 ADD PUSH1 0x40 DUP2 SWAP1 MSTORE PUSH2 0x3C SWAP2 PUSH2 0x15E JUMP JUMPDEST CALLER DUP1 PUSH2 0x62 JUMPI PUSH1 0x40 MLOAD PUSH4 0x1E4FBDF7 PUSH1 0xE0 SHL DUP2 MSTORE PUSH1 0x0 PUSH1 0x4 DUP3 ADD MSTORE PUSH1 0x24 ADD PUSH1 0x40 MLOAD DUP1 SWAP2 SUB SWAP1 REVERT JUMPDEST PUSH2 0x6B DUP2 PUSH2 0xF2 JUMP JUMPDEST POP PUSH1 0x1 PUSH32 0x9B779B17422D0DF92223018B32B4D1FA46E071723D6817E2486D003BECC55F00 SSTORE PUSH1 0x1 DUP1 SLOAD PUSH1 0x1 PUSH1 0x1 PUSH1 0xA0 SHL SUB NOT SWAP1 DUP2 AND PUSH1 0x1 PUSH1 0x1 PUSH1 0xA0 SHL SUB SWAP8 DUP9 AND OR SWAP1 SWAP2 SSTORE PUSH1 0x2 DUP1 SLOAD DUP3 AND SWAP6 DUP8 AND SWAP6 SWAP1 SWAP6 OR SWAP1 SWAP5 SSTORE PUSH1 0x3 DUP1 SLOAD DUP6 AND SWAP4 DUP7 AND SWAP4 SWAP1 SWAP4 OR SWAP1 SWAP3 SSTORE PUSH1 0x4 DUP1 SLOAD DUP5 AND SWAP2 DUP6 AND SWAP2 SWAP1 SWAP2 OR SWAP1 SSTORE PUSH1 0x5 DUP1 SLOAD SWAP1 SWAP3 AND SWAP3 AND SWAP2 SWAP1 SWAP2 OR SWAP1 SSTORE PUSH2 0x1C3 JUMP JUMPDEST PUSH1 0x0 DUP1 SLOAD PUSH1 0x1 PUSH1 0x1 PUSH1 0xA0 SHL SUB DUP4 DUP2 AND PUSH1 0x1 PUSH1 0x1 PUSH1 0xA0 SHL SUB NOT DUP4 AND DUP2 OR DUP5 SSTORE PUSH1 0x40 MLOAD SWAP2 SWAP1 SWAP3 AND SWAP3 DUP4 SWAP2 PUSH32 0x8BE0079C531659141344CD1FD0A4F28419497F9722A3DAAFE3B4186F6B6457E0 SWAP2 SWAP1 LOG3 POP POP JUMP JUMPDEST DUP1 MLOAD PUSH1 0x1 PUSH1 0x1 PUSH1 0xA0 SHL SUB DUP2 AND DUP2 EQ PUSH2 0x159 JUMPI PUSH1 0x0 DUP1 REVERT JUMPDEST SWAP2 SWAP1 POP JUMP JUMPDEST PUSH1 0x0 DUP1 PUSH1 0x0 DUP1 PUSH1 0x0 PUSH1 0xA0 DUP7 DUP9 SUB SLT ISZERO PUSH2 0x176 JUMPI PUSH1 0x0 DUP1 REVERT JUMPDEST PUSH2 0x17F DUP7 PUSH2 0x142 JUMP JUMPDEST SWAP5 POP PUSH2 0x18D PUSH1 0x20 DUP8 ADD PUSH2 0x142 JUMP JUMPDEST SWAP4 POP PUSH2 0x19B PUSH1 0x40 DUP8 ADD PUSH2 0x142 JUMP JUMPDEST SWAP3 POP PUSH2 0x1A9 PUSH1 0x60 DUP8 ADD PUSH2 0x142 JUMP JUMPDEST SWAP2 POP PUSH2 0x1B7 PUSH1 0x80 DUP8 ADD PUSH2 0x142 JUMP JUMPDEST SWAP1 POP SWAP3 SWAP6 POP SWAP3 SWAP6 SWAP1 SWAP4 POP JUMP JUMPDEST PUSH2 0xC60 DUP1 PUSH2 0x1D2 PUSH1 0x0 CODECOPY PUSH1 0x0 RETURN INVALID PUSH1 0x80 PUSH1 0x40 MSTORE PUSH1 0x4 CALLDATASIZE LT PUSH2 0x9C JUMPI PUSH1 0x0 CALLDATALOAD PUSH1 0xE0 SHR DUP1 PUSH4 0x87D7A24C GT PUSH2 0x64 JUMPI DUP1 PUSH4 0x87D7A24C EQ PUSH2 0x148 JUMPI DUP1 PUSH4 0x8DA5CB5B EQ PUSH2 0x16C JUMPI DUP1 PUSH4 0xB13A0212 EQ PUSH2 0x18A JUMPI DUP1 PUSH4 0xC7AE483E EQ PUSH2 0x1AA JUMPI DUP1 PUSH4 0xCB3C6FAC EQ PUSH2 0x1CA JUMPI DUP1 PUSH4 0xF2FDE38B EQ PUSH2 0x1EA JUMPI PUSH1 0x0 DUP1 REVERT JUMPDEST DUP1 PUSH4 0x1E4B41B0 EQ PUSH2 0xA1 JUMPI DUP1 PUSH4 0x4EA54110 EQ PUSH2 0xB6 JUMPI DUP1 PUSH4 0x715018A6 EQ PUSH2 0xF3 JUMPI DUP1 PUSH4 0x76652376 EQ PUSH2 0x108 JUMPI DUP1 PUSH4 0x85D2E16D EQ PUSH2 0x128 JUMPI JUMPDEST PUSH1 0x0 DUP1 REVERT JUMPDEST PUSH2 0xB4 PUSH2 0xAF CALLDATASIZE PUSH1 0x4 PUSH2 0x9FC JUMP JUMPDEST PUSH2 0x20A JUMP JUMPDEST STOP JUMPDEST CALLVALUE DUP1 ISZERO PUSH2 0xC2 JUMPI PUSH1 0x0 DUP1 REVERT JUMPDEST POP PUSH1 0x1 SLOAD PUSH2 0xD6 SWAP1 PUSH1 0x1 PUSH1 0x1 PUSH1 0xA0 SHL SUB AND DUP2 JUMP JUMPDEST PUSH1 0x40 MLOAD PUSH1 0x1 PUSH1 0x1 PUSH1 0xA0 SHL SUB SWAP1 SWAP2 AND DUP2 MSTORE PUSH1 0x20 ADD JUMPDEST PUSH1 0x40 MLOAD DUP1 SWAP2 SUB SWAP1 RETURN JUMPDEST CALLVALUE DUP1 ISZERO PUSH2 0xFF JUMPI PUSH1 0x0 DUP1 REVERT JUMPDEST POP PUSH2 0xB4 PUSH2 0x63E JUMP JUMPDEST CALLVALUE DUP1 ISZERO PUSH2 0x114 JUMPI PUSH1 0x0 DUP1 REVERT JUMPDEST POP PUSH1 0x3 SLOAD PUSH2 0xD6 SWAP1 PUSH1 0x1 PUSH1 0x1 PUSH1 0xA0 SHL SUB AND DUP2 JUMP JUMPDEST CALLVALUE DUP1 ISZERO PUSH2 0x134 JUMPI PUSH1 0x0 DUP1 REVERT JUMPDEST POP PUSH1 0x2 SLOAD PUSH2 0xD6 SWAP1 PUSH1 0x1 PUSH1 0x1 PUSH1 0xA0 SHL SUB AND DUP2 JUMP JUMPDEST CALLVALUE DUP1 ISZERO PUSH2 0x154 JUMPI PUSH1 0x0 DUP1 REVERT JUMPDEST POP PUSH2 0x15E PUSH1 0x6 SLOAD DUP2 JUMP JUMPDEST PUSH1 0x40 MLOAD SWAP1 DUP2 MSTORE PUSH1 0x20 ADD PUSH2 0xEA JUMP JUMPDEST CALLVALUE DUP1 ISZERO PUSH2 0x178 JUMPI PUSH1 0x0 DUP1 REVERT JUMPDEST POP PUSH1 0x0 SLOAD PUSH1 0x1 PUSH1 0x1 PUSH1 0xA0 SHL SUB AND PUSH2 0xD6 JUMP JUMPDEST CALLVALUE DUP1 ISZERO PUSH2 0x196 JUMPI PUSH1 0x0 DUP1 REVERT JUMPDEST POP PUSH2 0xB4 PUSH2 0x1A5 CALLDATASIZE PUSH1 0x4 PUSH2 0xA2C JUMP JUMPDEST PUSH2 0x652 JUMP JUMPDEST CALLVALUE DUP1 ISZERO PUSH2 0x1B6 JUMPI PUSH1 0x0 DUP1 REVERT JUMPDEST POP PUSH1 0x5 SLOAD PUSH2 0xD6 SWAP1 PUSH1 0x1 PUSH1 0x1 PUSH1 0xA0 SHL SUB AND DUP2 JUMP JUMPDEST CALLVALUE DUP1 ISZERO PUSH2 0x1D6 JUMPI PUSH1 0x0 DUP1 REVERT JUMPDEST POP PUSH1 0x4 SLOAD PUSH2 0xD6 SWAP1 PUSH1 0x1 PUSH1 0x1 PUSH1 0xA0 SHL SUB AND DUP2 JUMP JUMPDEST CALLVALUE DUP1 ISZERO PUSH2 0x1F6 JUMPI PUSH1 0x0 DUP1 REVERT JUMPDEST POP PUSH2 0xB4 PUSH2 0x205 CALLDATASIZE PUSH1 0x4 PUSH2 0x9FC JUMP JUMPDEST PUSH2 0x65F JUMP JUMPDEST PUSH2 0x212 PUSH2 0x69A JUMP JUMPDEST PUSH1 0x1 SLOAD PUSH1 0x1 PUSH1 0x1 PUSH1 0xA0 SHL SUB AND ISZERO DUP1 PUSH2 0x291 JUMPI POP PUSH1 0x1 SLOAD PUSH1 0x40 MLOAD PUSH4 0xC3C5A547 PUSH1 0xE0 SHL DUP2 MSTORE CALLER PUSH1 0x4 DUP3 ADD MSTORE PUSH1 0x1 PUSH1 0x1 PUSH1 0xA0 SHL SUB SWAP1 SWAP2 AND SWAP1 PUSH4 0xC3C5A547 SWAP1 PUSH1 0x24 ADD PUSH1 0x20 PUSH1 0x40 MLOAD DUP1 DUP4 SUB DUP2 DUP7 GAS STATICCALL ISZERO DUP1 ISZERO PUSH2 0x26D JUMPI RETURNDATASIZE PUSH1 0x0 DUP1 RETURNDATACOPY RETURNDATASIZE PUSH1 0x0 REVERT JUMPDEST POP POP POP POP PUSH1 0x40 MLOAD RETURNDATASIZE PUSH1 0x1F NOT PUSH1 0x1F DUP3 ADD AND DUP3 ADD DUP1 PUSH1 0x40 MSTORE POP DUP2 ADD SWAP1 PUSH2 0x291 SWAP2 SWAP1 PUSH2 0xA45 JUMP JUMPDEST PUSH2 0x2E2 JUMPI PUSH1 0x40 MLOAD PUSH3 0x461BCD PUSH1 0xE5 SHL DUP2 MSTORE PUSH1 0x20 PUSH1 0x4 DUP3 ADD MSTORE PUSH1 0x19 PUSH1 0x24 DUP3 ADD MSTORE PUSH32 0x535853453A2055736572206E6F74207265676973746572656400000000000000 PUSH1 0x44 DUP3 ADD MSTORE PUSH1 0x64 ADD JUMPDEST PUSH1 0x40 MLOAD DUP1 SWAP2 SUB SWAP1 REVERT JUMPDEST PUSH1 0x0 CALLVALUE GT PUSH2 0x332 JUMPI PUSH1 0x40 MLOAD PUSH3 0x461BCD PUSH1 0xE5 SHL DUP2 MSTORE PUSH1 0x20 PUSH1 0x4 DUP3 ADD MSTORE PUSH1 0x1B PUSH1 0x24 DUP3 ADD MSTORE PUSH32 0x5358427579537461626C65733A204D7573742073656E64204554480000000000 PUSH1 0x44 DUP3 ADD MSTORE PUSH1 0x64 ADD PUSH2 0x2D9 JUMP JUMPDEST PUSH1 0x0 DUP2 PUSH1 0x1 PUSH1 0x1 PUSH1 0xA0 SHL SUB AND PUSH4 0x313CE567 PUSH1 0x40 MLOAD DUP2 PUSH4 0xFFFFFFFF AND PUSH1 0xE0 SHL DUP2 MSTORE PUSH1 0x4 ADD PUSH1 0x20 PUSH1 0x40 MLOAD DUP1 DUP4 SUB DUP2 DUP7 GAS STATICCALL ISZERO DUP1 ISZERO PUSH2 0x372 JUMPI RETURNDATASIZE PUSH1 0x0 DUP1 RETURNDATACOPY RETURNDATASIZE PUSH1 0x0 REVERT JUMPDEST POP POP POP POP PUSH1 0x40 MLOAD RETURNDATASIZE PUSH1 0x1F NOT PUSH1 0x1F DUP3 ADD AND DUP3 ADD DUP1 PUSH1 0x40 MSTORE POP DUP2 ADD SWAP1 PUSH2 0x396 SWAP2 SWAP1 PUSH2 0xA67 JUMP JUMPDEST SWAP1 POP PUSH1 0x0 PUSH8 0xDE0B6B3A7640000 PUSH1 0x6 SLOAD CALLVALUE PUSH2 0x3B1 SWAP2 SWAP1 PUSH2 0xAA0 JUMP JUMPDEST PUSH2 0x3BB SWAP2 SWAP1 PUSH2 0xABD JUMP JUMPDEST SWAP1 POP DUP1 PUSH1 0x12 PUSH1 0xFF DUP5 AND LT ISZERO PUSH2 0x3F1 JUMPI PUSH2 0x3D5 DUP4 PUSH1 0x12 PUSH2 0xADF JUMP JUMPDEST PUSH2 0x3E0 SWAP1 PUSH1 0xA PUSH2 0xBDC JUMP JUMPDEST PUSH2 0x3EA SWAP1 DUP4 PUSH2 0xABD JUMP JUMPDEST SWAP1 POP PUSH2 0x420 JUMP JUMPDEST PUSH1 0x12 DUP4 PUSH1 0xFF AND GT ISZERO PUSH2 0x420 JUMPI PUSH2 0x408 PUSH1 0x12 DUP5 PUSH2 0xADF JUMP JUMPDEST PUSH2 0x413 SWAP1 PUSH1 0xA PUSH2 0xBDC JUMP JUMPDEST PUSH2 0x41D SWAP1 DUP4 PUSH2 0xAA0 JUMP JUMPDEST SWAP1 POP JUMPDEST PUSH1 0x0 PUSH1 0x64 PUSH2 0x42F DUP4 PUSH1 0xC PUSH2 0xAA0 JUMP JUMPDEST PUSH2 0x439 SWAP2 SWAP1 PUSH2 0xABD JUMP JUMPDEST SWAP1 POP PUSH1 0x0 PUSH2 0x447 DUP3 DUP5 PUSH2 0xBEB JUMP JUMPDEST SWAP1 POP PUSH1 0x0 PUSH1 0x64 PUSH2 0x458 DUP4 PUSH1 0x5 PUSH2 0xAA0 JUMP JUMPDEST PUSH2 0x462 SWAP2 SWAP1 PUSH2 0xABD JUMP JUMPDEST SWAP1 POP PUSH1 0x0 PUSH2 0x470 DUP3 DUP5 PUSH2 0xBEB JUMP JUMPDEST SWAP1 POP PUSH1 0x0 PUSH1 0x64 PUSH2 0x481 DUP4 PUSH1 0x1 PUSH2 0xAA0 JUMP JUMPDEST PUSH2 0x48B SWAP2 SWAP1 PUSH2 0xABD JUMP JUMPDEST SWAP1 POP PUSH1 0x0 PUSH2 0x499 DUP3 DUP5 PUSH2 0xBEB JUMP JUMPDEST PUSH1 0x4 SLOAD PUSH1 0x40 MLOAD SWAP2 SWAP3 POP PUSH1 0x1 PUSH1 0x1 PUSH1 0xA0 SHL SUB AND SWAP1 CALLVALUE DUP1 ISZERO PUSH2 0x8FC MUL SWAP2 PUSH1 0x0 DUP2 DUP2 DUP2 DUP6 DUP9 DUP9 CALL SWAP4 POP POP POP POP ISZERO DUP1 ISZERO PUSH2 0x4D3 JUMPI RETURNDATASIZE PUSH1 0x0 DUP1 RETURNDATACOPY RETURNDATASIZE PUSH1 0x0 REVERT JUMPDEST POP PUSH1 0x4 SLOAD PUSH2 0x4EF SWAP1 PUSH1 0x1 PUSH1 0x1 PUSH1 0xA0 SHL SUB DUP13 DUP2 AND SWAP2 AND ADDRESS DUP11 PUSH2 0x6C8 JUMP JUMPDEST PUSH1 0x3 SLOAD PUSH2 0x509 SWAP1 PUSH1 0x1 PUSH1 0x1 PUSH1 0xA0 SHL SUB DUP13 DUP2 AND SWAP2 AND DUP9 PUSH2 0x704 JUMP JUMPDEST PUSH1 0x5 SLOAD PUSH2 0x523 SWAP1 PUSH1 0x1 PUSH1 0x1 PUSH1 0xA0 SHL SUB DUP13 DUP2 AND SWAP2 AND DUP5 PUSH2 0x704 JUMP JUMPDEST PUSH1 0x4 SLOAD PUSH2 0x53D SWAP1 PUSH1 0x1 PUSH1 0x1 PUSH1 0xA0 SHL SUB DUP13 DUP2 AND SWAP2 AND DUP7 PUSH2 0x704 JUMP JUMPDEST PUSH1 0x2 SLOAD PUSH2 0x557 SWAP1 PUSH1 0x1 PUSH1 0x1 PUSH1 0xA0 SHL SUB DUP13 DUP2 AND SWAP2 AND DUP4 PUSH2 0x73E JUMP JUMPDEST PUSH1 0x2 SLOAD PUSH1 0x40 MLOAD PUSH4 0xB3DB428B PUSH1 0xE0 SHL DUP2 MSTORE CALLER PUSH1 0x4 DUP3 ADD MSTORE PUSH1 0x1 PUSH1 0x1 PUSH1 0xA0 SHL SUB DUP13 DUP2 AND PUSH1 0x24 DUP4 ADD MSTORE PUSH1 0x44 DUP3 ADD DUP5 SWAP1 MSTORE SWAP1 SWAP2 AND SWAP1 PUSH4 0xB3DB428B SWAP1 PUSH1 0x64 ADD PUSH1 0x0 PUSH1 0x40 MLOAD DUP1 DUP4 SUB DUP2 PUSH1 0x0 DUP8 DUP1 EXTCODESIZE ISZERO DUP1 ISZERO PUSH2 0x5AB JUMPI PUSH1 0x0 DUP1 REVERT JUMPDEST POP GAS CALL ISZERO DUP1 ISZERO PUSH2 0x5BF JUMPI RETURNDATASIZE PUSH1 0x0 DUP1 RETURNDATACOPY RETURNDATASIZE PUSH1 0x0 REVERT JUMPDEST POP POP PUSH1 0x40 DUP1 MLOAD CALLVALUE DUP2 MSTORE PUSH1 0x20 DUP2 ADD DUP6 SWAP1 MSTORE PUSH1 0x1 PUSH1 0x1 PUSH1 0xA0 SHL SUB DUP15 AND SWAP4 POP CALLER SWAP3 POP PUSH32 0xA4CC8EE53157CE97D375CC41E00B691F5C7452D6F0343EC1EF6CA9855DF6ECCD SWAP2 ADD PUSH1 0x40 MLOAD DUP1 SWAP2 SUB SWAP1 LOG3 POP POP POP POP POP POP POP POP POP PUSH2 0x63B PUSH1 0x1 PUSH32 0x9B779B17422D0DF92223018B32B4D1FA46E071723D6817E2486D003BECC55F00 SSTORE JUMP JUMPDEST POP JUMP JUMPDEST PUSH2 0x646 PUSH2 0x7C8 JUMP JUMPDEST PUSH2 0x650 PUSH1 0x0 PUSH2 0x7F5 JUMP JUMPDEST JUMP JUMPDEST PUSH2 0x65A PUSH2 0x7C8 JUMP JUMPDEST PUSH1 0x6 SSTORE JUMP JUMPDEST PUSH2 0x667 PUSH2 0x7C8 JUMP JUMPDEST PUSH1 0x1 PUSH1 0x1 PUSH1 0xA0 SHL SUB DUP2 AND PUSH2 0x691 JUMPI PUSH1 0x40 MLOAD PUSH4 0x1E4FBDF7 PUSH1 0xE0 SHL DUP2 MSTORE PUSH1 0x0 PUSH1 0x4 DUP3 ADD MSTORE PUSH1 0x24 ADD PUSH2 0x2D9 JUMP JUMPDEST PUSH2 0x63B DUP2 PUSH2 0x7F5 JUMP JUMPDEST PUSH2 0x6A2 PUSH2 0x845 JUMP JUMPDEST PUSH1 0x2 PUSH32 0x9B779B17422D0DF92223018B32B4D1FA46E071723D6817E2486D003BECC55F00 SSTORE JUMP JUMPDEST PUSH2 0x6D6 DUP5 DUP5 DUP5 DUP5 PUSH1 0x1 PUSH2 0x887 JUMP JUMPDEST PUSH2 0x6FE JUMPI PUSH1 0x40 MLOAD PUSH4 0x5274AFE7 PUSH1 0xE0 SHL DUP2 MSTORE PUSH1 0x1 PUSH1 0x1 PUSH1 0xA0 SHL SUB DUP6 AND PUSH1 0x4 DUP3 ADD MSTORE PUSH1 0x24 ADD PUSH2 0x2D9 JUMP JUMPDEST POP POP POP POP JUMP JUMPDEST PUSH2 0x711 DUP4 DUP4 DUP4 PUSH1 0x1 PUSH2 0x8F9 JUMP JUMPDEST PUSH2 0x739 JUMPI PUSH1 0x40 MLOAD PUSH4 0x5274AFE7 PUSH1 0xE0 SHL DUP2 MSTORE PUSH1 0x1 PUSH1 0x1 PUSH1 0xA0 SHL SUB DUP5 AND PUSH1 0x4 DUP3 ADD MSTORE PUSH1 0x24 ADD PUSH2 0x2D9 JUMP JUMPDEST POP POP POP JUMP JUMPDEST PUSH1 0x40 MLOAD PUSH4 0x6EB1769F PUSH1 0xE1 SHL DUP2 MSTORE ADDRESS PUSH1 0x4 DUP3 ADD MSTORE PUSH1 0x1 PUSH1 0x1 PUSH1 0xA0 SHL SUB DUP4 DUP2 AND PUSH1 0x24 DUP4 ADD MSTORE PUSH1 0x0 SWAP2 SWAP1 DUP6 AND SWAP1 PUSH4 0xDD62ED3E SWAP1 PUSH1 0x44 ADD PUSH1 0x20 PUSH1 0x40 MLOAD DUP1 DUP4 SUB DUP2 DUP7 GAS STATICCALL ISZERO DUP1 ISZERO PUSH2 0x78E JUMPI RETURNDATASIZE PUSH1 0x0 DUP1 RETURNDATACOPY RETURNDATASIZE PUSH1 0x0 REVERT JUMPDEST POP POP POP POP PUSH1 0x40 MLOAD RETURNDATASIZE PUSH1 0x1F NOT PUSH1 0x1F DUP3 ADD AND DUP3 ADD DUP1 PUSH1 0x40 MSTORE POP DUP2 ADD SWAP1 PUSH2 0x7B2 SWAP2 SWAP1 PUSH2 0xBFE JUMP JUMPDEST SWAP1 POP PUSH2 0x6FE DUP5 DUP5 PUSH2 0x7C3 DUP6 DUP6 PUSH2 0xC17 JUMP JUMPDEST PUSH2 0x95F JUMP JUMPDEST PUSH1 0x0 SLOAD PUSH1 0x1 PUSH1 0x1 PUSH1 0xA0 SHL SUB AND CALLER EQ PUSH2 0x650 JUMPI PUSH1 0x40 MLOAD PUSH4 0x118CDAA7 PUSH1 0xE0 SHL DUP2 MSTORE CALLER PUSH1 0x4 DUP3 ADD MSTORE PUSH1 0x24 ADD PUSH2 0x2D9 JUMP JUMPDEST PUSH1 0x0 DUP1 SLOAD PUSH1 0x1 PUSH1 0x1 PUSH1 0xA0 SHL SUB DUP4 DUP2 AND PUSH1 0x1 PUSH1 0x1 PUSH1 0xA0 SHL SUB NOT DUP4 AND DUP2 OR DUP5 SSTORE PUSH1 0x40 MLOAD SWAP2 SWAP1 SWAP3 AND SWAP3 DUP4 SWAP2 PUSH32 0x8BE0079C531659141344CD1FD0A4F28419497F9722A3DAAFE3B4186F6B6457E0 SWAP2 SWAP1 LOG3 POP POP JUMP JUMPDEST PUSH32 0x9B779B17422D0DF92223018B32B4D1FA46E071723D6817E2486D003BECC55F00 SLOAD PUSH1 0x2 SUB PUSH2 0x650 JUMPI PUSH1 0x40 MLOAD PUSH4 0x3EE5AEB5 PUSH1 0xE0 SHL DUP2 MSTORE PUSH1 0x4 ADD PUSH1 0x40 MLOAD DUP1 SWAP2 SUB SWAP1 REVERT JUMPDEST PUSH1 0x40 MLOAD PUSH4 0x23B872DD PUSH1 0xE0 SHL PUSH1 0x0 DUP2 DUP2 MSTORE PUSH1 0x1 PUSH1 0x1 PUSH1 0xA0 SHL SUB DUP8 DUP2 AND PUSH1 0x4 MSTORE DUP7 AND PUSH1 0x24 MSTORE PUSH1 0x44 DUP6 SWAP1 MSTORE SWAP2 PUSH1 0x20 DUP4 PUSH1 0x64 DUP2 DUP1 DUP13 GAS CALL SWAP3 POP PUSH1 0x1 PUSH1 0x0 MLOAD EQ DUP4 AND PUSH2 0x8E7 JUMPI DUP4 DUP4 ISZERO AND ISZERO PUSH2 0x8DA JUMPI RETURNDATASIZE PUSH1 0x0 DUP3 RETURNDATACOPY RETURNDATASIZE DUP2 REVERT JUMPDEST PUSH1 0x0 DUP9 EXTCODESIZE GT RETURNDATASIZE ISZERO AND DUP4 AND SWAP3 POP JUMPDEST PUSH1 0x40 MSTORE POP PUSH1 0x0 PUSH1 0x60 MSTORE SWAP6 SWAP5 POP POP POP POP POP JUMP JUMPDEST PUSH1 0x40 MLOAD PUSH4 0xA9059CBB PUSH1 0xE0 SHL PUSH1 0x0 DUP2 DUP2 MSTORE PUSH1 0x1 PUSH1 0x1 PUSH1 0xA0 SHL SUB DUP7 AND PUSH1 0x4 MSTORE PUSH1 0x24 DUP6 SWAP1 MSTORE SWAP2 PUSH1 0x20 DUP4 PUSH1 0x44 DUP2 DUP1 DUP12 GAS CALL SWAP3 POP PUSH1 0x1 PUSH1 0x0 MLOAD EQ DUP4 AND PUSH2 0x953 JUMPI DUP4 DUP4 ISZERO AND ISZERO PUSH2 0x946 JUMPI RETURNDATASIZE PUSH1 0x0 DUP3 RETURNDATACOPY RETURNDATASIZE DUP2 REVERT JUMPDEST PUSH1 0x0 DUP8 EXTCODESIZE GT RETURNDATASIZE ISZERO AND DUP4 AND SWAP3 POP JUMPDEST PUSH1 0x40 MSTORE POP SWAP5 SWAP4 POP POP POP POP JUMP JUMPDEST PUSH2 0x96C DUP4 DUP4 DUP4 PUSH1 0x0 PUSH2 0x9AF JUMP JUMPDEST PUSH2 0x739 JUMPI PUSH2 0x97E DUP4 DUP4 PUSH1 0x0 PUSH1 0x1 PUSH2 0x9AF JUMP JUMPDEST PUSH2 0x9A6 JUMPI PUSH1 0x40 MLOAD PUSH4 0x5274AFE7 PUSH1 0xE0 SHL DUP2 MSTORE PUSH1 0x1 PUSH1 0x1 PUSH1 0xA0 SHL SUB DUP5 AND PUSH1 0x4 DUP3 ADD MSTORE PUSH1 0x24 ADD PUSH2 0x2D9 JUMP JUMPDEST PUSH2 0x711 DUP4 DUP4 DUP4 PUSH1 0x1 JUMPDEST PUSH1 0x40 MLOAD PUSH4 0x95EA7B3 PUSH1 0xE0 SHL PUSH1 0x0 DUP2 DUP2 MSTORE PUSH1 0x1 PUSH1 0x1 PUSH1 0xA0 SHL SUB DUP7 AND PUSH1 0x4 MSTORE PUSH1 0x24 DUP6 SWAP1 MSTORE SWAP2 PUSH1 0x20 DUP4 PUSH1 0x44 DUP2 DUP1 DUP12 GAS CALL SWAP3 POP PUSH1 0x1 PUSH1 0x0 MLOAD EQ DUP4 AND PUSH2 0x953 JUMPI DUP4 DUP4 ISZERO AND ISZERO PUSH2 0x946 JUMPI RETURNDATASIZE PUSH1 0x0 DUP3 RETURNDATACOPY RETURNDATASIZE DUP2 REVERT JUMPDEST PUSH1 0x0 PUSH1 0x20 DUP3 DUP5 SUB SLT ISZERO PUSH2 0xA0E JUMPI PUSH1 0x0 DUP1 REVERT JUMPDEST DUP2 CALLDATALOAD PUSH1 0x1 PUSH1 0x1 PUSH1 0xA0 SHL SUB DUP2 AND DUP2 EQ PUSH2 0xA25 JUMPI PUSH1 0x0 DUP1 REVERT JUMPDEST SWAP4 SWAP3 POP POP POP JUMP JUMPDEST PUSH1 0x0 PUSH1 0x20 DUP3 DUP5 SUB SLT ISZERO PUSH2 0xA3E JUMPI PUSH1 0x0 DUP1 REVERT JUMPDEST POP CALLDATALOAD SWAP2 SWAP1 POP JUMP JUMPDEST PUSH1 0x0 PUSH1 0x20 DUP3 DUP5 SUB SLT ISZERO PUSH2 0xA57 JUMPI PUSH1 0x0 DUP1 REVERT JUMPDEST DUP2 MLOAD DUP1 ISZERO ISZERO DUP2 EQ PUSH2 0xA25 JUMPI PUSH1 0x0 DUP1 REVERT JUMPDEST PUSH1 0x0 PUSH1 0x20 DUP3 DUP5 SUB SLT ISZERO PUSH2 0xA79 JUMPI PUSH1 0x0 DUP1 REVERT JUMPDEST DUP2 MLOAD PUSH1 0xFF DUP2 AND DUP2 EQ PUSH2 0xA25 JUMPI PUSH1 0x0 DUP1 REVERT JUMPDEST PUSH4 0x4E487B71 PUSH1 0xE0 SHL PUSH1 0x0 MSTORE PUSH1 0x11 PUSH1 0x4 MSTORE PUSH1 0x24 PUSH1 0x0 REVERT JUMPDEST DUP1 DUP3 MUL DUP2 ISZERO DUP3 DUP3 DIV DUP5 EQ OR PUSH2 0xAB7 JUMPI PUSH2 0xAB7 PUSH2 0xA8A JUMP JUMPDEST SWAP3 SWAP2 POP POP JUMP JUMPDEST PUSH1 0x0 DUP3 PUSH2 0xADA JUMPI PUSH4 0x4E487B71 PUSH1 0xE0 SHL PUSH1 0x0 MSTORE PUSH1 0x12 PUSH1 0x4 MSTORE PUSH1 0x24 PUSH1 0x0 REVERT JUMPDEST POP DIV SWAP1 JUMP JUMPDEST PUSH1 0xFF DUP3 DUP2 AND DUP3 DUP3 AND SUB SWAP1 DUP2 GT ISZERO PUSH2 0xAB7 JUMPI PUSH2 0xAB7 PUSH2 0xA8A JUMP JUMPDEST PUSH1 0x1 DUP2 DUP2 JUMPDEST DUP1 DUP6 GT ISZERO PUSH2 0xB33 JUMPI DUP2 PUSH1 0x0 NOT DIV DUP3 GT ISZERO PUSH2 0xB19 JUMPI PUSH2 0xB19 PUSH2 0xA8A JUMP JUMPDEST DUP1 DUP6 AND ISZERO PUSH2 0xB26 JUMPI SWAP2 DUP2 MUL SWAP2 JUMPDEST SWAP4 DUP5 SHR SWAP4 SWAP1 DUP1 MUL SWAP1 PUSH2 0xAFD JUMP JUMPDEST POP SWAP3 POP SWAP3 SWAP1 POP JUMP JUMPDEST PUSH1 0x0 DUP3 PUSH2 0xB4A JUMPI POP PUSH1 0x1 PUSH2 0xAB7 JUMP JUMPDEST DUP2 PUSH2 0xB57 JUMPI POP PUSH1 0x0 PUSH2 0xAB7 JUMP JUMPDEST DUP2 PUSH1 0x1 DUP2 EQ PUSH2 0xB6D JUMPI PUSH1 0x2 DUP2 EQ PUSH2 0xB77 JUMPI PUSH2 0xB93 JUMP JUMPDEST PUSH1 0x1 SWAP2 POP POP PUSH2 0xAB7 JUMP JUMPDEST PUSH1 0xFF DUP5 GT ISZERO PUSH2 0xB88 JUMPI PUSH2 0xB88 PUSH2 0xA8A JUMP JUMPDEST POP POP PUSH1 0x1 DUP3 SHL PUSH2 0xAB7 JUMP JUMPDEST POP PUSH1 0x20 DUP4 LT PUSH2 0x133 DUP4 LT AND PUSH1 0x4E DUP5 LT PUSH1 0xB DUP5 LT AND OR ISZERO PUSH2 0xBB6 JUMPI POP DUP2 DUP2 EXP PUSH2 0xAB7 JUMP JUMPDEST PUSH2 0xBC0 DUP4 DUP4 PUSH2 0xAF8 JUMP JUMPDEST DUP1 PUSH1 0x0 NOT DIV DUP3 GT ISZERO PUSH2 0xBD4 JUMPI PUSH2 0xBD4 PUSH2 0xA8A JUMP JUMPDEST MUL SWAP4 SWAP3 POP POP POP JUMP JUMPDEST PUSH1 0x0 PUSH2 0xA25 PUSH1 0xFF DUP5 AND DUP4 PUSH2 0xB3B JUMP JUMPDEST DUP2 DUP2 SUB DUP2 DUP2 GT ISZERO PUSH2 0xAB7 JUMPI PUSH2 0xAB7 PUSH2 0xA8A JUMP JUMPDEST PUSH1 0x0 PUSH1 0x20 DUP3 DUP5 SUB SLT ISZERO PUSH2 0xC10 JUMPI PUSH1 0x0 DUP1 REVERT JUMPDEST POP MLOAD SWAP2 SWAP1 POP JUMP JUMPDEST DUP1 DUP3 ADD DUP1 DUP3 GT ISZERO PUSH2 0xAB7 JUMPI PUSH2 0xAB7 PUSH2 0xA8A JUMP INVALID LOG2 PUSH5 0x6970667358 0x22 SLT KECCAK256 PREVRANDAO 0xAC 0xDA 0xF8 SWAP12 PUSH26 0x3C84172A155E9E482169BFE6BBA70AF17773B06D07E781F1678C PUSH5 0x736F6C6343 STOP ADDMOD XOR STOP CALLER "},"methodIdentifiers":{"buyStables(address)":"1e4b41b0","ethToUsdRate()":"87d7a24c","owner()":"8da5cb5b","ptfReceiver()":"c7ae483e","renounceOwnership()":"715018a6","setEthToUsdRate(uint256)":"b13a0212","sxcpTreasury()":"76652376","sxmm()":"cb3c6fac","sxse()":"4ea54110","sxua()":"85d2e16d","transferOwnership(address)":"f2fde38b"}}}}}