{"contracts/SXBuyStables.sol":{"SXBuyStables":{"abi":[{"inputs":[{"internalType":"address","name":"_sxse","type":"address"},{"internalType":"address","name":"_sxua","type":"address"},{"internalType":"address","name":"_sxcpTreasury","type":"address"},{"internalType":"address","name":"_sxmm","type":"address"},{"internalType":"address","name":"_ptfReceiver","type":"address"}],"stateMutability":"nonpayable","type":"constructor"},{"inputs":[{"internalType":"address","name":"owner","type":"address"}],"name":"OwnableInvalidOwner","type":"error"},{"inputs":[{"internalType":"address","name":"account","type":"address"}],"name":"OwnableUnauthorizedAccount","type":"error"},{"inputs":[],"name":"ReentrancyGuardReentrantCall","type":"error"},{"inputs":[{"internalType":"address","name":"token","type":"address"}],"name":"SafeERC20FailedOperation","type":"error"},{"anonymous":false,"inputs":[{"indexed":true,"internalType":"address","name":"previousOwner","type":"address"},{"indexed":true,"internalType":"address","name":"newOwner","type":"address"}],"name":"OwnershipTransferred","type":"event"},{"anonymous":false,"inputs":[{"indexed":true,"internalType":"address","name":"user","type":"address"},{"indexed":true,"internalType":"address","name":"stablecoin","type":"address"},{"indexed":false,"internalType":"uint256","name":"ethAmount","type":"uint256"},{"indexed":false,"internalType":"uint256","name":"netStables","type":"uint256"}],"name":"StablecoinsBought","type":"event"},{"inputs":[{"internalType":"address","name":"stablecoin","type":"address"}],"name":"buyStables","outputs":[],"stateMutability":"payable","type":"function"},{"inputs":[],"name":"ethToUsdRate","outputs":[{"internalType":"uint256","name":"","type":"uint256"}],"stateMutability":"view","type":"function"},{"inputs":[],"name":"owner","outputs":[{"internalType":"address","name":"","type":"address"}],"stateMutability":"view","type":"function"},{"inputs":[],"name":"ptfReceiver","outputs":[{"internalType":"address","name":"","type":"address"}],"stateMutability":"view","type":"function"},{"inputs":[],"name":"renounceOwnership","outputs":[],"stateMutability":"nonpayable","type":"function"},{"inputs":[{"internalType":"uint256","name":"_newRate","type":"uint256"}],"name":"setEthToUsdRate","outputs":[],"stateMutability":"nonpayable","type":"function"},{"inputs":[{"internalType":"address","name":"_ptfReceiver","type":"address"}],"name":"setPtfReceiver","outputs":[],"stateMutability":"nonpayable","type":"function"},{"inputs":[{"internalType":"address","name":"_sxmm","type":"address"}],"name":"setSXMM","outputs":[],"stateMutability":"nonpayable","type":"function"},{"inputs":[{"internalType":"address","name":"_sxse","type":"address"}],"name":"setSXSE","outputs":[],"stateMutability":"nonpayable","type":"function"},{"inputs":[{"internalType":"address","name":"_sxua","type":"address"}],"name":"setSXUA","outputs":[],"stateMutability":"nonpayable","type":"function"},{"inputs":[{"internalType":"address","name":"_sxcpTreasury","type":"address"}],"name":"setSxcpTreasury","outputs":[],"stateMutability":"nonpayable","type":"function"},{"inputs":[],"name":"sxcpTreasury","outputs":[{"internalType":"address","name":"","type":"address"}],"stateMutability":"view","type":"function"},{"inputs":[],"name":"sxmm","outputs":[{"internalType":"address","name":"","type":"address"}],"stateMutability":"view","type":"function"},{"inputs":[],"name":"sxse","outputs":[{"internalType":"contract ISXSE","name":"","type":"address"}],"stateMutability":"view","type":"function"},{"inputs":[],"name":"sxua","outputs":[{"internalType":"contract ISXUA","name":"","type":"address"}],"stateMutability":"view","type":"function"},{"inputs":[{"internalType":"address","name":"newOwner","type":"address"}],"name":"transferOwnership","outputs":[],"stateMutability":"nonpayable","type":"function"}],"evm":{"bytecode":{"linkReferences":{},"object":"608060405268bdbc41e0348b3000006006553480156200001e57600080fd5b506040516200108e3803806200108e833981016040819052620000419162000168565b33806200006857604051631e4fbdf760e01b81526000600482015260240160405180910390fd5b6200007381620000fb565b5060017f9b779b17422d0df92223018b32b4d1fa46e071723d6817e2486d003becc55f0055600180546001600160a01b03199081166001600160a01b03978816179091556002805482169587169590951790945560038054851693861693909317909255600480548416918516919091179055600580549092169216919091179055620001d8565b600080546001600160a01b038381166001600160a01b0319831681178455604051919092169283917f8be0079c531659141344cd1fd0a4f28419497f9722a3daafe3b4186f6b6457e09190a35050565b80516001600160a01b03811681146200016357600080fd5b919050565b600080600080600060a086880312156200018157600080fd5b6200018c866200014b565b94506200019c602087016200014b565b9350620001ac604087016200014b565b9250620001bc606087016200014b565b9150620001cc608087016200014b565b90509295509295909350565b610ea680620001e86000396000f3fe6080604052600436106100f35760003560e01c806385d2e16d1161008a578063c7ae483e11610059578063c7ae483e14610281578063cb3c6fac146102a1578063f06ae65c146102c1578063f2fde38b146102e157600080fd5b806385d2e16d146101ff57806387d7a24c1461021f5780638da5cb5b14610243578063b13a02121461026157600080fd5b80634ea54110116100c65780634ea541101461016d578063715018a6146101aa57806376652376146101bf57806385cc02b6146101df57600080fd5b80630656d591146100f85780631e4b41b01461011a5780632c2028e41461012d57806346beebef1461014d575b600080fd5b34801561010457600080fd5b50610118610113366004610c42565b610301565b005b610118610128366004610c42565b61032b565b34801561013957600080fd5b50610118610148366004610c42565b6107dc565b34801561015957600080fd5b50610118610168366004610c42565b610806565b34801561017957600080fd5b5060015461018d906001600160a01b031681565b6040516001600160a01b0390911681526020015b60405180910390f35b3480156101b657600080fd5b50610118610830565b3480156101cb57600080fd5b5060035461018d906001600160a01b031681565b3480156101eb57600080fd5b506101186101fa366004610c42565b610844565b34801561020b57600080fd5b5060025461018d906001600160a01b031681565b34801561022b57600080fd5b5061023560065481565b6040519081526020016101a1565b34801561024f57600080fd5b506000546001600160a01b031661018d565b34801561026d57600080fd5b5061011861027c366004610c72565b61086e565b34801561028d57600080fd5b5060055461018d906001600160a01b031681565b3480156102ad57600080fd5b5060045461018d906001600160a01b031681565b3480156102cd57600080fd5b506101186102dc366004610c42565b61087b565b3480156102ed57600080fd5b506101186102fc366004610c42565b6108a5565b6103096108e0565b600480546001600160a01b0319166001600160a01b0392909216919091179055565b61033361090d565b6001546001600160a01b031615806103b2575060015460405163c3c5a54760e01b81523360048201526001600160a01b039091169063c3c5a54790602401602060405180830381865afa15801561038e573d6000803e3d6000fd5b505050506040513d601f19601f820116820180604052508101906103b29190610c8b565b6104035760405162461bcd60e51b815260206004820152601960248201527f535853453a2055736572206e6f7420726567697374657265640000000000000060448201526064015b60405180910390fd5b600034116104535760405162461bcd60e51b815260206004820152601b60248201527f5358427579537461626c65733a204d7573742073656e6420455448000000000060448201526064016103fa565b6000816001600160a01b031663313ce5676040518163ffffffff1660e01b8152600401602060405180830381865afa9250505080156104af575060408051601f3d908101601f191682019092526104ac91810190610cad565b60015b6104bb575060126104be565b90505b6000670de0b6b3a7640000600654346104d79190610ce6565b6104e19190610d03565b905080601260ff84161015610517576104fb836012610d25565b61050690600a610e22565b6105109083610d03565b9050610546565b60128360ff1611156105465761052e601284610d25565b61053990600a610e22565b6105439083610ce6565b90505b6000606461055583600c610ce6565b61055f9190610d03565b9050600061056d8284610e31565b90506000606461057e836005610ce6565b6105889190610d03565b905060006105968284610e31565b9050600060646105a7836001610ce6565b6105b19190610d03565b905060006105bf8284610e31565b6004546040519192506001600160a01b0316903480156108fc02916000818181858888f193505050501580156105f9573d6000803e3d6000fd5b50600454610615906001600160a01b038c81169116308a61093b565b60035461062f906001600160a01b038c8116911688610977565b600554610649906001600160a01b038c8116911684610977565b600454610663906001600160a01b038c8116911686610977565b60025461067d906001600160a01b038c81169116836109b1565b60025460405163b3db428b60e01b81523360048201526001600160a01b038c81166024830152604482018490529091169063b3db428b90606401600060405180830381600087803b1580156106d157600080fd5b505af11580156106e5573d6000803e3d6000fd5b505060025460405163095ea7b360e01b81526001600160a01b03918216600482015260006024820152908d16925063095ea7b391506044016020604051808303816000875af115801561073c573d6000803e3d6000fd5b505050506040513d601f19601f820116820180604052508101906107609190610c8b565b5060408051348152602081018390526001600160a01b038c169133917fa4cc8ee53157ce97d375cc41e00b691f5c7452d6f0343ec1ef6ca9855df6eccd910160405180910390a35050505050505050506107d960017f9b779b17422d0df92223018b32b4d1fa46e071723d6817e2486d003becc55f0055565b50565b6107e46108e0565b600380546001600160a01b0319166001600160a01b0392909216919091179055565b61080e6108e0565b600280546001600160a01b0319166001600160a01b0392909216919091179055565b6108386108e0565b6108426000610a3b565b565b61084c6108e0565b600580546001600160a01b0319166001600160a01b0392909216919091179055565b6108766108e0565b600655565b6108836108e0565b600180546001600160a01b0319166001600160a01b0392909216919091179055565b6108ad6108e0565b6001600160a01b0381166108d757604051631e4fbdf760e01b8152600060048201526024016103fa565b6107d981610a3b565b6000546001600160a01b031633146108425760405163118cdaa760e01b81523360048201526024016103fa565b610915610a8b565b60027f9b779b17422d0df92223018b32b4d1fa46e071723d6817e2486d003becc55f0055565b610949848484846001610acd565b61097157604051635274afe760e01b81526001600160a01b03851660048201526024016103fa565b50505050565b6109848383836001610b3f565b6109ac57604051635274afe760e01b81526001600160a01b03841660048201526024016103fa565b505050565b604051636eb1769f60e11b81523060048201526001600160a01b0383811660248301526000919085169063dd62ed3e90604401602060405180830381865afa158015610a01573d6000803e3d6000fd5b505050506040513d601f19601f82011682018060405250810190610a259190610e44565b90506109718484610a368585610e5d565b610ba5565b600080546001600160a01b038381166001600160a01b0319831681178455604051919092169283917f8be0079c531659141344cd1fd0a4f28419497f9722a3daafe3b4186f6b6457e09190a35050565b7f9b779b17422d0df92223018b32b4d1fa46e071723d6817e2486d003becc55f005460020361084257604051633ee5aeb560e01b815260040160405180910390fd5b6040516323b872dd60e01b60008181526001600160a01b038781166004528616602452604485905291602083606481808c5af192506001600051148316610b2d578383151615610b20573d6000823e3d81fd5b6000883b113d1516831692505b60405250600060605295945050505050565b60405163a9059cbb60e01b60008181526001600160a01b038616600452602485905291602083604481808b5af192506001600051148316610b99578383151615610b8c573d6000823e3d81fd5b6000873b113d1516831692505b60405250949350505050565b610bb28383836000610bf5565b6109ac57610bc4838360006001610bf5565b610bec57604051635274afe760e01b81526001600160a01b03841660048201526024016103fa565b61098483838360015b60405163095ea7b360e01b60008181526001600160a01b038616600452602485905291602083604481808b5af192506001600051148316610b99578383151615610b8c573d6000823e3d81fd5b600060208284031215610c5457600080fd5b81356001600160a01b0381168114610c6b57600080fd5b9392505050565b600060208284031215610c8457600080fd5b5035919050565b600060208284031215610c9d57600080fd5b81518015158114610c6b57600080fd5b600060208284031215610cbf57600080fd5b815160ff81168114610c6b57600080fd5b634e487b7160e01b600052601160045260246000fd5b8082028115828204841417610cfd57610cfd610cd0565b92915050565b600082610d2057634e487b7160e01b600052601260045260246000fd5b500490565b60ff8281168282160390811115610cfd57610cfd610cd0565b600181815b80851115610d79578160001904821115610d5f57610d5f610cd0565b80851615610d6c57918102915b93841c9390800290610d43565b509250929050565b600082610d9057506001610cfd565b81610d9d57506000610cfd565b8160018114610db35760028114610dbd57610dd9565b6001915050610cfd565b60ff841115610dce57610dce610cd0565b50506001821b610cfd565b5060208310610133831016604e8410600b8410161715610dfc575081810a610cfd565b610e068383610d3e565b8060001904821115610e1a57610e1a610cd0565b029392505050565b6000610c6b60ff841683610d81565b81810381811115610cfd57610cfd610cd0565b600060208284031215610e5657600080fd5b5051919050565b80820180821115610cfd57610cfd610cd056fea2646970667358221220c5d202ed056f69fcd7e4b75ed445f6bea33579ac1cad7c05000b8c18774e9e5864736f6c63430008180033","opcodes":"PUSH1 0x80 PUSH1 0x40 MSTORE PUSH9 0xBDBC41E0348B300000 PUSH1 0x6 SSTORE CALLVALUE DUP1 ISZERO PUSH3 0x1E JUMPI PUSH1 0x0 DUP1 REVERT JUMPDEST POP PUSH1 0x40 MLOAD PUSH3 0x108E CODESIZE SUB DUP1 PUSH3 0x108E DUP4 CODECOPY DUP2 ADD PUSH1 0x40 DUP2 SWAP1 MSTORE PUSH3 0x41 SWAP2 PUSH3 0x168 JUMP JUMPDEST CALLER DUP1 PUSH3 0x68 JUMPI PUSH1 0x40 MLOAD PUSH4 0x1E4FBDF7 PUSH1 0xE0 SHL DUP2 MSTORE PUSH1 0x0 PUSH1 0x4 DUP3 ADD MSTORE PUSH1 0x24 ADD PUSH1 0x40 MLOAD DUP1 SWAP2 SUB SWAP1 REVERT JUMPDEST PUSH3 0x73 DUP2 PUSH3 0xFB JUMP JUMPDEST POP PUSH1 0x1 PUSH32 0x9B779B17422D0DF92223018B32B4D1FA46E071723D6817E2486D003BECC55F00 SSTORE PUSH1 0x1 DUP1 SLOAD PUSH1 0x1 PUSH1 0x1 PUSH1 0xA0 SHL SUB NOT SWAP1 DUP2 AND PUSH1 0x1 PUSH1 0x1 PUSH1 0xA0 SHL SUB SWAP8 DUP9 AND OR SWAP1 SWAP2 SSTORE PUSH1 0x2 DUP1 SLOAD DUP3 AND SWAP6 DUP8 AND SWAP6 SWAP1 SWAP6 OR SWAP1 SWAP5 SSTORE PUSH1 0x3 DUP1 SLOAD DUP6 AND SWAP4 DUP7 AND SWAP4 SWAP1 SWAP4 OR SWAP1 SWAP3 SSTORE PUSH1 0x4 DUP1 SLOAD DUP5 AND SWAP2 DUP6 AND SWAP2 SWAP1 SWAP2 OR SWAP1 SSTORE PUSH1 0x5 DUP1 SLOAD SWAP1 SWAP3 AND SWAP3 AND SWAP2 SWAP1 SWAP2 OR SWAP1 SSTORE PUSH3 0x1D8 JUMP JUMPDEST PUSH1 0x0 DUP1 SLOAD PUSH1 0x1 PUSH1 0x1 PUSH1 0xA0 SHL SUB DUP4 DUP2 AND PUSH1 0x1 PUSH1 0x1 PUSH1 0xA0 SHL SUB NOT DUP4 AND DUP2 OR DUP5 SSTORE PUSH1 0x40 MLOAD SWAP2 SWAP1 SWAP3 AND SWAP3 DUP4 SWAP2 PUSH32 0x8BE0079C531659141344CD1FD0A4F28419497F9722A3DAAFE3B4186F6B6457E0 SWAP2 SWAP1 LOG3 POP POP JUMP JUMPDEST DUP1 MLOAD PUSH1 0x1 PUSH1 0x1 PUSH1 0xA0 SHL SUB DUP2 AND DUP2 EQ PUSH3 0x163 JUMPI PUSH1 0x0 DUP1 REVERT JUMPDEST SWAP2 SWAP1 POP JUMP JUMPDEST PUSH1 0x0 DUP1 PUSH1 0x0 DUP1 PUSH1 0x0 PUSH1 0xA0 DUP7 DUP9 SUB SLT ISZERO PUSH3 0x181 JUMPI PUSH1 0x0 DUP1 REVERT JUMPDEST PUSH3 0x18C DUP7 PUSH3 0x14B JUMP JUMPDEST SWAP5 POP PUSH3 0x19C PUSH1 0x20 DUP8 ADD PUSH3 0x14B JUMP JUMPDEST SWAP4 POP PUSH3 0x1AC PUSH1 0x40 DUP8 ADD PUSH3 0x14B JUMP JUMPDEST SWAP3 POP PUSH3 0x1BC PUSH1 0x60 DUP8 ADD PUSH3 0x14B JUMP JUMPDEST SWAP2 POP PUSH3 0x1CC PUSH1 0x80 DUP8 ADD PUSH3 0x14B JUMP JUMPDEST SWAP1 POP SWAP3 SWAP6 POP SWAP3 SWAP6 SWAP1 SWAP4 POP JUMP JUMPDEST PUSH2 0xEA6 DUP1 PUSH3 0x1E8 PUSH1 0x0 CODECOPY PUSH1 0x0 RETURN INVALID PUSH1 0x80 PUSH1 0x40 MSTORE PUSH1 0x4 CALLDATASIZE LT PUSH2 0xF3 JUMPI PUSH1 0x0 CALLDATALOAD PUSH1 0xE0 SHR DUP1 PUSH4 0x85D2E16D GT PUSH2 0x8A JUMPI DUP1 PUSH4 0xC7AE483E GT PUSH2 0x59 JUMPI DUP1 PUSH4 0xC7AE483E EQ PUSH2 0x281 JUMPI DUP1 PUSH4 0xCB3C6FAC EQ PUSH2 0x2A1 JUMPI DUP1 PUSH4 0xF06AE65C EQ PUSH2 0x2C1 JUMPI DUP1 PUSH4 0xF2FDE38B EQ PUSH2 0x2E1 JUMPI PUSH1 0x0 DUP1 REVERT JUMPDEST DUP1 PUSH4 0x85D2E16D EQ PUSH2 0x1FF JUMPI DUP1 PUSH4 0x87D7A24C EQ PUSH2 0x21F JUMPI DUP1 PUSH4 0x8DA5CB5B EQ PUSH2 0x243 JUMPI DUP1 PUSH4 0xB13A0212 EQ PUSH2 0x261 JUMPI PUSH1 0x0 DUP1 REVERT JUMPDEST DUP1 PUSH4 0x4EA54110 GT PUSH2 0xC6 JUMPI DUP1 PUSH4 0x4EA54110 EQ PUSH2 0x16D JUMPI DUP1 PUSH4 0x715018A6 EQ PUSH2 0x1AA JUMPI DUP1 PUSH4 0x76652376 EQ PUSH2 0x1BF JUMPI DUP1 PUSH4 0x85CC02B6 EQ PUSH2 0x1DF JUMPI PUSH1 0x0 DUP1 REVERT JUMPDEST DUP1 PUSH4 0x656D591 EQ PUSH2 0xF8 JUMPI DUP1 PUSH4 0x1E4B41B0 EQ PUSH2 0x11A JUMPI DUP1 PUSH4 0x2C2028E4 EQ PUSH2 0x12D JUMPI DUP1 PUSH4 0x46BEEBEF EQ PUSH2 0x14D JUMPI JUMPDEST PUSH1 0x0 DUP1 REVERT JUMPDEST CALLVALUE DUP1 ISZERO PUSH2 0x104 JUMPI PUSH1 0x0 DUP1 REVERT JUMPDEST POP PUSH2 0x118 PUSH2 0x113 CALLDATASIZE PUSH1 0x4 PUSH2 0xC42 JUMP JUMPDEST PUSH2 0x301 JUMP JUMPDEST STOP JUMPDEST PUSH2 0x118 PUSH2 0x128 CALLDATASIZE PUSH1 0x4 PUSH2 0xC42 JUMP JUMPDEST PUSH2 0x32B JUMP JUMPDEST CALLVALUE DUP1 ISZERO PUSH2 0x139 JUMPI PUSH1 0x0 DUP1 REVERT JUMPDEST POP PUSH2 0x118 PUSH2 0x148 CALLDATASIZE PUSH1 0x4 PUSH2 0xC42 JUMP JUMPDEST PUSH2 0x7DC JUMP JUMPDEST CALLVALUE DUP1 ISZERO PUSH2 0x159 JUMPI PUSH1 0x0 DUP1 REVERT JUMPDEST POP PUSH2 0x118 PUSH2 0x168 CALLDATASIZE PUSH1 0x4 PUSH2 0xC42 JUMP JUMPDEST PUSH2 0x806 JUMP JUMPDEST CALLVALUE DUP1 ISZERO PUSH2 0x179 JUMPI PUSH1 0x0 DUP1 REVERT JUMPDEST POP PUSH1 0x1 SLOAD PUSH2 0x18D SWAP1 PUSH1 0x1 PUSH1 0x1 PUSH1 0xA0 SHL SUB AND DUP2 JUMP JUMPDEST PUSH1 0x40 MLOAD PUSH1 0x1 PUSH1 0x1 PUSH1 0xA0 SHL SUB SWAP1 SWAP2 AND DUP2 MSTORE PUSH1 0x20 ADD JUMPDEST PUSH1 0x40 MLOAD DUP1 SWAP2 SUB SWAP1 RETURN JUMPDEST CALLVALUE DUP1 ISZERO PUSH2 0x1B6 JUMPI PUSH1 0x0 DUP1 REVERT JUMPDEST POP PUSH2 0x118 PUSH2 0x830 JUMP JUMPDEST CALLVALUE DUP1 ISZERO PUSH2 0x1CB JUMPI PUSH1 0x0 DUP1 REVERT JUMPDEST POP PUSH1 0x3 SLOAD PUSH2 0x18D SWAP1 PUSH1 0x1 PUSH1 0x1 PUSH1 0xA0 SHL SUB AND DUP2 JUMP JUMPDEST CALLVALUE DUP1 ISZERO PUSH2 0x1EB JUMPI PUSH1 0x0 DUP1 REVERT JUMPDEST POP PUSH2 0x118 PUSH2 0x1FA CALLDATASIZE PUSH1 0x4 PUSH2 0xC42 JUMP JUMPDEST PUSH2 0x844 JUMP JUMPDEST CALLVALUE DUP1 ISZERO PUSH2 0x20B JUMPI PUSH1 0x0 DUP1 REVERT JUMPDEST POP PUSH1 0x2 SLOAD PUSH2 0x18D SWAP1 PUSH1 0x1 PUSH1 0x1 PUSH1 0xA0 SHL SUB AND DUP2 JUMP JUMPDEST CALLVALUE DUP1 ISZERO PUSH2 0x22B JUMPI PUSH1 0x0 DUP1 REVERT JUMPDEST POP PUSH2 0x235 PUSH1 0x6 SLOAD DUP2 JUMP JUMPDEST PUSH1 0x40 MLOAD SWAP1 DUP2 MSTORE PUSH1 0x20 ADD PUSH2 0x1A1 JUMP JUMPDEST CALLVALUE DUP1 ISZERO PUSH2 0x24F JUMPI PUSH1 0x0 DUP1 REVERT JUMPDEST POP PUSH1 0x0 SLOAD PUSH1 0x1 PUSH1 0x1 PUSH1 0xA0 SHL SUB AND PUSH2 0x18D JUMP JUMPDEST CALLVALUE DUP1 ISZERO PUSH2 0x26D JUMPI PUSH1 0x0 DUP1 REVERT JUMPDEST POP PUSH2 0x118 PUSH2 0x27C CALLDATASIZE PUSH1 0x4 PUSH2 0xC72 JUMP JUMPDEST PUSH2 0x86E JUMP JUMPDEST CALLVALUE DUP1 ISZERO PUSH2 0x28D JUMPI PUSH1 0x0 DUP1 REVERT JUMPDEST POP PUSH1 0x5 SLOAD PUSH2 0x18D SWAP1 PUSH1 0x1 PUSH1 0x1 PUSH1 0xA0 SHL SUB AND DUP2 JUMP JUMPDEST CALLVALUE DUP1 ISZERO PUSH2 0x2AD JUMPI PUSH1 0x0 DUP1 REVERT JUMPDEST POP PUSH1 0x4 SLOAD PUSH2 0x18D SWAP1 PUSH1 0x1 PUSH1 0x1 PUSH1 0xA0 SHL SUB AND DUP2 JUMP JUMPDEST CALLVALUE DUP1 ISZERO PUSH2 0x2CD JUMPI PUSH1 0x0 DUP1 REVERT JUMPDEST POP PUSH2 0x118 PUSH2 0x2DC CALLDATASIZE PUSH1 0x4 PUSH2 0xC42 JUMP JUMPDEST PUSH2 0x87B JUMP JUMPDEST CALLVALUE DUP1 ISZERO PUSH2 0x2ED JUMPI PUSH1 0x0 DUP1 REVERT JUMPDEST POP PUSH2 0x118 PUSH2 0x2FC CALLDATASIZE PUSH1 0x4 PUSH2 0xC42 JUMP JUMPDEST PUSH2 0x8A5 JUMP JUMPDEST PUSH2 0x309 PUSH2 0x8E0 JUMP JUMPDEST PUSH1 0x4 DUP1 SLOAD PUSH1 0x1 PUSH1 0x1 PUSH1 0xA0 SHL SUB NOT AND PUSH1 0x1 PUSH1 0x1 PUSH1 0xA0 SHL SUB SWAP3 SWAP1 SWAP3 AND SWAP2 SWAP1 SWAP2 OR SWAP1 SSTORE JUMP JUMPDEST PUSH2 0x333 PUSH2 0x90D JUMP JUMPDEST PUSH1 0x1 SLOAD PUSH1 0x1 PUSH1 0x1 PUSH1 0xA0 SHL SUB AND ISZERO DUP1 PUSH2 0x3B2 JUMPI POP PUSH1 0x1 SLOAD PUSH1 0x40 MLOAD PUSH4 0xC3C5A547 PUSH1 0xE0 SHL DUP2 MSTORE CALLER PUSH1 0x4 DUP3 ADD MSTORE PUSH1 0x1 PUSH1 0x1 PUSH1 0xA0 SHL SUB SWAP1 SWAP2 AND SWAP1 PUSH4 0xC3C5A547 SWAP1 PUSH1 0x24 ADD PUSH1 0x20 PUSH1 0x40 MLOAD DUP1 DUP4 SUB DUP2 DUP7 GAS STATICCALL ISZERO DUP1 ISZERO PUSH2 0x38E JUMPI RETURNDATASIZE PUSH1 0x0 DUP1 RETURNDATACOPY RETURNDATASIZE PUSH1 0x0 REVERT JUMPDEST POP POP POP POP PUSH1 0x40 MLOAD RETURNDATASIZE PUSH1 0x1F NOT PUSH1 0x1F DUP3 ADD AND DUP3 ADD DUP1 PUSH1 0x40 MSTORE POP DUP2 ADD SWAP1 PUSH2 0x3B2 SWAP2 SWAP1 PUSH2 0xC8B JUMP JUMPDEST PUSH2 0x403 JUMPI PUSH1 0x40 MLOAD PUSH3 0x461BCD PUSH1 0xE5 SHL DUP2 MSTORE PUSH1 0x20 PUSH1 0x4 DUP3 ADD MSTORE PUSH1 0x19 PUSH1 0x24 DUP3 ADD MSTORE PUSH32 0x535853453A2055736572206E6F74207265676973746572656400000000000000 PUSH1 0x44 DUP3 ADD MSTORE PUSH1 0x64 ADD JUMPDEST PUSH1 0x40 MLOAD DUP1 SWAP2 SUB SWAP1 REVERT JUMPDEST PUSH1 0x0 CALLVALUE GT PUSH2 0x453 JUMPI PUSH1 0x40 MLOAD PUSH3 0x461BCD PUSH1 0xE5 SHL DUP2 MSTORE PUSH1 0x20 PUSH1 0x4 DUP3 ADD MSTORE PUSH1 0x1B PUSH1 0x24 DUP3 ADD MSTORE PUSH32 0x5358427579537461626C65733A204D7573742073656E64204554480000000000 PUSH1 0x44 DUP3 ADD MSTORE PUSH1 0x64 ADD PUSH2 0x3FA JUMP JUMPDEST PUSH1 0x0 DUP2 PUSH1 0x1 PUSH1 0x1 PUSH1 0xA0 SHL SUB AND PUSH4 0x313CE567 PUSH1 0x40 MLOAD DUP2 PUSH4 0xFFFFFFFF AND PUSH1 0xE0 SHL DUP2 MSTORE PUSH1 0x4 ADD PUSH1 0x20 PUSH1 0x40 MLOAD DUP1 DUP4 SUB DUP2 DUP7 GAS STATICCALL SWAP3 POP POP POP DUP1 ISZERO PUSH2 0x4AF JUMPI POP PUSH1 0x40 DUP1 MLOAD PUSH1 0x1F RETURNDATASIZE SWAP1 DUP2 ADD PUSH1 0x1F NOT AND DUP3 ADD SWAP1 SWAP3 MSTORE PUSH2 0x4AC SWAP2 DUP2 ADD SWAP1 PUSH2 0xCAD JUMP JUMPDEST PUSH1 0x1 JUMPDEST PUSH2 0x4BB JUMPI POP PUSH1 0x12 PUSH2 0x4BE JUMP JUMPDEST SWAP1 POP JUMPDEST PUSH1 0x0 PUSH8 0xDE0B6B3A7640000 PUSH1 0x6 SLOAD CALLVALUE PUSH2 0x4D7 SWAP2 SWAP1 PUSH2 0xCE6 JUMP JUMPDEST PUSH2 0x4E1 SWAP2 SWAP1 PUSH2 0xD03 JUMP JUMPDEST SWAP1 POP DUP1 PUSH1 0x12 PUSH1 0xFF DUP5 AND LT ISZERO PUSH2 0x517 JUMPI PUSH2 0x4FB DUP4 PUSH1 0x12 PUSH2 0xD25 JUMP JUMPDEST PUSH2 0x506 SWAP1 PUSH1 0xA PUSH2 0xE22 JUMP JUMPDEST PUSH2 0x510 SWAP1 DUP4 PUSH2 0xD03 JUMP JUMPDEST SWAP1 POP PUSH2 0x546 JUMP JUMPDEST PUSH1 0x12 DUP4 PUSH1 0xFF AND GT ISZERO PUSH2 0x546 JUMPI PUSH2 0x52E PUSH1 0x12 DUP5 PUSH2 0xD25 JUMP JUMPDEST PUSH2 0x539 SWAP1 PUSH1 0xA PUSH2 0xE22 JUMP JUMPDEST PUSH2 0x543 SWAP1 DUP4 PUSH2 0xCE6 JUMP JUMPDEST SWAP1 POP JUMPDEST PUSH1 0x0 PUSH1 0x64 PUSH2 0x555 DUP4 PUSH1 0xC PUSH2 0xCE6 JUMP JUMPDEST PUSH2 0x55F SWAP2 SWAP1 PUSH2 0xD03 JUMP JUMPDEST SWAP1 POP PUSH1 0x0 PUSH2 0x56D DUP3 DUP5 PUSH2 0xE31 JUMP JUMPDEST SWAP1 POP PUSH1 0x0 PUSH1 0x64 PUSH2 0x57E DUP4 PUSH1 0x5 PUSH2 0xCE6 JUMP JUMPDEST PUSH2 0x588 SWAP2 SWAP1 PUSH2 0xD03 JUMP JUMPDEST SWAP1 POP PUSH1 0x0 PUSH2 0x596 DUP3 DUP5 PUSH2 0xE31 JUMP JUMPDEST SWAP1 POP PUSH1 0x0 PUSH1 0x64 PUSH2 0x5A7 DUP4 PUSH1 0x1 PUSH2 0xCE6 JUMP JUMPDEST PUSH2 0x5B1 SWAP2 SWAP1 PUSH2 0xD03 JUMP JUMPDEST SWAP1 POP PUSH1 0x0 PUSH2 0x5BF DUP3 DUP5 PUSH2 0xE31 JUMP JUMPDEST PUSH1 0x4 SLOAD PUSH1 0x40 MLOAD SWAP2 SWAP3 POP PUSH1 0x1 PUSH1 0x1 PUSH1 0xA0 SHL SUB AND SWAP1 CALLVALUE DUP1 ISZERO PUSH2 0x8FC MUL SWAP2 PUSH1 0x0 DUP2 DUP2 DUP2 DUP6 DUP9 DUP9 CALL SWAP4 POP POP POP POP ISZERO DUP1 ISZERO PUSH2 0x5F9 JUMPI RETURNDATASIZE PUSH1 0x0 DUP1 RETURNDATACOPY RETURNDATASIZE PUSH1 0x0 REVERT JUMPDEST POP PUSH1 0x4 SLOAD PUSH2 0x615 SWAP1 PUSH1 0x1 PUSH1 0x1 PUSH1 0xA0 SHL SUB DUP13 DUP2 AND SWAP2 AND ADDRESS DUP11 PUSH2 0x93B JUMP JUMPDEST PUSH1 0x3 SLOAD PUSH2 0x62F SWAP1 PUSH1 0x1 PUSH1 0x1 PUSH1 0xA0 SHL SUB DUP13 DUP2 AND SWAP2 AND DUP9 PUSH2 0x977 JUMP JUMPDEST PUSH1 0x5 SLOAD PUSH2 0x649 SWAP1 PUSH1 0x1 PUSH1 0x1 PUSH1 0xA0 SHL SUB DUP13 DUP2 AND SWAP2 AND DUP5 PUSH2 0x977 JUMP JUMPDEST PUSH1 0x4 SLOAD PUSH2 0x663 SWAP1 PUSH1 0x1 PUSH1 0x1 PUSH1 0xA0 SHL SUB DUP13 DUP2 AND SWAP2 AND DUP7 PUSH2 0x977 JUMP JUMPDEST PUSH1 0x2 SLOAD PUSH2 0x67D SWAP1 PUSH1 0x1 PUSH1 0x1 PUSH1 0xA0 SHL SUB DUP13 DUP2 AND SWAP2 AND DUP4 PUSH2 0x9B1 JUMP JUMPDEST PUSH1 0x2 SLOAD PUSH1 0x40 MLOAD PUSH4 0xB3DB428B PUSH1 0xE0 SHL DUP2 MSTORE CALLER PUSH1 0x4 DUP3 ADD MSTORE PUSH1 0x1 PUSH1 0x1 PUSH1 0xA0 SHL SUB DUP13 DUP2 AND PUSH1 0x24 DUP4 ADD MSTORE PUSH1 0x44 DUP3 ADD DUP5 SWAP1 MSTORE SWAP1 SWAP2 AND SWAP1 PUSH4 0xB3DB428B SWAP1 PUSH1 0x64 ADD PUSH1 0x0 PUSH1 0x40 MLOAD DUP1 DUP4 SUB DUP2 PUSH1 0x0 DUP8 DUP1 EXTCODESIZE ISZERO DUP1 ISZERO PUSH2 0x6D1 JUMPI PUSH1 0x0 DUP1 REVERT JUMPDEST POP GAS CALL ISZERO DUP1 ISZERO PUSH2 0x6E5 JUMPI RETURNDATASIZE PUSH1 0x0 DUP1 RETURNDATACOPY RETURNDATASIZE PUSH1 0x0 REVERT JUMPDEST POP POP PUSH1 0x2 SLOAD PUSH1 0x40 MLOAD PUSH4 0x95EA7B3 PUSH1 0xE0 SHL DUP2 MSTORE PUSH1 0x1 PUSH1 0x1 PUSH1 0xA0 SHL SUB SWAP2 DUP3 AND PUSH1 0x4 DUP3 ADD MSTORE PUSH1 0x0 PUSH1 0x24 DUP3 ADD MSTORE SWAP1 DUP14 AND SWAP3 POP PUSH4 0x95EA7B3 SWAP2 POP PUSH1 0x44 ADD PUSH1 0x20 PUSH1 0x40 MLOAD DUP1 DUP4 SUB DUP2 PUSH1 0x0 DUP8 GAS CALL ISZERO DUP1 ISZERO PUSH2 0x73C JUMPI RETURNDATASIZE PUSH1 0x0 DUP1 RETURNDATACOPY RETURNDATASIZE PUSH1 0x0 REVERT JUMPDEST POP POP POP POP PUSH1 0x40 MLOAD RETURNDATASIZE PUSH1 0x1F NOT PUSH1 0x1F DUP3 ADD AND DUP3 ADD DUP1 PUSH1 0x40 MSTORE POP DUP2 ADD SWAP1 PUSH2 0x760 SWAP2 SWAP1 PUSH2 0xC8B JUMP JUMPDEST POP PUSH1 0x40 DUP1 MLOAD CALLVALUE DUP2 MSTORE PUSH1 0x20 DUP2 ADD DUP4 SWAP1 MSTORE PUSH1 0x1 PUSH1 0x1 PUSH1 0xA0 SHL SUB DUP13 AND SWAP2 CALLER SWAP2 PUSH32 0xA4CC8EE53157CE97D375CC41E00B691F5C7452D6F0343EC1EF6CA9855DF6ECCD SWAP2 ADD PUSH1 0x40 MLOAD DUP1 SWAP2 SUB SWAP1 LOG3 POP POP POP POP POP POP POP POP POP PUSH2 0x7D9 PUSH1 0x1 PUSH32 0x9B779B17422D0DF92223018B32B4D1FA46E071723D6817E2486D003BECC55F00 SSTORE JUMP JUMPDEST POP JUMP JUMPDEST PUSH2 0x7E4 PUSH2 0x8E0 JUMP JUMPDEST PUSH1 0x3 DUP1 SLOAD PUSH1 0x1 PUSH1 0x1 PUSH1 0xA0 SHL SUB NOT AND PUSH1 0x1 PUSH1 0x1 PUSH1 0xA0 SHL SUB SWAP3 SWAP1 SWAP3 AND SWAP2 SWAP1 SWAP2 OR SWAP1 SSTORE JUMP JUMPDEST PUSH2 0x80E PUSH2 0x8E0 JUMP JUMPDEST PUSH1 0x2 DUP1 SLOAD PUSH1 0x1 PUSH1 0x1 PUSH1 0xA0 SHL SUB NOT AND PUSH1 0x1 PUSH1 0x1 PUSH1 0xA0 SHL SUB SWAP3 SWAP1 SWAP3 AND SWAP2 SWAP1 SWAP2 OR SWAP1 SSTORE JUMP JUMPDEST PUSH2 0x838 PUSH2 0x8E0 JUMP JUMPDEST PUSH2 0x842 PUSH1 0x0 PUSH2 0xA3B JUMP JUMPDEST JUMP JUMPDEST PUSH2 0x84C PUSH2 0x8E0 JUMP JUMPDEST PUSH1 0x5 DUP1 SLOAD PUSH1 0x1 PUSH1 0x1 PUSH1 0xA0 SHL SUB NOT AND PUSH1 0x1 PUSH1 0x1 PUSH1 0xA0 SHL SUB SWAP3 SWAP1 SWAP3 AND SWAP2 SWAP1 SWAP2 OR SWAP1 SSTORE JUMP JUMPDEST PUSH2 0x876 PUSH2 0x8E0 JUMP JUMPDEST PUSH1 0x6 SSTORE JUMP JUMPDEST PUSH2 0x883 PUSH2 0x8E0 JUMP JUMPDEST PUSH1 0x1 DUP1 SLOAD PUSH1 0x1 PUSH1 0x1 PUSH1 0xA0 SHL SUB NOT AND PUSH1 0x1 PUSH1 0x1 PUSH1 0xA0 SHL SUB SWAP3 SWAP1 SWAP3 AND SWAP2 SWAP1 SWAP2 OR SWAP1 SSTORE JUMP JUMPDEST PUSH2 0x8AD PUSH2 0x8E0 JUMP JUMPDEST PUSH1 0x1 PUSH1 0x1 PUSH1 0xA0 SHL SUB DUP2 AND PUSH2 0x8D7 JUMPI PUSH1 0x40 MLOAD PUSH4 0x1E4FBDF7 PUSH1 0xE0 SHL DUP2 MSTORE PUSH1 0x0 PUSH1 0x4 DUP3 ADD MSTORE PUSH1 0x24 ADD PUSH2 0x3FA JUMP JUMPDEST PUSH2 0x7D9 DUP2 PUSH2 0xA3B JUMP JUMPDEST PUSH1 0x0 SLOAD PUSH1 0x1 PUSH1 0x1 PUSH1 0xA0 SHL SUB AND CALLER EQ PUSH2 0x842 JUMPI PUSH1 0x40 MLOAD PUSH4 0x118CDAA7 PUSH1 0xE0 SHL DUP2 MSTORE CALLER PUSH1 0x4 DUP3 ADD MSTORE PUSH1 0x24 ADD PUSH2 0x3FA JUMP JUMPDEST PUSH2 0x915 PUSH2 0xA8B JUMP JUMPDEST PUSH1 0x2 PUSH32 0x9B779B17422D0DF92223018B32B4D1FA46E071723D6817E2486D003BECC55F00 SSTORE JUMP JUMPDEST PUSH2 0x949 DUP5 DUP5 DUP5 DUP5 PUSH1 0x1 PUSH2 0xACD JUMP JUMPDEST PUSH2 0x971 JUMPI PUSH1 0x40 MLOAD PUSH4 0x5274AFE7 PUSH1 0xE0 SHL DUP2 MSTORE PUSH1 0x1 PUSH1 0x1 PUSH1 0xA0 SHL SUB DUP6 AND PUSH1 0x4 DUP3 ADD MSTORE PUSH1 0x24 ADD PUSH2 0x3FA JUMP JUMPDEST POP POP POP POP JUMP JUMPDEST PUSH2 0x984 DUP4 DUP4 DUP4 PUSH1 0x1 PUSH2 0xB3F JUMP JUMPDEST PUSH2 0x9AC JUMPI PUSH1 0x40 MLOAD PUSH4 0x5274AFE7 PUSH1 0xE0 SHL DUP2 MSTORE PUSH1 0x1 PUSH1 0x1 PUSH1 0xA0 SHL SUB DUP5 AND PUSH1 0x4 DUP3 ADD MSTORE PUSH1 0x24 ADD PUSH2 0x3FA JUMP JUMPDEST POP POP POP JUMP JUMPDEST PUSH1 0x40 MLOAD PUSH4 0x6EB1769F PUSH1 0xE1 SHL DUP2 MSTORE ADDRESS PUSH1 0x4 DUP3 ADD MSTORE PUSH1 0x1 PUSH1 0x1 PUSH1 0xA0 SHL SUB DUP4 DUP2 AND PUSH1 0x24 DUP4 ADD MSTORE PUSH1 0x0 SWAP2 SWAP1 DUP6 AND SWAP1 PUSH4 0xDD62ED3E SWAP1 PUSH1 0x44 ADD PUSH1 0x20 PUSH1 0x40 MLOAD DUP1 DUP4 SUB DUP2 DUP7 GAS STATICCALL ISZERO DUP1 ISZERO PUSH2 0xA01 JUMPI RETURNDATASIZE PUSH1 0x0 DUP1 RETURNDATACOPY RETURNDATASIZE PUSH1 0x0 REVERT JUMPDEST POP POP POP POP PUSH1 0x40 MLOAD RETURNDATASIZE PUSH1 0x1F NOT PUSH1 0x1F DUP3 ADD AND DUP3 ADD DUP1 PUSH1 0x40 MSTORE POP DUP2 ADD SWAP1 PUSH2 0xA25 SWAP2 SWAP1 PUSH2 0xE44 JUMP JUMPDEST SWAP1 POP PUSH2 0x971 DUP5 DUP5 PUSH2 0xA36 DUP6 DUP6 PUSH2 0xE5D JUMP JUMPDEST PUSH2 0xBA5 JUMP JUMPDEST PUSH1 0x0 DUP1 SLOAD PUSH1 0x1 PUSH1 0x1 PUSH1 0xA0 SHL SUB DUP4 DUP2 AND PUSH1 0x1 PUSH1 0x1 PUSH1 0xA0 SHL SUB NOT DUP4 AND DUP2 OR DUP5 SSTORE PUSH1 0x40 MLOAD SWAP2 SWAP1 SWAP3 AND SWAP3 DUP4 SWAP2 PUSH32 0x8BE0079C531659141344CD1FD0A4F28419497F9722A3DAAFE3B4186F6B6457E0 SWAP2 SWAP1 LOG3 POP POP JUMP JUMPDEST PUSH32 0x9B779B17422D0DF92223018B32B4D1FA46E071723D6817E2486D003BECC55F00 SLOAD PUSH1 0x2 SUB PUSH2 0x842 JUMPI PUSH1 0x40 MLOAD PUSH4 0x3EE5AEB5 PUSH1 0xE0 SHL DUP2 MSTORE PUSH1 0x4 ADD PUSH1 0x40 MLOAD DUP1 SWAP2 SUB SWAP1 REVERT JUMPDEST PUSH1 0x40 MLOAD PUSH4 0x23B872DD PUSH1 0xE0 SHL PUSH1 0x0 DUP2 DUP2 MSTORE PUSH1 0x1 PUSH1 0x1 PUSH1 0xA0 SHL SUB DUP8 DUP2 AND PUSH1 0x4 MSTORE DUP7 AND PUSH1 0x24 MSTORE PUSH1 0x44 DUP6 SWAP1 MSTORE SWAP2 PUSH1 0x20 DUP4 PUSH1 0x64 DUP2 DUP1 DUP13 GAS CALL SWAP3 POP PUSH1 0x1 PUSH1 0x0 MLOAD EQ DUP4 AND PUSH2 0xB2D JUMPI DUP4 DUP4 ISZERO AND ISZERO PUSH2 0xB20 JUMPI RETURNDATASIZE PUSH1 0x0 DUP3 RETURNDATACOPY RETURNDATASIZE DUP2 REVERT JUMPDEST PUSH1 0x0 DUP9 EXTCODESIZE GT RETURNDATASIZE ISZERO AND DUP4 AND SWAP3 POP JUMPDEST PUSH1 0x40 MSTORE POP PUSH1 0x0 PUSH1 0x60 MSTORE SWAP6 SWAP5 POP POP POP POP POP JUMP JUMPDEST PUSH1 0x40 MLOAD PUSH4 0xA9059CBB PUSH1 0xE0 SHL PUSH1 0x0 DUP2 DUP2 MSTORE PUSH1 0x1 PUSH1 0x1 PUSH1 0xA0 SHL SUB DUP7 AND PUSH1 0x4 MSTORE PUSH1 0x24 DUP6 SWAP1 MSTORE SWAP2 PUSH1 0x20 DUP4 PUSH1 0x44 DUP2 DUP1 DUP12 GAS CALL SWAP3 POP PUSH1 0x1 PUSH1 0x0 MLOAD EQ DUP4 AND PUSH2 0xB99 JUMPI DUP4 DUP4 ISZERO AND ISZERO PUSH2 0xB8C JUMPI RETURNDATASIZE PUSH1 0x0 DUP3 RETURNDATACOPY RETURNDATASIZE DUP2 REVERT JUMPDEST PUSH1 0x0 DUP8 EXTCODESIZE GT RETURNDATASIZE ISZERO AND DUP4 AND SWAP3 POP JUMPDEST PUSH1 0x40 MSTORE POP SWAP5 SWAP4 POP POP POP POP JUMP JUMPDEST PUSH2 0xBB2 DUP4 DUP4 DUP4 PUSH1 0x0 PUSH2 0xBF5 JUMP JUMPDEST PUSH2 0x9AC JUMPI PUSH2 0xBC4 DUP4 DUP4 PUSH1 0x0 PUSH1 0x1 PUSH2 0xBF5 JUMP JUMPDEST PUSH2 0xBEC JUMPI PUSH1 0x40 MLOAD PUSH4 0x5274AFE7 PUSH1 0xE0 SHL DUP2 MSTORE PUSH1 0x1 PUSH1 0x1 PUSH1 0xA0 SHL SUB DUP5 AND PUSH1 0x4 DUP3 ADD MSTORE PUSH1 0x24 ADD PUSH2 0x3FA JUMP JUMPDEST PUSH2 0x984 DUP4 DUP4 DUP4 PUSH1 0x1 JUMPDEST PUSH1 0x40 MLOAD PUSH4 0x95EA7B3 PUSH1 0xE0 SHL PUSH1 0x0 DUP2 DUP2 MSTORE PUSH1 0x1 PUSH1 0x1 PUSH1 0xA0 SHL SUB DUP7 AND PUSH1 0x4 MSTORE PUSH1 0x24 DUP6 SWAP1 MSTORE SWAP2 PUSH1 0x20 DUP4 PUSH1 0x44 DUP2 DUP1 DUP12 GAS CALL SWAP3 POP PUSH1 0x1 PUSH1 0x0 MLOAD EQ DUP4 AND PUSH2 0xB99 JUMPI DUP4 DUP4 ISZERO AND ISZERO PUSH2 0xB8C JUMPI RETURNDATASIZE PUSH1 0x0 DUP3 RETURNDATACOPY RETURNDATASIZE DUP2 REVERT JUMPDEST PUSH1 0x0 PUSH1 0x20 DUP3 DUP5 SUB SLT ISZERO PUSH2 0xC54 JUMPI PUSH1 0x0 DUP1 REVERT JUMPDEST DUP2 CALLDATALOAD PUSH1 0x1 PUSH1 0x1 PUSH1 0xA0 SHL SUB DUP2 AND DUP2 EQ PUSH2 0xC6B JUMPI PUSH1 0x0 DUP1 REVERT JUMPDEST SWAP4 SWAP3 POP POP POP JUMP JUMPDEST PUSH1 0x0 PUSH1 0x20 DUP3 DUP5 SUB SLT ISZERO PUSH2 0xC84 JUMPI PUSH1 0x0 DUP1 REVERT JUMPDEST POP CALLDATALOAD SWAP2 SWAP1 POP JUMP JUMPDEST PUSH1 0x0 PUSH1 0x20 DUP3 DUP5 SUB SLT ISZERO PUSH2 0xC9D JUMPI PUSH1 0x0 DUP1 REVERT JUMPDEST DUP2 MLOAD DUP1 ISZERO ISZERO DUP2 EQ PUSH2 0xC6B JUMPI PUSH1 0x0 DUP1 REVERT JUMPDEST PUSH1 0x0 PUSH1 0x20 DUP3 DUP5 SUB SLT ISZERO PUSH2 0xCBF JUMPI PUSH1 0x0 DUP1 REVERT JUMPDEST DUP2 MLOAD PUSH1 0xFF DUP2 AND DUP2 EQ PUSH2 0xC6B JUMPI PUSH1 0x0 DUP1 REVERT JUMPDEST PUSH4 0x4E487B71 PUSH1 0xE0 SHL PUSH1 0x0 MSTORE PUSH1 0x11 PUSH1 0x4 MSTORE PUSH1 0x24 PUSH1 0x0 REVERT JUMPDEST DUP1 DUP3 MUL DUP2 ISZERO DUP3 DUP3 DIV DUP5 EQ OR PUSH2 0xCFD JUMPI PUSH2 0xCFD PUSH2 0xCD0 JUMP JUMPDEST SWAP3 SWAP2 POP POP JUMP JUMPDEST PUSH1 0x0 DUP3 PUSH2 0xD20 JUMPI PUSH4 0x4E487B71 PUSH1 0xE0 SHL PUSH1 0x0 MSTORE PUSH1 0x12 PUSH1 0x4 MSTORE PUSH1 0x24 PUSH1 0x0 REVERT JUMPDEST POP DIV SWAP1 JUMP JUMPDEST PUSH1 0xFF DUP3 DUP2 AND DUP3 DUP3 AND SUB SWAP1 DUP2 GT ISZERO PUSH2 0xCFD JUMPI PUSH2 0xCFD PUSH2 0xCD0 JUMP JUMPDEST PUSH1 0x1 DUP2 DUP2 JUMPDEST DUP1 DUP6 GT ISZERO PUSH2 0xD79 JUMPI DUP2 PUSH1 0x0 NOT DIV DUP3 GT ISZERO PUSH2 0xD5F JUMPI PUSH2 0xD5F PUSH2 0xCD0 JUMP JUMPDEST DUP1 DUP6 AND ISZERO PUSH2 0xD6C JUMPI SWAP2 DUP2 MUL SWAP2 JUMPDEST SWAP4 DUP5 SHR SWAP4 SWAP1 DUP1 MUL SWAP1 PUSH2 0xD43 JUMP JUMPDEST POP SWAP3 POP SWAP3 SWAP1 POP JUMP JUMPDEST PUSH1 0x0 DUP3 PUSH2 0xD90 JUMPI POP PUSH1 0x1 PUSH2 0xCFD JUMP JUMPDEST DUP2 PUSH2 0xD9D JUMPI POP PUSH1 0x0 PUSH2 0xCFD JUMP JUMPDEST DUP2 PUSH1 0x1 DUP2 EQ PUSH2 0xDB3 JUMPI PUSH1 0x2 DUP2 EQ PUSH2 0xDBD JUMPI PUSH2 0xDD9 JUMP JUMPDEST PUSH1 0x1 SWAP2 POP POP PUSH2 0xCFD JUMP JUMPDEST PUSH1 0xFF DUP5 GT ISZERO PUSH2 0xDCE JUMPI PUSH2 0xDCE PUSH2 0xCD0 JUMP JUMPDEST POP POP PUSH1 0x1 DUP3 SHL PUSH2 0xCFD JUMP JUMPDEST POP PUSH1 0x20 DUP4 LT PUSH2 0x133 DUP4 LT AND PUSH1 0x4E DUP5 LT PUSH1 0xB DUP5 LT AND OR ISZERO PUSH2 0xDFC JUMPI POP DUP2 DUP2 EXP PUSH2 0xCFD JUMP JUMPDEST PUSH2 0xE06 DUP4 DUP4 PUSH2 0xD3E JUMP JUMPDEST DUP1 PUSH1 0x0 NOT DIV DUP3 GT ISZERO PUSH2 0xE1A JUMPI PUSH2 0xE1A PUSH2 0xCD0 JUMP JUMPDEST MUL SWAP4 SWAP3 POP POP POP JUMP JUMPDEST PUSH1 0x0 PUSH2 0xC6B PUSH1 0xFF DUP5 AND DUP4 PUSH2 0xD81 JUMP JUMPDEST DUP2 DUP2 SUB DUP2 DUP2 GT ISZERO PUSH2 0xCFD JUMPI PUSH2 0xCFD PUSH2 0xCD0 JUMP JUMPDEST PUSH1 0x0 PUSH1 0x20 DUP3 DUP5 SUB SLT ISZERO PUSH2 0xE56 JUMPI PUSH1 0x0 DUP1 REVERT JUMPDEST POP MLOAD SWAP2 SWAP1 POP JUMP JUMPDEST DUP1 DUP3 ADD DUP1 DUP3 GT ISZERO PUSH2 0xCFD JUMPI PUSH2 0xCFD PUSH2 0xCD0 JUMP INVALID LOG2 PUSH5 0x6970667358 0x22 SLT KECCAK256 0xC5 0xD2 MUL 0xED SDIV PUSH16 0x69FCD7E4B75ED445F6BEA33579AC1CAD PUSH29 0x5000B8C18774E9E5864736F6C63430008180033000000000000000000 "},"methodIdentifiers":{"buyStables(address)":"1e4b41b0","ethToUsdRate()":"87d7a24c","owner()":"8da5cb5b","ptfReceiver()":"c7ae483e","renounceOwnership()":"715018a6","setEthToUsdRate(uint256)":"b13a0212","setPtfReceiver(address)":"85cc02b6","setSXMM(address)":"0656d591","setSXSE(address)":"f06ae65c","setSXUA(address)":"46beebef","setSxcpTreasury(address)":"2c2028e4","sxcpTreasury()":"76652376","sxmm()":"cb3c6fac","sxse()":"4ea54110","sxua()":"85d2e16d","transferOwnership(address)":"f2fde38b"}}}}}