{
  "_format": "hh-sol-artifact-1",
  "contractName": "SXBuyStables",
  "sourceName": "contracts/SXBuyStables.sol",
  "abi": [
    {
      "inputs": [
        {
          "internalType": "address",
          "name": "_sxse",
          "type": "address"
        },
        {
          "internalType": "address",
          "name": "_sxua",
          "type": "address"
        },
        {
          "internalType": "address",
          "name": "_sxcpTreasury",
          "type": "address"
        },
        {
          "internalType": "address",
          "name": "_sxmm",
          "type": "address"
        },
        {
          "internalType": "address",
          "name": "_ptfReceiver",
          "type": "address"
        }
      ],
      "stateMutability": "nonpayable",
      "type": "constructor"
    },
    {
      "inputs": [
        {
          "internalType": "address",
          "name": "owner",
          "type": "address"
        }
      ],
      "name": "OwnableInvalidOwner",
      "type": "error"
    },
    {
      "inputs": [
        {
          "internalType": "address",
          "name": "account",
          "type": "address"
        }
      ],
      "name": "OwnableUnauthorizedAccount",
      "type": "error"
    },
    {
      "inputs": [],
      "name": "ReentrancyGuardReentrantCall",
      "type": "error"
    },
    {
      "inputs": [
        {
          "internalType": "address",
          "name": "token",
          "type": "address"
        }
      ],
      "name": "SafeERC20FailedOperation",
      "type": "error"
    },
    {
      "anonymous": false,
      "inputs": [
        {
          "indexed": true,
          "internalType": "address",
          "name": "previousOwner",
          "type": "address"
        },
        {
          "indexed": true,
          "internalType": "address",
          "name": "newOwner",
          "type": "address"
        }
      ],
      "name": "OwnershipTransferred",
      "type": "event"
    },
    {
      "anonymous": false,
      "inputs": [
        {
          "indexed": true,
          "internalType": "address",
          "name": "user",
          "type": "address"
        },
        {
          "indexed": true,
          "internalType": "address",
          "name": "stablecoin",
          "type": "address"
        },
        {
          "indexed": false,
          "internalType": "uint256",
          "name": "ethAmount",
          "type": "uint256"
        },
        {
          "indexed": false,
          "internalType": "uint256",
          "name": "netStables",
          "type": "uint256"
        }
      ],
      "name": "StablecoinsBought",
      "type": "event"
    },
    {
      "inputs": [
        {
          "internalType": "address",
          "name": "stablecoin",
          "type": "address"
        }
      ],
      "name": "buyStables",
      "outputs": [],
      "stateMutability": "payable",
      "type": "function"
    },
    {
      "inputs": [],
      "name": "ethToUsdRate",
      "outputs": [
        {
          "internalType": "uint256",
          "name": "",
          "type": "uint256"
        }
      ],
      "stateMutability": "view",
      "type": "function"
    },
    {
      "inputs": [],
      "name": "owner",
      "outputs": [
        {
          "internalType": "address",
          "name": "",
          "type": "address"
        }
      ],
      "stateMutability": "view",
      "type": "function"
    },
    {
      "inputs": [],
      "name": "ptfReceiver",
      "outputs": [
        {
          "internalType": "address",
          "name": "",
          "type": "address"
        }
      ],
      "stateMutability": "view",
      "type": "function"
    },
    {
      "inputs": [],
      "name": "renounceOwnership",
      "outputs": [],
      "stateMutability": "nonpayable",
      "type": "function"
    },
    {
      "inputs": [
        {
          "internalType": "uint256",
          "name": "_newRate",
          "type": "uint256"
        }
      ],
      "name": "setEthToUsdRate",
      "outputs": [],
      "stateMutability": "nonpayable",
      "type": "function"
    },
    {
      "inputs": [],
      "name": "sxcpTreasury",
      "outputs": [
        {
          "internalType": "address",
          "name": "",
          "type": "address"
        }
      ],
      "stateMutability": "view",
      "type": "function"
    },
    {
      "inputs": [],
      "name": "sxmm",
      "outputs": [
        {
          "internalType": "address",
          "name": "",
          "type": "address"
        }
      ],
      "stateMutability": "view",
      "type": "function"
    },
    {
      "inputs": [],
      "name": "sxse",
      "outputs": [
        {
          "internalType": "contract ISXSE",
          "name": "",
          "type": "address"
        }
      ],
      "stateMutability": "view",
      "type": "function"
    },
    {
      "inputs": [],
      "name": "sxua",
      "outputs": [
        {
          "internalType": "contract ISXUA",
          "name": "",
          "type": "address"
        }
      ],
      "stateMutability": "view",
      "type": "function"
    },
    {
      "inputs": [
        {
          "internalType": "address",
          "name": "newOwner",
          "type": "address"
        }
      ],
      "name": "transferOwnership",
      "outputs": [],
      "stateMutability": "nonpayable",
      "type": "function"
    }
  ],
  "bytecode": "0x608060405268bdbc41e0348b30000060065534801561001d57600080fd5b50604051610e32380380610e3283398101604081905261003c9161015e565b338061006257604051631e4fbdf760e01b81526000600482015260240160405180910390fd5b61006b816100f2565b5060017f9b779b17422d0df92223018b32b4d1fa46e071723d6817e2486d003becc55f0055600180546001600160a01b03199081166001600160a01b039788161790915560028054821695871695909517909455600380548516938616939093179092556004805484169185169190911790556005805490921692169190911790556101c3565b600080546001600160a01b038381166001600160a01b0319831681178455604051919092169283917f8be0079c531659141344cd1fd0a4f28419497f9722a3daafe3b4186f6b6457e09190a35050565b80516001600160a01b038116811461015957600080fd5b919050565b600080600080600060a0868803121561017657600080fd5b61017f86610142565b945061018d60208701610142565b935061019b60408701610142565b92506101a960608701610142565b91506101b760808701610142565b90509295509295909350565b610c60806101d26000396000f3fe60806040526004361061009c5760003560e01c806387d7a24c1161006457806387d7a24c146101485780638da5cb5b1461016c578063b13a02121461018a578063c7ae483e146101aa578063cb3c6fac146101ca578063f2fde38b146101ea57600080fd5b80631e4b41b0146100a15780634ea54110146100b6578063715018a6146100f3578063766523761461010857806385d2e16d14610128575b600080fd5b6100b46100af3660046109fc565b61020a565b005b3480156100c257600080fd5b506001546100d6906001600160a01b031681565b6040516001600160a01b0390911681526020015b60405180910390f35b3480156100ff57600080fd5b506100b461063e565b34801561011457600080fd5b506003546100d6906001600160a01b031681565b34801561013457600080fd5b506002546100d6906001600160a01b031681565b34801561015457600080fd5b5061015e60065481565b6040519081526020016100ea565b34801561017857600080fd5b506000546001600160a01b03166100d6565b34801561019657600080fd5b506100b46101a5366004610a2c565b610652565b3480156101b657600080fd5b506005546100d6906001600160a01b031681565b3480156101d657600080fd5b506004546100d6906001600160a01b031681565b3480156101f657600080fd5b506100b46102053660046109fc565b61065f565b61021261069a565b6001546001600160a01b03161580610291575060015460405163c3c5a54760e01b81523360048201526001600160a01b039091169063c3c5a54790602401602060405180830381865afa15801561026d573d6000803e3d6000fd5b505050506040513d601f19601f820116820180604052508101906102919190610a45565b6102e25760405162461bcd60e51b815260206004820152601960248201527f535853453a2055736572206e6f7420726567697374657265640000000000000060448201526064015b60405180910390fd5b600034116103325760405162461bcd60e51b815260206004820152601b60248201527f5358427579537461626c65733a204d7573742073656e6420455448000000000060448201526064016102d9565b6000816001600160a01b031663313ce5676040518163ffffffff1660e01b8152600401602060405180830381865afa158015610372573d6000803e3d6000fd5b505050506040513d601f19601f820116820180604052508101906103969190610a67565b90506000670de0b6b3a7640000600654346103b19190610aa0565b6103bb9190610abd565b905080601260ff841610156103f1576103d5836012610adf565b6103e090600a610bdc565b6103ea9083610abd565b9050610420565b60128360ff16111561042057610408601284610adf565b61041390600a610bdc565b61041d9083610aa0565b90505b6000606461042f83600c610aa0565b6104399190610abd565b905060006104478284610beb565b905060006064610458836005610aa0565b6104629190610abd565b905060006104708284610beb565b905060006064610481836001610aa0565b61048b9190610abd565b905060006104998284610beb565b6004546040519192506001600160a01b0316903480156108fc02916000818181858888f193505050501580156104d3573d6000803e3d6000fd5b506004546104ef906001600160a01b038c81169116308a6106c8565b600354610509906001600160a01b038c8116911688610704565b600554610523906001600160a01b038c8116911684610704565b60045461053d906001600160a01b038c8116911686610704565b600254610557906001600160a01b038c811691168361073e565b60025460405163b3db428b60e01b81523360048201526001600160a01b038c81166024830152604482018490529091169063b3db428b90606401600060405180830381600087803b1580156105ab57600080fd5b505af11580156105bf573d6000803e3d6000fd5b505060408051348152602081018590526001600160a01b038e1693503392507fa4cc8ee53157ce97d375cc41e00b691f5c7452d6f0343ec1ef6ca9855df6eccd910160405180910390a350505050505050505061063b60017f9b779b17422d0df92223018b32b4d1fa46e071723d6817e2486d003becc55f0055565b50565b6106466107c8565b61065060006107f5565b565b61065a6107c8565b600655565b6106676107c8565b6001600160a01b03811661069157604051631e4fbdf760e01b8152600060048201526024016102d9565b61063b816107f5565b6106a2610845565b60027f9b779b17422d0df92223018b32b4d1fa46e071723d6817e2486d003becc55f0055565b6106d6848484846001610887565b6106fe57604051635274afe760e01b81526001600160a01b03851660048201526024016102d9565b50505050565b61071183838360016108f9565b61073957604051635274afe760e01b81526001600160a01b03841660048201526024016102d9565b505050565b604051636eb1769f60e11b81523060048201526001600160a01b0383811660248301526000919085169063dd62ed3e90604401602060405180830381865afa15801561078e573d6000803e3d6000fd5b505050506040513d601f19601f820116820180604052508101906107b29190610bfe565b90506106fe84846107c38585610c17565b61095f565b6000546001600160a01b031633146106505760405163118cdaa760e01b81523360048201526024016102d9565b600080546001600160a01b038381166001600160a01b0319831681178455604051919092169283917f8be0079c531659141344cd1fd0a4f28419497f9722a3daafe3b4186f6b6457e09190a35050565b7f9b779b17422d0df92223018b32b4d1fa46e071723d6817e2486d003becc55f005460020361065057604051633ee5aeb560e01b815260040160405180910390fd5b6040516323b872dd60e01b60008181526001600160a01b038781166004528616602452604485905291602083606481808c5af1925060016000511483166108e75783831516156108da573d6000823e3d81fd5b6000883b113d1516831692505b60405250600060605295945050505050565b60405163a9059cbb60e01b60008181526001600160a01b038616600452602485905291602083604481808b5af192506001600051148316610953578383151615610946573d6000823e3d81fd5b6000873b113d1516831692505b60405250949350505050565b61096c83838360006109af565b6107395761097e8383600060016109af565b6109a657604051635274afe760e01b81526001600160a01b03841660048201526024016102d9565b61071183838360015b60405163095ea7b360e01b60008181526001600160a01b038616600452602485905291602083604481808b5af192506001600051148316610953578383151615610946573d6000823e3d81fd5b600060208284031215610a0e57600080fd5b81356001600160a01b0381168114610a2557600080fd5b9392505050565b600060208284031215610a3e57600080fd5b5035919050565b600060208284031215610a5757600080fd5b81518015158114610a2557600080fd5b600060208284031215610a7957600080fd5b815160ff81168114610a2557600080fd5b634e487b7160e01b600052601160045260246000fd5b8082028115828204841417610ab757610ab7610a8a565b92915050565b600082610ada57634e487b7160e01b600052601260045260246000fd5b500490565b60ff8281168282160390811115610ab757610ab7610a8a565b600181815b80851115610b33578160001904821115610b1957610b19610a8a565b80851615610b2657918102915b93841c9390800290610afd565b509250929050565b600082610b4a57506001610ab7565b81610b5757506000610ab7565b8160018114610b6d5760028114610b7757610b93565b6001915050610ab7565b60ff841115610b8857610b88610a8a565b50506001821b610ab7565b5060208310610133831016604e8410600b8410161715610bb6575081810a610ab7565b610bc08383610af8565b8060001904821115610bd457610bd4610a8a565b029392505050565b6000610a2560ff841683610b3b565b81810381811115610ab757610ab7610a8a565b600060208284031215610c1057600080fd5b5051919050565b80820180821115610ab757610ab7610a8a56fea264697066735822122044acdaf89b793c84172a155e9e482169bfe6bba70af17773b06d07e781f1678c64736f6c63430008180033",
  "linkReferences": {},
  "deployedLinkReferences": {}
}