{
  "_format": "hh-sol-artifact-1",
  "contractName": "SXBuyStables",
  "sourceName": "contracts/SXBuyStables.sol",
  "abi": [
    {
      "inputs": [
        {
          "internalType": "address",
          "name": "_sxse",
          "type": "address"
        },
        {
          "internalType": "address",
          "name": "_sxua",
          "type": "address"
        },
        {
          "internalType": "address",
          "name": "_sxcpTreasury",
          "type": "address"
        },
        {
          "internalType": "address",
          "name": "_sxmm",
          "type": "address"
        },
        {
          "internalType": "address",
          "name": "_ptfReceiver",
          "type": "address"
        }
      ],
      "stateMutability": "nonpayable",
      "type": "constructor"
    },
    {
      "inputs": [
        {
          "internalType": "address",
          "name": "owner",
          "type": "address"
        }
      ],
      "name": "OwnableInvalidOwner",
      "type": "error"
    },
    {
      "inputs": [
        {
          "internalType": "address",
          "name": "account",
          "type": "address"
        }
      ],
      "name": "OwnableUnauthorizedAccount",
      "type": "error"
    },
    {
      "inputs": [],
      "name": "ReentrancyGuardReentrantCall",
      "type": "error"
    },
    {
      "inputs": [
        {
          "internalType": "address",
          "name": "token",
          "type": "address"
        }
      ],
      "name": "SafeERC20FailedOperation",
      "type": "error"
    },
    {
      "anonymous": false,
      "inputs": [
        {
          "indexed": true,
          "internalType": "address",
          "name": "previousOwner",
          "type": "address"
        },
        {
          "indexed": true,
          "internalType": "address",
          "name": "newOwner",
          "type": "address"
        }
      ],
      "name": "OwnershipTransferred",
      "type": "event"
    },
    {
      "anonymous": false,
      "inputs": [
        {
          "indexed": true,
          "internalType": "address",
          "name": "user",
          "type": "address"
        },
        {
          "indexed": true,
          "internalType": "address",
          "name": "stablecoin",
          "type": "address"
        },
        {
          "indexed": false,
          "internalType": "uint256",
          "name": "ethAmount",
          "type": "uint256"
        },
        {
          "indexed": false,
          "internalType": "uint256",
          "name": "netStables",
          "type": "uint256"
        }
      ],
      "name": "StablecoinsBought",
      "type": "event"
    },
    {
      "inputs": [
        {
          "internalType": "address",
          "name": "stablecoin",
          "type": "address"
        }
      ],
      "name": "buyStables",
      "outputs": [],
      "stateMutability": "payable",
      "type": "function"
    },
    {
      "inputs": [],
      "name": "ethToUsdRate",
      "outputs": [
        {
          "internalType": "uint256",
          "name": "",
          "type": "uint256"
        }
      ],
      "stateMutability": "view",
      "type": "function"
    },
    {
      "inputs": [],
      "name": "owner",
      "outputs": [
        {
          "internalType": "address",
          "name": "",
          "type": "address"
        }
      ],
      "stateMutability": "view",
      "type": "function"
    },
    {
      "inputs": [],
      "name": "ptfReceiver",
      "outputs": [
        {
          "internalType": "address",
          "name": "",
          "type": "address"
        }
      ],
      "stateMutability": "view",
      "type": "function"
    },
    {
      "inputs": [],
      "name": "renounceOwnership",
      "outputs": [],
      "stateMutability": "nonpayable",
      "type": "function"
    },
    {
      "inputs": [
        {
          "internalType": "uint256",
          "name": "_newRate",
          "type": "uint256"
        }
      ],
      "name": "setEthToUsdRate",
      "outputs": [],
      "stateMutability": "nonpayable",
      "type": "function"
    },
    {
      "inputs": [
        {
          "internalType": "address",
          "name": "_ptfReceiver",
          "type": "address"
        }
      ],
      "name": "setPtfReceiver",
      "outputs": [],
      "stateMutability": "nonpayable",
      "type": "function"
    },
    {
      "inputs": [
        {
          "internalType": "address",
          "name": "_sxmm",
          "type": "address"
        }
      ],
      "name": "setSXMM",
      "outputs": [],
      "stateMutability": "nonpayable",
      "type": "function"
    },
    {
      "inputs": [
        {
          "internalType": "address",
          "name": "_sxse",
          "type": "address"
        }
      ],
      "name": "setSXSE",
      "outputs": [],
      "stateMutability": "nonpayable",
      "type": "function"
    },
    {
      "inputs": [
        {
          "internalType": "address",
          "name": "_sxua",
          "type": "address"
        }
      ],
      "name": "setSXUA",
      "outputs": [],
      "stateMutability": "nonpayable",
      "type": "function"
    },
    {
      "inputs": [
        {
          "internalType": "address",
          "name": "_sxcpTreasury",
          "type": "address"
        }
      ],
      "name": "setSxcpTreasury",
      "outputs": [],
      "stateMutability": "nonpayable",
      "type": "function"
    },
    {
      "inputs": [],
      "name": "sxcpTreasury",
      "outputs": [
        {
          "internalType": "address",
          "name": "",
          "type": "address"
        }
      ],
      "stateMutability": "view",
      "type": "function"
    },
    {
      "inputs": [],
      "name": "sxmm",
      "outputs": [
        {
          "internalType": "address",
          "name": "",
          "type": "address"
        }
      ],
      "stateMutability": "view",
      "type": "function"
    },
    {
      "inputs": [],
      "name": "sxse",
      "outputs": [
        {
          "internalType": "contract ISXSE",
          "name": "",
          "type": "address"
        }
      ],
      "stateMutability": "view",
      "type": "function"
    },
    {
      "inputs": [],
      "name": "sxua",
      "outputs": [
        {
          "internalType": "contract ISXUA",
          "name": "",
          "type": "address"
        }
      ],
      "stateMutability": "view",
      "type": "function"
    },
    {
      "inputs": [
        {
          "internalType": "address",
          "name": "newOwner",
          "type": "address"
        }
      ],
      "name": "transferOwnership",
      "outputs": [],
      "stateMutability": "nonpayable",
      "type": "function"
    }
  ],
  "bytecode": "0x608060405268bdbc41e0348b3000006006553480156200001e57600080fd5b506040516200108e3803806200108e833981016040819052620000419162000168565b33806200006857604051631e4fbdf760e01b81526000600482015260240160405180910390fd5b6200007381620000fb565b5060017f9b779b17422d0df92223018b32b4d1fa46e071723d6817e2486d003becc55f0055600180546001600160a01b03199081166001600160a01b03978816179091556002805482169587169590951790945560038054851693861693909317909255600480548416918516919091179055600580549092169216919091179055620001d8565b600080546001600160a01b038381166001600160a01b0319831681178455604051919092169283917f8be0079c531659141344cd1fd0a4f28419497f9722a3daafe3b4186f6b6457e09190a35050565b80516001600160a01b03811681146200016357600080fd5b919050565b600080600080600060a086880312156200018157600080fd5b6200018c866200014b565b94506200019c602087016200014b565b9350620001ac604087016200014b565b9250620001bc606087016200014b565b9150620001cc608087016200014b565b90509295509295909350565b610ea680620001e86000396000f3fe6080604052600436106100f35760003560e01c806385d2e16d1161008a578063c7ae483e11610059578063c7ae483e14610281578063cb3c6fac146102a1578063f06ae65c146102c1578063f2fde38b146102e157600080fd5b806385d2e16d146101ff57806387d7a24c1461021f5780638da5cb5b14610243578063b13a02121461026157600080fd5b80634ea54110116100c65780634ea541101461016d578063715018a6146101aa57806376652376146101bf57806385cc02b6146101df57600080fd5b80630656d591146100f85780631e4b41b01461011a5780632c2028e41461012d57806346beebef1461014d575b600080fd5b34801561010457600080fd5b50610118610113366004610c42565b610301565b005b610118610128366004610c42565b61032b565b34801561013957600080fd5b50610118610148366004610c42565b6107dc565b34801561015957600080fd5b50610118610168366004610c42565b610806565b34801561017957600080fd5b5060015461018d906001600160a01b031681565b6040516001600160a01b0390911681526020015b60405180910390f35b3480156101b657600080fd5b50610118610830565b3480156101cb57600080fd5b5060035461018d906001600160a01b031681565b3480156101eb57600080fd5b506101186101fa366004610c42565b610844565b34801561020b57600080fd5b5060025461018d906001600160a01b031681565b34801561022b57600080fd5b5061023560065481565b6040519081526020016101a1565b34801561024f57600080fd5b506000546001600160a01b031661018d565b34801561026d57600080fd5b5061011861027c366004610c72565b61086e565b34801561028d57600080fd5b5060055461018d906001600160a01b031681565b3480156102ad57600080fd5b5060045461018d906001600160a01b031681565b3480156102cd57600080fd5b506101186102dc366004610c42565b61087b565b3480156102ed57600080fd5b506101186102fc366004610c42565b6108a5565b6103096108e0565b600480546001600160a01b0319166001600160a01b0392909216919091179055565b61033361090d565b6001546001600160a01b031615806103b2575060015460405163c3c5a54760e01b81523360048201526001600160a01b039091169063c3c5a54790602401602060405180830381865afa15801561038e573d6000803e3d6000fd5b505050506040513d601f19601f820116820180604052508101906103b29190610c8b565b6104035760405162461bcd60e51b815260206004820152601960248201527f535853453a2055736572206e6f7420726567697374657265640000000000000060448201526064015b60405180910390fd5b600034116104535760405162461bcd60e51b815260206004820152601b60248201527f5358427579537461626c65733a204d7573742073656e6420455448000000000060448201526064016103fa565b6000816001600160a01b031663313ce5676040518163ffffffff1660e01b8152600401602060405180830381865afa9250505080156104af575060408051601f3d908101601f191682019092526104ac91810190610cad565b60015b6104bb575060126104be565b90505b6000670de0b6b3a7640000600654346104d79190610ce6565b6104e19190610d03565b905080601260ff84161015610517576104fb836012610d25565b61050690600a610e22565b6105109083610d03565b9050610546565b60128360ff1611156105465761052e601284610d25565b61053990600a610e22565b6105439083610ce6565b90505b6000606461055583600c610ce6565b61055f9190610d03565b9050600061056d8284610e31565b90506000606461057e836005610ce6565b6105889190610d03565b905060006105968284610e31565b9050600060646105a7836001610ce6565b6105b19190610d03565b905060006105bf8284610e31565b6004546040519192506001600160a01b0316903480156108fc02916000818181858888f193505050501580156105f9573d6000803e3d6000fd5b50600454610615906001600160a01b038c81169116308a61093b565b60035461062f906001600160a01b038c8116911688610977565b600554610649906001600160a01b038c8116911684610977565b600454610663906001600160a01b038c8116911686610977565b60025461067d906001600160a01b038c81169116836109b1565b60025460405163b3db428b60e01b81523360048201526001600160a01b038c81166024830152604482018490529091169063b3db428b90606401600060405180830381600087803b1580156106d157600080fd5b505af11580156106e5573d6000803e3d6000fd5b505060025460405163095ea7b360e01b81526001600160a01b03918216600482015260006024820152908d16925063095ea7b391506044016020604051808303816000875af115801561073c573d6000803e3d6000fd5b505050506040513d601f19601f820116820180604052508101906107609190610c8b565b5060408051348152602081018390526001600160a01b038c169133917fa4cc8ee53157ce97d375cc41e00b691f5c7452d6f0343ec1ef6ca9855df6eccd910160405180910390a35050505050505050506107d960017f9b779b17422d0df92223018b32b4d1fa46e071723d6817e2486d003becc55f0055565b50565b6107e46108e0565b600380546001600160a01b0319166001600160a01b0392909216919091179055565b61080e6108e0565b600280546001600160a01b0319166001600160a01b0392909216919091179055565b6108386108e0565b6108426000610a3b565b565b61084c6108e0565b600580546001600160a01b0319166001600160a01b0392909216919091179055565b6108766108e0565b600655565b6108836108e0565b600180546001600160a01b0319166001600160a01b0392909216919091179055565b6108ad6108e0565b6001600160a01b0381166108d757604051631e4fbdf760e01b8152600060048201526024016103fa565b6107d981610a3b565b6000546001600160a01b031633146108425760405163118cdaa760e01b81523360048201526024016103fa565b610915610a8b565b60027f9b779b17422d0df92223018b32b4d1fa46e071723d6817e2486d003becc55f0055565b610949848484846001610acd565b61097157604051635274afe760e01b81526001600160a01b03851660048201526024016103fa565b50505050565b6109848383836001610b3f565b6109ac57604051635274afe760e01b81526001600160a01b03841660048201526024016103fa565b505050565b604051636eb1769f60e11b81523060048201526001600160a01b0383811660248301526000919085169063dd62ed3e90604401602060405180830381865afa158015610a01573d6000803e3d6000fd5b505050506040513d601f19601f82011682018060405250810190610a259190610e44565b90506109718484610a368585610e5d565b610ba5565b600080546001600160a01b038381166001600160a01b0319831681178455604051919092169283917f8be0079c531659141344cd1fd0a4f28419497f9722a3daafe3b4186f6b6457e09190a35050565b7f9b779b17422d0df92223018b32b4d1fa46e071723d6817e2486d003becc55f005460020361084257604051633ee5aeb560e01b815260040160405180910390fd5b6040516323b872dd60e01b60008181526001600160a01b038781166004528616602452604485905291602083606481808c5af192506001600051148316610b2d578383151615610b20573d6000823e3d81fd5b6000883b113d1516831692505b60405250600060605295945050505050565b60405163a9059cbb60e01b60008181526001600160a01b038616600452602485905291602083604481808b5af192506001600051148316610b99578383151615610b8c573d6000823e3d81fd5b6000873b113d1516831692505b60405250949350505050565b610bb28383836000610bf5565b6109ac57610bc4838360006001610bf5565b610bec57604051635274afe760e01b81526001600160a01b03841660048201526024016103fa565b61098483838360015b60405163095ea7b360e01b60008181526001600160a01b038616600452602485905291602083604481808b5af192506001600051148316610b99578383151615610b8c573d6000823e3d81fd5b600060208284031215610c5457600080fd5b81356001600160a01b0381168114610c6b57600080fd5b9392505050565b600060208284031215610c8457600080fd5b5035919050565b600060208284031215610c9d57600080fd5b81518015158114610c6b57600080fd5b600060208284031215610cbf57600080fd5b815160ff81168114610c6b57600080fd5b634e487b7160e01b600052601160045260246000fd5b8082028115828204841417610cfd57610cfd610cd0565b92915050565b600082610d2057634e487b7160e01b600052601260045260246000fd5b500490565b60ff8281168282160390811115610cfd57610cfd610cd0565b600181815b80851115610d79578160001904821115610d5f57610d5f610cd0565b80851615610d6c57918102915b93841c9390800290610d43565b509250929050565b600082610d9057506001610cfd565b81610d9d57506000610cfd565b8160018114610db35760028114610dbd57610dd9565b6001915050610cfd565b60ff841115610dce57610dce610cd0565b50506001821b610cfd565b5060208310610133831016604e8410600b8410161715610dfc575081810a610cfd565b610e068383610d3e565b8060001904821115610e1a57610e1a610cd0565b029392505050565b6000610c6b60ff841683610d81565b81810381811115610cfd57610cfd610cd0565b600060208284031215610e5657600080fd5b5051919050565b80820180821115610cfd57610cfd610cd056fea2646970667358221220c5d202ed056f69fcd7e4b75ed445f6bea33579ac1cad7c05000b8c18774e9e5864736f6c63430008180033",
  "linkReferences": {},
  "deployedLinkReferences": {}
}