{
  "_format": "hh-sol-artifact-1",
  "contractName": "SXUA",
  "sourceName": "contracts/SXUA.sol",
  "abi": [
    {
      "inputs": [],
      "stateMutability": "nonpayable",
      "type": "constructor"
    },
    {
      "inputs": [
        {
          "internalType": "address",
          "name": "target",
          "type": "address"
        }
      ],
      "name": "AddressEmptyCode",
      "type": "error"
    },
    {
      "inputs": [
        {
          "internalType": "address",
          "name": "implementation",
          "type": "address"
        }
      ],
      "name": "ERC1967InvalidImplementation",
      "type": "error"
    },
    {
      "inputs": [],
      "name": "ERC1967NonPayable",
      "type": "error"
    },
    {
      "inputs": [],
      "name": "EnforcedPause",
      "type": "error"
    },
    {
      "inputs": [],
      "name": "ExpectedPause",
      "type": "error"
    },
    {
      "inputs": [],
      "name": "FailedCall",
      "type": "error"
    },
    {
      "inputs": [],
      "name": "InvalidInitialization",
      "type": "error"
    },
    {
      "inputs": [],
      "name": "NotInitializing",
      "type": "error"
    },
    {
      "inputs": [
        {
          "internalType": "address",
          "name": "owner",
          "type": "address"
        }
      ],
      "name": "OwnableInvalidOwner",
      "type": "error"
    },
    {
      "inputs": [
        {
          "internalType": "address",
          "name": "account",
          "type": "address"
        }
      ],
      "name": "OwnableUnauthorizedAccount",
      "type": "error"
    },
    {
      "inputs": [],
      "name": "ReentrancyGuardReentrantCall",
      "type": "error"
    },
    {
      "inputs": [
        {
          "internalType": "address",
          "name": "token",
          "type": "address"
        }
      ],
      "name": "SafeERC20FailedOperation",
      "type": "error"
    },
    {
      "inputs": [],
      "name": "UUPSUnauthorizedCallContext",
      "type": "error"
    },
    {
      "inputs": [
        {
          "internalType": "bytes32",
          "name": "slot",
          "type": "bytes32"
        }
      ],
      "name": "UUPSUnsupportedProxiableUUID",
      "type": "error"
    },
    {
      "anonymous": false,
      "inputs": [
        {
          "indexed": true,
          "internalType": "address",
          "name": "user",
          "type": "address"
        },
        {
          "indexed": true,
          "internalType": "address",
          "name": "token",
          "type": "address"
        },
        {
          "indexed": false,
          "internalType": "uint256",
          "name": "amount",
          "type": "uint256"
        }
      ],
      "name": "Committed",
      "type": "event"
    },
    {
      "anonymous": false,
      "inputs": [
        {
          "indexed": false,
          "internalType": "uint256",
          "name": "penaltyPercent",
          "type": "uint256"
        },
        {
          "indexed": false,
          "internalType": "uint256",
          "name": "lockPeriod",
          "type": "uint256"
        }
      ],
      "name": "ConfigUpdated",
      "type": "event"
    },
    {
      "anonymous": false,
      "inputs": [
        {
          "indexed": true,
          "internalType": "address",
          "name": "user",
          "type": "address"
        },
        {
          "indexed": true,
          "internalType": "address",
          "name": "token",
          "type": "address"
        },
        {
          "indexed": false,
          "internalType": "uint256",
          "name": "amount",
          "type": "uint256"
        }
      ],
      "name": "DailyYieldAccrued",
      "type": "event"
    },
    {
      "anonymous": false,
      "inputs": [
        {
          "indexed": true,
          "internalType": "address",
          "name": "user",
          "type": "address"
        },
        {
          "indexed": true,
          "internalType": "address",
          "name": "token",
          "type": "address"
        },
        {
          "indexed": false,
          "internalType": "uint256",
          "name": "amount",
          "type": "uint256"
        }
      ],
      "name": "DailyYieldClaimed",
      "type": "event"
    },
    {
      "anonymous": false,
      "inputs": [
        {
          "indexed": true,
          "internalType": "address",
          "name": "user",
          "type": "address"
        },
        {
          "indexed": true,
          "internalType": "address",
          "name": "token",
          "type": "address"
        },
        {
          "indexed": false,
          "internalType": "uint256",
          "name": "amount",
          "type": "uint256"
        }
      ],
      "name": "Deposited",
      "type": "event"
    },
    {
      "anonymous": false,
      "inputs": [
        {
          "indexed": false,
          "internalType": "bool",
          "name": "active",
          "type": "bool"
        }
      ],
      "name": "EmergencyShutdownToggled",
      "type": "event"
    },
    {
      "anonymous": false,
      "inputs": [
        {
          "indexed": true,
          "internalType": "address",
          "name": "user",
          "type": "address"
        },
        {
          "indexed": true,
          "internalType": "address",
          "name": "token",
          "type": "address"
        },
        {
          "indexed": false,
          "internalType": "uint256",
          "name": "amount",
          "type": "uint256"
        }
      ],
      "name": "EmergencyWithdrawn",
      "type": "event"
    },
    {
      "anonymous": false,
      "inputs": [
        {
          "indexed": false,
          "internalType": "uint64",
          "name": "version",
          "type": "uint64"
        }
      ],
      "name": "Initialized",
      "type": "event"
    },
    {
      "anonymous": false,
      "inputs": [
        {
          "indexed": true,
          "internalType": "address",
          "name": "previousOwner",
          "type": "address"
        },
        {
          "indexed": true,
          "internalType": "address",
          "name": "newOwner",
          "type": "address"
        }
      ],
      "name": "OwnershipTransferred",
      "type": "event"
    },
    {
      "anonymous": false,
      "inputs": [
        {
          "indexed": false,
          "internalType": "address",
          "name": "account",
          "type": "address"
        }
      ],
      "name": "Paused",
      "type": "event"
    },
    {
      "anonymous": false,
      "inputs": [
        {
          "indexed": true,
          "internalType": "address",
          "name": "user",
          "type": "address"
        },
        {
          "indexed": true,
          "internalType": "address",
          "name": "token",
          "type": "address"
        },
        {
          "indexed": false,
          "internalType": "uint256",
          "name": "amount",
          "type": "uint256"
        }
      ],
      "name": "SxpRewardClaimed",
      "type": "event"
    },
    {
      "anonymous": false,
      "inputs": [
        {
          "indexed": true,
          "internalType": "address",
          "name": "token",
          "type": "address"
        },
        {
          "indexed": false,
          "internalType": "bool",
          "name": "supported",
          "type": "bool"
        }
      ],
      "name": "TokenSupported",
      "type": "event"
    },
    {
      "anonymous": false,
      "inputs": [
        {
          "indexed": true,
          "internalType": "address",
          "name": "user",
          "type": "address"
        },
        {
          "indexed": true,
          "internalType": "address",
          "name": "token",
          "type": "address"
        },
        {
          "indexed": false,
          "internalType": "uint256",
          "name": "amount",
          "type": "uint256"
        },
        {
          "indexed": false,
          "internalType": "uint256",
          "name": "penalty",
          "type": "uint256"
        }
      ],
      "name": "Uncommitted",
      "type": "event"
    },
    {
      "anonymous": false,
      "inputs": [
        {
          "indexed": false,
          "internalType": "address",
          "name": "account",
          "type": "address"
        }
      ],
      "name": "Unpaused",
      "type": "event"
    },
    {
      "anonymous": false,
      "inputs": [
        {
          "indexed": true,
          "internalType": "address",
          "name": "implementation",
          "type": "address"
        }
      ],
      "name": "Upgraded",
      "type": "event"
    },
    {
      "anonymous": false,
      "inputs": [
        {
          "indexed": true,
          "internalType": "address",
          "name": "user",
          "type": "address"
        },
        {
          "indexed": true,
          "internalType": "address",
          "name": "token",
          "type": "address"
        },
        {
          "indexed": false,
          "internalType": "uint256",
          "name": "amount",
          "type": "uint256"
        }
      ],
      "name": "Withdrawn",
      "type": "event"
    },
    {
      "inputs": [],
      "name": "UPGRADE_INTERFACE_VERSION",
      "outputs": [
        {
          "internalType": "string",
          "name": "",
          "type": "string"
        }
      ],
      "stateMutability": "view",
      "type": "function"
    },
    {
      "inputs": [
        {
          "internalType": "address",
          "name": "user",
          "type": "address"
        },
        {
          "internalType": "address",
          "name": "token",
          "type": "address"
        }
      ],
      "name": "accrueDailyYield",
      "outputs": [],
      "stateMutability": "nonpayable",
      "type": "function"
    },
    {
      "inputs": [
        {
          "internalType": "address",
          "name": "",
          "type": "address"
        },
        {
          "internalType": "address",
          "name": "",
          "type": "address"
        }
      ],
      "name": "accruedRewards",
      "outputs": [
        {
          "internalType": "uint256",
          "name": "",
          "type": "uint256"
        }
      ],
      "stateMutability": "view",
      "type": "function"
    },
    {
      "inputs": [
        {
          "internalType": "address",
          "name": "token",
          "type": "address"
        }
      ],
      "name": "claimDailyYield",
      "outputs": [],
      "stateMutability": "nonpayable",
      "type": "function"
    },
    {
      "inputs": [
        {
          "internalType": "address",
          "name": "token",
          "type": "address"
        }
      ],
      "name": "claimSxpReward",
      "outputs": [],
      "stateMutability": "nonpayable",
      "type": "function"
    },
    {
      "inputs": [
        {
          "internalType": "address",
          "name": "token",
          "type": "address"
        },
        {
          "internalType": "uint256",
          "name": "amount",
          "type": "uint256"
        }
      ],
      "name": "commit",
      "outputs": [],
      "stateMutability": "nonpayable",
      "type": "function"
    },
    {
      "inputs": [
        {
          "internalType": "address",
          "name": "",
          "type": "address"
        },
        {
          "internalType": "address",
          "name": "",
          "type": "address"
        }
      ],
      "name": "commitTimestamps",
      "outputs": [
        {
          "internalType": "uint256",
          "name": "",
          "type": "uint256"
        }
      ],
      "stateMutability": "view",
      "type": "function"
    },
    {
      "inputs": [
        {
          "internalType": "address",
          "name": "",
          "type": "address"
        },
        {
          "internalType": "address",
          "name": "",
          "type": "address"
        }
      ],
      "name": "committedBalances",
      "outputs": [
        {
          "internalType": "uint256",
          "name": "",
          "type": "uint256"
        }
      ],
      "stateMutability": "view",
      "type": "function"
    },
    {
      "inputs": [
        {
          "internalType": "address",
          "name": "token",
          "type": "address"
        },
        {
          "internalType": "uint256",
          "name": "amount",
          "type": "uint256"
        }
      ],
      "name": "deposit",
      "outputs": [],
      "stateMutability": "nonpayable",
      "type": "function"
    },
    {
      "inputs": [
        {
          "internalType": "address",
          "name": "user",
          "type": "address"
        },
        {
          "internalType": "address",
          "name": "token",
          "type": "address"
        },
        {
          "internalType": "uint256",
          "name": "amount",
          "type": "uint256"
        }
      ],
      "name": "depositFor",
      "outputs": [],
      "stateMutability": "nonpayable",
      "type": "function"
    },
    {
      "inputs": [],
      "name": "emergencyShutdownActive",
      "outputs": [
        {
          "internalType": "bool",
          "name": "",
          "type": "bool"
        }
      ],
      "stateMutability": "view",
      "type": "function"
    },
    {
      "inputs": [
        {
          "internalType": "address",
          "name": "token",
          "type": "address"
        }
      ],
      "name": "emergencyWithdraw",
      "outputs": [],
      "stateMutability": "nonpayable",
      "type": "function"
    },
    {
      "inputs": [
        {
          "internalType": "address",
          "name": "token",
          "type": "address"
        },
        {
          "internalType": "uint256",
          "name": "amount",
          "type": "uint256"
        }
      ],
      "name": "getAmountIn18Decimals",
      "outputs": [
        {
          "internalType": "uint256",
          "name": "",
          "type": "uint256"
        }
      ],
      "stateMutability": "view",
      "type": "function"
    },
    {
      "inputs": [
        {
          "internalType": "address",
          "name": "_sxpToken",
          "type": "address"
        },
        {
          "internalType": "address",
          "name": "_treasury",
          "type": "address"
        },
        {
          "internalType": "uint256",
          "name": "_penaltyPercent",
          "type": "uint256"
        },
        {
          "internalType": "uint256",
          "name": "_lockPeriod",
          "type": "uint256"
        },
        {
          "internalType": "address",
          "name": "_ptfReceiver",
          "type": "address"
        }
      ],
      "name": "initialize",
      "outputs": [],
      "stateMutability": "nonpayable",
      "type": "function"
    },
    {
      "inputs": [
        {
          "internalType": "address",
          "name": "",
          "type": "address"
        },
        {
          "internalType": "address",
          "name": "",
          "type": "address"
        }
      ],
      "name": "lastRewardTimestamp",
      "outputs": [
        {
          "internalType": "uint256",
          "name": "",
          "type": "uint256"
        }
      ],
      "stateMutability": "view",
      "type": "function"
    },
    {
      "inputs": [],
      "name": "lockPeriod",
      "outputs": [
        {
          "internalType": "uint256",
          "name": "",
          "type": "uint256"
        }
      ],
      "stateMutability": "view",
      "type": "function"
    },
    {
      "inputs": [],
      "name": "owner",
      "outputs": [
        {
          "internalType": "address",
          "name": "",
          "type": "address"
        }
      ],
      "stateMutability": "view",
      "type": "function"
    },
    {
      "inputs": [],
      "name": "paused",
      "outputs": [
        {
          "internalType": "bool",
          "name": "",
          "type": "bool"
        }
      ],
      "stateMutability": "view",
      "type": "function"
    },
    {
      "inputs": [
        {
          "internalType": "address",
          "name": "user",
          "type": "address"
        },
        {
          "internalType": "address",
          "name": "token",
          "type": "address"
        },
        {
          "internalType": "uint256",
          "name": "amount",
          "type": "uint256"
        }
      ],
      "name": "payForLaunchpad",
      "outputs": [],
      "stateMutability": "nonpayable",
      "type": "function"
    },
    {
      "inputs": [],
      "name": "penaltyPercent",
      "outputs": [
        {
          "internalType": "uint256",
          "name": "",
          "type": "uint256"
        }
      ],
      "stateMutability": "view",
      "type": "function"
    },
    {
      "inputs": [
        {
          "internalType": "address",
          "name": "token",
          "type": "address"
        },
        {
          "internalType": "address",
          "name": "user",
          "type": "address"
        }
      ],
      "name": "pendingSxpReward",
      "outputs": [
        {
          "internalType": "uint256",
          "name": "",
          "type": "uint256"
        }
      ],
      "stateMutability": "view",
      "type": "function"
    },
    {
      "inputs": [
        {
          "internalType": "address",
          "name": "",
          "type": "address"
        }
      ],
      "name": "poolInfo",
      "outputs": [
        {
          "internalType": "uint256",
          "name": "totalCommitted",
          "type": "uint256"
        },
        {
          "internalType": "uint256",
          "name": "accSxpPerShare",
          "type": "uint256"
        },
        {
          "internalType": "uint256",
          "name": "lastRewardTimestamp",
          "type": "uint256"
        }
      ],
      "stateMutability": "view",
      "type": "function"
    },
    {
      "inputs": [],
      "name": "proxiableUUID",
      "outputs": [
        {
          "internalType": "bytes32",
          "name": "",
          "type": "bytes32"
        }
      ],
      "stateMutability": "view",
      "type": "function"
    },
    {
      "inputs": [],
      "name": "ptfReceiver",
      "outputs": [
        {
          "internalType": "address",
          "name": "",
          "type": "address"
        }
      ],
      "stateMutability": "view",
      "type": "function"
    },
    {
      "inputs": [
        {
          "internalType": "address",
          "name": "user",
          "type": "address"
        },
        {
          "internalType": "address",
          "name": "token",
          "type": "address"
        },
        {
          "internalType": "uint256",
          "name": "amount",
          "type": "uint256"
        }
      ],
      "name": "refundToUser",
      "outputs": [],
      "stateMutability": "nonpayable",
      "type": "function"
    },
    {
      "inputs": [],
      "name": "renounceOwnership",
      "outputs": [],
      "stateMutability": "nonpayable",
      "type": "function"
    },
    {
      "inputs": [
        {
          "internalType": "address",
          "name": "",
          "type": "address"
        },
        {
          "internalType": "address",
          "name": "",
          "type": "address"
        }
      ],
      "name": "rewardDebt",
      "outputs": [
        {
          "internalType": "uint256",
          "name": "",
          "type": "uint256"
        }
      ],
      "stateMutability": "view",
      "type": "function"
    },
    {
      "inputs": [
        {
          "internalType": "bool",
          "name": "active",
          "type": "bool"
        }
      ],
      "name": "setEmergencyShutdown",
      "outputs": [],
      "stateMutability": "nonpayable",
      "type": "function"
    },
    {
      "inputs": [
        {
          "internalType": "address",
          "name": "token",
          "type": "address"
        },
        {
          "internalType": "bool",
          "name": "supported",
          "type": "bool"
        }
      ],
      "name": "setTokenSupport",
      "outputs": [],
      "stateMutability": "nonpayable",
      "type": "function"
    },
    {
      "inputs": [
        {
          "internalType": "uint256",
          "name": "",
          "type": "uint256"
        }
      ],
      "name": "supportedTokenList",
      "outputs": [
        {
          "internalType": "address",
          "name": "",
          "type": "address"
        }
      ],
      "stateMutability": "view",
      "type": "function"
    },
    {
      "inputs": [
        {
          "internalType": "address",
          "name": "",
          "type": "address"
        }
      ],
      "name": "supportedTokens",
      "outputs": [
        {
          "internalType": "bool",
          "name": "",
          "type": "bool"
        }
      ],
      "stateMutability": "view",
      "type": "function"
    },
    {
      "inputs": [],
      "name": "sxpToken",
      "outputs": [
        {
          "internalType": "contract SXP",
          "name": "",
          "type": "address"
        }
      ],
      "stateMutability": "view",
      "type": "function"
    },
    {
      "inputs": [
        {
          "internalType": "address",
          "name": "newOwner",
          "type": "address"
        }
      ],
      "name": "transferOwnership",
      "outputs": [],
      "stateMutability": "nonpayable",
      "type": "function"
    },
    {
      "inputs": [],
      "name": "treasury",
      "outputs": [
        {
          "internalType": "address",
          "name": "",
          "type": "address"
        }
      ],
      "stateMutability": "view",
      "type": "function"
    },
    {
      "inputs": [
        {
          "internalType": "address",
          "name": "token",
          "type": "address"
        },
        {
          "internalType": "uint256",
          "name": "amount",
          "type": "uint256"
        }
      ],
      "name": "uncommit",
      "outputs": [],
      "stateMutability": "nonpayable",
      "type": "function"
    },
    {
      "inputs": [
        {
          "internalType": "address",
          "name": "",
          "type": "address"
        },
        {
          "internalType": "address",
          "name": "",
          "type": "address"
        }
      ],
      "name": "uncommittedBalances",
      "outputs": [
        {
          "internalType": "uint256",
          "name": "",
          "type": "uint256"
        }
      ],
      "stateMutability": "view",
      "type": "function"
    },
    {
      "inputs": [
        {
          "internalType": "uint256",
          "name": "_penaltyPercent",
          "type": "uint256"
        },
        {
          "internalType": "uint256",
          "name": "_lockPeriod",
          "type": "uint256"
        }
      ],
      "name": "updateConfig",
      "outputs": [],
      "stateMutability": "nonpayable",
      "type": "function"
    },
    {
      "inputs": [
        {
          "internalType": "address",
          "name": "token",
          "type": "address"
        }
      ],
      "name": "updatePool",
      "outputs": [],
      "stateMutability": "nonpayable",
      "type": "function"
    },
    {
      "inputs": [
        {
          "internalType": "address",
          "name": "newImplementation",
          "type": "address"
        },
        {
          "internalType": "bytes",
          "name": "data",
          "type": "bytes"
        }
      ],
      "name": "upgradeToAndCall",
      "outputs": [],
      "stateMutability": "payable",
      "type": "function"
    },
    {
      "inputs": [
        {
          "internalType": "address",
          "name": "token",
          "type": "address"
        },
        {
          "internalType": "uint256",
          "name": "amount",
          "type": "uint256"
        }
      ],
      "name": "withdraw",
      "outputs": [],
      "stateMutability": "nonpayable",
      "type": "function"
    }
  ],
  "bytecode": "0x60a0604052306080523480156200001557600080fd5b5060017f9b779b17422d0df92223018b32b4d1fa46e071723d6817e2486d003becc55f0055620000446200004a565b620000fe565b7ff0c57e16840df040f15088dc2f81fe391c3923bec73e23a9662efc9c229c6a00805468010000000000000000900460ff16156200009b5760405163f92ee8a960e01b815260040160405180910390fd5b80546001600160401b0390811614620000fb5780546001600160401b0319166001600160401b0390811782556040519081527fc7f505b2f371ae2175ee4913f4499e1f2633a7b5936321eed1cdaeb6115181d29060200160405180910390a15b50565b6080516132d762000128600039600081816127630152818161278c01526128cd01526132d76000f3fe60806040526004361061023b5760003560e01c8063715018a61161012e578063b3db428b116100ab578063cc48996e1161006f578063cc48996e146107a4578063daa1e1fb146107dc578063f2fde38b146107fc578063f3fef3a31461081c578063f8325acc1461083c57600080fd5b8063b3db428b146106e7578063b56ead9714610707578063bba9ba4c14610727578063c7ae483e14610747578063ca9f2e8b1461076c57600080fd5b80638ae56d57116100f25780638ae56d57146105bd5780638da5cb5b146105dd578063951ae7a81461061a5780639a7b5f1114610652578063ad3cb1cc146106a957600080fd5b8063715018a6146105105780637b46c54f146105255780637b4717a4146105455780638248e7221461057d57806384bf15351461059d57600080fd5b806347e7ef24116101bc5780635c975abb116101805780635c975abb1461044357806361d027b31461046857806368c4ac26146104885780636a12b560146104b85780636ff1c9bc146104f057600080fd5b806347e7ef24146103bb5780634f1ef286146103db57806352d1902d146103ee57806357fb25cc146104035780635b666e901461042357600080fd5b80631b3b6b80116102035780631b3b6b801461030d5780632b60c82214610345578063347c8d5e146103655780633dc78cc4146103855780633fd8b02f146103a557600080fd5b80630c6a753f1461024057806313aaf7f11461026257806314c64402146102ad57806314cf339e146102cd578063161ba46a146102f7575b600080fd5b34801561024c57600080fd5b5061026061025b366004612d4e565b61085c565b005b34801561026e57600080fd5b5061029a61027d366004612d81565b600560209081526000928352604080842090915290825290205481565b6040519081526020015b60405180910390f35b3480156102b957600080fd5b506102606102c8366004612dab565b6109c7565b3480156102d957600080fd5b50600d546102e79060ff1681565b60405190151581526020016102a4565b34801561030357600080fd5b5061029a600b5481565b34801561031957600080fd5b5060005461032d906001600160a01b031681565b6040516001600160a01b0390911681526020016102a4565b34801561035157600080fd5b5061032d610360366004612dcd565b610a34565b34801561037157600080fd5b50610260610380366004612de6565b610a5e565b34801561039157600080fd5b506102606103a0366004612e01565b610b95565b3480156103b157600080fd5b5061029a600c5481565b3480156103c757600080fd5b506102606103d6366004612e3d565b610c67565b6102606103e9366004612e7d565b610dba565b3480156103fa57600080fd5b5061029a610dd5565b34801561040f57600080fd5b5061026061041e366004612f3f565b610df2565b34801561042f57600080fd5b5061026061043e366004612e3d565b611050565b34801561044f57600080fd5b506000805160206132628339815191525460ff166102e7565b34801561047457600080fd5b5060015461032d906001600160a01b031681565b34801561049457600080fd5b506102e76104a3366004612de6565b60026020526000908152604090205460ff1681565b3480156104c457600080fd5b5061029a6104d3366004612d81565b600660209081526000928352604080842090915290825290205481565b3480156104fc57600080fd5b5061026061050b366004612de6565b611461565b34801561051c57600080fd5b506102606115e2565b34801561053157600080fd5b50610260610540366004612de6565b6115f6565b34801561055157600080fd5b5061029a610560366004612d81565b600a60209081526000928352604080842090915290825290205481565b34801561058957600080fd5b50610260610598366004612f96565b6116c6565b3480156105a957600080fd5b506102606105b8366004612e3d565b611766565b3480156105c957600080fd5b506102606105d8366004612de6565b611af5565b3480156105e957600080fd5b507f9016d09d72d40fdae2fd8ceac6b6234c7706214fd39c1cd1e609a0528c199300546001600160a01b031661032d565b34801561062657600080fd5b5061029a610635366004612d81565b600460209081526000928352604080842090915290825290205481565b34801561065e57600080fd5b5061068e61066d366004612de6565b60096020526000908152604090208054600182015460029092015490919083565b604080519384526020840192909252908201526060016102a4565b3480156106b557600080fd5b506106da604051806040016040528060058152602001640352e302e360dc1b81525081565b6040516102a49190612fb8565b3480156106f357600080fd5b50610260610702366004612e01565b611d2f565b34801561071357600080fd5b5061029a610722366004612e3d565b611e91565b34801561073357600080fd5b5061029a610742366004612d81565b611f63565b34801561075357600080fd5b50600d5461032d9061010090046001600160a01b031681565b34801561077857600080fd5b5061029a610787366004612d81565b600860209081526000928352604080842090915290825290205481565b3480156107b057600080fd5b5061029a6107bf366004612d81565b600760209081526000928352604080842090915290825290205481565b3480156107e857600080fd5b506102606107f7366004612e01565b6120c4565b34801561080857600080fd5b50610260610817366004612de6565b6121d6565b34801561082857600080fd5b50610260610837366004612e3d565b612211565b34801561084857600080fd5b50610260610857366004612d81565b6123fa565b6108646125d1565b6001600160a01b0382166108b55760405162461bcd60e51b815260206004820152601360248201527229ac2aa09d1024b73b30b634b2103a37b5b2b760691b60448201526064015b60405180910390fd5b8080156108db57506001600160a01b03821660009081526002602052604090205460ff16155b15610968576003805460018082019092557fc2575a0e9e593c00f959f8c92f12db2869c3395a3b0502d05e2516446f71f85b0180546001600160a01b0319166001600160a01b038516908117909155604080516060810182526000808252602080830182815242848601908152958352600990915292902090518155905192810192909255516002909101555b6001600160a01b038216600081815260026020908152604091829020805460ff191685151590811790915591519182527fd86c88b4a367d9b81a6e00c9d3f7d01657bffef358fa8968c91c045ae99f0d52910160405180910390a25050565b6109cf6125d1565b600d805460ff191682158015919091179091556109f3576109ee61262c565b6109fb565b6109fb612689565b60405181151581527ff3017345aa4f4b1edf82d1945ba8aaf39d9f284595b090260947f03bc53566f1906020015b60405180910390a150565b60038181548110610a4457600080fd5b6000918252602090912001546001600160a01b0316905081565b610a666126cf565b610a6e612700565b610a7833826123fa565b3360009081526008602090815260408083206001600160a01b038516845290915290205480610ae95760405162461bcd60e51b815260206004820152601c60248201527f535855413a204e6f2061636372756564206461696c79207969656c640000000060448201526064016108ac565b3360008181526008602090815260408083206001600160a01b038716808552908352818420849055938352600582528083209383529290529081208054839290610b3490849061301d565b90915550506040518181526001600160a01b0383169033907f35a593989214273cad8f7c3cea2bc516d2ea114bbdb9088cbab07696e65b6d97906020015b60405180910390a350610b92600160008051602061328283398151915255565b50565b610b9d6126cf565b610ba5612700565b60008111610bf05760405162461bcd60e51b81526020600482015260186024820152770535855413a20416d6f756e74206d757374206265203e20360441b60448201526064016108ac565b610c056001600160a01b03831633308461271c565b610c0f83836123fa565b6001600160a01b03808416600090815260056020908152604080832093861683529290529081208054839290610c4690849061301d565b9091555050600160008051602061328283398151915255505050565b505050565b610c6f6126cf565b610c77612700565b6001600160a01b03821660009081526002602052604090205460ff16610caf5760405162461bcd60e51b81526004016108ac90613030565b60008111610cff5760405162461bcd60e51b815260206004820181905260248201527f535855413a204465706f73697420616d6f756e74206d757374206265203e203060448201526064016108ac565b610d0933836123fa565b610d12826115f6565b610d276001600160a01b03831633308461271c565b3360009081526005602090815260408083206001600160a01b038616845290915281208054839290610d5a90849061301d565b90915550506040518181526001600160a01b0383169033907f8752a472e571a816aea92eec8dae9baf628e840f4929fbcc2d155e6233ff68a79060200160405180910390a3610db6600160008051602061328283398151915255565b5050565b610dc2612758565b610dcb826127fd565b610db68282612805565b6000610ddf6128c2565b5060008051602061324283398151915290565b6000610dfc61290b565b805490915060ff600160401b820416159067ffffffffffffffff16600081158015610e245750825b905060008267ffffffffffffffff166001148015610e415750303b155b905081158015610e4f575080155b15610e6d5760405163f92ee8a960e01b815260040160405180910390fd5b845467ffffffffffffffff191660011785558315610e9757845460ff60401b1916600160401b1785555b610ea033612934565b610ea8612945565b6001600160a01b038a16610efe5760405162461bcd60e51b815260206004820152601760248201527f535855413a20496e76616c69642053585020746f6b656e00000000000000000060448201526064016108ac565b6001600160a01b038916610f4d5760405162461bcd60e51b8152602060048201526016602482015275535855413a20496e76616c696420747265617375727960501b60448201526064016108ac565b6001600160a01b038616610fa35760405162461bcd60e51b815260206004820152601a60248201527f535855413a20496e76616c69642050544620726563656976657200000000000060448201526064016108ac565b600080546001600160a01b03199081166001600160a01b038d811691909117909255600180549091168b8316179055600b899055600c889055600d80546001600160a81b0319166101009289169290920260ff1916919091179055831561104457845460ff60401b19168555604051600181527fc7f505b2f371ae2175ee4913f4499e1f2633a7b5936321eed1cdaeb6115181d29060200160405180910390a15b50505050505050505050565b6110586126cf565b611060612700565b600081116110ba5760405162461bcd60e51b815260206004820152602160248201527f535855413a20556e636f6d6d697420616d6f756e74206d757374206265203e206044820152600360fc1b60648201526084016108ac565b3360009081526004602090815260408083206001600160a01b03861684529091529020548111156111395760405162461bcd60e51b8152602060048201526024808201527f535855413a20496e73756666696369656e7420636f6d6d69747465642062616c604482015263616e636560e01b60648201526084016108ac565b61114333836123fa565b61114c826115f6565b6001600160a01b03821660008181526009602090815260408083203380855260048452828520868652845282852054908552600a845282852095855294909252822054600182015491939291670de0b6b3a7640000906111ac9085613067565b6111b6919061307e565b6111c091906130a0565b9050801561126d576000546040516340c10f1960e01b8152336004820152602481018390526001600160a01b03909116906340c10f1990604401600060405180830381600087803b15801561121457600080fd5b505af1158015611228573d6000803e3d6000fd5b50506040518381526001600160a01b03881692503391507f0cb0e7c5873034a840c4dc30bacb0a6726b12ae7d9dbafd86f57e740b14a37699060200160405180910390a35b3360009081526004602090815260408083206001600160a01b0389168452909152812080548692906112a09084906130a0565b90915550508254849084906000906112b99084906130a0565b9091555050600c543360009081526006602090815260408083206001600160a01b038a16845290915281205490916112f09161301d565b421015611314576064600b54866113079190613067565b611311919061307e565b90505b600061132082876130a0565b3360009081526005602090815260408083206001600160a01b038c16845290915281208054929350839290919061135890849061301d565b9091555050811561139d573360009081526008602090815260408083206001600160a01b038b8116808652919093529083209290925560015461139d9291168461294d565b60018501543360009081526004602090815260408083206001600160a01b038c168452909152902054670de0b6b3a7640000916113d991613067565b6113e3919061307e565b336000818152600a602090815260408083206001600160a01b038d16808552908352928190209490945583518a815290810186905290927f649abb3afb2aa3c768b7de0f94681c5570f8eb8c763253e4a1f05551d299f679910160405180910390a35050505050610db6600160008051602061328283398151915255565b611469612700565b600d5460ff166114c75760405162461bcd60e51b815260206004820152602360248201527f535855413a20456d657267656e63792073687574646f776e206e6f742061637460448201526269766560e81b60648201526084016108ac565b3360008181526004602090815260408083206001600160a01b0386168085529083528184205494845260058352818420908452909152812054909161150b9161301d565b90506000811161155d5760405162461bcd60e51b815260206004820152601c60248201527f535855413a204e6f2062616c616e636520746f2077697468647261770000000060448201526064016108ac565b3360008181526005602090815260408083206001600160a01b038716808552908352818420849055848452600483528184208185529092528220919091556115a5918361294d565b6040518181526001600160a01b0383169033907f457e4fe0c9f161a0c6f3bfb8d7809a4ac19f6291bd81b03b86b0d00f9af3717b90602001610b72565b6115ea6125d1565b6115f46000612982565b565b6001600160a01b03811660009081526009602052604090206002810154421161161d575050565b8054600003611630574260029091015550565b600081600201544261164291906130a0565b90506000611654848460000154611e91565b9050600063bbf81e008361166984602c613067565b6116739190613067565b61167d919061307e565b845490915061169482670de0b6b3a7640000613067565b61169e919061307e565b8460010160008282546116b1919061301d565b90915550504260029094019390935550505050565b6116ce6125d1565b606482111561171f5760405162461bcd60e51b815260206004820181905260248201527f535855413a20496e76616c69642070656e616c74792070657263656e7461676560448201526064016108ac565b600b829055600c81905560408051838152602081018390527f0936b3616d5072fa8f7381ef8e7c35d39bed9ecfb2184e908a56027ad5c0b6bc910160405180910390a15050565b61176e6126cf565b611776612700565b6001600160a01b03821660009081526002602052604090205460ff166117ae5760405162461bcd60e51b81526004016108ac90613030565b600081116117fe5760405162461bcd60e51b815260206004820152601f60248201527f535855413a20436f6d6d697420616d6f756e74206d757374206265203e20300060448201526064016108ac565b3360009081526005602090815260408083206001600160a01b03861684529091529020548111156118415760405162461bcd60e51b81526004016108ac906130b3565b61184b33836123fa565b611854826115f6565b6001600160a01b03821660008181526009602090815260408083203384526004835281842094845293909152902054801561198957336000908152600a602090815260408083206001600160a01b03881684529091528120546001840154670de0b6b3a7640000906118c69085613067565b6118d0919061307e565b6118da91906130a0565b90508015611987576000546040516340c10f1960e01b8152336004820152602481018390526001600160a01b03909116906340c10f1990604401600060405180830381600087803b15801561192e57600080fd5b505af1158015611942573d6000803e3d6000fd5b50506040518381526001600160a01b03881692503391507f0cb0e7c5873034a840c4dc30bacb0a6726b12ae7d9dbafd86f57e740b14a37699060200160405180910390a35b505b3360009081526005602090815260408083206001600160a01b0388168452909152812080548592906119bc9084906130a0565b90915550503360009081526004602090815260408083206001600160a01b0388168452909152812080548592906119f490849061301d565b90915550503360009081526006602090815260408083206001600160a01b03881684529091528120429055825484918491611a3090849061301d565b909155505060018201543360009081526004602090815260408083206001600160a01b0389168452909152902054670de0b6b3a764000091611a7191613067565b611a7b919061307e565b336000818152600a602090815260408083206001600160a01b038a1680855292529182902093909355517fa5e4e34711d102d6aaadc9166b6c0ca95c3c5c1e55a45836d9d1d4f7ccb329e190611ad49087815260200190565b60405180910390a35050610db6600160008051602061328283398151915255565b611afd6126cf565b611b05612700565b611b0e816115f6565b6001600160a01b0381166000818152600960209081526040808320338452600483528184209484529390915290205480611b8a5760405162461bcd60e51b815260206004820152601a60248201527f535855413a204e6f20636f6d6d69747465642062616c616e636500000000000060448201526064016108ac565b336000908152600a602090815260408083206001600160a01b03871684529091528120546001840154670de0b6b3a764000090611bc79085613067565b611bd1919061307e565b611bdb91906130a0565b905060008111611c2d5760405162461bcd60e51b815260206004820152601c60248201527f535855413a204e6f205358502072657761726420746f20636c61696d0000000060448201526064016108ac565b670de0b6b3a7640000836001015483611c469190613067565b611c50919061307e565b336000818152600a602090815260408083206001600160a01b038a81168552925280832094909455905492516340c10f1960e01b815260048101929092526024820184905291909116906340c10f1990604401600060405180830381600087803b158015611cbd57600080fd5b505af1158015611cd1573d6000803e3d6000fd5b50506040518381526001600160a01b03871692503391507f0cb0e7c5873034a840c4dc30bacb0a6726b12ae7d9dbafd86f57e740b14a37699060200160405180910390a3505050610b92600160008051602061328283398151915255565b611d376126cf565b611d3f612700565b6001600160a01b03821660009081526002602052604090205460ff16611d775760405162461bcd60e51b81526004016108ac90613030565b60008111611dc75760405162461bcd60e51b815260206004820181905260248201527f535855413a204465706f73697420616d6f756e74206d757374206265203e203060448201526064016108ac565b611dd183836123fa565b611dda826115f6565b611def6001600160a01b03831633308461271c565b6001600160a01b03808416600090815260056020908152604080832093861683529290529081208054839290611e2690849061301d565b92505081905550816001600160a01b0316836001600160a01b03167f8752a472e571a816aea92eec8dae9baf628e840f4929fbcc2d155e6233ff68a783604051611e7291815260200190565b60405180910390a3610c62600160008051602061328283398151915255565b600080836001600160a01b031663313ce5676040518163ffffffff1660e01b8152600401602060405180830381865afa158015611ed2573d6000803e3d6000fd5b505050506040513d601f19601f82011682018060405250810190611ef691906130f9565b905060128160ff161015611f2c57611f0f81601261311c565b611f1a90600a613219565b611f249084613067565b915050611f5d565b60128160ff161115611f5857611f4360128261311c565b611f4e90600a613219565b611f24908461307e565b829150505b92915050565b6001600160a01b0380831660008181526009602090815260408083208151606081018352815481526001820154818501526002909101548183015294861683526004825280832093835292905290812054909190808303611fc957600092505050611f5d565b816040015142118015611fdc5750815115155b15612067576000826040015142611ff391906130a0565b90506000612005878560000151611e91565b9050600063bbf81e008361201a84602c613067565b6120249190613067565b61202e919061307e565b855190915061204582670de0b6b3a7640000613067565b61204f919061307e565b85602001818151612060919061301d565b9052505050505b6001600160a01b038085166000908152600a6020908152604080832093891683529281529190205490830151670de0b6b3a7640000906120a79084613067565b6120b1919061307e565b6120bb91906130a0565b95945050505050565b6120cc6126cf565b6120d4612700565b6000811161211f5760405162461bcd60e51b81526020600482015260186024820152770535855413a20416d6f756e74206d757374206265203e20360441b60448201526064016108ac565b6001600160a01b038084166000908152600560209081526040808320938616835292905220548111156121645760405162461bcd60e51b81526004016108ac906130b3565b61216e83836123fa565b6001600160a01b038084166000908152600560209081526040808320938616835292905290812080548392906121a59084906130a0565b909155506121bf90506001600160a01b038316338361294d565b610c62600160008051602061328283398151915255565b6121de6125d1565b6001600160a01b03811661220857604051631e4fbdf760e01b8152600060048201526024016108ac565b610b9281612982565b6122196126cf565b612221612700565b6000811161227d5760405162461bcd60e51b815260206004820152602360248201527f535855413a205769746864726177616c20616d6f756e74206d7573742062652060448201526203e20360ec1b60648201526084016108ac565b3360009081526005602090815260408083206001600160a01b03861684529091529020548111156122c05760405162461bcd60e51b81526004016108ac906130b3565b6122ca33836123fa565b3360009081526005602090815260408083206001600160a01b0386168452909152812080548392906122fd9084906130a0565b90915550600090506064612312836006613067565b61231c919061307e565b90506000606461232d846001613067565b612337919061307e565b905060008161234684866130a0565b61235091906130a0565b60015490915061236d906001600160a01b0387811691168561294d565b600d5461238c906001600160a01b03878116916101009004168461294d565b6123a06001600160a01b038616338361294d565b6040518481526001600160a01b0386169033907fd1c19fbcd4551a5edfb66d43d2e337c04837afda3482b42bdf569a8fccdae5fb9060200160405180910390a3505050610db6600160008051602061328283398151915255565b6001600160a01b0380831660009081526007602090815260408083209385168352929052908120549081900361245757506001600160a01b0391821660009081526007602090815260408083209390941682529190915220429055565b600061246382426130a0565b90506000612474620151808361307e565b905080156125ca576001600160a01b0380861660008181526004602090815260408083209489168084529482528083205493835260058252808320948352939052918220546124c3919061301d565b90506000612710836124d684600c613067565b6124e09190613067565b6124ea919061307e565b9050801561257e576001600160a01b038088166000908152600860209081526040808320938a168352929052908120805483929061252990849061301d565b92505081905550856001600160a01b0316876001600160a01b03167f1549bc24da46a362b594d2d6a9c0d8db4450c417093899401c2993a1cbce65cb8360405161257591815260200190565b60405180910390a35b61258b8362015180613067565b6001600160a01b038089166000908152600760209081526040808320938b16835292905290812080549091906125c290849061301d565b909155505050505b5050505050565b336126037f9016d09d72d40fdae2fd8ceac6b6234c7706214fd39c1cd1e609a0528c199300546001600160a01b031690565b6001600160a01b0316146115f45760405163118cdaa760e01b81523360048201526024016108ac565b6126346126cf565b600080516020613262833981519152805460ff191660011781557f62e78cea01bee320cd4e420270b5ea74000d11b0c9f74754ebdbfc544b05a258335b6040516001600160a01b039091168152602001610a29565b6126916129f3565b600080516020613262833981519152805460ff191681557f5db9ee0a495bf2e6ff9c91a7834c1ba4fdd244a5e8aa4e537bd38aeae4b073aa33612671565b6000805160206132628339815191525460ff16156115f45760405163d93c066560e01b815260040160405180910390fd5b612708612a23565b600260008051602061328283398151915255565b61272a848484846001612a53565b61275257604051635274afe760e01b81526001600160a01b03851660048201526024016108ac565b50505050565b306001600160a01b037f00000000000000000000000000000000000000000000000000000000000000001614806127df57507f00000000000000000000000000000000000000000000000000000000000000006001600160a01b03166127d3600080516020613242833981519152546001600160a01b031690565b6001600160a01b031614155b156115f45760405163703e46dd60e11b815260040160405180910390fd5b610b926125d1565b816001600160a01b03166352d1902d6040518163ffffffff1660e01b8152600401602060405180830381865afa92505050801561285f575060408051601f3d908101601f1916820190925261285c91810190613228565b60015b61288757604051634c9c8ce360e01b81526001600160a01b03831660048201526024016108ac565b60008051602061324283398151915281146128b857604051632a87526960e21b8152600481018290526024016108ac565b610c628383612ac5565b306001600160a01b037f000000000000000000000000000000000000000000000000000000000000000016146115f45760405163703e46dd60e11b815260040160405180910390fd5b6000807ff0c57e16840df040f15088dc2f81fe391c3923bec73e23a9662efc9c229c6a00611f5d565b61293c612b1b565b610b9281612b40565b6115f4612b1b565b61295a8383836001612b48565b610c6257604051635274afe760e01b81526001600160a01b03841660048201526024016108ac565b7f9016d09d72d40fdae2fd8ceac6b6234c7706214fd39c1cd1e609a0528c19930080546001600160a01b031981166001600160a01b03848116918217845560405192169182907f8be0079c531659141344cd1fd0a4f28419497f9722a3daafe3b4186f6b6457e090600090a3505050565b6000805160206132628339815191525460ff166115f457604051638dfc202b60e01b815260040160405180910390fd5b600080516020613282833981519152546002036115f457604051633ee5aeb560e01b815260040160405180910390fd5b6040516323b872dd60e01b60008181526001600160a01b038781166004528616602452604485905291602083606481808c5af192506001600051148316612ab3578383151615612aa6573d6000823e3d81fd5b6000883b113d1516831692505b60405250600060605295945050505050565b612ace82612bae565b6040516001600160a01b038316907fbc7cd75a20ee27fd9adebab32041f755214dbc6bffa90cc0225b39da2e5c2d3b90600090a2805115612b1357610c628282612c13565b610db6612cae565b612b23612ccd565b6115f457604051631afcd79f60e31b815260040160405180910390fd5b6121de612b1b565b60405163a9059cbb60e01b60008181526001600160a01b038616600452602485905291602083604481808b5af192506001600051148316612ba2578383151615612b95573d6000823e3d81fd5b6000873b113d1516831692505b60405250949350505050565b806001600160a01b03163b600003612be457604051634c9c8ce360e01b81526001600160a01b03821660048201526024016108ac565b60008051602061324283398151915280546001600160a01b0319166001600160a01b0392909216919091179055565b60606000612c218484612ce7565b9050808015612c44575060003d1180612c4457506000846001600160a01b03163b115b15612c5157611f24612cfc565b8015612c7b57604051639996b31560e01b81526001600160a01b03851660048201526024016108ac565b3d15612c8e57612c89612d16565b612ca7565b60405163d6bda27560e01b815260040160405180910390fd5b5092915050565b34156115f45760405163b398979f60e01b815260040160405180910390fd5b6000612cd761290b565b54600160401b900460ff16919050565b6000806000835160208501865af49392505050565b6040513d81523d6000602083013e3d602001810160405290565b6040513d6000823e3d81fd5b80356001600160a01b0381168114612d3957600080fd5b919050565b80358015158114612d3957600080fd5b60008060408385031215612d6157600080fd5b612d6a83612d22565b9150612d7860208401612d3e565b90509250929050565b60008060408385031215612d9457600080fd5b612d9d83612d22565b9150612d7860208401612d22565b600060208284031215612dbd57600080fd5b612dc682612d3e565b9392505050565b600060208284031215612ddf57600080fd5b5035919050565b600060208284031215612df857600080fd5b612dc682612d22565b600080600060608486031215612e1657600080fd5b612e1f84612d22565b9250612e2d60208501612d22565b9150604084013590509250925092565b60008060408385031215612e5057600080fd5b612e5983612d22565b946020939093013593505050565b634e487b7160e01b600052604160045260246000fd5b60008060408385031215612e9057600080fd5b612e9983612d22565b9150602083013567ffffffffffffffff80821115612eb657600080fd5b818501915085601f830112612eca57600080fd5b813581811115612edc57612edc612e67565b604051601f8201601f19908116603f01168101908382118183101715612f0457612f04612e67565b81604052828152886020848701011115612f1d57600080fd5b8260208601602083013760006020848301015280955050505050509250929050565b600080600080600060a08688031215612f5757600080fd5b612f6086612d22565b9450612f6e60208701612d22565b93506040860135925060608601359150612f8a60808701612d22565b90509295509295909350565b60008060408385031215612fa957600080fd5b50508035926020909101359150565b60006020808352835180602085015260005b81811015612fe657858101830151858201604001528201612fca565b506000604082860101526040601f19601f8301168501019250505092915050565b634e487b7160e01b600052601160045260246000fd5b80820180821115611f5d57611f5d613007565b60208082526019908201527f535855413a20546f6b656e206e6f7420737570706f7274656400000000000000604082015260600190565b8082028115828204841417611f5d57611f5d613007565b60008261309b57634e487b7160e01b600052601260045260246000fd5b500490565b81810381811115611f5d57611f5d613007565b60208082526026908201527f535855413a20496e73756666696369656e7420756e636f6d6d69747465642062604082015265616c616e636560d01b606082015260800190565b60006020828403121561310b57600080fd5b815160ff81168114612dc657600080fd5b60ff8281168282160390811115611f5d57611f5d613007565b600181815b8085111561317057816000190482111561315657613156613007565b8085161561316357918102915b93841c939080029061313a565b509250929050565b60008261318757506001611f5d565b8161319457506000611f5d565b81600181146131aa57600281146131b4576131d0565b6001915050611f5d565b60ff8411156131c5576131c5613007565b50506001821b611f5d565b5060208310610133831016604e8410600b84101617156131f3575081810a611f5d565b6131fd8383613135565b806000190482111561321157613211613007565b029392505050565b6000612dc660ff841683613178565b60006020828403121561323a57600080fd5b505191905056fe360894a13ba1a3210667c828492db98dca3e2076cc3735a920a3ca505d382bbccd5ed15c6e187e77e9aee88184c21f4f2182ab5827cb3b7e07fbedcd63f033009b779b17422d0df92223018b32b4d1fa46e071723d6817e2486d003becc55f00a2646970667358221220803c5005aef4f2d4796d17f5cdbd80f19462eb33ee9145724948e857640704d764736f6c63430008180033",
  "linkReferences": {},
  "deployedLinkReferences": {}
}