{
  "_format": "hh-sol-artifact-1",
  "contractName": "SXUA",
  "sourceName": "contracts/SXUA.sol",
  "abi": [
    {
      "inputs": [],
      "stateMutability": "nonpayable",
      "type": "constructor"
    },
    {
      "inputs": [
        {
          "internalType": "address",
          "name": "target",
          "type": "address"
        }
      ],
      "name": "AddressEmptyCode",
      "type": "error"
    },
    {
      "inputs": [
        {
          "internalType": "address",
          "name": "implementation",
          "type": "address"
        }
      ],
      "name": "ERC1967InvalidImplementation",
      "type": "error"
    },
    {
      "inputs": [],
      "name": "ERC1967NonPayable",
      "type": "error"
    },
    {
      "inputs": [],
      "name": "EnforcedPause",
      "type": "error"
    },
    {
      "inputs": [],
      "name": "ExpectedPause",
      "type": "error"
    },
    {
      "inputs": [],
      "name": "FailedCall",
      "type": "error"
    },
    {
      "inputs": [],
      "name": "InvalidInitialization",
      "type": "error"
    },
    {
      "inputs": [],
      "name": "NotInitializing",
      "type": "error"
    },
    {
      "inputs": [
        {
          "internalType": "address",
          "name": "owner",
          "type": "address"
        }
      ],
      "name": "OwnableInvalidOwner",
      "type": "error"
    },
    {
      "inputs": [
        {
          "internalType": "address",
          "name": "account",
          "type": "address"
        }
      ],
      "name": "OwnableUnauthorizedAccount",
      "type": "error"
    },
    {
      "inputs": [],
      "name": "ReentrancyGuardReentrantCall",
      "type": "error"
    },
    {
      "inputs": [
        {
          "internalType": "address",
          "name": "token",
          "type": "address"
        }
      ],
      "name": "SafeERC20FailedOperation",
      "type": "error"
    },
    {
      "inputs": [],
      "name": "UUPSUnauthorizedCallContext",
      "type": "error"
    },
    {
      "inputs": [
        {
          "internalType": "bytes32",
          "name": "slot",
          "type": "bytes32"
        }
      ],
      "name": "UUPSUnsupportedProxiableUUID",
      "type": "error"
    },
    {
      "anonymous": false,
      "inputs": [
        {
          "indexed": true,
          "internalType": "address",
          "name": "user",
          "type": "address"
        },
        {
          "indexed": true,
          "internalType": "address",
          "name": "token",
          "type": "address"
        },
        {
          "indexed": false,
          "internalType": "uint256",
          "name": "amount",
          "type": "uint256"
        }
      ],
      "name": "Committed",
      "type": "event"
    },
    {
      "anonymous": false,
      "inputs": [
        {
          "indexed": false,
          "internalType": "uint256",
          "name": "penaltyPercent",
          "type": "uint256"
        },
        {
          "indexed": false,
          "internalType": "uint256",
          "name": "lockPeriod",
          "type": "uint256"
        }
      ],
      "name": "ConfigUpdated",
      "type": "event"
    },
    {
      "anonymous": false,
      "inputs": [
        {
          "indexed": true,
          "internalType": "address",
          "name": "user",
          "type": "address"
        },
        {
          "indexed": true,
          "internalType": "address",
          "name": "token",
          "type": "address"
        },
        {
          "indexed": false,
          "internalType": "uint256",
          "name": "amount",
          "type": "uint256"
        }
      ],
      "name": "DailyYieldAccrued",
      "type": "event"
    },
    {
      "anonymous": false,
      "inputs": [
        {
          "indexed": true,
          "internalType": "address",
          "name": "user",
          "type": "address"
        },
        {
          "indexed": true,
          "internalType": "address",
          "name": "token",
          "type": "address"
        },
        {
          "indexed": false,
          "internalType": "uint256",
          "name": "amount",
          "type": "uint256"
        }
      ],
      "name": "DailyYieldClaimed",
      "type": "event"
    },
    {
      "anonymous": false,
      "inputs": [
        {
          "indexed": true,
          "internalType": "address",
          "name": "user",
          "type": "address"
        },
        {
          "indexed": true,
          "internalType": "address",
          "name": "token",
          "type": "address"
        },
        {
          "indexed": false,
          "internalType": "uint256",
          "name": "amount",
          "type": "uint256"
        }
      ],
      "name": "Deposited",
      "type": "event"
    },
    {
      "anonymous": false,
      "inputs": [
        {
          "indexed": false,
          "internalType": "bool",
          "name": "active",
          "type": "bool"
        }
      ],
      "name": "EmergencyShutdownToggled",
      "type": "event"
    },
    {
      "anonymous": false,
      "inputs": [
        {
          "indexed": true,
          "internalType": "address",
          "name": "user",
          "type": "address"
        },
        {
          "indexed": true,
          "internalType": "address",
          "name": "token",
          "type": "address"
        },
        {
          "indexed": false,
          "internalType": "uint256",
          "name": "amount",
          "type": "uint256"
        }
      ],
      "name": "EmergencyWithdrawn",
      "type": "event"
    },
    {
      "anonymous": false,
      "inputs": [
        {
          "indexed": false,
          "internalType": "uint64",
          "name": "version",
          "type": "uint64"
        }
      ],
      "name": "Initialized",
      "type": "event"
    },
    {
      "anonymous": false,
      "inputs": [
        {
          "indexed": true,
          "internalType": "address",
          "name": "previousOwner",
          "type": "address"
        },
        {
          "indexed": true,
          "internalType": "address",
          "name": "newOwner",
          "type": "address"
        }
      ],
      "name": "OwnershipTransferred",
      "type": "event"
    },
    {
      "anonymous": false,
      "inputs": [
        {
          "indexed": false,
          "internalType": "address",
          "name": "account",
          "type": "address"
        }
      ],
      "name": "Paused",
      "type": "event"
    },
    {
      "anonymous": false,
      "inputs": [
        {
          "indexed": true,
          "internalType": "address",
          "name": "user",
          "type": "address"
        },
        {
          "indexed": true,
          "internalType": "address",
          "name": "token",
          "type": "address"
        },
        {
          "indexed": false,
          "internalType": "uint256",
          "name": "amount",
          "type": "uint256"
        }
      ],
      "name": "SxpRewardClaimed",
      "type": "event"
    },
    {
      "anonymous": false,
      "inputs": [
        {
          "indexed": true,
          "internalType": "address",
          "name": "token",
          "type": "address"
        },
        {
          "indexed": false,
          "internalType": "bool",
          "name": "supported",
          "type": "bool"
        }
      ],
      "name": "TokenSupported",
      "type": "event"
    },
    {
      "anonymous": false,
      "inputs": [
        {
          "indexed": true,
          "internalType": "address",
          "name": "user",
          "type": "address"
        },
        {
          "indexed": true,
          "internalType": "address",
          "name": "token",
          "type": "address"
        },
        {
          "indexed": false,
          "internalType": "uint256",
          "name": "amount",
          "type": "uint256"
        },
        {
          "indexed": false,
          "internalType": "uint256",
          "name": "penalty",
          "type": "uint256"
        }
      ],
      "name": "Uncommitted",
      "type": "event"
    },
    {
      "anonymous": false,
      "inputs": [
        {
          "indexed": false,
          "internalType": "address",
          "name": "account",
          "type": "address"
        }
      ],
      "name": "Unpaused",
      "type": "event"
    },
    {
      "anonymous": false,
      "inputs": [
        {
          "indexed": true,
          "internalType": "address",
          "name": "implementation",
          "type": "address"
        }
      ],
      "name": "Upgraded",
      "type": "event"
    },
    {
      "anonymous": false,
      "inputs": [
        {
          "indexed": true,
          "internalType": "address",
          "name": "user",
          "type": "address"
        },
        {
          "indexed": true,
          "internalType": "address",
          "name": "token",
          "type": "address"
        },
        {
          "indexed": false,
          "internalType": "uint256",
          "name": "amount",
          "type": "uint256"
        }
      ],
      "name": "Withdrawn",
      "type": "event"
    },
    {
      "inputs": [],
      "name": "UPGRADE_INTERFACE_VERSION",
      "outputs": [
        {
          "internalType": "string",
          "name": "",
          "type": "string"
        }
      ],
      "stateMutability": "view",
      "type": "function"
    },
    {
      "inputs": [
        {
          "internalType": "address",
          "name": "user",
          "type": "address"
        },
        {
          "internalType": "address",
          "name": "token",
          "type": "address"
        }
      ],
      "name": "accrueDailyYield",
      "outputs": [],
      "stateMutability": "nonpayable",
      "type": "function"
    },
    {
      "inputs": [
        {
          "internalType": "address",
          "name": "",
          "type": "address"
        },
        {
          "internalType": "address",
          "name": "",
          "type": "address"
        }
      ],
      "name": "accruedRewards",
      "outputs": [
        {
          "internalType": "uint256",
          "name": "",
          "type": "uint256"
        }
      ],
      "stateMutability": "view",
      "type": "function"
    },
    {
      "inputs": [
        {
          "internalType": "address",
          "name": "token",
          "type": "address"
        }
      ],
      "name": "claimDailyYield",
      "outputs": [],
      "stateMutability": "nonpayable",
      "type": "function"
    },
    {
      "inputs": [
        {
          "internalType": "address",
          "name": "token",
          "type": "address"
        }
      ],
      "name": "claimSxpReward",
      "outputs": [],
      "stateMutability": "nonpayable",
      "type": "function"
    },
    {
      "inputs": [
        {
          "internalType": "address",
          "name": "token",
          "type": "address"
        },
        {
          "internalType": "uint256",
          "name": "amount",
          "type": "uint256"
        }
      ],
      "name": "commit",
      "outputs": [],
      "stateMutability": "nonpayable",
      "type": "function"
    },
    {
      "inputs": [
        {
          "internalType": "address",
          "name": "",
          "type": "address"
        },
        {
          "internalType": "address",
          "name": "",
          "type": "address"
        }
      ],
      "name": "commitTimestamps",
      "outputs": [
        {
          "internalType": "uint256",
          "name": "",
          "type": "uint256"
        }
      ],
      "stateMutability": "view",
      "type": "function"
    },
    {
      "inputs": [
        {
          "internalType": "address",
          "name": "",
          "type": "address"
        },
        {
          "internalType": "address",
          "name": "",
          "type": "address"
        }
      ],
      "name": "committedBalances",
      "outputs": [
        {
          "internalType": "uint256",
          "name": "",
          "type": "uint256"
        }
      ],
      "stateMutability": "view",
      "type": "function"
    },
    {
      "inputs": [
        {
          "internalType": "address",
          "name": "token",
          "type": "address"
        },
        {
          "internalType": "uint256",
          "name": "amount",
          "type": "uint256"
        }
      ],
      "name": "deposit",
      "outputs": [],
      "stateMutability": "nonpayable",
      "type": "function"
    },
    {
      "inputs": [],
      "name": "emergencyShutdownActive",
      "outputs": [
        {
          "internalType": "bool",
          "name": "",
          "type": "bool"
        }
      ],
      "stateMutability": "view",
      "type": "function"
    },
    {
      "inputs": [
        {
          "internalType": "address",
          "name": "token",
          "type": "address"
        }
      ],
      "name": "emergencyWithdraw",
      "outputs": [],
      "stateMutability": "nonpayable",
      "type": "function"
    },
    {
      "inputs": [
        {
          "internalType": "address",
          "name": "token",
          "type": "address"
        },
        {
          "internalType": "uint256",
          "name": "amount",
          "type": "uint256"
        }
      ],
      "name": "getAmountIn18Decimals",
      "outputs": [
        {
          "internalType": "uint256",
          "name": "",
          "type": "uint256"
        }
      ],
      "stateMutability": "view",
      "type": "function"
    },
    {
      "inputs": [
        {
          "internalType": "address",
          "name": "_sxpToken",
          "type": "address"
        },
        {
          "internalType": "address",
          "name": "_treasury",
          "type": "address"
        },
        {
          "internalType": "uint256",
          "name": "_penaltyPercent",
          "type": "uint256"
        },
        {
          "internalType": "uint256",
          "name": "_lockPeriod",
          "type": "uint256"
        }
      ],
      "name": "initialize",
      "outputs": [],
      "stateMutability": "nonpayable",
      "type": "function"
    },
    {
      "inputs": [
        {
          "internalType": "address",
          "name": "",
          "type": "address"
        },
        {
          "internalType": "address",
          "name": "",
          "type": "address"
        }
      ],
      "name": "lastRewardTimestamp",
      "outputs": [
        {
          "internalType": "uint256",
          "name": "",
          "type": "uint256"
        }
      ],
      "stateMutability": "view",
      "type": "function"
    },
    {
      "inputs": [],
      "name": "lockPeriod",
      "outputs": [
        {
          "internalType": "uint256",
          "name": "",
          "type": "uint256"
        }
      ],
      "stateMutability": "view",
      "type": "function"
    },
    {
      "inputs": [],
      "name": "owner",
      "outputs": [
        {
          "internalType": "address",
          "name": "",
          "type": "address"
        }
      ],
      "stateMutability": "view",
      "type": "function"
    },
    {
      "inputs": [],
      "name": "paused",
      "outputs": [
        {
          "internalType": "bool",
          "name": "",
          "type": "bool"
        }
      ],
      "stateMutability": "view",
      "type": "function"
    },
    {
      "inputs": [
        {
          "internalType": "address",
          "name": "user",
          "type": "address"
        },
        {
          "internalType": "address",
          "name": "token",
          "type": "address"
        },
        {
          "internalType": "uint256",
          "name": "amount",
          "type": "uint256"
        }
      ],
      "name": "payForLaunchpad",
      "outputs": [],
      "stateMutability": "nonpayable",
      "type": "function"
    },
    {
      "inputs": [],
      "name": "penaltyPercent",
      "outputs": [
        {
          "internalType": "uint256",
          "name": "",
          "type": "uint256"
        }
      ],
      "stateMutability": "view",
      "type": "function"
    },
    {
      "inputs": [
        {
          "internalType": "address",
          "name": "token",
          "type": "address"
        },
        {
          "internalType": "address",
          "name": "user",
          "type": "address"
        }
      ],
      "name": "pendingSxpReward",
      "outputs": [
        {
          "internalType": "uint256",
          "name": "",
          "type": "uint256"
        }
      ],
      "stateMutability": "view",
      "type": "function"
    },
    {
      "inputs": [
        {
          "internalType": "address",
          "name": "",
          "type": "address"
        }
      ],
      "name": "poolInfo",
      "outputs": [
        {
          "internalType": "uint256",
          "name": "totalCommitted",
          "type": "uint256"
        },
        {
          "internalType": "uint256",
          "name": "accSxpPerShare",
          "type": "uint256"
        },
        {
          "internalType": "uint256",
          "name": "lastRewardTimestamp",
          "type": "uint256"
        }
      ],
      "stateMutability": "view",
      "type": "function"
    },
    {
      "inputs": [],
      "name": "proxiableUUID",
      "outputs": [
        {
          "internalType": "bytes32",
          "name": "",
          "type": "bytes32"
        }
      ],
      "stateMutability": "view",
      "type": "function"
    },
    {
      "inputs": [
        {
          "internalType": "address",
          "name": "user",
          "type": "address"
        },
        {
          "internalType": "address",
          "name": "token",
          "type": "address"
        },
        {
          "internalType": "uint256",
          "name": "amount",
          "type": "uint256"
        }
      ],
      "name": "refundToUser",
      "outputs": [],
      "stateMutability": "nonpayable",
      "type": "function"
    },
    {
      "inputs": [],
      "name": "renounceOwnership",
      "outputs": [],
      "stateMutability": "nonpayable",
      "type": "function"
    },
    {
      "inputs": [
        {
          "internalType": "address",
          "name": "",
          "type": "address"
        },
        {
          "internalType": "address",
          "name": "",
          "type": "address"
        }
      ],
      "name": "rewardDebt",
      "outputs": [
        {
          "internalType": "uint256",
          "name": "",
          "type": "uint256"
        }
      ],
      "stateMutability": "view",
      "type": "function"
    },
    {
      "inputs": [
        {
          "internalType": "bool",
          "name": "active",
          "type": "bool"
        }
      ],
      "name": "setEmergencyShutdown",
      "outputs": [],
      "stateMutability": "nonpayable",
      "type": "function"
    },
    {
      "inputs": [
        {
          "internalType": "address",
          "name": "token",
          "type": "address"
        },
        {
          "internalType": "bool",
          "name": "supported",
          "type": "bool"
        }
      ],
      "name": "setTokenSupport",
      "outputs": [],
      "stateMutability": "nonpayable",
      "type": "function"
    },
    {
      "inputs": [
        {
          "internalType": "uint256",
          "name": "",
          "type": "uint256"
        }
      ],
      "name": "supportedTokenList",
      "outputs": [
        {
          "internalType": "address",
          "name": "",
          "type": "address"
        }
      ],
      "stateMutability": "view",
      "type": "function"
    },
    {
      "inputs": [
        {
          "internalType": "address",
          "name": "",
          "type": "address"
        }
      ],
      "name": "supportedTokens",
      "outputs": [
        {
          "internalType": "bool",
          "name": "",
          "type": "bool"
        }
      ],
      "stateMutability": "view",
      "type": "function"
    },
    {
      "inputs": [],
      "name": "sxpToken",
      "outputs": [
        {
          "internalType": "contract SXP",
          "name": "",
          "type": "address"
        }
      ],
      "stateMutability": "view",
      "type": "function"
    },
    {
      "inputs": [
        {
          "internalType": "address",
          "name": "newOwner",
          "type": "address"
        }
      ],
      "name": "transferOwnership",
      "outputs": [],
      "stateMutability": "nonpayable",
      "type": "function"
    },
    {
      "inputs": [],
      "name": "treasury",
      "outputs": [
        {
          "internalType": "address",
          "name": "",
          "type": "address"
        }
      ],
      "stateMutability": "view",
      "type": "function"
    },
    {
      "inputs": [
        {
          "internalType": "address",
          "name": "token",
          "type": "address"
        },
        {
          "internalType": "uint256",
          "name": "amount",
          "type": "uint256"
        }
      ],
      "name": "uncommit",
      "outputs": [],
      "stateMutability": "nonpayable",
      "type": "function"
    },
    {
      "inputs": [
        {
          "internalType": "address",
          "name": "",
          "type": "address"
        },
        {
          "internalType": "address",
          "name": "",
          "type": "address"
        }
      ],
      "name": "uncommittedBalances",
      "outputs": [
        {
          "internalType": "uint256",
          "name": "",
          "type": "uint256"
        }
      ],
      "stateMutability": "view",
      "type": "function"
    },
    {
      "inputs": [
        {
          "internalType": "uint256",
          "name": "_penaltyPercent",
          "type": "uint256"
        },
        {
          "internalType": "uint256",
          "name": "_lockPeriod",
          "type": "uint256"
        }
      ],
      "name": "updateConfig",
      "outputs": [],
      "stateMutability": "nonpayable",
      "type": "function"
    },
    {
      "inputs": [
        {
          "internalType": "address",
          "name": "token",
          "type": "address"
        }
      ],
      "name": "updatePool",
      "outputs": [],
      "stateMutability": "nonpayable",
      "type": "function"
    },
    {
      "inputs": [
        {
          "internalType": "address",
          "name": "newImplementation",
          "type": "address"
        },
        {
          "internalType": "bytes",
          "name": "data",
          "type": "bytes"
        }
      ],
      "name": "upgradeToAndCall",
      "outputs": [],
      "stateMutability": "payable",
      "type": "function"
    },
    {
      "inputs": [
        {
          "internalType": "address",
          "name": "token",
          "type": "address"
        },
        {
          "internalType": "uint256",
          "name": "amount",
          "type": "uint256"
        }
      ],
      "name": "withdraw",
      "outputs": [],
      "stateMutability": "nonpayable",
      "type": "function"
    }
  ],
  "bytecode": "0x60a0604052306080523480156200001557600080fd5b5060017f9b779b17422d0df92223018b32b4d1fa46e071723d6817e2486d003becc55f0055620000446200004a565b620000fe565b7ff0c57e16840df040f15088dc2f81fe391c3923bec73e23a9662efc9c229c6a00805468010000000000000000900460ff16156200009b5760405163f92ee8a960e01b815260040160405180910390fd5b80546001600160401b0390811614620000fb5780546001600160401b0319166001600160401b0390811782556040519081527fc7f505b2f371ae2175ee4913f4499e1f2633a7b5936321eed1cdaeb6115181d29060200160405180910390a15b50565b60805161301362000128600039600081816124eb01528181612514015261265501526130136000f3fe6080604052600436106102255760003560e01c8063715018a611610123578063ad3cb1cc116100ab578063daa1e1fb1161006f578063daa1e1fb14610761578063eb990c5914610781578063f2fde38b146107a1578063f3fef3a3146107c1578063f8325acc146107e157600080fd5b8063ad3cb1cc14610673578063b56ead97146106b1578063bba9ba4c146106d1578063ca9f2e8b146106f1578063cc48996e1461072957600080fd5b806384bf1535116100f257806384bf1535146105675780638ae56d57146105875780638da5cb5b146105a7578063951ae7a8146105e45780639a7b5f111461061c57600080fd5b8063715018a6146104da5780637b46c54f146104ef5780637b4717a41461050f5780638248e7221461054757600080fd5b80633fd8b02f116101b15780635c975abb116101755780635c975abb1461040d57806361d027b31461043257806368c4ac26146104525780636a12b560146104825780636ff1c9bc146104ba57600080fd5b80633fd8b02f1461038f57806347e7ef24146103a55780634f1ef286146103c557806352d1902d146103d85780635b666e90146103ed57600080fd5b8063161ba46a116101f8578063161ba46a146102e15780631b3b6b80146102f75780632b60c8221461032f578063347c8d5e1461034f5780633dc78cc41461036f57600080fd5b80630c6a753f1461022a57806313aaf7f11461024c57806314c644021461029757806314cf339e146102b7575b600080fd5b34801561023657600080fd5b5061024a610245366004612ad6565b610801565b005b34801561025857600080fd5b50610284610267366004612b09565b600560209081526000928352604080842090915290825290205481565b6040519081526020015b60405180910390f35b3480156102a357600080fd5b5061024a6102b2366004612b33565b61096c565b3480156102c357600080fd5b50600d546102d19060ff1681565b604051901515815260200161028e565b3480156102ed57600080fd5b50610284600b5481565b34801561030357600080fd5b50600054610317906001600160a01b031681565b6040516001600160a01b03909116815260200161028e565b34801561033b57600080fd5b5061031761034a366004612b55565b6109d9565b34801561035b57600080fd5b5061024a61036a366004612b6e565b610a03565b34801561037b57600080fd5b5061024a61038a366004612b89565b610b3a565b34801561039b57600080fd5b50610284600c5481565b3480156103b157600080fd5b5061024a6103c0366004612bc5565b610c0c565b61024a6103d3366004612c05565b610d8c565b3480156103e457600080fd5b50610284610da7565b3480156103f957600080fd5b5061024a610408366004612bc5565b610dc4565b34801561041957600080fd5b50600080516020612f9e8339815191525460ff166102d1565b34801561043e57600080fd5b50600154610317906001600160a01b031681565b34801561045e57600080fd5b506102d161046d366004612b6e565b60026020526000908152604090205460ff1681565b34801561048e57600080fd5b5061028461049d366004612b09565b600660209081526000928352604080842090915290825290205481565b3480156104c657600080fd5b5061024a6104d5366004612b6e565b6111d5565b3480156104e657600080fd5b5061024a611356565b3480156104fb57600080fd5b5061024a61050a366004612b6e565b61136a565b34801561051b57600080fd5b5061028461052a366004612b09565b600a60209081526000928352604080842090915290825290205481565b34801561055357600080fd5b5061024a610562366004612cc7565b61143a565b34801561057357600080fd5b5061024a610582366004612bc5565b6114da565b34801561059357600080fd5b5061024a6105a2366004612b6e565b611895565b3480156105b357600080fd5b507f9016d09d72d40fdae2fd8ceac6b6234c7706214fd39c1cd1e609a0528c199300546001600160a01b0316610317565b3480156105f057600080fd5b506102846105ff366004612b09565b600460209081526000928352604080842090915290825290205481565b34801561062857600080fd5b50610658610637366004612b6e565b60096020526000908152604090208054600182015460029092015490919083565b6040805193845260208401929092529082015260600161028e565b34801561067f57600080fd5b506106a4604051806040016040528060058152602001640352e302e360dc1b81525081565b60405161028e9190612ce9565b3480156106bd57600080fd5b506102846106cc366004612bc5565b611acf565b3480156106dd57600080fd5b506102846106ec366004612b09565b611ba1565b3480156106fd57600080fd5b5061028461070c366004612b09565b600860209081526000928352604080842090915290825290205481565b34801561073557600080fd5b50610284610744366004612b09565b600760209081526000928352604080842090915290825290205481565b34801561076d57600080fd5b5061024a61077c366004612b89565b611d02565b34801561078d57600080fd5b5061024a61079c366004612d38565b611e14565b3480156107ad57600080fd5b5061024a6107bc366004612b6e565b612004565b3480156107cd57600080fd5b5061024a6107dc366004612bc5565b61203f565b3480156107ed57600080fd5b5061024a6107fc366004612b09565b612182565b610809612359565b6001600160a01b03821661085a5760405162461bcd60e51b815260206004820152601360248201527229ac2aa09d1024b73b30b634b2103a37b5b2b760691b60448201526064015b60405180910390fd5b80801561088057506001600160a01b03821660009081526002602052604090205460ff16155b1561090d576003805460018082019092557fc2575a0e9e593c00f959f8c92f12db2869c3395a3b0502d05e2516446f71f85b0180546001600160a01b0319166001600160a01b038516908117909155604080516060810182526000808252602080830182815242848601908152958352600990915292902090518155905192810192909255516002909101555b6001600160a01b038216600081815260026020908152604091829020805460ff191685151590811790915591519182527fd86c88b4a367d9b81a6e00c9d3f7d01657bffef358fa8968c91c045ae99f0d52910160405180910390a25050565b610974612359565b600d805460ff19168215801591909117909155610998576109936123b4565b6109a0565b6109a0612411565b60405181151581527ff3017345aa4f4b1edf82d1945ba8aaf39d9f284595b090260947f03bc53566f1906020015b60405180910390a150565b600381815481106109e957600080fd5b6000918252602090912001546001600160a01b0316905081565b610a0b612457565b610a13612488565b610a1d3382612182565b3360009081526008602090815260408083206001600160a01b038516845290915290205480610a8e5760405162461bcd60e51b815260206004820152601c60248201527f535855413a204e6f2061636372756564206461696c79207969656c64000000006044820152606401610851565b3360008181526008602090815260408083206001600160a01b038716808552908352818420849055938352600582528083209383529290529081208054839290610ad9908490612d90565b90915550506040518181526001600160a01b0383169033907f35a593989214273cad8f7c3cea2bc516d2ea114bbdb9088cbab07696e65b6d97906020015b60405180910390a350610b376001600080516020612fbe83398151915255565b50565b610b42612457565b610b4a612488565b60008111610b955760405162461bcd60e51b81526020600482015260186024820152770535855413a20416d6f756e74206d757374206265203e20360441b6044820152606401610851565b610baa6001600160a01b0383163330846124a4565b610bb48383612182565b6001600160a01b03808416600090815260056020908152604080832093861683529290529081208054839290610beb908490612d90565b90915550506001600080516020612fbe83398151915255505050565b505050565b610c14612457565b610c1c612488565b6001600160a01b03821660009081526002602052604090205460ff16610c805760405162461bcd60e51b815260206004820152601960248201527814d615504e88151bdad95b881b9bdd081cdd5c1c1bdc9d1959603a1b6044820152606401610851565b60008111610cd05760405162461bcd60e51b815260206004820181905260248201527f535855413a204465706f73697420616d6f756e74206d757374206265203e20306044820152606401610851565b610cda3383612182565b610ce38261136a565b610cf86001600160a01b0383163330846124a4565b3360009081526005602090815260408083206001600160a01b038616845290915281208054839290610d2b908490612d90565b90915550506040518181526001600160a01b0383169033907f8752a472e571a816aea92eec8dae9baf628e840f4929fbcc2d155e6233ff68a7906020015b60405180910390a3610d886001600080516020612fbe83398151915255565b5050565b610d946124e0565b610d9d82612585565b610d88828261258d565b6000610db161264a565b50600080516020612f7e83398151915290565b610dcc612457565b610dd4612488565b60008111610e2e5760405162461bcd60e51b815260206004820152602160248201527f535855413a20556e636f6d6d697420616d6f756e74206d757374206265203e206044820152600360fc1b6064820152608401610851565b3360009081526004602090815260408083206001600160a01b0386168452909152902054811115610ead5760405162461bcd60e51b8152602060048201526024808201527f535855413a20496e73756666696369656e7420636f6d6d69747465642062616c604482015263616e636560e01b6064820152608401610851565b610eb73383612182565b610ec08261136a565b6001600160a01b03821660008181526009602090815260408083203380855260048452828520868652845282852054908552600a845282852095855294909252822054600182015491939291670de0b6b3a764000090610f209085612da3565b610f2a9190612dba565b610f349190612ddc565b90508015610fe1576000546040516340c10f1960e01b8152336004820152602481018390526001600160a01b03909116906340c10f1990604401600060405180830381600087803b158015610f8857600080fd5b505af1158015610f9c573d6000803e3d6000fd5b50506040518381526001600160a01b03881692503391507f0cb0e7c5873034a840c4dc30bacb0a6726b12ae7d9dbafd86f57e740b14a37699060200160405180910390a35b3360009081526004602090815260408083206001600160a01b038916845290915281208054869290611014908490612ddc565b909155505082548490849060009061102d908490612ddc565b9091555050600c543360009081526006602090815260408083206001600160a01b038a168452909152812054909161106491612d90565b421015611088576064600b548661107b9190612da3565b6110859190612dba565b90505b60006110948287612ddc565b3360009081526005602090815260408083206001600160a01b038c1684529091528120805492935083929091906110cc908490612d90565b90915550508115611111573360009081526008602090815260408083206001600160a01b038b8116808652919093529083209290925560015461111192911684612693565b60018501543360009081526004602090815260408083206001600160a01b038c168452909152902054670de0b6b3a76400009161114d91612da3565b6111579190612dba565b336000818152600a602090815260408083206001600160a01b038d16808552908352928190209490945583518a815290810186905290927f649abb3afb2aa3c768b7de0f94681c5570f8eb8c763253e4a1f05551d299f679910160405180910390a35050505050610d886001600080516020612fbe83398151915255565b6111dd612488565b600d5460ff1661123b5760405162461bcd60e51b815260206004820152602360248201527f535855413a20456d657267656e63792073687574646f776e206e6f742061637460448201526269766560e81b6064820152608401610851565b3360008181526004602090815260408083206001600160a01b0386168085529083528184205494845260058352818420908452909152812054909161127f91612d90565b9050600081116112d15760405162461bcd60e51b815260206004820152601c60248201527f535855413a204e6f2062616c616e636520746f207769746864726177000000006044820152606401610851565b3360008181526005602090815260408083206001600160a01b038716808552908352818420849055848452600483528184208185529092528220919091556113199183612693565b6040518181526001600160a01b0383169033907f457e4fe0c9f161a0c6f3bfb8d7809a4ac19f6291bd81b03b86b0d00f9af3717b90602001610b17565b61135e612359565b61136860006126c8565b565b6001600160a01b038116600090815260096020526040902060028101544211611391575050565b80546000036113a4574260029091015550565b60008160020154426113b69190612ddc565b905060006113c8848460000154611acf565b9050600063bbf81e00836113dd84602c612da3565b6113e79190612da3565b6113f19190612dba565b845490915061140882670de0b6b3a7640000612da3565b6114129190612dba565b8460010160008282546114259190612d90565b90915550504260029094019390935550505050565b611442612359565b60648211156114935760405162461bcd60e51b815260206004820181905260248201527f535855413a20496e76616c69642070656e616c74792070657263656e746167656044820152606401610851565b600b829055600c81905560408051838152602081018390527f0936b3616d5072fa8f7381ef8e7c35d39bed9ecfb2184e908a56027ad5c0b6bc910160405180910390a15050565b6114e2612457565b6114ea612488565b6001600160a01b03821660009081526002602052604090205460ff1661154e5760405162461bcd60e51b815260206004820152601960248201527814d615504e88151bdad95b881b9bdd081cdd5c1c1bdc9d1959603a1b6044820152606401610851565b6000811161159e5760405162461bcd60e51b815260206004820152601f60248201527f535855413a20436f6d6d697420616d6f756e74206d757374206265203e2030006044820152606401610851565b3360009081526005602090815260408083206001600160a01b03861684529091529020548111156115e15760405162461bcd60e51b815260040161085190612def565b6115eb3383612182565b6115f48261136a565b6001600160a01b03821660008181526009602090815260408083203384526004835281842094845293909152902054801561172957336000908152600a602090815260408083206001600160a01b03881684529091528120546001840154670de0b6b3a7640000906116669085612da3565b6116709190612dba565b61167a9190612ddc565b90508015611727576000546040516340c10f1960e01b8152336004820152602481018390526001600160a01b03909116906340c10f1990604401600060405180830381600087803b1580156116ce57600080fd5b505af11580156116e2573d6000803e3d6000fd5b50506040518381526001600160a01b03881692503391507f0cb0e7c5873034a840c4dc30bacb0a6726b12ae7d9dbafd86f57e740b14a37699060200160405180910390a35b505b3360009081526005602090815260408083206001600160a01b03881684529091528120805485929061175c908490612ddc565b90915550503360009081526004602090815260408083206001600160a01b038816845290915281208054859290611794908490612d90565b90915550503360009081526006602090815260408083206001600160a01b038816845290915281204290558254849184916117d0908490612d90565b909155505060018201543360009081526004602090815260408083206001600160a01b0389168452909152902054670de0b6b3a76400009161181191612da3565b61181b9190612dba565b336000818152600a602090815260408083206001600160a01b038a1680855292529182902093909355517fa5e4e34711d102d6aaadc9166b6c0ca95c3c5c1e55a45836d9d1d4f7ccb329e1906118749087815260200190565b60405180910390a35050610d886001600080516020612fbe83398151915255565b61189d612457565b6118a5612488565b6118ae8161136a565b6001600160a01b038116600081815260096020908152604080832033845260048352818420948452939091529020548061192a5760405162461bcd60e51b815260206004820152601a60248201527f535855413a204e6f20636f6d6d69747465642062616c616e63650000000000006044820152606401610851565b336000908152600a602090815260408083206001600160a01b03871684529091528120546001840154670de0b6b3a7640000906119679085612da3565b6119719190612dba565b61197b9190612ddc565b9050600081116119cd5760405162461bcd60e51b815260206004820152601c60248201527f535855413a204e6f205358502072657761726420746f20636c61696d000000006044820152606401610851565b670de0b6b3a76400008360010154836119e69190612da3565b6119f09190612dba565b336000818152600a602090815260408083206001600160a01b038a81168552925280832094909455905492516340c10f1960e01b815260048101929092526024820184905291909116906340c10f1990604401600060405180830381600087803b158015611a5d57600080fd5b505af1158015611a71573d6000803e3d6000fd5b50506040518381526001600160a01b03871692503391507f0cb0e7c5873034a840c4dc30bacb0a6726b12ae7d9dbafd86f57e740b14a37699060200160405180910390a3505050610b376001600080516020612fbe83398151915255565b600080836001600160a01b031663313ce5676040518163ffffffff1660e01b8152600401602060405180830381865afa158015611b10573d6000803e3d6000fd5b505050506040513d601f19601f82011682018060405250810190611b349190612e35565b905060128160ff161015611b6a57611b4d816012612e58565b611b5890600a612f55565b611b629084612da3565b915050611b9b565b60128160ff161115611b9657611b81601282612e58565b611b8c90600a612f55565b611b629084612dba565b829150505b92915050565b6001600160a01b0380831660008181526009602090815260408083208151606081018352815481526001820154818501526002909101548183015294861683526004825280832093835292905290812054909190808303611c0757600092505050611b9b565b816040015142118015611c1a5750815115155b15611ca5576000826040015142611c319190612ddc565b90506000611c43878560000151611acf565b9050600063bbf81e0083611c5884602c612da3565b611c629190612da3565b611c6c9190612dba565b8551909150611c8382670de0b6b3a7640000612da3565b611c8d9190612dba565b85602001818151611c9e9190612d90565b9052505050505b6001600160a01b038085166000908152600a6020908152604080832093891683529281529190205490830151670de0b6b3a764000090611ce59084612da3565b611cef9190612dba565b611cf99190612ddc565b95945050505050565b611d0a612457565b611d12612488565b60008111611d5d5760405162461bcd60e51b81526020600482015260186024820152770535855413a20416d6f756e74206d757374206265203e20360441b6044820152606401610851565b6001600160a01b03808416600090815260056020908152604080832093861683529290522054811115611da25760405162461bcd60e51b815260040161085190612def565b611dac8383612182565b6001600160a01b03808416600090815260056020908152604080832093861683529290529081208054839290611de3908490612ddc565b90915550611dfd90506001600160a01b0383163383612693565b610c076001600080516020612fbe83398151915255565b6000611e1e612739565b805490915060ff600160401b820416159067ffffffffffffffff16600081158015611e465750825b905060008267ffffffffffffffff166001148015611e635750303b155b905081158015611e71575080155b15611e8f5760405163f92ee8a960e01b815260040160405180910390fd5b845467ffffffffffffffff191660011785558315611eb957845460ff60401b1916600160401b1785555b611ec233612762565b611eca612773565b6001600160a01b038916611f205760405162461bcd60e51b815260206004820152601760248201527f535855413a20496e76616c69642053585020746f6b656e0000000000000000006044820152606401610851565b6001600160a01b038816611f6f5760405162461bcd60e51b8152602060048201526016602482015275535855413a20496e76616c696420747265617375727960501b6044820152606401610851565b600080546001600160a01b03808c166001600160a01b03199283161790925560018054928b1692909116919091179055600b879055600c869055600d805460ff191690558315611ff957845460ff60401b19168555604051600181527fc7f505b2f371ae2175ee4913f4499e1f2633a7b5936321eed1cdaeb6115181d29060200160405180910390a15b505050505050505050565b61200c612359565b6001600160a01b03811661203657604051631e4fbdf760e01b815260006004820152602401610851565b610b37816126c8565b612047612457565b61204f612488565b600081116120ab5760405162461bcd60e51b815260206004820152602360248201527f535855413a205769746864726177616c20616d6f756e74206d7573742062652060448201526203e20360ec1b6064820152608401610851565b3360009081526005602090815260408083206001600160a01b03861684529091529020548111156120ee5760405162461bcd60e51b815260040161085190612def565b6120f83383612182565b3360009081526005602090815260408083206001600160a01b03861684529091528120805483929061212b908490612ddc565b9091555061214590506001600160a01b0383163383612693565b6040518181526001600160a01b0383169033907fd1c19fbcd4551a5edfb66d43d2e337c04837afda3482b42bdf569a8fccdae5fb90602001610d69565b6001600160a01b038083166000908152600760209081526040808320938516835292905290812054908190036121df57506001600160a01b0391821660009081526007602090815260408083209390941682529190915220429055565b60006121eb8242612ddc565b905060006121fc6201518083612dba565b90508015612352576001600160a01b03808616600081815260046020908152604080832094891680845294825280832054938352600582528083209483529390529182205461224b9190612d90565b905060006127108361225e84600c612da3565b6122689190612da3565b6122729190612dba565b90508015612306576001600160a01b038088166000908152600860209081526040808320938a16835292905290812080548392906122b1908490612d90565b92505081905550856001600160a01b0316876001600160a01b03167f1549bc24da46a362b594d2d6a9c0d8db4450c417093899401c2993a1cbce65cb836040516122fd91815260200190565b60405180910390a35b6123138362015180612da3565b6001600160a01b038089166000908152600760209081526040808320938b168352929052908120805490919061234a908490612d90565b909155505050505b5050505050565b3361238b7f9016d09d72d40fdae2fd8ceac6b6234c7706214fd39c1cd1e609a0528c199300546001600160a01b031690565b6001600160a01b0316146113685760405163118cdaa760e01b8152336004820152602401610851565b6123bc612457565b600080516020612f9e833981519152805460ff191660011781557f62e78cea01bee320cd4e420270b5ea74000d11b0c9f74754ebdbfc544b05a258335b6040516001600160a01b0390911681526020016109ce565b61241961277b565b600080516020612f9e833981519152805460ff191681557f5db9ee0a495bf2e6ff9c91a7834c1ba4fdd244a5e8aa4e537bd38aeae4b073aa336123f9565b600080516020612f9e8339815191525460ff16156113685760405163d93c066560e01b815260040160405180910390fd5b6124906127ab565b6002600080516020612fbe83398151915255565b6124b28484848460016127db565b6124da57604051635274afe760e01b81526001600160a01b0385166004820152602401610851565b50505050565b306001600160a01b037f000000000000000000000000000000000000000000000000000000000000000016148061256757507f00000000000000000000000000000000000000000000000000000000000000006001600160a01b031661255b600080516020612f7e833981519152546001600160a01b031690565b6001600160a01b031614155b156113685760405163703e46dd60e11b815260040160405180910390fd5b610b37612359565b816001600160a01b03166352d1902d6040518163ffffffff1660e01b8152600401602060405180830381865afa9250505080156125e7575060408051601f3d908101601f191682019092526125e491810190612f64565b60015b61260f57604051634c9c8ce360e01b81526001600160a01b0383166004820152602401610851565b600080516020612f7e833981519152811461264057604051632a87526960e21b815260048101829052602401610851565b610c07838361284d565b306001600160a01b037f000000000000000000000000000000000000000000000000000000000000000016146113685760405163703e46dd60e11b815260040160405180910390fd5b6126a083838360016128a3565b610c0757604051635274afe760e01b81526001600160a01b0384166004820152602401610851565b7f9016d09d72d40fdae2fd8ceac6b6234c7706214fd39c1cd1e609a0528c19930080546001600160a01b031981166001600160a01b03848116918217845560405192169182907f8be0079c531659141344cd1fd0a4f28419497f9722a3daafe3b4186f6b6457e090600090a3505050565b6000807ff0c57e16840df040f15088dc2f81fe391c3923bec73e23a9662efc9c229c6a00611b9b565b61276a612909565b610b378161292e565b611368612909565b600080516020612f9e8339815191525460ff1661136857604051638dfc202b60e01b815260040160405180910390fd5b600080516020612fbe8339815191525460020361136857604051633ee5aeb560e01b815260040160405180910390fd5b6040516323b872dd60e01b60008181526001600160a01b038781166004528616602452604485905291602083606481808c5af19250600160005114831661283b57838315161561282e573d6000823e3d81fd5b6000883b113d1516831692505b60405250600060605295945050505050565b61285682612936565b6040516001600160a01b038316907fbc7cd75a20ee27fd9adebab32041f755214dbc6bffa90cc0225b39da2e5c2d3b90600090a280511561289b57610c07828261299b565b610d88612a36565b60405163a9059cbb60e01b60008181526001600160a01b038616600452602485905291602083604481808b5af1925060016000511483166128fd5783831516156128f0573d6000823e3d81fd5b6000873b113d1516831692505b60405250949350505050565b612911612a55565b61136857604051631afcd79f60e31b815260040160405180910390fd5b61200c612909565b806001600160a01b03163b60000361296c57604051634c9c8ce360e01b81526001600160a01b0382166004820152602401610851565b600080516020612f7e83398151915280546001600160a01b0319166001600160a01b0392909216919091179055565b606060006129a98484612a6f565b90508080156129cc575060003d11806129cc57506000846001600160a01b03163b115b156129d957611b62612a84565b8015612a0357604051639996b31560e01b81526001600160a01b0385166004820152602401610851565b3d15612a1657612a11612a9e565b612a2f565b60405163d6bda27560e01b815260040160405180910390fd5b5092915050565b34156113685760405163b398979f60e01b815260040160405180910390fd5b6000612a5f612739565b54600160401b900460ff16919050565b6000806000835160208501865af49392505050565b6040513d81523d6000602083013e3d602001810160405290565b6040513d6000823e3d81fd5b80356001600160a01b0381168114612ac157600080fd5b919050565b80358015158114612ac157600080fd5b60008060408385031215612ae957600080fd5b612af283612aaa565b9150612b0060208401612ac6565b90509250929050565b60008060408385031215612b1c57600080fd5b612b2583612aaa565b9150612b0060208401612aaa565b600060208284031215612b4557600080fd5b612b4e82612ac6565b9392505050565b600060208284031215612b6757600080fd5b5035919050565b600060208284031215612b8057600080fd5b612b4e82612aaa565b600080600060608486031215612b9e57600080fd5b612ba784612aaa565b9250612bb560208501612aaa565b9150604084013590509250925092565b60008060408385031215612bd857600080fd5b612be183612aaa565b946020939093013593505050565b634e487b7160e01b600052604160045260246000fd5b60008060408385031215612c1857600080fd5b612c2183612aaa565b9150602083013567ffffffffffffffff80821115612c3e57600080fd5b818501915085601f830112612c5257600080fd5b813581811115612c6457612c64612bef565b604051601f8201601f19908116603f01168101908382118183101715612c8c57612c8c612bef565b81604052828152886020848701011115612ca557600080fd5b8260208601602083013760006020848301015280955050505050509250929050565b60008060408385031215612cda57600080fd5b50508035926020909101359150565b60006020808352835180602085015260005b81811015612d1757858101830151858201604001528201612cfb565b506000604082860101526040601f19601f8301168501019250505092915050565b60008060008060808587031215612d4e57600080fd5b612d5785612aaa565b9350612d6560208601612aaa565b93969395505050506040820135916060013590565b634e487b7160e01b600052601160045260246000fd5b80820180821115611b9b57611b9b612d7a565b8082028115828204841417611b9b57611b9b612d7a565b600082612dd757634e487b7160e01b600052601260045260246000fd5b500490565b81810381811115611b9b57611b9b612d7a565b60208082526026908201527f535855413a20496e73756666696369656e7420756e636f6d6d69747465642062604082015265616c616e636560d01b606082015260800190565b600060208284031215612e4757600080fd5b815160ff81168114612b4e57600080fd5b60ff8281168282160390811115611b9b57611b9b612d7a565b600181815b80851115612eac578160001904821115612e9257612e92612d7a565b80851615612e9f57918102915b93841c9390800290612e76565b509250929050565b600082612ec357506001611b9b565b81612ed057506000611b9b565b8160018114612ee65760028114612ef057612f0c565b6001915050611b9b565b60ff841115612f0157612f01612d7a565b50506001821b611b9b565b5060208310610133831016604e8410600b8410161715612f2f575081810a611b9b565b612f398383612e71565b8060001904821115612f4d57612f4d612d7a565b029392505050565b6000612b4e60ff841683612eb4565b600060208284031215612f7657600080fd5b505191905056fe360894a13ba1a3210667c828492db98dca3e2076cc3735a920a3ca505d382bbccd5ed15c6e187e77e9aee88184c21f4f2182ab5827cb3b7e07fbedcd63f033009b779b17422d0df92223018b32b4d1fa46e071723d6817e2486d003becc55f00a2646970667358221220bac25fd85f8c4a0e0e55c0423354508eb19bd88e35149b4110c03808a5d65ed564736f6c63430008180033",
  "linkReferences": {},
  "deployedLinkReferences": {}
}