{
  "_format": "hh-sol-artifact-1",
  "contractName": "SXEP",
  "sourceName": "contracts/SXEP.sol",
  "abi": [
    {
      "inputs": [
        {
          "internalType": "address",
          "name": "_treasury",
          "type": "address"
        }
      ],
      "stateMutability": "nonpayable",
      "type": "constructor"
    },
    {
      "inputs": [
        {
          "internalType": "address",
          "name": "owner",
          "type": "address"
        }
      ],
      "name": "OwnableInvalidOwner",
      "type": "error"
    },
    {
      "inputs": [
        {
          "internalType": "address",
          "name": "account",
          "type": "address"
        }
      ],
      "name": "OwnableUnauthorizedAccount",
      "type": "error"
    },
    {
      "inputs": [],
      "name": "ReentrancyGuardReentrantCall",
      "type": "error"
    },
    {
      "inputs": [
        {
          "internalType": "address",
          "name": "token",
          "type": "address"
        }
      ],
      "name": "SafeERC20FailedOperation",
      "type": "error"
    },
    {
      "anonymous": false,
      "inputs": [
        {
          "indexed": true,
          "internalType": "address",
          "name": "previousOwner",
          "type": "address"
        },
        {
          "indexed": true,
          "internalType": "address",
          "name": "newOwner",
          "type": "address"
        }
      ],
      "name": "OwnershipTransferred",
      "type": "event"
    },
    {
      "anonymous": false,
      "inputs": [
        {
          "indexed": true,
          "internalType": "uint256",
          "name": "tradeId",
          "type": "uint256"
        },
        {
          "indexed": true,
          "internalType": "address",
          "name": "trader",
          "type": "address"
        },
        {
          "indexed": false,
          "internalType": "address",
          "name": "tokenIn",
          "type": "address"
        },
        {
          "indexed": false,
          "internalType": "address",
          "name": "tokenOut",
          "type": "address"
        },
        {
          "indexed": false,
          "internalType": "uint256",
          "name": "amountIn",
          "type": "uint256"
        },
        {
          "indexed": false,
          "internalType": "uint256",
          "name": "minAmountOut",
          "type": "uint256"
        }
      ],
      "name": "TradeExecuted",
      "type": "event"
    },
    {
      "anonymous": false,
      "inputs": [
        {
          "indexed": true,
          "internalType": "uint256",
          "name": "tradeId",
          "type": "uint256"
        },
        {
          "indexed": false,
          "internalType": "uint256",
          "name": "finalAmountOut",
          "type": "uint256"
        },
        {
          "indexed": false,
          "internalType": "uint256",
          "name": "feeAmount",
          "type": "uint256"
        }
      ],
      "name": "TradeSettled",
      "type": "event"
    },
    {
      "anonymous": false,
      "inputs": [
        {
          "indexed": true,
          "internalType": "address",
          "name": "newTreasury",
          "type": "address"
        }
      ],
      "name": "TreasuryUpdated",
      "type": "event"
    },
    {
      "inputs": [
        {
          "internalType": "address",
          "name": "tokenIn",
          "type": "address"
        },
        {
          "internalType": "address",
          "name": "tokenOut",
          "type": "address"
        },
        {
          "internalType": "uint256",
          "name": "amountIn",
          "type": "uint256"
        },
        {
          "internalType": "uint256",
          "name": "minAmountOut",
          "type": "uint256"
        }
      ],
      "name": "executeTrade",
      "outputs": [
        {
          "internalType": "uint256",
          "name": "",
          "type": "uint256"
        }
      ],
      "stateMutability": "nonpayable",
      "type": "function"
    },
    {
      "inputs": [],
      "name": "getTradeCount",
      "outputs": [
        {
          "internalType": "uint256",
          "name": "",
          "type": "uint256"
        }
      ],
      "stateMutability": "view",
      "type": "function"
    },
    {
      "inputs": [],
      "name": "owner",
      "outputs": [
        {
          "internalType": "address",
          "name": "",
          "type": "address"
        }
      ],
      "stateMutability": "view",
      "type": "function"
    },
    {
      "inputs": [],
      "name": "renounceOwnership",
      "outputs": [],
      "stateMutability": "nonpayable",
      "type": "function"
    },
    {
      "inputs": [
        {
          "internalType": "address",
          "name": "_treasury",
          "type": "address"
        }
      ],
      "name": "setTreasury",
      "outputs": [],
      "stateMutability": "nonpayable",
      "type": "function"
    },
    {
      "inputs": [
        {
          "internalType": "uint256",
          "name": "tradeId",
          "type": "uint256"
        },
        {
          "internalType": "uint256",
          "name": "finalAmountOut",
          "type": "uint256"
        }
      ],
      "name": "settleTrade",
      "outputs": [],
      "stateMutability": "nonpayable",
      "type": "function"
    },
    {
      "inputs": [
        {
          "internalType": "uint256",
          "name": "",
          "type": "uint256"
        }
      ],
      "name": "trades",
      "outputs": [
        {
          "internalType": "address",
          "name": "trader",
          "type": "address"
        },
        {
          "internalType": "address",
          "name": "tokenIn",
          "type": "address"
        },
        {
          "internalType": "address",
          "name": "tokenOut",
          "type": "address"
        },
        {
          "internalType": "uint256",
          "name": "amountIn",
          "type": "uint256"
        },
        {
          "internalType": "uint256",
          "name": "minAmountOut",
          "type": "uint256"
        },
        {
          "internalType": "bool",
          "name": "settled",
          "type": "bool"
        }
      ],
      "stateMutability": "view",
      "type": "function"
    },
    {
      "inputs": [
        {
          "internalType": "address",
          "name": "newOwner",
          "type": "address"
        }
      ],
      "name": "transferOwnership",
      "outputs": [],
      "stateMutability": "nonpayable",
      "type": "function"
    },
    {
      "inputs": [],
      "name": "treasury",
      "outputs": [
        {
          "internalType": "address",
          "name": "",
          "type": "address"
        }
      ],
      "stateMutability": "view",
      "type": "function"
    }
  ],
  "bytecode": "0x608060405234801561001057600080fd5b50604051610ceb380380610ceb83398101604081905261002f9161014f565b338061005657604051631e4fbdf760e01b8152600060048201526024015b60405180910390fd5b61005f816100ff565b5060017f9b779b17422d0df92223018b32b4d1fa46e071723d6817e2486d003becc55f00556001600160a01b0381166100da5760405162461bcd60e51b815260206004820152601660248201527f535845503a20496e76616c696420747265617375727900000000000000000000604482015260640161004d565b600180546001600160a01b0319166001600160a01b039290921691909117905561017f565b600080546001600160a01b038381166001600160a01b0319831681178455604051919092169283917f8be0079c531659141344cd1fd0a4f28419497f9722a3daafe3b4186f6b6457e09190a35050565b60006020828403121561016157600080fd5b81516001600160a01b038116811461017857600080fd5b9392505050565b610b5d8061018e6000396000f3fe608060405234801561001057600080fd5b50600436106100935760003560e01c8063976cc82611610066578063976cc82614610134578063a3031b7714610147578063b907861614610159578063f0f442601461016c578063f2fde38b1461017f57600080fd5b80631e6c598e1461009857806361d027b3146100ee578063715018a6146101195780638da5cb5b14610123575b600080fd5b6100ab6100a63660046109ce565b610192565b604080516001600160a01b039788168152958716602087015293909516928401929092526060830152608082015290151560a082015260c0015b60405180910390f35b600154610101906001600160a01b031681565b6040516001600160a01b0390911681526020016100e5565b6101216101eb565b005b6000546001600160a01b0316610101565b6101216101423660046109e7565b6101ff565b6002545b6040519081526020016100e5565b61014b610167366004610a25565b61040c565b61012161017a366004610a67565b6106d8565b61012161018d366004610a67565b610779565b600281815481106101a257600080fd5b60009182526020909120600690910201805460018201546002830154600384015460048501546005909501546001600160a01b0394851696509284169491909316929160ff1686565b6101f36107b7565b6101fd60006107e4565b565b6102076107b7565b61020f610834565b60025482106102655760405162461bcd60e51b815260206004820152601a60248201527f535845503a20547261646520646f6573206e6f7420657869737400000000000060448201526064015b60405180910390fd5b60006002838154811061027a5761027a610a89565b60009182526020909120600690910201600581015490915060ff16156102da5760405162461bcd60e51b815260206004820152601560248201527414d611540e88105b1c9958591e481cd95d1d1b1959605a1b604482015260640161025c565b806004015482101561033a5760405162461bcd60e51b8152602060048201526024808201527f535845503a20536c697070616765206578636565646564206d696e416d6f756e6044820152631d13dd5d60e21b606482015260840161025c565b6005808201805460ff1916600117905560009060649061035b908590610ab5565b6103659190610ad2565b905060006103738285610af4565b6001546002850154919250610395916001600160a01b03908116911684610850565b825460028401546103b3916001600160a01b03918216911683610850565b604080518581526020810184905286917f362f9a217b45e2d19126aa1e3a553f2a6291e9cd58e1c4c6958b64ea47b299d6910160405180910390a25050506104086001600080516020610b0883398151915255565b5050565b6000610416610834565b600083116104665760405162461bcd60e51b815260206004820152601b60248201527f535845503a20416d6f756e7420696e206d757374206265203e20300000000000604482015260640161025c565b6001600160a01b0385161580159061048657506001600160a01b03841615155b6104c95760405162461bcd60e51b8152602060048201526014602482015273535845503a20496e76616c696420746f6b656e7360601b604482015260640161025c565b6104de6001600160a01b03861633308661088a565b6040805160c0810182523381526001600160a01b03878116602083019081528782169383019384526060830187815260808401878152600060a086018181526002805460018181018355828552985160069091027f405787fa12a823e0f2b7631cc41b3ba8828b3321ca811111fa75cd3aa3bb5ace81018054928a166001600160a01b031993841617905596517f405787fa12a823e0f2b7631cc41b3ba8828b3321ca811111fa75cd3aa3bb5acf88018054918a1691831691909117905598517f405787fa12a823e0f2b7631cc41b3ba8828b3321ca811111fa75cd3aa3bb5ad0870180549190981699169890981790955591517f405787fa12a823e0f2b7631cc41b3ba8828b3321ca811111fa75cd3aa3bb5ad1840155517f405787fa12a823e0f2b7631cc41b3ba8828b3321ca811111fa75cd3aa3bb5ad283015591517f405787fa12a823e0f2b7631cc41b3ba8828b3321ca811111fa75cd3aa3bb5ad3909101805491151560ff19909216919091179055915461065e9190610af4565b604080516001600160a01b0389811682528816602082015290810186905260608101859052909150339082907f535a3364ab5a6b89c3162f88e225b790260a4ee959966cc459ce2a3548e31f339060800160405180910390a390506106d06001600080516020610b0883398151915255565b949350505050565b6106e06107b7565b6001600160a01b03811661072f5760405162461bcd60e51b8152602060048201526016602482015275535845503a20496e76616c696420747265617375727960501b604482015260640161025c565b600180546001600160a01b0319166001600160a01b0383169081179091556040517f7dae230f18360d76a040c81f050aa14eb9d6dc7901b20fc5d855e2a20fe814d190600090a250565b6107816107b7565b6001600160a01b0381166107ab57604051631e4fbdf760e01b81526000600482015260240161025c565b6107b4816107e4565b50565b6000546001600160a01b031633146101fd5760405163118cdaa760e01b815233600482015260240161025c565b600080546001600160a01b038381166001600160a01b0319831681178455604051919092169283917f8be0079c531659141344cd1fd0a4f28419497f9722a3daafe3b4186f6b6457e09190a35050565b61083c6108c6565b6002600080516020610b0883398151915255565b61085d83838360016108f6565b61088557604051635274afe760e01b81526001600160a01b038416600482015260240161025c565b505050565b61089884848484600161095c565b6108c057604051635274afe760e01b81526001600160a01b038516600482015260240161025c565b50505050565b600080516020610b08833981519152546002036101fd57604051633ee5aeb560e01b815260040160405180910390fd5b60405163a9059cbb60e01b60008181526001600160a01b038616600452602485905291602083604481808b5af192506001600051148316610950578383151615610943573d6000823e3d81fd5b6000873b113d1516831692505b60405250949350505050565b6040516323b872dd60e01b60008181526001600160a01b038781166004528616602452604485905291602083606481808c5af1925060016000511483166109bc5783831516156109af573d6000823e3d81fd5b6000883b113d1516831692505b60405250600060605295945050505050565b6000602082840312156109e057600080fd5b5035919050565b600080604083850312156109fa57600080fd5b50508035926020909101359150565b80356001600160a01b0381168114610a2057600080fd5b919050565b60008060008060808587031215610a3b57600080fd5b610a4485610a09565b9350610a5260208601610a09565b93969395505050506040820135916060013590565b600060208284031215610a7957600080fd5b610a8282610a09565b9392505050565b634e487b7160e01b600052603260045260246000fd5b634e487b7160e01b600052601160045260246000fd5b8082028115828204841417610acc57610acc610a9f565b92915050565b600082610aef57634e487b7160e01b600052601260045260246000fd5b500490565b81810381811115610acc57610acc610a9f56fe9b779b17422d0df92223018b32b4d1fa46e071723d6817e2486d003becc55f00a2646970667358221220b21f4e131b82fb9a2d55c6cbed1dd63e246a0decf5b99fd98dd0bbcddd46d31664736f6c63430008180033",
  "linkReferences": {},
  "deployedLinkReferences": {}
}