{
  "_format": "hh-sol-artifact-1",
  "contractName": "SXEP",
  "sourceName": "contracts/SXEP.sol",
  "abi": [
    {
      "inputs": [
        {
          "internalType": "address",
          "name": "_treasury",
          "type": "address"
        }
      ],
      "stateMutability": "nonpayable",
      "type": "constructor"
    },
    {
      "inputs": [
        {
          "internalType": "address",
          "name": "owner",
          "type": "address"
        }
      ],
      "name": "OwnableInvalidOwner",
      "type": "error"
    },
    {
      "inputs": [
        {
          "internalType": "address",
          "name": "account",
          "type": "address"
        }
      ],
      "name": "OwnableUnauthorizedAccount",
      "type": "error"
    },
    {
      "inputs": [],
      "name": "ReentrancyGuardReentrantCall",
      "type": "error"
    },
    {
      "inputs": [
        {
          "internalType": "address",
          "name": "token",
          "type": "address"
        }
      ],
      "name": "SafeERC20FailedOperation",
      "type": "error"
    },
    {
      "anonymous": false,
      "inputs": [
        {
          "indexed": true,
          "internalType": "address",
          "name": "previousOwner",
          "type": "address"
        },
        {
          "indexed": true,
          "internalType": "address",
          "name": "newOwner",
          "type": "address"
        }
      ],
      "name": "OwnershipTransferred",
      "type": "event"
    },
    {
      "inputs": [
        {
          "internalType": "address",
          "name": "tokenIn",
          "type": "address"
        },
        {
          "internalType": "address",
          "name": "tokenOut",
          "type": "address"
        },
        {
          "internalType": "uint256",
          "name": "amountIn",
          "type": "uint256"
        },
        {
          "internalType": "uint256",
          "name": "amountOutExpected",
          "type": "uint256"
        }
      ],
      "name": "executeTrade",
      "outputs": [
        {
          "internalType": "uint256",
          "name": "",
          "type": "uint256"
        }
      ],
      "stateMutability": "nonpayable",
      "type": "function"
    },
    {
      "inputs": [],
      "name": "owner",
      "outputs": [
        {
          "internalType": "address",
          "name": "",
          "type": "address"
        }
      ],
      "stateMutability": "view",
      "type": "function"
    },
    {
      "inputs": [],
      "name": "renounceOwnership",
      "outputs": [],
      "stateMutability": "nonpayable",
      "type": "function"
    },
    {
      "inputs": [
        {
          "internalType": "uint256",
          "name": "tradeId",
          "type": "uint256"
        },
        {
          "internalType": "uint256",
          "name": "actualAmountOut",
          "type": "uint256"
        }
      ],
      "name": "settleTrade",
      "outputs": [],
      "stateMutability": "nonpayable",
      "type": "function"
    },
    {
      "inputs": [],
      "name": "tradeCount",
      "outputs": [
        {
          "internalType": "uint256",
          "name": "",
          "type": "uint256"
        }
      ],
      "stateMutability": "view",
      "type": "function"
    },
    {
      "inputs": [
        {
          "internalType": "uint256",
          "name": "",
          "type": "uint256"
        }
      ],
      "name": "trades",
      "outputs": [
        {
          "internalType": "address",
          "name": "user",
          "type": "address"
        },
        {
          "internalType": "address",
          "name": "tokenIn",
          "type": "address"
        },
        {
          "internalType": "address",
          "name": "tokenOut",
          "type": "address"
        },
        {
          "internalType": "uint256",
          "name": "amountIn",
          "type": "uint256"
        },
        {
          "internalType": "uint256",
          "name": "amountOutExpected",
          "type": "uint256"
        },
        {
          "internalType": "bool",
          "name": "settled",
          "type": "bool"
        }
      ],
      "stateMutability": "view",
      "type": "function"
    },
    {
      "inputs": [
        {
          "internalType": "address",
          "name": "newOwner",
          "type": "address"
        }
      ],
      "name": "transferOwnership",
      "outputs": [],
      "stateMutability": "nonpayable",
      "type": "function"
    },
    {
      "inputs": [],
      "name": "treasury",
      "outputs": [
        {
          "internalType": "address",
          "name": "",
          "type": "address"
        }
      ],
      "stateMutability": "view",
      "type": "function"
    }
  ],
  "bytecode": "0x608060405234801561001057600080fd5b506040516108f83803806108f883398101604081905261002f916100f8565b338061005557604051631e4fbdf760e01b81526000600482015260240160405180910390fd5b61005e816100a8565b5060017f9b779b17422d0df92223018b32b4d1fa46e071723d6817e2486d003becc55f0055600180546001600160a01b0319166001600160a01b0392909216919091179055610128565b600080546001600160a01b038381166001600160a01b0319831681178455604051919092169283917f8be0079c531659141344cd1fd0a4f28419497f9722a3daafe3b4186f6b6457e09190a35050565b60006020828403121561010a57600080fd5b81516001600160a01b038116811461012157600080fd5b9392505050565b6107c1806101376000396000f3fe608060405234801561001057600080fd5b50600436106100885760003560e01c8063976cc8261161005b578063976cc8261461016c578063b90786161461017f578063bd55022a146101a0578063f2fde38b146101a957600080fd5b80631e6c598e1461008d57806361d027b314610126578063715018a6146101515780638da5cb5b1461015b575b600080fd5b6100e361009b36600461062f565b60026020819052600091825260409091208054600182015492820154600383015460048401546005909401546001600160a01b03938416958416949390921692909160ff1686565b604080516001600160a01b039788168152958716602087015293909516928401929092526060830152608082015290151560a082015260c0015b60405180910390f35b600154610139906001600160a01b031681565b6040516001600160a01b03909116815260200161011d565b6101596101bc565b005b6000546001600160a01b0316610139565b61015961017a366004610648565b6101d0565b61019261018d366004610686565b6102d7565b60405190815260200161011d565b61019260035481565b6101596101b73660046106c8565b6103da565b6101c4610418565b6101ce6000610445565b565b6101d8610418565b6101e0610495565b6000828152600260205260409020600581015460ff16156102405760405162461bcd60e51b815260206004820152601560248201527414d611540e88105b1c9958591e481cd95d1d1b1959605a1b60448201526064015b60405180910390fd5b6005808201805460ff19166001179055600090606490610261908590610700565b61026b919061071d565b90506000610279828561073f565b600154600285015491925061029b916001600160a01b039081169116846104b1565b825460028401546102b9916001600160a01b039182169116836104b1565b5050506102d3600160008051602061076c83398151915255565b5050565b60006102e1610495565b6102f66001600160a01b0386163330866104eb565b6040805160c0810182523381526001600160a01b0387811660208084019182528883168486019081526060850189815260808601898152600060a08801818152600380548352600296879052998220985189546001600160a01b0319908116918a16919091178a55965160018a0180548916918a16919091179055935194880180549096169490961693909317909355915184860155516004840155516005909201805460ff191692151592909217909155815491906103b583610752565b9190505590506103d2600160008051602061076c83398151915255565b949350505050565b6103e2610418565b6001600160a01b03811661040c57604051631e4fbdf760e01b815260006004820152602401610237565b61041581610445565b50565b6000546001600160a01b031633146101ce5760405163118cdaa760e01b8152336004820152602401610237565b600080546001600160a01b038381166001600160a01b0319831681178455604051919092169283917f8be0079c531659141344cd1fd0a4f28419497f9722a3daafe3b4186f6b6457e09190a35050565b61049d610527565b600260008051602061076c83398151915255565b6104be8383836001610557565b6104e657604051635274afe760e01b81526001600160a01b0384166004820152602401610237565b505050565b6104f98484848460016105bd565b61052157604051635274afe760e01b81526001600160a01b0385166004820152602401610237565b50505050565b60008051602061076c833981519152546002036101ce57604051633ee5aeb560e01b815260040160405180910390fd5b60405163a9059cbb60e01b60008181526001600160a01b038616600452602485905291602083604481808b5af1925060016000511483166105b15783831516156105a4573d6000823e3d81fd5b6000873b113d1516831692505b60405250949350505050565b6040516323b872dd60e01b60008181526001600160a01b038781166004528616602452604485905291602083606481808c5af19250600160005114831661061d578383151615610610573d6000823e3d81fd5b6000883b113d1516831692505b60405250600060605295945050505050565b60006020828403121561064157600080fd5b5035919050565b6000806040838503121561065b57600080fd5b50508035926020909101359150565b80356001600160a01b038116811461068157600080fd5b919050565b6000806000806080858703121561069c57600080fd5b6106a58561066a565b93506106b36020860161066a565b93969395505050506040820135916060013590565b6000602082840312156106da57600080fd5b6106e38261066a565b9392505050565b634e487b7160e01b600052601160045260246000fd5b8082028115828204841417610717576107176106ea565b92915050565b60008261073a57634e487b7160e01b600052601260045260246000fd5b500490565b81810381811115610717576107176106ea565b600060018201610764576107646106ea565b506001019056fe9b779b17422d0df92223018b32b4d1fa46e071723d6817e2486d003becc55f00a2646970667358221220fdf512ab2d59e8dd05a0ca1698c1d11fa63d6b00198de1345f93a7d37f011e3264736f6c63430008180033",
  "linkReferences": {},
  "deployedLinkReferences": {}
}