{
  "_format": "hh-sol-artifact-1",
  "contractName": "BridgeManager",
  "sourceName": "contracts/BridgeManager.sol",
  "abi": [
    {
      "inputs": [
        {
          "internalType": "address",
          "name": "_sxua",
          "type": "address"
        }
      ],
      "stateMutability": "nonpayable",
      "type": "constructor"
    },
    {
      "inputs": [
        {
          "internalType": "address",
          "name": "owner",
          "type": "address"
        }
      ],
      "name": "OwnableInvalidOwner",
      "type": "error"
    },
    {
      "inputs": [
        {
          "internalType": "address",
          "name": "account",
          "type": "address"
        }
      ],
      "name": "OwnableUnauthorizedAccount",
      "type": "error"
    },
    {
      "anonymous": false,
      "inputs": [
        {
          "indexed": true,
          "internalType": "address",
          "name": "previousOwner",
          "type": "address"
        },
        {
          "indexed": true,
          "internalType": "address",
          "name": "newOwner",
          "type": "address"
        }
      ],
      "name": "OwnershipTransferred",
      "type": "event"
    },
    {
      "anonymous": false,
      "inputs": [
        {
          "indexed": true,
          "internalType": "address",
          "name": "recipient",
          "type": "address"
        },
        {
          "indexed": true,
          "internalType": "address",
          "name": "token",
          "type": "address"
        },
        {
          "indexed": false,
          "internalType": "uint256",
          "name": "amount",
          "type": "uint256"
        },
        {
          "indexed": false,
          "internalType": "uint256",
          "name": "sourceChain",
          "type": "uint256"
        },
        {
          "indexed": false,
          "internalType": "uint256",
          "name": "nonce",
          "type": "uint256"
        },
        {
          "indexed": false,
          "internalType": "bytes32",
          "name": "requestHash",
          "type": "bytes32"
        }
      ],
      "name": "WithdrawalFinalized",
      "type": "event"
    },
    {
      "inputs": [
        {
          "internalType": "address",
          "name": "token",
          "type": "address"
        },
        {
          "internalType": "uint256",
          "name": "amount",
          "type": "uint256"
        },
        {
          "internalType": "address",
          "name": "recipient",
          "type": "address"
        },
        {
          "internalType": "uint256",
          "name": "sourceChain",
          "type": "uint256"
        },
        {
          "internalType": "uint256",
          "name": "nonce",
          "type": "uint256"
        }
      ],
      "name": "finalizeWithdrawal",
      "outputs": [],
      "stateMutability": "nonpayable",
      "type": "function"
    },
    {
      "inputs": [],
      "name": "owner",
      "outputs": [
        {
          "internalType": "address",
          "name": "",
          "type": "address"
        }
      ],
      "stateMutability": "view",
      "type": "function"
    },
    {
      "inputs": [
        {
          "internalType": "bytes32",
          "name": "",
          "type": "bytes32"
        }
      ],
      "name": "processedRequests",
      "outputs": [
        {
          "internalType": "bool",
          "name": "",
          "type": "bool"
        }
      ],
      "stateMutability": "view",
      "type": "function"
    },
    {
      "inputs": [],
      "name": "renounceOwnership",
      "outputs": [],
      "stateMutability": "nonpayable",
      "type": "function"
    },
    {
      "inputs": [
        {
          "internalType": "address",
          "name": "_sxua",
          "type": "address"
        }
      ],
      "name": "setSXUA",
      "outputs": [],
      "stateMutability": "nonpayable",
      "type": "function"
    },
    {
      "inputs": [],
      "name": "sxua",
      "outputs": [
        {
          "internalType": "contract ISXUA",
          "name": "",
          "type": "address"
        }
      ],
      "stateMutability": "view",
      "type": "function"
    },
    {
      "inputs": [
        {
          "internalType": "address",
          "name": "newOwner",
          "type": "address"
        }
      ],
      "name": "transferOwnership",
      "outputs": [],
      "stateMutability": "nonpayable",
      "type": "function"
    }
  ],
  "bytecode": "0x608060405234801561001057600080fd5b506040516107aa3803806107aa83398101604081905261002f91610137565b338061005657604051631e4fbdf760e01b8152600060048201526024015b60405180910390fd5b61005f816100e7565b506001600160a01b0381166100c25760405162461bcd60e51b815260206004820152602360248201527f4272696467654d616e616765723a20496e76616c69642053585541206164647260448201526265737360e81b606482015260840161004d565b600180546001600160a01b0319166001600160a01b0392909216919091179055610167565b600080546001600160a01b038381166001600160a01b0319831681178455604051919092169283917f8be0079c531659141344cd1fd0a4f28419497f9722a3daafe3b4186f6b6457e09190a35050565b60006020828403121561014957600080fd5b81516001600160a01b038116811461016057600080fd5b9392505050565b610634806101766000396000f3fe608060405234801561001057600080fd5b506004361061007d5760003560e01c806385d2e16d1161005b57806385d2e16d146100b25780638da5cb5b146100e2578063ce0fa5a9146100f3578063f2fde38b1461012657600080fd5b80631eb372f71461008257806346beebef14610097578063715018a6146100aa575b600080fd5b610095610090366004610575565b610139565b005b6100956100a53660046105c3565b6103fe565b61009561048a565b6001546100c5906001600160a01b031681565b6040516001600160a01b0390911681526020015b60405180910390f35b6000546001600160a01b03166100c5565b6101166101013660046105e5565b60026020526000908152604090205460ff1681565b60405190151581526020016100d9565b6100956101343660046105c3565b61049e565b6101416104dc565b6001600160a01b03851661019c5760405162461bcd60e51b815260206004820152601c60248201527f4272696467654d616e616765723a20496e76616c696420746f6b656e0000000060448201526064015b60405180910390fd5b6001600160a01b0383166101f25760405162461bcd60e51b815260206004820181905260248201527f4272696467654d616e616765723a20496e76616c696420726563697069656e746044820152606401610193565b6000841161024c5760405162461bcd60e51b815260206004820152602160248201527f4272696467654d616e616765723a20416d6f756e74206d757374206265203e206044820152600360fc1b6064820152608401610193565b6040516bffffffffffffffffffffffff19606087811b821660208401526034830187905285901b166054820152606881018390526088810182905260009060a80160408051601f1981840301815291815281516020928301206000818152600290935291205490915060ff16156103165760405162461bcd60e51b815260206004820152602860248201527f4272696467654d616e616765723a205265717565737420616c726561647920706044820152671c9bd8d95cdcd95960c21b6064820152608401610193565b60008181526002602052604090819020805460ff1916600190811790915554905163b3db428b60e01b81526001600160a01b0386811660048301528881166024830152604482018890529091169063b3db428b90606401600060405180830381600087803b15801561038757600080fd5b505af115801561039b573d6000803e3d6000fd5b50506040805188815260208101879052908101859052606081018490526001600160a01b03808a169350871691507f8a25edf6070c01c8e13229c2173f539d3d5f879135cd707c23bf604abc82b66b9060800160405180910390a3505050505050565b6104066104dc565b6001600160a01b0381166104685760405162461bcd60e51b815260206004820152602360248201527f4272696467654d616e616765723a20496e76616c69642053585541206164647260448201526265737360e81b6064820152608401610193565b600180546001600160a01b0319166001600160a01b0392909216919091179055565b6104926104dc565b61049c6000610509565b565b6104a66104dc565b6001600160a01b0381166104d057604051631e4fbdf760e01b815260006004820152602401610193565b6104d981610509565b50565b6000546001600160a01b0316331461049c5760405163118cdaa760e01b8152336004820152602401610193565b600080546001600160a01b038381166001600160a01b0319831681178455604051919092169283917f8be0079c531659141344cd1fd0a4f28419497f9722a3daafe3b4186f6b6457e09190a35050565b80356001600160a01b038116811461057057600080fd5b919050565b600080600080600060a0868803121561058d57600080fd5b61059686610559565b9450602086013593506105ab60408701610559565b94979396509394606081013594506080013592915050565b6000602082840312156105d557600080fd5b6105de82610559565b9392505050565b6000602082840312156105f757600080fd5b503591905056fea2646970667358221220e6545f5ea7acb4a13f4c75a84c2806b5ba3e8aec8bdcf0bfc3a06c7202bf0d3764736f6c63430008180033",
  "linkReferences": {},
  "deployedLinkReferences": {}
}