{
  "_format": "hh-sol-artifact-1",
  "contractName": "MarketMaker",
  "sourceName": "contracts/MarketMaker.sol",
  "abi": [
    {
      "inputs": [
        {
          "internalType": "address",
          "name": "token",
          "type": "address"
        }
      ],
      "name": "SafeERC20FailedOperation",
      "type": "error"
    },
    {
      "anonymous": false,
      "inputs": [
        {
          "indexed": true,
          "internalType": "address",
          "name": "token",
          "type": "address"
        },
        {
          "indexed": false,
          "internalType": "uint256",
          "name": "amount",
          "type": "uint256"
        }
      ],
      "name": "ForfeitedValueReceived",
      "type": "event"
    },
    {
      "inputs": [
        {
          "internalType": "address",
          "name": "",
          "type": "address"
        }
      ],
      "name": "forfeitedBalances",
      "outputs": [
        {
          "internalType": "uint256",
          "name": "",
          "type": "uint256"
        }
      ],
      "stateMutability": "view",
      "type": "function"
    },
    {
      "inputs": [
        {
          "internalType": "address",
          "name": "token",
          "type": "address"
        }
      ],
      "name": "getForfeitedBalance",
      "outputs": [
        {
          "internalType": "uint256",
          "name": "",
          "type": "uint256"
        }
      ],
      "stateMutability": "view",
      "type": "function"
    },
    {
      "inputs": [
        {
          "internalType": "address",
          "name": "token",
          "type": "address"
        },
        {
          "internalType": "uint256",
          "name": "amount",
          "type": "uint256"
        }
      ],
      "name": "receiveForfeitedValue",
      "outputs": [],
      "stateMutability": "nonpayable",
      "type": "function"
    },
    {
      "stateMutability": "payable",
      "type": "receive"
    }
  ],
  "bytecode": "0x608060405234801561001057600080fd5b506102d6806100206000396000f3fe6080604052600436106100385760003560e01c80638a646a8114610044578063be6d0ab414610083578063e6c5f30e146100a557600080fd5b3661003f57005b600080fd5b34801561005057600080fd5b5061007161005f36600461022d565b60006020819052908152604090205481565b60405190815260200160405180910390f35b34801561008f57600080fd5b506100a361009e36600461024f565b6100db565b005b3480156100b157600080fd5b506100716100c036600461022d565b6001600160a01b031660009081526020819052604090205490565b6100f06001600160a01b03831633308461015f565b6001600160a01b03821660009081526020819052604081208054839290610118908490610279565b90915550506040518181526001600160a01b038316907f6ec23fc0b2f4022e7bf096571871754982ccad9eacdd48b075d2b8245c6a2cf89060200160405180910390a25050565b61016d84848484600161019f565b61019957604051635274afe760e01b81526001600160a01b038516600482015260240160405180910390fd5b50505050565b6040516323b872dd60e01b60008181526001600160a01b038781166004528616602452604485905291602083606481808c5af1925060016000511483166101ff5783831516156101f2573d6000823e3d81fd5b6000883b113d1516831692505b60405250600060605295945050505050565b80356001600160a01b038116811461022857600080fd5b919050565b60006020828403121561023f57600080fd5b61024882610211565b9392505050565b6000806040838503121561026257600080fd5b61026b83610211565b946020939093013593505050565b8082018082111561029a57634e487b7160e01b600052601160045260246000fd5b9291505056fea26469706673582212206a905b4df115638f4610707a9bc33c43c2303ede9d3c3fbe26ba644224e64a4864736f6c63430008180033",
  "linkReferences": {},
  "deployedLinkReferences": {}
}