{
  "_format": "hh-sol-artifact-1",
  "contractName": "SXGovernance",
  "sourceName": "contracts/SXGovernance.sol",
  "abi": [
    {
      "inputs": [
        {
          "internalType": "address",
          "name": "_adminA",
          "type": "address"
        },
        {
          "internalType": "address",
          "name": "_adminB",
          "type": "address"
        },
        {
          "internalType": "address",
          "name": "_adminC",
          "type": "address"
        }
      ],
      "stateMutability": "nonpayable",
      "type": "constructor"
    },
    {
      "inputs": [],
      "name": "ReentrancyGuardReentrantCall",
      "type": "error"
    },
    {
      "anonymous": false,
      "inputs": [
        {
          "indexed": true,
          "internalType": "address",
          "name": "admin",
          "type": "address"
        },
        {
          "indexed": false,
          "internalType": "bytes32",
          "name": "deviceHash",
          "type": "bytes32"
        }
      ],
      "name": "DeviceBound",
      "type": "event"
    },
    {
      "anonymous": false,
      "inputs": [
        {
          "indexed": true,
          "internalType": "uint256",
          "name": "proposalId",
          "type": "uint256"
        },
        {
          "indexed": true,
          "internalType": "address",
          "name": "admin",
          "type": "address"
        }
      ],
      "name": "ProposalApproved",
      "type": "event"
    },
    {
      "anonymous": false,
      "inputs": [
        {
          "indexed": true,
          "internalType": "uint256",
          "name": "proposalId",
          "type": "uint256"
        },
        {
          "indexed": true,
          "internalType": "address",
          "name": "target",
          "type": "address"
        },
        {
          "indexed": false,
          "internalType": "uint256",
          "name": "value",
          "type": "uint256"
        },
        {
          "indexed": false,
          "internalType": "bytes",
          "name": "data",
          "type": "bytes"
        }
      ],
      "name": "ProposalCreated",
      "type": "event"
    },
    {
      "anonymous": false,
      "inputs": [
        {
          "indexed": true,
          "internalType": "uint256",
          "name": "proposalId",
          "type": "uint256"
        }
      ],
      "name": "ProposalExecuted",
      "type": "event"
    },
    {
      "inputs": [],
      "name": "adminA",
      "outputs": [
        {
          "internalType": "address",
          "name": "",
          "type": "address"
        }
      ],
      "stateMutability": "view",
      "type": "function"
    },
    {
      "inputs": [],
      "name": "adminB",
      "outputs": [
        {
          "internalType": "address",
          "name": "",
          "type": "address"
        }
      ],
      "stateMutability": "view",
      "type": "function"
    },
    {
      "inputs": [],
      "name": "adminC",
      "outputs": [
        {
          "internalType": "address",
          "name": "",
          "type": "address"
        }
      ],
      "stateMutability": "view",
      "type": "function"
    },
    {
      "inputs": [
        {
          "internalType": "uint256",
          "name": "proposalId",
          "type": "uint256"
        },
        {
          "internalType": "bytes32",
          "name": "deviceHash",
          "type": "bytes32"
        }
      ],
      "name": "approve",
      "outputs": [],
      "stateMutability": "nonpayable",
      "type": "function"
    },
    {
      "inputs": [
        {
          "internalType": "bytes32",
          "name": "deviceHash",
          "type": "bytes32"
        }
      ],
      "name": "bindDevice",
      "outputs": [],
      "stateMutability": "nonpayable",
      "type": "function"
    },
    {
      "inputs": [
        {
          "internalType": "address",
          "name": "",
          "type": "address"
        }
      ],
      "name": "deviceHashes",
      "outputs": [
        {
          "internalType": "bytes32",
          "name": "",
          "type": "bytes32"
        }
      ],
      "stateMutability": "view",
      "type": "function"
    },
    {
      "inputs": [
        {
          "internalType": "uint256",
          "name": "proposalId",
          "type": "uint256"
        }
      ],
      "name": "execute",
      "outputs": [
        {
          "internalType": "bytes",
          "name": "",
          "type": "bytes"
        }
      ],
      "stateMutability": "nonpayable",
      "type": "function"
    },
    {
      "inputs": [],
      "name": "getProposalCount",
      "outputs": [
        {
          "internalType": "uint256",
          "name": "",
          "type": "uint256"
        }
      ],
      "stateMutability": "view",
      "type": "function"
    },
    {
      "inputs": [
        {
          "internalType": "address",
          "name": "",
          "type": "address"
        }
      ],
      "name": "isDeviceBound",
      "outputs": [
        {
          "internalType": "bool",
          "name": "",
          "type": "bool"
        }
      ],
      "stateMutability": "view",
      "type": "function"
    },
    {
      "inputs": [
        {
          "internalType": "uint256",
          "name": "",
          "type": "uint256"
        }
      ],
      "name": "proposals",
      "outputs": [
        {
          "internalType": "address",
          "name": "target",
          "type": "address"
        },
        {
          "internalType": "uint256",
          "name": "value",
          "type": "uint256"
        },
        {
          "internalType": "bytes",
          "name": "data",
          "type": "bytes"
        },
        {
          "internalType": "bool",
          "name": "approvedA",
          "type": "bool"
        },
        {
          "internalType": "bool",
          "name": "approvedB",
          "type": "bool"
        },
        {
          "internalType": "bool",
          "name": "approvedC",
          "type": "bool"
        },
        {
          "internalType": "bool",
          "name": "executed",
          "type": "bool"
        }
      ],
      "stateMutability": "view",
      "type": "function"
    },
    {
      "inputs": [
        {
          "internalType": "address",
          "name": "target",
          "type": "address"
        },
        {
          "internalType": "uint256",
          "name": "value",
          "type": "uint256"
        },
        {
          "internalType": "bytes",
          "name": "data",
          "type": "bytes"
        }
      ],
      "name": "propose",
      "outputs": [
        {
          "internalType": "uint256",
          "name": "",
          "type": "uint256"
        }
      ],
      "stateMutability": "nonpayable",
      "type": "function"
    },
    {
      "inputs": [
        {
          "internalType": "address",
          "name": "admin",
          "type": "address"
        },
        {
          "internalType": "bytes32",
          "name": "deviceHash",
          "type": "bytes32"
        }
      ],
      "name": "verifyDevice",
      "outputs": [
        {
          "internalType": "bool",
          "name": "",
          "type": "bool"
        }
      ],
      "stateMutability": "view",
      "type": "function"
    }
  ],
  "bytecode": "0x60806040523480156200001157600080fd5b5060405162001417380380620014178339810160408190526200003491620001fd565b60017f9b779b17422d0df92223018b32b4d1fa46e071723d6817e2486d003becc55f00556001600160a01b038316158015906200007957506001600160a01b03821615155b80156200008e57506001600160a01b03811615155b620000f15760405162461bcd60e51b815260206004820152602860248201527f476f7665726e616e63653a2041646d696e2063616e6e6f74206265207a65726f604482015267206164647265737360c01b60648201526084015b60405180910390fd5b816001600160a01b0316836001600160a01b031614158015620001265750806001600160a01b0316826001600160a01b031614155b8015620001455750806001600160a01b0316836001600160a01b031614155b6200019d5760405162461bcd60e51b815260206004820152602160248201527f476f7665726e616e63653a2041646d696e73206d75737420626520756e6971756044820152606560f81b6064820152608401620000e8565b600080546001600160a01b039485166001600160a01b03199182161790915560018054938516938216939093179092556002805491909316911617905562000247565b80516001600160a01b0381168114620001f857600080fd5b919050565b6000806000606084860312156200021357600080fd5b6200021e84620001e0565b92506200022e60208501620001e0565b91506200023e60408501620001e0565b90509250925092565b6111c080620002576000396000f3fe608060405234801561001057600080fd5b50600436106100b45760003560e01c8063c01c4cfc11610071578063c01c4cfc1461018f578063c08cc02d146101a2578063d015f767146101aa578063e113f8d3146101bd578063ef4c7fc2146101d0578063fe0d94c1146101f057600080fd5b8063013cf08b146100b95780631fb01587146100e85780632d6c15b9146101135780635c12cfdc1461014657806393ba3f151461015b57806393cdd68b1461017c575b600080fd5b6100cc6100c7366004610caf565b610210565b6040516100df9796959493929190610d0e565b60405180910390f35b6001546100fb906001600160a01b031681565b6040516001600160a01b0390911681526020016100df565b610136610121366004610d74565b60046020526000908152604090205460ff1681565b60405190151581526020016100df565b610159610154366004610caf565b6102fe565b005b61016e610169366004610d96565b610403565b6040519081526020016100df565b61015961018a366004610e1d565b6105f3565b6000546100fb906001600160a01b031681565b60055461016e565b6101366101b8366004610e3f565b610968565b6002546100fb906001600160a01b031681565b61016e6101de366004610d74565b60036020526000908152604090205481565b6102036101fe366004610caf565b6109f3565b6040516100df9190610e69565b6005818154811061022057600080fd5b60009182526020909120600490910201805460018201546002830180546001600160a01b03909316945090929161025690610e7c565b80601f016020809104026020016040519081016040528092919081815260200182805461028290610e7c565b80156102cf5780601f106102a4576101008083540402835291602001916102cf565b820191906000526020600020905b8154815290600101906020018083116102b257829003601f168201915b5050506003909301549192505060ff808216916101008104821691620100008204811691630100000090041687565b6000546001600160a01b031633148061032157506001546001600160a01b031633145b8061033657506002546001600160a01b031633145b61035b5760405162461bcd60e51b815260040161035290610eb6565b60405180910390fd5b806103a85760405162461bcd60e51b815260206004820152601f60248201527f476f7665726e616e63653a20496e76616c6964206465766963652068617368006044820152606401610352565b3360008181526003602090815260408083208590556004825291829020805460ff1916600117905590518381527ff581f3260508e9c70bc2df587fe657118bd2bed798f7b2129c8b70b7891a2f2c910160405180910390a250565b600080546001600160a01b031633148061042757506001546001600160a01b031633145b8061043c57506002546001600160a01b031633145b6104585760405162461bcd60e51b815260040161035290610eb6565b60056040518060e00160405280876001600160a01b0316815260200186815260200185858080601f01602080910402602001604051908101604052809392919081815260200183838082843760009201829052509385525050506020808301829052604080840183905260608401839052608090930182905284546001808201875595835291819020845160049093020180546001600160a01b0319166001600160a01b039093169290921782558301519381019390935581015190919060028201906105259082610f5f565b5060608201516003919091018054608084015160a085015160c09095015161ffff1990921693151561ff00191693909317610100931515939093029290921763ffff00001916620100009315159390930263ff0000001916929092176301000000911515919091021790556005546000906105a29060019061101f565b9050856001600160a01b0316817f9199fc1bf38953a57ce9a90f321ab3c12c01ce678fc1c17257e312d4480964858787876040516105e293929190611040565b60405180910390a395945050505050565b6000546001600160a01b031633148061061657506001546001600160a01b031633145b8061062b57506002546001600160a01b031633145b6106475760405162461bcd60e51b815260040161035290610eb6565b60055482106106685760405162461bcd60e51b815260040161035290611076565b60006005838154811061067d5761067d6110b9565b906000526020600020906004020190508060030160039054906101000a900460ff16156106bc5760405162461bcd60e51b8152600401610352906110cf565b3360009081526004602052604090205460ff1661072a5760405162461bcd60e51b815260206004820152602660248201527f476f7665726e616e63653a20446576696365206e6f7420626f756e6420666f726044820152651030b236b4b760d11b6064820152608401610352565b3360009081526003602052604090205482146107885760405162461bcd60e51b815260206004820181905260248201527f476f7665726e616e63653a204465766963652068617368206d69736d617463686044820152606401610352565b6000546001600160a01b0316330361081357600381015460ff16156107ff5760405162461bcd60e51b815260206004820152602760248201527f476f7665726e616e63653a20416c726561647920617070726f7665642062792060448201526641646d696e204160c81b6064820152608401610352565b60038101805460ff19166001179055610936565b6001546001600160a01b031633036108a5576003810154610100900460ff161561088f5760405162461bcd60e51b815260206004820152602760248201527f476f7665726e616e63653a20416c726561647920617070726f7665642062792060448201526620b236b4b7102160c91b6064820152608401610352565b60038101805461ff001916610100179055610936565b6002546001600160a01b0316330361093657600381015462010000900460ff16156109225760405162461bcd60e51b815260206004820152602760248201527f476f7665726e616e63653a20416c726561647920617070726f7665642062792060448201526641646d696e204360c81b6064820152608401610352565b60038101805462ff00001916620100001790555b604051339084907f049c28adfe50bcf1b76fd95273b6a24566b9f377e52fddc653c3355248dad07a90600090a3505050565b6001600160a01b03821660009081526004602052604081205460ff166109d05760405162461bcd60e51b815260206004820152601c60248201527f476f7665726e616e63653a20446576696365206e6f7420626f756e64000000006044820152606401610352565b506001600160a01b03821660009081526003602052604090205481145b92915050565b60606109fd610c3d565b6005548210610a1e5760405162461bcd60e51b815260040161035290611076565b600060058381548110610a3357610a336110b9565b906000526020600020906004020190508060030160039054906101000a900460ff1615610a725760405162461bcd60e51b8152600401610352906110cf565b600381015460ff168015610a8f57506003810154610100900460ff165b8015610aa55750600381015462010000900460ff165b610afd5760405162461bcd60e51b8152602060048201526024808201527f476f7665726e616e63653a20332d6f662d3320617070726f76616c20726571756044820152631a5c995960e21b6064820152608401610352565b60038101805463ff000000191663010000001790558054600182015460405160009283926001600160a01b0390911691610b3b906002870190611114565b60006040518083038185875af1925050503d8060008114610b78576040519150601f19603f3d011682016040523d82523d6000602084013e610b7d565b606091505b509150915081610be05760405162461bcd60e51b815260206004820152602860248201527f476f7665726e616e63653a205472616e73616374696f6e20657865637574696f6044820152671b8819985a5b195960c21b6064820152608401610352565b60405185907f712ae1383f79ac853f8d882153778e0260ef8f03b504e2866e0593e04d2b291f90600090a292505050610c3860017f9b779b17422d0df92223018b32b4d1fa46e071723d6817e2486d003becc55f0055565b919050565b610c45610c6b565b60027f9b779b17422d0df92223018b32b4d1fa46e071723d6817e2486d003becc55f0055565b7f9b779b17422d0df92223018b32b4d1fa46e071723d6817e2486d003becc55f0054600203610cad57604051633ee5aeb560e01b815260040160405180910390fd5b565b600060208284031215610cc157600080fd5b5035919050565b6000815180845260005b81811015610cee57602081850181015186830182015201610cd2565b506000602082860101526020601f19601f83011685010191505092915050565b60018060a01b038816815286602082015260e060408201526000610d3560e0830188610cc8565b951515606083015250921515608084015290151560a0830152151560c0909101529392505050565b80356001600160a01b0381168114610c3857600080fd5b600060208284031215610d8657600080fd5b610d8f82610d5d565b9392505050565b60008060008060608587031215610dac57600080fd5b610db585610d5d565b935060208501359250604085013567ffffffffffffffff80821115610dd957600080fd5b818701915087601f830112610ded57600080fd5b813581811115610dfc57600080fd5b886020828501011115610e0e57600080fd5b95989497505060200194505050565b60008060408385031215610e3057600080fd5b50508035926020909101359150565b60008060408385031215610e5257600080fd5b610e5b83610d5d565b946020939093013593505050565b602081526000610d8f6020830184610cc8565b600181811c90821680610e9057607f821691505b602082108103610eb057634e487b7160e01b600052602260045260246000fd5b50919050565b60208082526022908201527f476f7665726e616e63653a2043616c6c6572206973206e6f7420616e2061646d60408201526134b760f11b606082015260800190565b634e487b7160e01b600052604160045260246000fd5b601f821115610f5a576000816000526020600020601f850160051c81016020861015610f375750805b601f850160051c820191505b81811015610f5657828155600101610f43565b5050505b505050565b815167ffffffffffffffff811115610f7957610f79610ef8565b610f8d81610f878454610e7c565b84610f0e565b602080601f831160018114610fc25760008415610faa5750858301515b600019600386901b1c1916600185901b178555610f56565b600085815260208120601f198616915b82811015610ff157888601518255948401946001909101908401610fd2565b508582101561100f5787850151600019600388901b60f8161c191681555b5050505050600190811b01905550565b818103818111156109ed57634e487b7160e01b600052601160045260246000fd5b83815260406020820152816040820152818360608301376000818301606090810191909152601f909201601f1916010192915050565b60208082526023908201527f476f7665726e616e63653a2050726f706f73616c20646f6573206e6f742065786040820152621a5cdd60ea1b606082015260800190565b634e487b7160e01b600052603260045260246000fd5b60208082526025908201527f476f7665726e616e63653a2050726f706f73616c20616c72656164792065786560408201526418dd5d195960da1b606082015260800190565b600080835461112281610e7c565b6001828116801561113a576001811461114f5761117e565b60ff198416875282151583028701945061117e565b8760005260208060002060005b858110156111755781548a82015290840190820161115c565b50505082870194505b5092969550505050505056fea264697066735822122074b4dbe6f2a85d0a714c92cc3ba2156ca177d110f7217d9aa00e296c887c527464736f6c63430008180033",
  "linkReferences": {},
  "deployedLinkReferences": {}
}