{
  "_format": "hh-sol-artifact-1",
  "contractName": "SXGovernance",
  "sourceName": "contracts/SXGovernance.sol",
  "abi": [
    {
      "inputs": [
        {
          "internalType": "address",
          "name": "_adminA",
          "type": "address"
        },
        {
          "internalType": "address",
          "name": "_adminB",
          "type": "address"
        },
        {
          "internalType": "address",
          "name": "_adminC",
          "type": "address"
        }
      ],
      "stateMutability": "nonpayable",
      "type": "constructor"
    },
    {
      "inputs": [],
      "name": "ReentrancyGuardReentrantCall",
      "type": "error"
    },
    {
      "anonymous": false,
      "inputs": [
        {
          "indexed": true,
          "internalType": "address",
          "name": "admin",
          "type": "address"
        },
        {
          "indexed": false,
          "internalType": "bytes32",
          "name": "deviceHash",
          "type": "bytes32"
        }
      ],
      "name": "DeviceBound",
      "type": "event"
    },
    {
      "anonymous": false,
      "inputs": [
        {
          "indexed": true,
          "internalType": "uint256",
          "name": "proposalId",
          "type": "uint256"
        },
        {
          "indexed": true,
          "internalType": "address",
          "name": "admin",
          "type": "address"
        }
      ],
      "name": "ProposalApproved",
      "type": "event"
    },
    {
      "anonymous": false,
      "inputs": [
        {
          "indexed": true,
          "internalType": "uint256",
          "name": "proposalId",
          "type": "uint256"
        },
        {
          "indexed": true,
          "internalType": "address",
          "name": "target",
          "type": "address"
        },
        {
          "indexed": false,
          "internalType": "uint256",
          "name": "value",
          "type": "uint256"
        },
        {
          "indexed": false,
          "internalType": "bytes",
          "name": "data",
          "type": "bytes"
        }
      ],
      "name": "ProposalCreated",
      "type": "event"
    },
    {
      "anonymous": false,
      "inputs": [
        {
          "indexed": true,
          "internalType": "uint256",
          "name": "proposalId",
          "type": "uint256"
        }
      ],
      "name": "ProposalExecuted",
      "type": "event"
    },
    {
      "inputs": [],
      "name": "adminA",
      "outputs": [
        {
          "internalType": "address",
          "name": "",
          "type": "address"
        }
      ],
      "stateMutability": "view",
      "type": "function"
    },
    {
      "inputs": [],
      "name": "adminB",
      "outputs": [
        {
          "internalType": "address",
          "name": "",
          "type": "address"
        }
      ],
      "stateMutability": "view",
      "type": "function"
    },
    {
      "inputs": [],
      "name": "adminC",
      "outputs": [
        {
          "internalType": "address",
          "name": "",
          "type": "address"
        }
      ],
      "stateMutability": "view",
      "type": "function"
    },
    {
      "inputs": [
        {
          "internalType": "uint256",
          "name": "proposalId",
          "type": "uint256"
        },
        {
          "internalType": "bytes32",
          "name": "deviceHash",
          "type": "bytes32"
        }
      ],
      "name": "approve",
      "outputs": [],
      "stateMutability": "nonpayable",
      "type": "function"
    },
    {
      "inputs": [
        {
          "internalType": "bytes32",
          "name": "deviceHash",
          "type": "bytes32"
        }
      ],
      "name": "bindDevice",
      "outputs": [],
      "stateMutability": "nonpayable",
      "type": "function"
    },
    {
      "inputs": [
        {
          "internalType": "address",
          "name": "",
          "type": "address"
        }
      ],
      "name": "deviceHashes",
      "outputs": [
        {
          "internalType": "bytes32",
          "name": "",
          "type": "bytes32"
        }
      ],
      "stateMutability": "view",
      "type": "function"
    },
    {
      "inputs": [
        {
          "internalType": "address",
          "name": "",
          "type": "address"
        }
      ],
      "name": "deviceStatus",
      "outputs": [
        {
          "internalType": "enum SXGovernance.DeviceStatus",
          "name": "",
          "type": "uint8"
        }
      ],
      "stateMutability": "view",
      "type": "function"
    },
    {
      "inputs": [
        {
          "internalType": "uint256",
          "name": "proposalId",
          "type": "uint256"
        }
      ],
      "name": "execute",
      "outputs": [
        {
          "internalType": "bytes",
          "name": "",
          "type": "bytes"
        }
      ],
      "stateMutability": "nonpayable",
      "type": "function"
    },
    {
      "inputs": [],
      "name": "getProposalCount",
      "outputs": [
        {
          "internalType": "uint256",
          "name": "",
          "type": "uint256"
        }
      ],
      "stateMutability": "view",
      "type": "function"
    },
    {
      "inputs": [
        {
          "internalType": "uint256",
          "name": "",
          "type": "uint256"
        }
      ],
      "name": "proposals",
      "outputs": [
        {
          "internalType": "address",
          "name": "target",
          "type": "address"
        },
        {
          "internalType": "uint256",
          "name": "value",
          "type": "uint256"
        },
        {
          "internalType": "bytes",
          "name": "data",
          "type": "bytes"
        },
        {
          "internalType": "bool",
          "name": "approvedA",
          "type": "bool"
        },
        {
          "internalType": "bool",
          "name": "approvedB",
          "type": "bool"
        },
        {
          "internalType": "bool",
          "name": "approvedC",
          "type": "bool"
        },
        {
          "internalType": "bool",
          "name": "executed",
          "type": "bool"
        }
      ],
      "stateMutability": "view",
      "type": "function"
    },
    {
      "inputs": [
        {
          "internalType": "address",
          "name": "target",
          "type": "address"
        },
        {
          "internalType": "uint256",
          "name": "value",
          "type": "uint256"
        },
        {
          "internalType": "bytes",
          "name": "data",
          "type": "bytes"
        }
      ],
      "name": "propose",
      "outputs": [
        {
          "internalType": "uint256",
          "name": "",
          "type": "uint256"
        }
      ],
      "stateMutability": "nonpayable",
      "type": "function"
    },
    {
      "inputs": [
        {
          "internalType": "address",
          "name": "admin",
          "type": "address"
        }
      ],
      "name": "quarantineDevice",
      "outputs": [],
      "stateMutability": "nonpayable",
      "type": "function"
    },
    {
      "inputs": [
        {
          "internalType": "address",
          "name": "sxuaTarget",
          "type": "address"
        }
      ],
      "name": "triggerEmergencyShutdown",
      "outputs": [],
      "stateMutability": "nonpayable",
      "type": "function"
    },
    {
      "inputs": [
        {
          "internalType": "address",
          "name": "admin",
          "type": "address"
        },
        {
          "internalType": "bytes32",
          "name": "deviceHash",
          "type": "bytes32"
        }
      ],
      "name": "verifyDevice",
      "outputs": [
        {
          "internalType": "bool",
          "name": "",
          "type": "bool"
        }
      ],
      "stateMutability": "view",
      "type": "function"
    }
  ],
  "bytecode": "0x60806040523480156200001157600080fd5b50604051620017df380380620017df8339810160408190526200003491620001fd565b60017f9b779b17422d0df92223018b32b4d1fa46e071723d6817e2486d003becc55f00556001600160a01b038316158015906200007957506001600160a01b03821615155b80156200008e57506001600160a01b03811615155b620000f15760405162461bcd60e51b815260206004820152602860248201527f476f7665726e616e63653a2041646d696e2063616e6e6f74206265207a65726f604482015267206164647265737360c01b60648201526084015b60405180910390fd5b816001600160a01b0316836001600160a01b031614158015620001265750806001600160a01b0316826001600160a01b031614155b8015620001455750806001600160a01b0316836001600160a01b031614155b6200019d5760405162461bcd60e51b815260206004820152602160248201527f476f7665726e616e63653a2041646d696e73206d75737420626520756e6971756044820152606560f81b6064820152608401620000e8565b600080546001600160a01b039485166001600160a01b03199182161790915560018054938516938216939093179092556002805491909316911617905562000247565b80516001600160a01b0381168114620001f857600080fd5b919050565b6000806000606084860312156200021357600080fd5b6200021e84620001e0565b92506200022e60208501620001e0565b91506200023e60408501620001e0565b90509250925092565b61158880620002576000396000f3fe608060405234801561001057600080fd5b50600436106100ea5760003560e01c8063b4ee0c4c1161008c578063d015f76711610066578063d015f76714610222578063e113f8d314610245578063ef4c7fc214610258578063fe0d94c11461027857600080fd5b8063b4ee0c4c146101d5578063c01c4cfc14610207578063c08cc02d1461021a57600080fd5b80635c12cfdc116100c85780635c12cfdc1461017957806374963de91461018e57806393ba3f15146101a157806393cdd68b146101c257600080fd5b8063013cf08b146100ef5780631fb015871461011e5780634e81c85914610149575b600080fd5b6101026100fd366004611013565b610298565b604051610115979695949392919061107c565b60405180910390f35b600154610131906001600160a01b031681565b6040516001600160a01b039091168152602001610115565b61016c6101573660046110e2565b60046020526000908152604090205460ff1681565b604051610115919061111a565b61018c610187366004611013565b610386565b005b61018c61019c3660046110e2565b610508565b6101b46101af366004611142565b6106c4565b604051908152602001610115565b61018c6101d03660046111c9565b610927565b61018c6101e33660046110e2565b6001600160a01b03166000908152600460205260409020805460ff19166002179055565b600054610131906001600160a01b031681565b6005546101b4565b6102356102303660046111eb565b610cb6565b6040519015158152602001610115565b600254610131906001600160a01b031681565b6101b46102663660046110e2565b60036020526000908152604090205481565b61028b610286366004611013565b610d57565b6040516101159190611215565b600581815481106102a857600080fd5b60009182526020909120600490910201805460018201546002830180546001600160a01b0390931694509092916102de90611228565b80601f016020809104026020016040519081016040528092919081815260200182805461030a90611228565b80156103575780601f1061032c57610100808354040283529160200191610357565b820191906000526020600020905b81548152906001019060200180831161033a57829003601f168201915b5050506003909301549192505060ff808216916101008104821691620100008204811691630100000090041687565b6000546001600160a01b03163314806103a957506001546001600160a01b031633145b806103be57506002546001600160a01b031633145b6103e35760405162461bcd60e51b81526004016103da90611262565b60405180910390fd5b806104305760405162461bcd60e51b815260206004820152601f60248201527f476f7665726e616e63653a20496e76616c69642064657669636520686173680060448201526064016103da565b60023360009081526004602052604090205460ff16600281111561045657610456611104565b036104ad5760405162461bcd60e51b815260206004820152602160248201527f476f7665726e616e63653a204465766963652069732071756172616e74696e656044820152601960fa1b60648201526084016103da565b3360008181526003602090815260408083208590556004825291829020805460ff1916600117905590518381527ff581f3260508e9c70bc2df587fe657118bd2bed798f7b2129c8b70b7891a2f2c910160405180910390a250565b6000546001600160a01b031633148061052b57506001546001600160a01b031633145b8061054057506002546001600160a01b031633145b61055c5760405162461bcd60e51b81526004016103da90611262565b60013360009081526004602052604090205460ff16600281111561058257610582611104565b146105cf5760405162461bcd60e51b815260206004820152601e60248201527f476f7665726e616e63653a204465766963652071756172616e74696e6564000060448201526064016103da565b604051600160248201526000906001600160a01b0383169060440160408051601f198184030181529181526020820180516001600160e01b0316630a63220160e11b1790525161061f91906112a4565b6000604051808303816000865af19150503d806000811461065c576040519150601f19603f3d011682016040523d82523d6000602084013e610661565b606091505b50509050806106c05760405162461bcd60e51b815260206004820152602560248201527f476f7665726e616e63653a20456d657267656e63792073687574646f776e2066604482015264185a5b195960da1b60648201526084016103da565b5050565b600080546001600160a01b03163314806106e857506001546001600160a01b031633145b806106fd57506002546001600160a01b031633145b6107195760405162461bcd60e51b81526004016103da90611262565b60013360009081526004602052604090205460ff16600281111561073f5761073f611104565b1461078c5760405162461bcd60e51b815260206004820152601e60248201527f476f7665726e616e63653a204465766963652071756172616e74696e6564000060448201526064016103da565b60056040518060e00160405280876001600160a01b0316815260200186815260200185858080601f01602080910402602001604051908101604052809392919081815260200183838082843760009201829052509385525050506020808301829052604080840183905260608401839052608090930182905284546001808201875595835291819020845160049093020180546001600160a01b0319166001600160a01b039093169290921782558301519381019390935581015190919060028201906108599082611327565b5060608201516003919091018054608084015160a085015160c09095015161ffff1990921693151561ff00191693909317610100931515939093029290921763ffff00001916620100009315159390930263ff0000001916929092176301000000911515919091021790556005546000906108d6906001906113e7565b9050856001600160a01b0316817f9199fc1bf38953a57ce9a90f321ab3c12c01ce678fc1c17257e312d44809648587878760405161091693929190611408565b60405180910390a395945050505050565b6000546001600160a01b031633148061094a57506001546001600160a01b031633145b8061095f57506002546001600160a01b031633145b61097b5760405162461bcd60e51b81526004016103da90611262565b600554821061099c5760405162461bcd60e51b81526004016103da9061143e565b6000600583815481106109b1576109b1611481565b906000526020600020906004020190508060030160039054906101000a900460ff16156109f05760405162461bcd60e51b81526004016103da90611497565b60013360009081526004602052604090205460ff166002811115610a1657610a16611104565b14610a785760405162461bcd60e51b815260206004820152602c60248201527f476f7665726e616e63653a20446576696365206e6f7420616374697665206f7260448201526b081c5d585c985b9d1a5b995960a21b60648201526084016103da565b336000908152600360205260409020548214610ad65760405162461bcd60e51b815260206004820181905260248201527f476f7665726e616e63653a204465766963652068617368206d69736d6174636860448201526064016103da565b6000546001600160a01b03163303610b6157600381015460ff1615610b4d5760405162461bcd60e51b815260206004820152602760248201527f476f7665726e616e63653a20416c726561647920617070726f7665642062792060448201526641646d696e204160c81b60648201526084016103da565b60038101805460ff19166001179055610c84565b6001546001600160a01b03163303610bf3576003810154610100900460ff1615610bdd5760405162461bcd60e51b815260206004820152602760248201527f476f7665726e616e63653a20416c726561647920617070726f7665642062792060448201526620b236b4b7102160c91b60648201526084016103da565b60038101805461ff001916610100179055610c84565b6002546001600160a01b03163303610c8457600381015462010000900460ff1615610c705760405162461bcd60e51b815260206004820152602760248201527f476f7665726e616e63653a20416c726561647920617070726f7665642062792060448201526641646d696e204360c81b60648201526084016103da565b60038101805462ff00001916620100001790555b604051339084907f049c28adfe50bcf1b76fd95273b6a24566b9f377e52fddc653c3355248dad07a90600090a3505050565b600060016001600160a01b03841660009081526004602052604090205460ff166002811115610ce757610ce7611104565b14610d345760405162461bcd60e51b815260206004820152601d60248201527f476f7665726e616e63653a20446576696365206e6f742061637469766500000060448201526064016103da565b506001600160a01b03821660009081526003602052604090205481145b92915050565b6060610d61610fa1565b6005548210610d825760405162461bcd60e51b81526004016103da9061143e565b600060058381548110610d9757610d97611481565b906000526020600020906004020190508060030160039054906101000a900460ff1615610dd65760405162461bcd60e51b81526004016103da90611497565b600381015460ff168015610df357506003810154610100900460ff165b8015610e095750600381015462010000900460ff165b610e615760405162461bcd60e51b8152602060048201526024808201527f476f7665726e616e63653a20332d6f662d3320617070726f76616c20726571756044820152631a5c995960e21b60648201526084016103da565b60038101805463ff000000191663010000001790558054600182015460405160009283926001600160a01b0390911691610e9f9060028701906114dc565b60006040518083038185875af1925050503d8060008114610edc576040519150601f19603f3d011682016040523d82523d6000602084013e610ee1565b606091505b509150915081610f445760405162461bcd60e51b815260206004820152602860248201527f476f7665726e616e63653a205472616e73616374696f6e20657865637574696f6044820152671b8819985a5b195960c21b60648201526084016103da565b60405185907f712ae1383f79ac853f8d882153778e0260ef8f03b504e2866e0593e04d2b291f90600090a292505050610f9c60017f9b779b17422d0df92223018b32b4d1fa46e071723d6817e2486d003becc55f0055565b919050565b610fa9610fcf565b60027f9b779b17422d0df92223018b32b4d1fa46e071723d6817e2486d003becc55f0055565b7f9b779b17422d0df92223018b32b4d1fa46e071723d6817e2486d003becc55f005460020361101157604051633ee5aeb560e01b815260040160405180910390fd5b565b60006020828403121561102557600080fd5b5035919050565b60005b8381101561104757818101518382015260200161102f565b50506000910152565b6000815180845261106881602086016020860161102c565b601f01601f19169290920160200192915050565b60018060a01b038816815286602082015260e0604082015260006110a360e0830188611050565b951515606083015250921515608084015290151560a0830152151560c0909101529392505050565b80356001600160a01b0381168114610f9c57600080fd5b6000602082840312156110f457600080fd5b6110fd826110cb565b9392505050565b634e487b7160e01b600052602160045260246000fd5b602081016003831061113c57634e487b7160e01b600052602160045260246000fd5b91905290565b6000806000806060858703121561115857600080fd5b611161856110cb565b935060208501359250604085013567ffffffffffffffff8082111561118557600080fd5b818701915087601f83011261119957600080fd5b8135818111156111a857600080fd5b8860208285010111156111ba57600080fd5b95989497505060200194505050565b600080604083850312156111dc57600080fd5b50508035926020909101359150565b600080604083850312156111fe57600080fd5b611207836110cb565b946020939093013593505050565b6020815260006110fd6020830184611050565b600181811c9082168061123c57607f821691505b60208210810361125c57634e487b7160e01b600052602260045260246000fd5b50919050565b60208082526022908201527f476f7665726e616e63653a2043616c6c6572206973206e6f7420616e2061646d60408201526134b760f11b606082015260800190565b600082516112b681846020870161102c565b9190910192915050565b634e487b7160e01b600052604160045260246000fd5b601f821115611322576000816000526020600020601f850160051c810160208610156112ff5750805b601f850160051c820191505b8181101561131e5782815560010161130b565b5050505b505050565b815167ffffffffffffffff811115611341576113416112c0565b6113558161134f8454611228565b846112d6565b602080601f83116001811461138a57600084156113725750858301515b600019600386901b1c1916600185901b17855561131e565b600085815260208120601f198616915b828110156113b95788860151825594840194600190910190840161139a565b50858210156113d75787850151600019600388901b60f8161c191681555b5050505050600190811b01905550565b81810381811115610d5157634e487b7160e01b600052601160045260246000fd5b83815260406020820152816040820152818360608301376000818301606090810191909152601f909201601f1916010192915050565b60208082526023908201527f476f7665726e616e63653a2050726f706f73616c20646f6573206e6f742065786040820152621a5cdd60ea1b606082015260800190565b634e487b7160e01b600052603260045260246000fd5b60208082526025908201527f476f7665726e616e63653a2050726f706f73616c20616c72656164792065786560408201526418dd5d195960da1b606082015260800190565b60008083546114ea81611228565b60018281168015611502576001811461151757611546565b60ff1984168752821515830287019450611546565b8760005260208060002060005b8581101561153d5781548a820152908401908201611524565b50505082870194505b5092969550505050505056fea26469706673582212205026e4555f82fadea7e4ee1ee9bdefff645a19c75363936de4f2eee390695de164736f6c63430008180033",
  "linkReferences": {},
  "deployedLinkReferences": {}
}