{
  "_format": "hh-sol-artifact-1",
  "contractName": "SXLaunchpad",
  "sourceName": "contracts/SXLaunchpad.sol",
  "abi": [
    {
      "inputs": [],
      "stateMutability": "nonpayable",
      "type": "constructor"
    },
    {
      "inputs": [
        {
          "internalType": "address",
          "name": "target",
          "type": "address"
        }
      ],
      "name": "AddressEmptyCode",
      "type": "error"
    },
    {
      "inputs": [
        {
          "internalType": "address",
          "name": "implementation",
          "type": "address"
        }
      ],
      "name": "ERC1967InvalidImplementation",
      "type": "error"
    },
    {
      "inputs": [],
      "name": "ERC1967NonPayable",
      "type": "error"
    },
    {
      "inputs": [],
      "name": "EnforcedPause",
      "type": "error"
    },
    {
      "inputs": [],
      "name": "ExpectedPause",
      "type": "error"
    },
    {
      "inputs": [],
      "name": "FailedCall",
      "type": "error"
    },
    {
      "inputs": [],
      "name": "InvalidInitialization",
      "type": "error"
    },
    {
      "inputs": [],
      "name": "NotInitializing",
      "type": "error"
    },
    {
      "inputs": [
        {
          "internalType": "address",
          "name": "owner",
          "type": "address"
        }
      ],
      "name": "OwnableInvalidOwner",
      "type": "error"
    },
    {
      "inputs": [
        {
          "internalType": "address",
          "name": "account",
          "type": "address"
        }
      ],
      "name": "OwnableUnauthorizedAccount",
      "type": "error"
    },
    {
      "inputs": [],
      "name": "ReentrancyGuardReentrantCall",
      "type": "error"
    },
    {
      "inputs": [
        {
          "internalType": "address",
          "name": "token",
          "type": "address"
        }
      ],
      "name": "SafeERC20FailedOperation",
      "type": "error"
    },
    {
      "inputs": [],
      "name": "UUPSUnauthorizedCallContext",
      "type": "error"
    },
    {
      "inputs": [
        {
          "internalType": "bytes32",
          "name": "slot",
          "type": "bytes32"
        }
      ],
      "name": "UUPSUnsupportedProxiableUUID",
      "type": "error"
    },
    {
      "anonymous": false,
      "inputs": [
        {
          "indexed": true,
          "internalType": "uint256",
          "name": "projectId",
          "type": "uint256"
        },
        {
          "indexed": true,
          "internalType": "address",
          "name": "user",
          "type": "address"
        },
        {
          "indexed": false,
          "internalType": "uint256",
          "name": "tokenAmount",
          "type": "uint256"
        },
        {
          "indexed": false,
          "internalType": "uint256",
          "name": "stablecoinReturned",
          "type": "uint256"
        }
      ],
      "name": "BuybackExecuted",
      "type": "event"
    },
    {
      "anonymous": false,
      "inputs": [
        {
          "indexed": false,
          "internalType": "uint64",
          "name": "version",
          "type": "uint64"
        }
      ],
      "name": "Initialized",
      "type": "event"
    },
    {
      "anonymous": false,
      "inputs": [
        {
          "indexed": true,
          "internalType": "address",
          "name": "previousOwner",
          "type": "address"
        },
        {
          "indexed": true,
          "internalType": "address",
          "name": "newOwner",
          "type": "address"
        }
      ],
      "name": "OwnershipTransferred",
      "type": "event"
    },
    {
      "anonymous": false,
      "inputs": [
        {
          "indexed": false,
          "internalType": "address",
          "name": "account",
          "type": "address"
        }
      ],
      "name": "Paused",
      "type": "event"
    },
    {
      "anonymous": false,
      "inputs": [
        {
          "indexed": true,
          "internalType": "uint256",
          "name": "projectId",
          "type": "uint256"
        },
        {
          "indexed": true,
          "internalType": "address",
          "name": "tokenAddress",
          "type": "address"
        },
        {
          "indexed": true,
          "internalType": "address",
          "name": "stablecoinAddress",
          "type": "address"
        }
      ],
      "name": "ProjectAdded",
      "type": "event"
    },
    {
      "anonymous": false,
      "inputs": [
        {
          "indexed": true,
          "internalType": "uint256",
          "name": "projectId",
          "type": "uint256"
        }
      ],
      "name": "ProjectFinalized",
      "type": "event"
    },
    {
      "anonymous": false,
      "inputs": [
        {
          "indexed": true,
          "internalType": "uint256",
          "name": "projectId",
          "type": "uint256"
        },
        {
          "indexed": true,
          "internalType": "address",
          "name": "user",
          "type": "address"
        },
        {
          "indexed": false,
          "internalType": "uint256",
          "name": "stablecoinAmount",
          "type": "uint256"
        }
      ],
      "name": "Refunded",
      "type": "event"
    },
    {
      "anonymous": false,
      "inputs": [
        {
          "indexed": true,
          "internalType": "uint256",
          "name": "projectId",
          "type": "uint256"
        },
        {
          "indexed": true,
          "internalType": "address",
          "name": "user",
          "type": "address"
        },
        {
          "indexed": false,
          "internalType": "uint256",
          "name": "amountSent",
          "type": "uint256"
        },
        {
          "indexed": false,
          "internalType": "uint256",
          "name": "amountForfeited",
          "type": "uint256"
        }
      ],
      "name": "TokensClaimed",
      "type": "event"
    },
    {
      "anonymous": false,
      "inputs": [
        {
          "indexed": true,
          "internalType": "uint256",
          "name": "projectId",
          "type": "uint256"
        },
        {
          "indexed": true,
          "internalType": "address",
          "name": "user",
          "type": "address"
        },
        {
          "indexed": false,
          "internalType": "uint256",
          "name": "tokenAmount",
          "type": "uint256"
        },
        {
          "indexed": false,
          "internalType": "uint256",
          "name": "stablecoinCost",
          "type": "uint256"
        }
      ],
      "name": "TokensPurchased",
      "type": "event"
    },
    {
      "anonymous": false,
      "inputs": [
        {
          "indexed": false,
          "internalType": "address",
          "name": "account",
          "type": "address"
        }
      ],
      "name": "Unpaused",
      "type": "event"
    },
    {
      "anonymous": false,
      "inputs": [
        {
          "indexed": true,
          "internalType": "address",
          "name": "implementation",
          "type": "address"
        }
      ],
      "name": "Upgraded",
      "type": "event"
    },
    {
      "inputs": [],
      "name": "UPGRADE_INTERFACE_VERSION",
      "outputs": [
        {
          "internalType": "string",
          "name": "",
          "type": "string"
        }
      ],
      "stateMutability": "view",
      "type": "function"
    },
    {
      "inputs": [
        {
          "internalType": "address",
          "name": "_tokenAddress",
          "type": "address"
        },
        {
          "internalType": "address",
          "name": "_stablecoinAddress",
          "type": "address"
        },
        {
          "internalType": "uint256",
          "name": "_price",
          "type": "uint256"
        },
        {
          "internalType": "uint256",
          "name": "_saleStart",
          "type": "uint256"
        },
        {
          "internalType": "uint256",
          "name": "_saleEnd",
          "type": "uint256"
        },
        {
          "internalType": "uint256",
          "name": "_lockPeriod",
          "type": "uint256"
        },
        {
          "internalType": "uint256",
          "name": "_penaltyPercent",
          "type": "uint256"
        },
        {
          "internalType": "uint256",
          "name": "_buybackStart",
          "type": "uint256"
        },
        {
          "internalType": "uint256",
          "name": "_buybackEnd",
          "type": "uint256"
        },
        {
          "internalType": "uint256",
          "name": "_buybackPrice",
          "type": "uint256"
        }
      ],
      "name": "addProject",
      "outputs": [
        {
          "internalType": "uint256",
          "name": "",
          "type": "uint256"
        }
      ],
      "stateMutability": "nonpayable",
      "type": "function"
    },
    {
      "inputs": [
        {
          "internalType": "uint256",
          "name": "",
          "type": "uint256"
        },
        {
          "internalType": "address",
          "name": "",
          "type": "address"
        }
      ],
      "name": "allocations",
      "outputs": [
        {
          "internalType": "uint256",
          "name": "tokenAllocation",
          "type": "uint256"
        },
        {
          "internalType": "uint256",
          "name": "stablecoinPaid",
          "type": "uint256"
        },
        {
          "internalType": "bool",
          "name": "claimed",
          "type": "bool"
        },
        {
          "internalType": "bool",
          "name": "refunded",
          "type": "bool"
        }
      ],
      "stateMutability": "view",
      "type": "function"
    },
    {
      "inputs": [
        {
          "internalType": "uint256",
          "name": "projectId",
          "type": "uint256"
        },
        {
          "internalType": "uint256",
          "name": "tokenAmount",
          "type": "uint256"
        }
      ],
      "name": "buyTokens",
      "outputs": [],
      "stateMutability": "nonpayable",
      "type": "function"
    },
    {
      "inputs": [
        {
          "internalType": "uint256",
          "name": "projectId",
          "type": "uint256"
        }
      ],
      "name": "claimTokens",
      "outputs": [],
      "stateMutability": "nonpayable",
      "type": "function"
    },
    {
      "inputs": [
        {
          "internalType": "uint256",
          "name": "projectId",
          "type": "uint256"
        }
      ],
      "name": "emergencyWithdrawProjectFunds",
      "outputs": [],
      "stateMutability": "nonpayable",
      "type": "function"
    },
    {
      "inputs": [
        {
          "internalType": "uint256",
          "name": "projectId",
          "type": "uint256"
        }
      ],
      "name": "finalizeProject",
      "outputs": [],
      "stateMutability": "nonpayable",
      "type": "function"
    },
    {
      "inputs": [],
      "name": "getProjectCount",
      "outputs": [
        {
          "internalType": "uint256",
          "name": "",
          "type": "uint256"
        }
      ],
      "stateMutability": "view",
      "type": "function"
    },
    {
      "inputs": [
        {
          "internalType": "address",
          "name": "_sxua",
          "type": "address"
        },
        {
          "internalType": "address",
          "name": "_treasury",
          "type": "address"
        }
      ],
      "name": "initialize",
      "outputs": [],
      "stateMutability": "nonpayable",
      "type": "function"
    },
    {
      "inputs": [],
      "name": "owner",
      "outputs": [
        {
          "internalType": "address",
          "name": "",
          "type": "address"
        }
      ],
      "stateMutability": "view",
      "type": "function"
    },
    {
      "inputs": [],
      "name": "paused",
      "outputs": [
        {
          "internalType": "bool",
          "name": "",
          "type": "bool"
        }
      ],
      "stateMutability": "view",
      "type": "function"
    },
    {
      "inputs": [
        {
          "internalType": "uint256",
          "name": "",
          "type": "uint256"
        }
      ],
      "name": "projects",
      "outputs": [
        {
          "internalType": "address",
          "name": "tokenAddress",
          "type": "address"
        },
        {
          "internalType": "address",
          "name": "stablecoinAddress",
          "type": "address"
        },
        {
          "internalType": "uint256",
          "name": "price",
          "type": "uint256"
        },
        {
          "internalType": "uint256",
          "name": "saleStart",
          "type": "uint256"
        },
        {
          "internalType": "uint256",
          "name": "saleEnd",
          "type": "uint256"
        },
        {
          "internalType": "uint256",
          "name": "lockPeriod",
          "type": "uint256"
        },
        {
          "internalType": "uint256",
          "name": "penaltyPercent",
          "type": "uint256"
        },
        {
          "internalType": "uint256",
          "name": "buybackStart",
          "type": "uint256"
        },
        {
          "internalType": "uint256",
          "name": "buybackEnd",
          "type": "uint256"
        },
        {
          "internalType": "uint256",
          "name": "buybackPrice",
          "type": "uint256"
        },
        {
          "internalType": "bool",
          "name": "finalized",
          "type": "bool"
        },
        {
          "internalType": "bool",
          "name": "active",
          "type": "bool"
        }
      ],
      "stateMutability": "view",
      "type": "function"
    },
    {
      "inputs": [],
      "name": "proxiableUUID",
      "outputs": [
        {
          "internalType": "bytes32",
          "name": "",
          "type": "bytes32"
        }
      ],
      "stateMutability": "view",
      "type": "function"
    },
    {
      "inputs": [],
      "name": "renounceOwnership",
      "outputs": [],
      "stateMutability": "nonpayable",
      "type": "function"
    },
    {
      "inputs": [
        {
          "internalType": "uint256",
          "name": "projectId",
          "type": "uint256"
        },
        {
          "internalType": "uint256",
          "name": "tokenAmount",
          "type": "uint256"
        }
      ],
      "name": "requestBuyback",
      "outputs": [],
      "stateMutability": "nonpayable",
      "type": "function"
    },
    {
      "inputs": [
        {
          "internalType": "uint256",
          "name": "projectId",
          "type": "uint256"
        }
      ],
      "name": "requestRefund",
      "outputs": [],
      "stateMutability": "nonpayable",
      "type": "function"
    },
    {
      "inputs": [
        {
          "internalType": "address",
          "name": "_treasury",
          "type": "address"
        }
      ],
      "name": "setTreasury",
      "outputs": [],
      "stateMutability": "nonpayable",
      "type": "function"
    },
    {
      "inputs": [],
      "name": "sxua",
      "outputs": [
        {
          "internalType": "contract ISXUA",
          "name": "",
          "type": "address"
        }
      ],
      "stateMutability": "view",
      "type": "function"
    },
    {
      "inputs": [
        {
          "internalType": "address",
          "name": "newOwner",
          "type": "address"
        }
      ],
      "name": "transferOwnership",
      "outputs": [],
      "stateMutability": "nonpayable",
      "type": "function"
    },
    {
      "inputs": [],
      "name": "treasury",
      "outputs": [
        {
          "internalType": "address",
          "name": "",
          "type": "address"
        }
      ],
      "stateMutability": "view",
      "type": "function"
    },
    {
      "inputs": [
        {
          "internalType": "address",
          "name": "newImplementation",
          "type": "address"
        },
        {
          "internalType": "bytes",
          "name": "data",
          "type": "bytes"
        }
      ],
      "name": "upgradeToAndCall",
      "outputs": [],
      "stateMutability": "payable",
      "type": "function"
    }
  ],
  "bytecode": "0x60a06040523060805234801561001457600080fd5b5060017f9b779b17422d0df92223018b32b4d1fa46e071723d6817e2486d003becc55f0055610041610046565b6100f8565b7ff0c57e16840df040f15088dc2f81fe391c3923bec73e23a9662efc9c229c6a00805468010000000000000000900460ff16156100965760405163f92ee8a960e01b815260040160405180910390fd5b80546001600160401b03908116146100f55780546001600160401b0319166001600160401b0390811782556040519081527fc7f505b2f371ae2175ee4913f4499e1f2633a7b5936321eed1cdaeb6115181d29060200160405180910390a15b50565b6080516124e16200012260003960008181611c0201528181611c2b0152611d6c01526124e16000f3fe60806040526004361061012a5760003560e01c8063715018a6116100ab57806392a00e5f1161006f57806392a00e5f1461040c578063a2d4d3301461042c578063a4b2409e1461044c578063ad3cb1cc1461046c578063f0f44260146104aa578063f2fde38b146104ca57600080fd5b8063715018a61461035a5780637975ce281461036f57806381f112a51461038f57806385d2e16d146103af5780638da5cb5b146103cf57600080fd5b80634d798de5116100f25780634d798de5146102985780634f1ef286146102b857806352d1902d146102cb5780635c975abb146102e057806361d027b31461032257600080fd5b8063107046bd1461012f5780631c3a964f146101bc5780633bcff3b01461023757806346e04a2f14610256578063485cc95514610278575b600080fd5b34801561013b57600080fd5b5061014f61014a3660046120b0565b6104ea565b604080516001600160a01b039d8e1681529c909b1660208d0152998b019890985260608a0196909652608089019490945260a088019290925260c087015260e086015261010085015261012084015215156101408301521515610160820152610180015b60405180910390f35b3480156101c857600080fd5b5061020f6101d73660046120e5565b600360209081526000928352604080842090915290825290208054600182015460029092015490919060ff8082169161010090041684565b60408051948552602085019390935290151591830191909152151560608201526080016101b3565b34801561024357600080fd5b506002545b6040519081526020016101b3565b34801561026257600080fd5b506102766102713660046120b0565b61056d565b005b34801561028457600080fd5b50610276610293366004612111565b61079f565b3480156102a457600080fd5b506102766102b33660046120b0565b610980565b6102766102c6366004612151565b610a64565b3480156102d757600080fd5b50610248610a83565b3480156102ec57600080fd5b507fcd5ed15c6e187e77e9aee88184c21f4f2182ab5827cb3b7e07fbedcd63f033005460ff1660405190151581526020016101b3565b34801561032e57600080fd5b50600154610342906001600160a01b031681565b6040516001600160a01b0390911681526020016101b3565b34801561036657600080fd5b50610276610aa0565b34801561037b57600080fd5b5061027661038a366004612213565b610ab4565b34801561039b57600080fd5b506102766103aa366004612213565b610d6a565b3480156103bb57600080fd5b50600054610342906001600160a01b031681565b3480156103db57600080fd5b507f9016d09d72d40fdae2fd8ceac6b6234c7706214fd39c1cd1e609a0528c199300546001600160a01b0316610342565b34801561041857600080fd5b506102766104273660046120b0565b6110f2565b34801561043857600080fd5b50610248610447366004612235565b611363565b34801561045857600080fd5b506102766104673660046120b0565b6116c2565b34801561047857600080fd5b5061049d604051806040016040528060058152602001640352e302e360dc1b81525081565b6040516101b391906122af565b3480156104b657600080fd5b506102766104c53660046122fe565b611a04565b3480156104d657600080fd5b506102766104e53660046122fe565b611a84565b600281815481106104fa57600080fd5b60009182526020909120600b9091020180546001820154600283015460038401546004850154600586015460068701546007880154600889015460098a0154600a909a01546001600160a01b03998a169b5097909816989597949693959294919390929060ff808216916101009004168c565b610575611abf565b61057d611b02565b60025481106105a75760405162461bcd60e51b815260040161059e90612320565b60405180910390fd5b6000600282815481106105bc576105bc612363565b60009182526020909120600b90910201600a81015490915060ff166105f35760405162461bcd60e51b815260040161059e90612379565b60008281526003602090815260408083203384529091529020805461065a5760405162461bcd60e51b815260206004820152601f60248201527f53584c61756e63687061643a204e6f20746f6b656e7320746f20636c61696d00604482015260640161059e565b600281015460ff16156106af5760405162461bcd60e51b815260206004820152601c60248201527f53584c61756e63687061643a20416c726561647920636c61696d656400000000604482015260640161059e565b60028101805460ff191660011790558054600583015460048401546000916106d6916123d1565b4210156106fc5760648460060154836106ef91906123e4565b6106f991906123fb565b90505b6000610708828461241d565b8554909150610721906001600160a01b03163383611b1e565b8115610743576001548554610743916001600160a01b03918216911684611b1e565b6040805182815260208101849052339188917fa99e56daf7b172944ed4142b79056ff30b8c461557290c222948987fede4389a910160405180910390a3505050505061079c600160008051602061248c83398151915255565b50565b60006107a9611b58565b805490915060ff600160401b820416159067ffffffffffffffff166000811580156107d15750825b905060008267ffffffffffffffff1660011480156107ee5750303b155b9050811580156107fc575080155b1561081a5760405163f92ee8a960e01b815260040160405180910390fd5b845467ffffffffffffffff19166001178555831561084457845460ff60401b1916600160401b1785555b61084d33611b83565b610855611b94565b6001600160a01b0387166108ab5760405162461bcd60e51b815260206004820152601960248201527f53584c61756e63687061643a20496e76616c6964205358554100000000000000604482015260640161059e565b6001600160a01b0386166109015760405162461bcd60e51b815260206004820152601d60248201527f53584c61756e63687061643a20496e76616c6964207472656173757279000000604482015260640161059e565b600080546001600160a01b03808a166001600160a01b0319928316179092556001805492891692909116919091179055831561097757845460ff60401b19168555604051600181527fc7f505b2f371ae2175ee4913f4499e1f2633a7b5936321eed1cdaeb6115181d29060200160405180910390a15b50505050505050565b610988611b9c565b60025481106109a95760405162461bcd60e51b815260040161059e90612320565b6000600282815481106109be576109be612363565b60009182526020909120600b90910201600a81015490915060ff1615610a265760405162461bcd60e51b815260206004820152601e60248201527f53584c61756e63687061643a20416c72656164792066696e616c697a65640000604482015260640161059e565b600a8101805460ff1916600117905560405182907fd8b700ef24f01ef5a14b4c0145086225b57b6069d711a12ff535efa2b3a7c6e990600090a25050565b610a6c611bf7565b610a7582611c9c565b610a7f8282611ca4565b5050565b6000610a8d611d61565b5060008051602061246c83398151915290565b610aa8611b9c565b610ab26000611daa565b565b610abc611abf565b610ac4611b02565b6002548210610ae55760405162461bcd60e51b815260040161059e90612320565b600060028381548110610afa57610afa612363565b90600052602060002090600b0201905080600a0160019054906101000a900460ff16610b685760405162461bcd60e51b815260206004820152601f60248201527f53584c61756e63687061643a2050726f6a656374206e6f742061637469766500604482015260640161059e565b80600301544210158015610b80575080600401544211155b610bcc5760405162461bcd60e51b815260206004820152601c60248201527f53584c61756e63687061643a2053616c65206e6f742061637469766500000000604482015260640161059e565b60008211610c1c5760405162461bcd60e51b815260206004820152601f60248201527f53584c61756e63687061643a20416d6f756e74206d757374206265203e203000604482015260640161059e565b6000670de0b6b3a7640000826002015484610c3791906123e4565b610c4191906123fb565b600054600184015460405163daa1e1fb60e01b81523360048201526001600160a01b03918216602482015260448101849052929350169063daa1e1fb90606401600060405180830381600087803b158015610c9b57600080fd5b505af1158015610caf573d6000803e3d6000fd5b505050600085815260036020908152604080832033845290915281208054869350909190610cde9084906123d1565b9091555050600084815260036020908152604080832033845290915281206001018054839290610d0f9084906123d1565b90915550506040805184815260208101839052339186917fe8d7e55108ae7ddb60173461d2950c7a8e22a7ac7f442825564fe84c8c6f9a38910160405180910390a35050610a7f600160008051602061248c83398151915255565b610d72611abf565b610d7a611b02565b6002548210610d9b5760405162461bcd60e51b815260040161059e90612320565b600060028381548110610db057610db0612363565b60009182526020909120600b90910201600a81015490915060ff16610de75760405162461bcd60e51b815260040161059e90612379565b80600701544210158015610dff575080600801544211155b610e565760405162461bcd60e51b815260206004820152602260248201527f53584c61756e63687061643a204275796261636b2077696e646f7720636c6f73604482015261195960f21b606482015260840161059e565b600083815260036020908152604080832033845290915290208054831115610ed35760405162461bcd60e51b815260206004820152602a60248201527f53584c61756e63687061643a20496e73756666696369656e7420746f6b656e2060448201526930b63637b1b0ba34b7b760b11b606482015260840161059e565b600281015460ff1615610f345760405162461bcd60e51b815260206004820152602360248201527f53584c61756e63687061643a20416c726561647920636c61696d656420746f6b604482015262656e7360e81b606482015260840161059e565b6000670de0b6b3a7640000836009015485610f4f91906123e4565b610f5991906123fb565b905083826000016000828254610f6f919061241d565b90915550506002830154670de0b6b3a764000090610f8d90866123e4565b610f9791906123fb565b826001016000828254610faa919061241d565b9091555050600183015460005460405163095ea7b360e01b81526001600160a01b0391821660048201526024810184905291169063095ea7b3906044016020604051808303816000875af1158015611006573d6000803e3d6000fd5b505050506040513d601f19601f8201168201806040525081019061102a9190612430565b506000546001840154604051630f71e33160e21b81523360048201526001600160a01b03918216602482015260448101849052911690633dc78cc490606401600060405180830381600087803b15801561108357600080fd5b505af1158015611097573d6000803e3d6000fd5b505060408051878152602081018590523393508892507fb6607a6569174538c36020af2dc564a162acc32fbd67ca467311c5a1eab967ff910160405180910390a3505050610a7f600160008051602061248c83398151915255565b6110fa611b02565b60008054906101000a90046001600160a01b03166001600160a01b03166314cf339e6040518163ffffffff1660e01b8152600401602060405180830381865afa15801561114b573d6000803e3d6000fd5b505050506040513d601f19601f8201168201806040525081019061116f9190612430565b6111c75760405162461bcd60e51b815260206004820152602360248201527f53584c61756e63687061643a2050726f746f636f6c206e6f742073687574206460448201526237bbb760e91b606482015260840161059e565b60008181526003602090815260408083203384529091529020600181015461123b5760405162461bcd60e51b815260206004820152602160248201527f53584c61756e63687061643a204e6f2066756e647320746f20776974686472616044820152607760f81b606482015260840161059e565b600281015460ff16156112905760405162461bcd60e51b815260206004820152601c60248201527f53584c61756e63687061643a20416c726561647920636c61696d656400000000604482015260640161059e565b6002810154610100900460ff16156112ea5760405162461bcd60e51b815260206004820152601d60248201527f53584c61756e63687061643a20416c726561647920726566756e646564000000604482015260640161059e565b6001810180546000918290559082556002808301805461ff001916610100179055805461134a9133918491908790811061132657611326612363565b600091825260209091206001600b9092020101546001600160a01b03169190611b1e565b505061079c600160008051602061248c83398151915255565b600061136d611b9c565b6001600160a01b038b166113c35760405162461bcd60e51b815260206004820152601a60248201527f53584c61756e63687061643a20496e76616c696420746f6b656e000000000000604482015260640161059e565b6001600160a01b038a166114195760405162461bcd60e51b815260206004820152601f60248201527f53584c61756e63687061643a20496e76616c696420737461626c65636f696e00604482015260640161059e565b8787116114765760405162461bcd60e51b815260206004820152602560248201527f53584c61756e63687061643a2053616c6520656e64206d757374206265203e206044820152641cdd185c9d60da1b606482015260840161059e565b60648511156114d75760405162461bcd60e51b815260206004820152602760248201527f53584c61756e63687061643a2050656e616c74792063616e6e6f7420657863656044820152666564203130302560c81b606482015260840161059e565b60026040518061018001604052808d6001600160a01b031681526020018c6001600160a01b031681526020018b81526020018a81526020018981526020018881526020018781526020018681526020018581526020018481526020016000151581526020016001151581525090806001815401808255809150506001900390600052602060002090600b020160009091909190915060008201518160000160006101000a8154816001600160a01b0302191690836001600160a01b0316021790555060208201518160010160006101000a8154816001600160a01b0302191690836001600160a01b0316021790555060408201518160020155606082015181600301556080820151816004015560a0820151816005015560c0820151816006015560e082015181600701556101008201518160080155610120820151816009015561014082015181600a0160006101000a81548160ff02191690831515021790555061016082015181600a0160016101000a81548160ff021916908315150217905550505060006001600280549050611670919061241d565b90508a6001600160a01b03168c6001600160a01b0316827f63c738eab8af086fc68597f201fa18e9120a2765e416fba10dc085aa441d38e160405160405180910390a49b9a5050505050505050505050565b6116ca611abf565b6116d2611b02565b60025481106116f35760405162461bcd60e51b815260040161059e90612320565b60006002828154811061170857611708612363565b60009182526020909120600b90910201600a81015490915060ff161561177f5760405162461bcd60e51b815260206004820152602660248201527f53584c61756e63687061643a2050726f6a65637420616c72656164792066696e604482015265185b1a5e995960d21b606482015260840161059e565b6000828152600360209081526040808320338452909152902060018101546117e95760405162461bcd60e51b815260206004820152601f60248201527f53584c61756e63687061643a204e6f207061696420616c6c6f636174696f6e00604482015260640161059e565b600281015460ff161561184e5760405162461bcd60e51b815260206004820152602760248201527f53584c61756e63687061643a20416c6c6f636174696f6e20616c72656164792060448201526618db185a5b595960ca1b606482015260840161059e565b6002810154610100900460ff16156118a85760405162461bcd60e51b815260206004820152601d60248201527f53584c61756e63687061643a20416c726561647920726566756e646564000000604482015260640161059e565b6001818101805460008085559182905560028401805461ff00191661010017905591840154905460405163095ea7b360e01b81526001600160a01b0391821660048201526024810184905291169063095ea7b3906044016020604051808303816000875af115801561191e573d6000803e3d6000fd5b505050506040513d601f19601f820116820180604052508101906119429190612430565b506000546001840154604051630f71e33160e21b81523360048201526001600160a01b03918216602482015260448101849052911690633dc78cc490606401600060405180830381600087803b15801561199b57600080fd5b505af11580156119af573d6000803e3d6000fd5b50506040518381523392508691507f7ca5472b7ea78c2c0141c5a12ee6d170cf4ce8ed06be3d22c8252ddfc7a6a2c49060200160405180910390a350505061079c600160008051602061248c83398151915255565b611a0c611b9c565b6001600160a01b038116611a625760405162461bcd60e51b815260206004820152601d60248201527f53584c61756e63687061643a20496e76616c6964207472656173757279000000604482015260640161059e565b600180546001600160a01b0319166001600160a01b0392909216919091179055565b611a8c611b9c565b6001600160a01b038116611ab657604051631e4fbdf760e01b81526000600482015260240161059e565b61079c81611daa565b7fcd5ed15c6e187e77e9aee88184c21f4f2182ab5827cb3b7e07fbedcd63f033005460ff1615610ab25760405163d93c066560e01b815260040160405180910390fd5b611b0a611e1b565b600260008051602061248c83398151915255565b611b2b8383836001611e4b565b611b5357604051635274afe760e01b81526001600160a01b038416600482015260240161059e565b505050565b6000807ff0c57e16840df040f15088dc2f81fe391c3923bec73e23a9662efc9c229c6a005b92915050565b611b8b611eb1565b61079c81611ed6565b610ab2611eb1565b33611bce7f9016d09d72d40fdae2fd8ceac6b6234c7706214fd39c1cd1e609a0528c199300546001600160a01b031690565b6001600160a01b031614610ab25760405163118cdaa760e01b815233600482015260240161059e565b306001600160a01b037f0000000000000000000000000000000000000000000000000000000000000000161480611c7e57507f00000000000000000000000000000000000000000000000000000000000000006001600160a01b0316611c7260008051602061246c833981519152546001600160a01b031690565b6001600160a01b031614155b15610ab25760405163703e46dd60e11b815260040160405180910390fd5b61079c611b9c565b816001600160a01b03166352d1902d6040518163ffffffff1660e01b8152600401602060405180830381865afa925050508015611cfe575060408051601f3d908101601f19168201909252611cfb91810190612452565b60015b611d2657604051634c9c8ce360e01b81526001600160a01b038316600482015260240161059e565b60008051602061246c8339815191528114611d5757604051632a87526960e21b81526004810182905260240161059e565b611b538383611ede565b306001600160a01b037f00000000000000000000000000000000000000000000000000000000000000001614610ab25760405163703e46dd60e11b815260040160405180910390fd5b7f9016d09d72d40fdae2fd8ceac6b6234c7706214fd39c1cd1e609a0528c19930080546001600160a01b031981166001600160a01b03848116918217845560405192169182907f8be0079c531659141344cd1fd0a4f28419497f9722a3daafe3b4186f6b6457e090600090a3505050565b60008051602061248c83398151915254600203610ab257604051633ee5aeb560e01b815260040160405180910390fd5b60405163a9059cbb60e01b60008181526001600160a01b038616600452602485905291602083604481808b5af192506001600051148316611ea5578383151615611e98573d6000823e3d81fd5b6000873b113d1516831692505b60405250949350505050565b611eb9611f34565b610ab257604051631afcd79f60e31b815260040160405180910390fd5b611a8c611eb1565b611ee782611f4e565b6040516001600160a01b038316907fbc7cd75a20ee27fd9adebab32041f755214dbc6bffa90cc0225b39da2e5c2d3b90600090a2805115611f2c57611b538282611fb3565b610a7f612056565b6000611f3e611b58565b54600160401b900460ff16919050565b806001600160a01b03163b600003611f8457604051634c9c8ce360e01b81526001600160a01b038216600482015260240161059e565b60008051602061246c83398151915280546001600160a01b0319166001600160a01b0392909216919091179055565b60606000611fc18484612075565b9050808015611fe4575060003d1180611fe457506000846001600160a01b03163b115b15611ff957611ff161208a565b915050611b7d565b801561202357604051639996b31560e01b81526001600160a01b038516600482015260240161059e565b3d15612036576120316120a4565b61204f565b60405163d6bda27560e01b815260040160405180910390fd5b5092915050565b3415610ab25760405163b398979f60e01b815260040160405180910390fd5b6000806000835160208501865af49392505050565b6040513d81523d6000602083013e3d602001810160405290565b6040513d6000823e3d81fd5b6000602082840312156120c257600080fd5b5035919050565b80356001600160a01b03811681146120e057600080fd5b919050565b600080604083850312156120f857600080fd5b82359150612108602084016120c9565b90509250929050565b6000806040838503121561212457600080fd5b61212d836120c9565b9150612108602084016120c9565b634e487b7160e01b600052604160045260246000fd5b6000806040838503121561216457600080fd5b61216d836120c9565b9150602083013567ffffffffffffffff8082111561218a57600080fd5b818501915085601f83011261219e57600080fd5b8135818111156121b0576121b061213b565b604051601f8201601f19908116603f011681019083821181831017156121d8576121d861213b565b816040528281528860208487010111156121f157600080fd5b8260208601602083013760006020848301015280955050505050509250929050565b6000806040838503121561222657600080fd5b50508035926020909101359150565b6000806000806000806000806000806101408b8d03121561225557600080fd5b61225e8b6120c9565b995061226c60208c016120c9565b999c999b505050506040880135976060810135976080820135975060a0820135965060c0820135955060e082013594506101008201359350610120909101359150565b60006020808352835180602085015260005b818110156122dd578581018301518582016040015282016122c1565b506000604082860101526040601f19601f8301168501019250505092915050565b60006020828403121561231057600080fd5b612319826120c9565b9392505050565b60208082526023908201527f53584c61756e63687061643a2050726f6a65637420646f6573206e6f742065786040820152621a5cdd60ea1b606082015260800190565b634e487b7160e01b600052603260045260246000fd5b60208082526022908201527f53584c61756e63687061643a2050726f6a656374206e6f742066696e616c697a604082015261195960f21b606082015260800190565b634e487b7160e01b600052601160045260246000fd5b80820180821115611b7d57611b7d6123bb565b8082028115828204841417611b7d57611b7d6123bb565b60008261241857634e487b7160e01b600052601260045260246000fd5b500490565b81810381811115611b7d57611b7d6123bb565b60006020828403121561244257600080fd5b8151801515811461231957600080fd5b60006020828403121561246457600080fd5b505191905056fe360894a13ba1a3210667c828492db98dca3e2076cc3735a920a3ca505d382bbc9b779b17422d0df92223018b32b4d1fa46e071723d6817e2486d003becc55f00a2646970667358221220f09d5c1755fee6c847ce345646e0812a4d6a04bbffc1f1d67a2ec7dfa86924f064736f6c63430008180033",
  "linkReferences": {},
  "deployedLinkReferences": {}
}