{
  "_format": "hh-sol-artifact-1",
  "contractName": "SXLaunchpad",
  "sourceName": "contracts/SXLaunchpad.sol",
  "abi": [
    {
      "inputs": [],
      "stateMutability": "nonpayable",
      "type": "constructor"
    },
    {
      "inputs": [
        {
          "internalType": "address",
          "name": "target",
          "type": "address"
        }
      ],
      "name": "AddressEmptyCode",
      "type": "error"
    },
    {
      "inputs": [
        {
          "internalType": "address",
          "name": "implementation",
          "type": "address"
        }
      ],
      "name": "ERC1967InvalidImplementation",
      "type": "error"
    },
    {
      "inputs": [],
      "name": "ERC1967NonPayable",
      "type": "error"
    },
    {
      "inputs": [],
      "name": "EnforcedPause",
      "type": "error"
    },
    {
      "inputs": [],
      "name": "ExpectedPause",
      "type": "error"
    },
    {
      "inputs": [],
      "name": "FailedCall",
      "type": "error"
    },
    {
      "inputs": [],
      "name": "InvalidInitialization",
      "type": "error"
    },
    {
      "inputs": [],
      "name": "NotInitializing",
      "type": "error"
    },
    {
      "inputs": [
        {
          "internalType": "address",
          "name": "owner",
          "type": "address"
        }
      ],
      "name": "OwnableInvalidOwner",
      "type": "error"
    },
    {
      "inputs": [
        {
          "internalType": "address",
          "name": "account",
          "type": "address"
        }
      ],
      "name": "OwnableUnauthorizedAccount",
      "type": "error"
    },
    {
      "inputs": [],
      "name": "ReentrancyGuardReentrantCall",
      "type": "error"
    },
    {
      "inputs": [
        {
          "internalType": "address",
          "name": "token",
          "type": "address"
        }
      ],
      "name": "SafeERC20FailedOperation",
      "type": "error"
    },
    {
      "inputs": [],
      "name": "UUPSUnauthorizedCallContext",
      "type": "error"
    },
    {
      "inputs": [
        {
          "internalType": "bytes32",
          "name": "slot",
          "type": "bytes32"
        }
      ],
      "name": "UUPSUnsupportedProxiableUUID",
      "type": "error"
    },
    {
      "anonymous": false,
      "inputs": [
        {
          "indexed": true,
          "internalType": "uint256",
          "name": "projectId",
          "type": "uint256"
        },
        {
          "indexed": true,
          "internalType": "address",
          "name": "user",
          "type": "address"
        },
        {
          "indexed": false,
          "internalType": "uint256",
          "name": "tokenAmount",
          "type": "uint256"
        },
        {
          "indexed": false,
          "internalType": "uint256",
          "name": "stablecoinReturned",
          "type": "uint256"
        }
      ],
      "name": "BuybackExecuted",
      "type": "event"
    },
    {
      "anonymous": false,
      "inputs": [
        {
          "indexed": false,
          "internalType": "uint64",
          "name": "version",
          "type": "uint64"
        }
      ],
      "name": "Initialized",
      "type": "event"
    },
    {
      "anonymous": false,
      "inputs": [
        {
          "indexed": true,
          "internalType": "address",
          "name": "previousOwner",
          "type": "address"
        },
        {
          "indexed": true,
          "internalType": "address",
          "name": "newOwner",
          "type": "address"
        }
      ],
      "name": "OwnershipTransferred",
      "type": "event"
    },
    {
      "anonymous": false,
      "inputs": [
        {
          "indexed": false,
          "internalType": "address",
          "name": "account",
          "type": "address"
        }
      ],
      "name": "Paused",
      "type": "event"
    },
    {
      "anonymous": false,
      "inputs": [
        {
          "indexed": true,
          "internalType": "uint256",
          "name": "projectId",
          "type": "uint256"
        },
        {
          "indexed": true,
          "internalType": "address",
          "name": "tokenAddress",
          "type": "address"
        },
        {
          "indexed": true,
          "internalType": "address",
          "name": "stablecoinAddress",
          "type": "address"
        }
      ],
      "name": "ProjectAdded",
      "type": "event"
    },
    {
      "anonymous": false,
      "inputs": [
        {
          "indexed": true,
          "internalType": "uint256",
          "name": "projectId",
          "type": "uint256"
        }
      ],
      "name": "ProjectFinalized",
      "type": "event"
    },
    {
      "anonymous": false,
      "inputs": [
        {
          "indexed": true,
          "internalType": "uint256",
          "name": "projectId",
          "type": "uint256"
        },
        {
          "indexed": true,
          "internalType": "address",
          "name": "user",
          "type": "address"
        },
        {
          "indexed": false,
          "internalType": "uint256",
          "name": "stablecoinAmount",
          "type": "uint256"
        }
      ],
      "name": "Refunded",
      "type": "event"
    },
    {
      "anonymous": false,
      "inputs": [
        {
          "indexed": true,
          "internalType": "uint256",
          "name": "projectId",
          "type": "uint256"
        },
        {
          "indexed": true,
          "internalType": "address",
          "name": "user",
          "type": "address"
        },
        {
          "indexed": false,
          "internalType": "uint256",
          "name": "amountSent",
          "type": "uint256"
        },
        {
          "indexed": false,
          "internalType": "uint256",
          "name": "amountForfeited",
          "type": "uint256"
        }
      ],
      "name": "TokensClaimed",
      "type": "event"
    },
    {
      "anonymous": false,
      "inputs": [
        {
          "indexed": true,
          "internalType": "uint256",
          "name": "projectId",
          "type": "uint256"
        },
        {
          "indexed": true,
          "internalType": "address",
          "name": "user",
          "type": "address"
        },
        {
          "indexed": false,
          "internalType": "uint256",
          "name": "tokenAmount",
          "type": "uint256"
        },
        {
          "indexed": false,
          "internalType": "uint256",
          "name": "stablecoinCost",
          "type": "uint256"
        }
      ],
      "name": "TokensPurchased",
      "type": "event"
    },
    {
      "anonymous": false,
      "inputs": [
        {
          "indexed": false,
          "internalType": "address",
          "name": "account",
          "type": "address"
        }
      ],
      "name": "Unpaused",
      "type": "event"
    },
    {
      "anonymous": false,
      "inputs": [
        {
          "indexed": true,
          "internalType": "address",
          "name": "implementation",
          "type": "address"
        }
      ],
      "name": "Upgraded",
      "type": "event"
    },
    {
      "inputs": [],
      "name": "UPGRADE_INTERFACE_VERSION",
      "outputs": [
        {
          "internalType": "string",
          "name": "",
          "type": "string"
        }
      ],
      "stateMutability": "view",
      "type": "function"
    },
    {
      "inputs": [
        {
          "internalType": "address",
          "name": "_tokenAddress",
          "type": "address"
        },
        {
          "internalType": "address",
          "name": "_stablecoinAddress",
          "type": "address"
        },
        {
          "internalType": "uint256",
          "name": "_price",
          "type": "uint256"
        },
        {
          "internalType": "uint256",
          "name": "_saleStart",
          "type": "uint256"
        },
        {
          "internalType": "uint256",
          "name": "_saleEnd",
          "type": "uint256"
        },
        {
          "internalType": "uint256",
          "name": "_lockPeriod",
          "type": "uint256"
        },
        {
          "internalType": "uint256",
          "name": "_penaltyPercent",
          "type": "uint256"
        },
        {
          "internalType": "uint256",
          "name": "_buybackStart",
          "type": "uint256"
        },
        {
          "internalType": "uint256",
          "name": "_buybackEnd",
          "type": "uint256"
        },
        {
          "internalType": "uint256",
          "name": "_buybackPrice",
          "type": "uint256"
        }
      ],
      "name": "addProject",
      "outputs": [
        {
          "internalType": "uint256",
          "name": "",
          "type": "uint256"
        }
      ],
      "stateMutability": "nonpayable",
      "type": "function"
    },
    {
      "inputs": [
        {
          "internalType": "uint256",
          "name": "",
          "type": "uint256"
        },
        {
          "internalType": "address",
          "name": "",
          "type": "address"
        }
      ],
      "name": "allocations",
      "outputs": [
        {
          "internalType": "uint256",
          "name": "tokenAllocation",
          "type": "uint256"
        },
        {
          "internalType": "uint256",
          "name": "stablecoinPaid",
          "type": "uint256"
        },
        {
          "internalType": "bool",
          "name": "claimed",
          "type": "bool"
        },
        {
          "internalType": "bool",
          "name": "refunded",
          "type": "bool"
        }
      ],
      "stateMutability": "view",
      "type": "function"
    },
    {
      "inputs": [
        {
          "internalType": "uint256",
          "name": "projectId",
          "type": "uint256"
        },
        {
          "internalType": "uint256",
          "name": "tokenAmount",
          "type": "uint256"
        }
      ],
      "name": "buyTokens",
      "outputs": [],
      "stateMutability": "nonpayable",
      "type": "function"
    },
    {
      "inputs": [
        {
          "internalType": "uint256",
          "name": "projectId",
          "type": "uint256"
        }
      ],
      "name": "claimTokens",
      "outputs": [],
      "stateMutability": "nonpayable",
      "type": "function"
    },
    {
      "inputs": [
        {
          "internalType": "uint256",
          "name": "projectId",
          "type": "uint256"
        }
      ],
      "name": "emergencyWithdrawProjectFunds",
      "outputs": [],
      "stateMutability": "nonpayable",
      "type": "function"
    },
    {
      "inputs": [
        {
          "internalType": "uint256",
          "name": "projectId",
          "type": "uint256"
        }
      ],
      "name": "finalizeProject",
      "outputs": [],
      "stateMutability": "nonpayable",
      "type": "function"
    },
    {
      "inputs": [],
      "name": "getProjectCount",
      "outputs": [
        {
          "internalType": "uint256",
          "name": "",
          "type": "uint256"
        }
      ],
      "stateMutability": "view",
      "type": "function"
    },
    {
      "inputs": [
        {
          "internalType": "address",
          "name": "_sxua",
          "type": "address"
        },
        {
          "internalType": "address",
          "name": "_sxmm",
          "type": "address"
        },
        {
          "internalType": "address",
          "name": "_ptfReceiver",
          "type": "address"
        }
      ],
      "name": "initialize",
      "outputs": [],
      "stateMutability": "nonpayable",
      "type": "function"
    },
    {
      "inputs": [],
      "name": "owner",
      "outputs": [
        {
          "internalType": "address",
          "name": "",
          "type": "address"
        }
      ],
      "stateMutability": "view",
      "type": "function"
    },
    {
      "inputs": [],
      "name": "paused",
      "outputs": [
        {
          "internalType": "bool",
          "name": "",
          "type": "bool"
        }
      ],
      "stateMutability": "view",
      "type": "function"
    },
    {
      "inputs": [
        {
          "internalType": "uint256",
          "name": "",
          "type": "uint256"
        }
      ],
      "name": "projects",
      "outputs": [
        {
          "internalType": "address",
          "name": "tokenAddress",
          "type": "address"
        },
        {
          "internalType": "address",
          "name": "stablecoinAddress",
          "type": "address"
        },
        {
          "internalType": "uint256",
          "name": "price",
          "type": "uint256"
        },
        {
          "internalType": "uint256",
          "name": "saleStart",
          "type": "uint256"
        },
        {
          "internalType": "uint256",
          "name": "saleEnd",
          "type": "uint256"
        },
        {
          "internalType": "uint256",
          "name": "lockPeriod",
          "type": "uint256"
        },
        {
          "internalType": "uint256",
          "name": "penaltyPercent",
          "type": "uint256"
        },
        {
          "internalType": "uint256",
          "name": "buybackStart",
          "type": "uint256"
        },
        {
          "internalType": "uint256",
          "name": "buybackEnd",
          "type": "uint256"
        },
        {
          "internalType": "uint256",
          "name": "buybackPrice",
          "type": "uint256"
        },
        {
          "internalType": "bool",
          "name": "finalized",
          "type": "bool"
        },
        {
          "internalType": "bool",
          "name": "active",
          "type": "bool"
        }
      ],
      "stateMutability": "view",
      "type": "function"
    },
    {
      "inputs": [],
      "name": "proxiableUUID",
      "outputs": [
        {
          "internalType": "bytes32",
          "name": "",
          "type": "bytes32"
        }
      ],
      "stateMutability": "view",
      "type": "function"
    },
    {
      "inputs": [],
      "name": "ptfReceiver",
      "outputs": [
        {
          "internalType": "address",
          "name": "",
          "type": "address"
        }
      ],
      "stateMutability": "view",
      "type": "function"
    },
    {
      "inputs": [],
      "name": "renounceOwnership",
      "outputs": [],
      "stateMutability": "nonpayable",
      "type": "function"
    },
    {
      "inputs": [
        {
          "internalType": "uint256",
          "name": "projectId",
          "type": "uint256"
        },
        {
          "internalType": "uint256",
          "name": "tokenAmount",
          "type": "uint256"
        }
      ],
      "name": "requestBuyback",
      "outputs": [],
      "stateMutability": "nonpayable",
      "type": "function"
    },
    {
      "inputs": [
        {
          "internalType": "uint256",
          "name": "projectId",
          "type": "uint256"
        }
      ],
      "name": "requestRefund",
      "outputs": [],
      "stateMutability": "nonpayable",
      "type": "function"
    },
    {
      "inputs": [
        {
          "internalType": "address",
          "name": "_sxmm",
          "type": "address"
        }
      ],
      "name": "setSxmm",
      "outputs": [],
      "stateMutability": "nonpayable",
      "type": "function"
    },
    {
      "inputs": [],
      "name": "sxmm",
      "outputs": [
        {
          "internalType": "address",
          "name": "",
          "type": "address"
        }
      ],
      "stateMutability": "view",
      "type": "function"
    },
    {
      "inputs": [],
      "name": "sxua",
      "outputs": [
        {
          "internalType": "contract ISXUA",
          "name": "",
          "type": "address"
        }
      ],
      "stateMutability": "view",
      "type": "function"
    },
    {
      "inputs": [
        {
          "internalType": "address",
          "name": "newOwner",
          "type": "address"
        }
      ],
      "name": "transferOwnership",
      "outputs": [],
      "stateMutability": "nonpayable",
      "type": "function"
    },
    {
      "inputs": [
        {
          "internalType": "address",
          "name": "newImplementation",
          "type": "address"
        },
        {
          "internalType": "bytes",
          "name": "data",
          "type": "bytes"
        }
      ],
      "name": "upgradeToAndCall",
      "outputs": [],
      "stateMutability": "payable",
      "type": "function"
    }
  ],
  "bytecode": "0x60a0604052306080523480156200001557600080fd5b5060017f9b779b17422d0df92223018b32b4d1fa46e071723d6817e2486d003becc55f0055620000446200004a565b620000fe565b7ff0c57e16840df040f15088dc2f81fe391c3923bec73e23a9662efc9c229c6a00805468010000000000000000900460ff16156200009b5760405163f92ee8a960e01b815260040160405180910390fd5b80546001600160401b0390811614620000fb5780546001600160401b0319166001600160401b0390811782556040519081527fc7f505b2f371ae2175ee4913f4499e1f2633a7b5936321eed1cdaeb6115181d29060200160405180910390a15b50565b6080516129dc6200012860003960008181611fdb01528181612004015261214501526129dc6000f3fe6080604052600436106101355760003560e01c806385d2e16d116100ab578063ad3cb1cc1161006f578063ad3cb1cc14610437578063c0c53b8b14610475578063c7ae483e14610495578063cb3c6fac146104b5578063dd48bb49146104d5578063f2fde38b146104f557600080fd5b806385d2e16d146103625780638da5cb5b1461039a57806392a00e5f146103d7578063a2d4d330146103f7578063a4b2409e1461041757600080fd5b80634f1ef286116100fd5780634f1ef286146102a357806352d1902d146102b65780635c975abb146102cb578063715018a61461030d5780637975ce281461032257806381f112a51461034257600080fd5b8063107046bd1461013a5780631c3a964f146101c75780633bcff3b01461024257806346e04a2f146102615780634d798de514610283575b600080fd5b34801561014657600080fd5b5061015a61015536600461256e565b610515565b604080516001600160a01b039d8e1681529c909b1660208d0152998b019890985260608a0196909652608089019490945260a088019290925260c087015260e086015261010085015261012084015215156101408301521515610160820152610180015b60405180910390f35b3480156101d357600080fd5b5061021a6101e23660046125a3565b600460209081526000928352604080842090915290825290208054600182015460029092015490919060ff8082169161010090041684565b60408051948552602085019390935290151591830191909152151560608201526080016101be565b34801561024e57600080fd5b506003545b6040519081526020016101be565b34801561026d57600080fd5b5061028161027c36600461256e565b610598565b005b34801561028f57600080fd5b5061028161029e36600461256e565b6108f8565b6102816102b13660046125e5565b6109dc565b3480156102c257600080fd5b506102536109fb565b3480156102d757600080fd5b507fcd5ed15c6e187e77e9aee88184c21f4f2182ab5827cb3b7e07fbedcd63f033005460ff1660405190151581526020016101be565b34801561031957600080fd5b50610281610a18565b34801561032e57600080fd5b5061028161033d3660046126a7565b610a2c565b34801561034e57600080fd5b5061028161035d3660046126a7565b610d23565b34801561036e57600080fd5b50600054610382906001600160a01b031681565b6040516001600160a01b0390911681526020016101be565b3480156103a657600080fd5b507f9016d09d72d40fdae2fd8ceac6b6234c7706214fd39c1cd1e609a0528c199300546001600160a01b0316610382565b3480156103e357600080fd5b506102816103f236600461256e565b61117d565b34801561040357600080fd5b506102536104123660046126c9565b6113ef565b34801561042357600080fd5b5061028161043236600461256e565b61174e565b34801561044357600080fd5b50610468604051806040016040528060058152602001640352e302e360dc1b81525081565b6040516101be9190612743565b34801561048157600080fd5b50610281610490366004612792565b611b4a565b3480156104a157600080fd5b50600254610382906001600160a01b031681565b3480156104c157600080fd5b50600154610382906001600160a01b031681565b3480156104e157600080fd5b506102816104f03660046127d5565b611d95565b34801561050157600080fd5b506102816105103660046127d5565b611e11565b6003818154811061052557600080fd5b60009182526020909120600b9091020180546001820154600283015460038401546004850154600586015460068701546007880154600889015460098a0154600a909a01546001600160a01b03998a169b5097909816989597949693959294919390929060ff808216916101009004168c565b6105a0611e4c565b6105a8611e8f565b60035481106105d25760405162461bcd60e51b81526004016105c9906127f7565b60405180910390fd5b6000600382815481106105e7576105e761283a565b60009182526020909120600b90910201600a81015490915060ff1661061e5760405162461bcd60e51b81526004016105c990612850565b6000828152600460209081526040808320338452909152902080546106855760405162461bcd60e51b815260206004820152601f60248201527f53584c61756e63687061643a204e6f20746f6b656e7320746f20636c61696d0060448201526064016105c9565b600281015460ff16156106da5760405162461bcd60e51b815260206004820152601c60248201527f53584c61756e63687061643a20416c726561647920636c61696d65640000000060448201526064016105c9565b60028101805460ff19166001179055805460058301546004840154600091610701916128a8565b42101561072757606484600601548361071a91906128bb565b61072491906128d2565b90505b600061073382846128f4565b905060006064670de0b6b3a764000087600201548461075291906128bb565b61075c91906128d2565b61076691906128d2565b905080156107fa57600054600187015460405163daa1e1fb60e01b81526001600160a01b039283169263daa1e1fb926107a9923392909116908690600401612907565b600060405180830381600087803b1580156107c357600080fd5b505af11580156107d7573d6000803e3d6000fd5b505060025460018901546107fa93506001600160a01b0390811692501683611eab565b8554610810906001600160a01b03163384611eab565b821561089a576001548654610832916001600160a01b03918216911685611ee5565b6001548654604051632f9b42ad60e21b81526001600160a01b0391821660048201526024810186905291169063be6d0ab490604401600060405180830381600087803b15801561088157600080fd5b505af1158015610895573d6000803e3d6000fd5b505050505b6040805183815260208101859052339189917fa99e56daf7b172944ed4142b79056ff30b8c461557290c222948987fede4389a91015b60405180910390a35050505050506108f5600160008051602061298783398151915255565b50565b610900611f75565b60035481106109215760405162461bcd60e51b81526004016105c9906127f7565b6000600382815481106109365761093661283a565b60009182526020909120600b90910201600a81015490915060ff161561099e5760405162461bcd60e51b815260206004820152601e60248201527f53584c61756e63687061643a20416c72656164792066696e616c697a6564000060448201526064016105c9565b600a8101805460ff1916600117905560405182907fd8b700ef24f01ef5a14b4c0145086225b57b6069d711a12ff535efa2b3a7c6e990600090a25050565b6109e4611fd0565b6109ed82612075565b6109f7828261207d565b5050565b6000610a0561213a565b5060008051602061296783398151915290565b610a20611f75565b610a2a6000612183565b565b610a34611e4c565b610a3c611e8f565b6003548210610a5d5760405162461bcd60e51b81526004016105c9906127f7565b600060038381548110610a7257610a7261283a565b90600052602060002090600b0201905080600a0160019054906101000a900460ff16610ae05760405162461bcd60e51b815260206004820152601f60248201527f53584c61756e63687061643a2050726f6a656374206e6f74206163746976650060448201526064016105c9565b80600301544210158015610af8575080600401544211155b610b445760405162461bcd60e51b815260206004820152601c60248201527f53584c61756e63687061643a2053616c65206e6f74206163746976650000000060448201526064016105c9565b60008211610b945760405162461bcd60e51b815260206004820152601f60248201527f53584c61756e63687061643a20416d6f756e74206d757374206265203e20300060448201526064016105c9565b6000670de0b6b3a7640000826002015484610baf91906128bb565b610bb991906128d2565b905060006064610bca8360016128bb565b610bd491906128d2565b60005460018501549192506001600160a01b039081169163daa1e1fb91339116610bfe85876128a8565b6040518463ffffffff1660e01b8152600401610c1c93929190612907565b600060405180830381600087803b158015610c3657600080fd5b505af1158015610c4a573d6000803e3d6000fd5b50506002546001860154610c6d93506001600160a01b0390811692501683611eab565b600085815260046020908152604080832033845290915281208054869290610c969084906128a8565b9091555050600085815260046020908152604080832033845290915281206001018054849290610cc79084906128a8565b90915550506040805185815260208101849052339187917fe8d7e55108ae7ddb60173461d2950c7a8e22a7ac7f442825564fe84c8c6f9a38910160405180910390a35050506109f7600160008051602061298783398151915255565b610d2b611e4c565b610d33611e8f565b6003548210610d545760405162461bcd60e51b81526004016105c9906127f7565b600060038381548110610d6957610d6961283a565b60009182526020909120600b90910201600a81015490915060ff16610da05760405162461bcd60e51b81526004016105c990612850565b80600701544210158015610db8575080600801544211155b610e0f5760405162461bcd60e51b815260206004820152602260248201527f53584c61756e63687061643a204275796261636b2077696e646f7720636c6f73604482015261195960f21b60648201526084016105c9565b600083815260046020908152604080832033845290915290208054831115610e8c5760405162461bcd60e51b815260206004820152602a60248201527f53584c61756e63687061643a20496e73756666696369656e7420746f6b656e2060448201526930b63637b1b0ba34b7b760b11b60648201526084016105c9565b600281015460ff1615610eed5760405162461bcd60e51b815260206004820152602360248201527f53584c61756e63687061643a20416c726561647920636c61696d656420746f6b604482015262656e7360e81b60648201526084016105c9565b6000670de0b6b3a7640000836009015485610f0891906128bb565b610f1291906128d2565b905083826000016000828254610f2891906128f4565b90915550506002830154670de0b6b3a764000090610f4690866128bb565b610f5091906128d2565b826001016000828254610f6391906128f4565b90915550600090506064610f788360016128bb565b610f8291906128d2565b90506000610f9082846128f4565b600186015460005460405163095ea7b360e01b81526001600160a01b03918216600482015260248101849052929350169063095ea7b3906044016020604051808303816000875af1158015610fe9573d6000803e3d6000fd5b505050506040513d601f19601f8201168201806040525081019061100d919061292b565b506000546001860154604051630f71e33160e21b81526001600160a01b0392831692633dc78cc492611049923392909116908690600401612907565b600060405180830381600087803b15801561106357600080fd5b505af1158015611077573d6000803e3d6000fd5b5050600254600188015461109a93506001600160a01b0390811692501684611eab565b85156111245760015485546110bc916001600160a01b03918216911688611ee5565b6001548554604051632f9b42ad60e21b81526001600160a01b0391821660048201526024810189905291169063be6d0ab490604401600060405180830381600087803b15801561110b57600080fd5b505af115801561111f573d6000803e3d6000fd5b505050505b6040805187815260208101859052339189917fb6607a6569174538c36020af2dc564a162acc32fbd67ca467311c5a1eab967ff910160405180910390a350505050506109f7600160008051602061298783398151915255565b611185611e8f565b60008054906101000a90046001600160a01b03166001600160a01b03166314cf339e6040518163ffffffff1660e01b8152600401602060405180830381865afa1580156111d6573d6000803e3d6000fd5b505050506040513d601f19601f820116820180604052508101906111fa919061292b565b6112525760405162461bcd60e51b815260206004820152602360248201527f53584c61756e63687061643a2050726f746f636f6c206e6f742073687574206460448201526237bbb760e91b60648201526084016105c9565b6000818152600460209081526040808320338452909152902060018101546112c65760405162461bcd60e51b815260206004820152602160248201527f53584c61756e63687061643a204e6f2066756e647320746f20776974686472616044820152607760f81b60648201526084016105c9565b600281015460ff161561131b5760405162461bcd60e51b815260206004820152601c60248201527f53584c61756e63687061643a20416c726561647920636c61696d65640000000060448201526064016105c9565b6002810154610100900460ff16156113755760405162461bcd60e51b815260206004820152601d60248201527f53584c61756e63687061643a20416c726561647920726566756e64656400000060448201526064016105c9565b60018101805460009182905590825560028201805461ff001916610100179055600380546113d6913391849190879081106113b2576113b261283a565b600091825260209091206001600b9092020101546001600160a01b03169190611eab565b50506108f5600160008051602061298783398151915255565b60006113f9611f75565b6001600160a01b038b1661144f5760405162461bcd60e51b815260206004820152601a60248201527f53584c61756e63687061643a20496e76616c696420746f6b656e00000000000060448201526064016105c9565b6001600160a01b038a166114a55760405162461bcd60e51b815260206004820152601f60248201527f53584c61756e63687061643a20496e76616c696420737461626c65636f696e0060448201526064016105c9565b8787116115025760405162461bcd60e51b815260206004820152602560248201527f53584c61756e63687061643a2053616c6520656e64206d757374206265203e206044820152641cdd185c9d60da1b60648201526084016105c9565b60648511156115635760405162461bcd60e51b815260206004820152602760248201527f53584c61756e63687061643a2050656e616c74792063616e6e6f7420657863656044820152666564203130302560c81b60648201526084016105c9565b60036040518061018001604052808d6001600160a01b031681526020018c6001600160a01b031681526020018b81526020018a81526020018981526020018881526020018781526020018681526020018581526020018481526020016000151581526020016001151581525090806001815401808255809150506001900390600052602060002090600b020160009091909190915060008201518160000160006101000a8154816001600160a01b0302191690836001600160a01b0316021790555060208201518160010160006101000a8154816001600160a01b0302191690836001600160a01b0316021790555060408201518160020155606082015181600301556080820151816004015560a0820151816005015560c0820151816006015560e082015181600701556101008201518160080155610120820151816009015561014082015181600a0160006101000a81548160ff02191690831515021790555061016082015181600a0160016101000a81548160ff0219169083151502179055505050600060016003805490506116fc91906128f4565b90508a6001600160a01b03168c6001600160a01b0316827f63c738eab8af086fc68597f201fa18e9120a2765e416fba10dc085aa441d38e160405160405180910390a49b9a5050505050505050505050565b611756611e4c565b61175e611e8f565b600354811061177f5760405162461bcd60e51b81526004016105c9906127f7565b6000600382815481106117945761179461283a565b60009182526020909120600b90910201600a81015490915060ff161561180b5760405162461bcd60e51b815260206004820152602660248201527f53584c61756e63687061643a2050726f6a65637420616c72656164792066696e604482015265185b1a5e995960d21b60648201526084016105c9565b6000828152600460209081526040808320338452909152902060018101546118755760405162461bcd60e51b815260206004820152601f60248201527f53584c61756e63687061643a204e6f207061696420616c6c6f636174696f6e0060448201526064016105c9565b600281015460ff16156118da5760405162461bcd60e51b815260206004820152602760248201527f53584c61756e63687061643a20416c6c6f636174696f6e20616c72656164792060448201526618db185a5b595960ca1b60648201526084016105c9565b6002810154610100900460ff16156119345760405162461bcd60e51b815260206004820152601d60248201527f53584c61756e63687061643a20416c726561647920726566756e64656400000060448201526064016105c9565b60018082018054835460008086559283905560028501805461ff001916610100179055909290919060649061196a9085906128bb565b61197491906128d2565b9050600061198282856128f4565b600187015460005460405163095ea7b360e01b81526001600160a01b03918216600482015260248101849052929350169063095ea7b3906044016020604051808303816000875af11580156119db573d6000803e3d6000fd5b505050506040513d601f19601f820116820180604052508101906119ff919061292b565b506000546001870154604051630f71e33160e21b81526001600160a01b0392831692633dc78cc492611a3b923392909116908690600401612907565b600060405180830381600087803b158015611a5557600080fd5b505af1158015611a69573d6000803e3d6000fd5b50506002546001890154611a8c93506001600160a01b0390811692501684611eab565b8215611b16576001548654611aae916001600160a01b03918216911685611ee5565b6001548654604051632f9b42ad60e21b81526001600160a01b0391821660048201526024810186905291169063be6d0ab490604401600060405180830381600087803b158015611afd57600080fd5b505af1158015611b11573d6000803e3d6000fd5b505050505b604051848152339088907f7ca5472b7ea78c2c0141c5a12ee6d170cf4ce8ed06be3d22c8252ddfc7a6a2c4906020016108d0565b6000611b546121f4565b805490915060ff600160401b820416159067ffffffffffffffff16600081158015611b7c5750825b905060008267ffffffffffffffff166001148015611b995750303b155b905081158015611ba7575080155b15611bc55760405163f92ee8a960e01b815260040160405180910390fd5b845467ffffffffffffffff191660011785558315611bef57845460ff60401b1916600160401b1785555b611bf83361221f565b611c00612230565b6001600160a01b038816611c565760405162461bcd60e51b815260206004820152601960248201527f53584c61756e63687061643a20496e76616c696420535855410000000000000060448201526064016105c9565b6001600160a01b038716611ca85760405162461bcd60e51b815260206004820152601960248201527853584c61756e63687061643a20496e76616c69642053584d4d60381b60448201526064016105c9565b6001600160a01b038616611d085760405162461bcd60e51b815260206004820152602160248201527f53584c61756e63687061643a20496e76616c69642050544620726563656976656044820152603960f91b60648201526084016105c9565b600080546001600160a01b03808b166001600160a01b031992831617909255600180548a841690831617905560028054928916929091169190911790558315611d8b57845460ff60401b19168555604051600181527fc7f505b2f371ae2175ee4913f4499e1f2633a7b5936321eed1cdaeb6115181d29060200160405180910390a15b5050505050505050565b611d9d611f75565b6001600160a01b038116611def5760405162461bcd60e51b815260206004820152601960248201527853584c61756e63687061643a20496e76616c69642053584d4d60381b60448201526064016105c9565b600180546001600160a01b0319166001600160a01b0392909216919091179055565b611e19611f75565b6001600160a01b038116611e4357604051631e4fbdf760e01b8152600060048201526024016105c9565b6108f581612183565b7fcd5ed15c6e187e77e9aee88184c21f4f2182ab5827cb3b7e07fbedcd63f033005460ff1615610a2a5760405163d93c066560e01b815260040160405180910390fd5b611e97612238565b600260008051602061298783398151915255565b611eb88383836001612268565b611ee057604051635274afe760e01b81526001600160a01b03841660048201526024016105c9565b505050565b604051636eb1769f60e11b81523060048201526001600160a01b0383811660248301526000919085169063dd62ed3e90604401602060405180830381865afa158015611f35573d6000803e3d6000fd5b505050506040513d601f19601f82011682018060405250810190611f59919061294d565b9050611f6f8484611f6a85856128a8565b6122ce565b50505050565b33611fa77f9016d09d72d40fdae2fd8ceac6b6234c7706214fd39c1cd1e609a0528c199300546001600160a01b031690565b6001600160a01b031614610a2a5760405163118cdaa760e01b81523360048201526024016105c9565b306001600160a01b037f000000000000000000000000000000000000000000000000000000000000000016148061205757507f00000000000000000000000000000000000000000000000000000000000000006001600160a01b031661204b600080516020612967833981519152546001600160a01b031690565b6001600160a01b031614155b15610a2a5760405163703e46dd60e11b815260040160405180910390fd5b6108f5611f75565b816001600160a01b03166352d1902d6040518163ffffffff1660e01b8152600401602060405180830381865afa9250505080156120d7575060408051601f3d908101601f191682019092526120d49181019061294d565b60015b6120ff57604051634c9c8ce360e01b81526001600160a01b03831660048201526024016105c9565b600080516020612967833981519152811461213057604051632a87526960e21b8152600481018290526024016105c9565b611ee08383612322565b306001600160a01b037f00000000000000000000000000000000000000000000000000000000000000001614610a2a5760405163703e46dd60e11b815260040160405180910390fd5b7f9016d09d72d40fdae2fd8ceac6b6234c7706214fd39c1cd1e609a0528c19930080546001600160a01b031981166001600160a01b03848116918217845560405192169182907f8be0079c531659141344cd1fd0a4f28419497f9722a3daafe3b4186f6b6457e090600090a3505050565b6000807ff0c57e16840df040f15088dc2f81fe391c3923bec73e23a9662efc9c229c6a005b92915050565b612227612378565b6108f58161239d565b610a2a612378565b60008051602061298783398151915254600203610a2a57604051633ee5aeb560e01b815260040160405180910390fd5b60405163a9059cbb60e01b60008181526001600160a01b038616600452602485905291602083604481808b5af1925060016000511483166122c25783831516156122b5573d6000823e3d81fd5b6000873b113d1516831692505b60405250949350505050565b6122db83838360006123a5565b611ee0576122ed8383600060016123a5565b61231557604051635274afe760e01b81526001600160a01b03841660048201526024016105c9565b611eb883838360016123a5565b61232b826123f2565b6040516001600160a01b038316907fbc7cd75a20ee27fd9adebab32041f755214dbc6bffa90cc0225b39da2e5c2d3b90600090a280511561237057611ee08282612457565b6109f76124fa565b612380612519565b610a2a57604051631afcd79f60e31b815260040160405180910390fd5b611e19612378565b60405163095ea7b360e01b60008181526001600160a01b038616600452602485905291602083604481808b5af1925060016000511483166122c25783831516156122b5573d6000823e3d81fd5b806001600160a01b03163b60000361242857604051634c9c8ce360e01b81526001600160a01b03821660048201526024016105c9565b60008051602061296783398151915280546001600160a01b0319166001600160a01b0392909216919091179055565b606060006124658484612533565b9050808015612488575060003d118061248857506000846001600160a01b03163b115b1561249d57612495612548565b915050612219565b80156124c757604051639996b31560e01b81526001600160a01b03851660048201526024016105c9565b3d156124da576124d5612562565b6124f3565b60405163d6bda27560e01b815260040160405180910390fd5b5092915050565b3415610a2a5760405163b398979f60e01b815260040160405180910390fd5b60006125236121f4565b54600160401b900460ff16919050565b6000806000835160208501865af49392505050565b6040513d81523d6000602083013e3d602001810160405290565b6040513d6000823e3d81fd5b60006020828403121561258057600080fd5b5035919050565b80356001600160a01b038116811461259e57600080fd5b919050565b600080604083850312156125b657600080fd5b823591506125c660208401612587565b90509250929050565b634e487b7160e01b600052604160045260246000fd5b600080604083850312156125f857600080fd5b61260183612587565b9150602083013567ffffffffffffffff8082111561261e57600080fd5b818501915085601f83011261263257600080fd5b813581811115612644576126446125cf565b604051601f8201601f19908116603f0116810190838211818310171561266c5761266c6125cf565b8160405282815288602084870101111561268557600080fd5b8260208601602083013760006020848301015280955050505050509250929050565b600080604083850312156126ba57600080fd5b50508035926020909101359150565b6000806000806000806000806000806101408b8d0312156126e957600080fd5b6126f28b612587565b995061270060208c01612587565b999c999b505050506040880135976060810135976080820135975060a0820135965060c0820135955060e082013594506101008201359350610120909101359150565b60006020808352835180602085015260005b8181101561277157858101830151858201604001528201612755565b506000604082860101526040601f19601f8301168501019250505092915050565b6000806000606084860312156127a757600080fd5b6127b084612587565b92506127be60208501612587565b91506127cc60408501612587565b90509250925092565b6000602082840312156127e757600080fd5b6127f082612587565b9392505050565b60208082526023908201527f53584c61756e63687061643a2050726f6a65637420646f6573206e6f742065786040820152621a5cdd60ea1b606082015260800190565b634e487b7160e01b600052603260045260246000fd5b60208082526022908201527f53584c61756e63687061643a2050726f6a656374206e6f742066696e616c697a604082015261195960f21b606082015260800190565b634e487b7160e01b600052601160045260246000fd5b8082018082111561221957612219612892565b808202811582820484141761221957612219612892565b6000826128ef57634e487b7160e01b600052601260045260246000fd5b500490565b8181038181111561221957612219612892565b6001600160a01b039384168152919092166020820152604081019190915260600190565b60006020828403121561293d57600080fd5b815180151581146127f057600080fd5b60006020828403121561295f57600080fd5b505191905056fe360894a13ba1a3210667c828492db98dca3e2076cc3735a920a3ca505d382bbc9b779b17422d0df92223018b32b4d1fa46e071723d6817e2486d003becc55f00a264697066735822122000994fe9b94817e39914fcca5a1400d7dd5e052e302360e0f50be003d56a0acd64736f6c63430008180033",
  "linkReferences": {},
  "deployedLinkReferences": {}
}